S01200006E63702D756172742D73772E733337A1
S315080040006073002075660208ED650208F16502080E
S31508004010A70A0A0100410008041F03AC3062CC005D
S315080040200000000000000000000000000000000082
S315080040300000000000000000000000000000000072
S315080040400000000000000000FFFFFFFFFFFFFFFF6A
S31508004050FFFFFFFF007007080000000000000000D7
S31508004060FFFFFFFFFFFFFFFFFF000000000000004B
S315080040700000000000000000000000000000000032
S31508004080F07F002000000000EC7F0020EC7F00207D
S315080040906073002018720208146A0208006A002079
S311080040A090120020000008080080002094
S315080041006073002075660208ED650208F16502080D
S31508004110F9650208F5650208FD6502087466020875
S3150800412074660208746602087466020874660208F1
S31508004130016602087466020874660208D34C000811
S31508004140746602087466020873A00008746602089A
S315080041500FAA000873F1000874660208746602085C
S31508004160D9870008055D000851560008A5410008D2
S31508004170746602087466020874660208D384000826
S315080041801FED000874660208746602087466020861
S31508004190012100F01F029140354A400942F82010DB
S315080041A070470000F8B5344C344D2178286840072C
S315080041B02BD5032929D23248324A008822F8110021
S315080041C00120314A137800FA01F1194311702F4A78
S315080041D02F491378002B12D0002623FA06F7FF077B
S315080041E008D5B0402670584010702A4830F8160096
S315080041F008600AE0761CF6B2032EEED305E000202E
S31508004200086000F0B9F8032020704FF6FF702860A8
S31508004210BFF35F8FF1BD80B51C49002008700320ED
S315080042201549087000201C490870052011490880A6
S3150800423000201549087000211548016041604FF4B7
S31508004240004181601021C1600D49416101218161F0
S315080042500321C1600421094801644FF6FF7101601A
S315080042600B20FFF795FFBDE8014000F0C3B800003A
S3150800427000E100E0AE7800208F7F002010A8004003
S3150800428076780020C0750020907F00208E7F002061
S3150800429004E00040C8750020917F002000F01BBC98
S315080042A02C48012181604EF6BE2141600121016042
S315080042B070472949012008607047A52805D1254877
S315080042C04DF6AD61416002210160704721480068E2
S315080042D010F0010018BF0120704700F007011F4ABF
S315080042E0C00802EB40200122806807E000F00701C1
S315080042F01A4AC00802EB40200122C0688A401040D2
S31508004300C840704780B51649164A102008601649F5
S315080043101648007803000BD003280CBF00200120A4
S31508004320106040F651000860002000F0CFFD06E05E
S31508004330022010604FF40060086000F090FB0C4803
S31508004340072101600021016410200A490860002045
S3150800435002BD0000006000400860004000B0004058
S3150800436080E100E0080000400C600040A27F0020C9
S3150800437014A0004000E100E070477047DFF8FC3405
S3150800438033F810001040C840704730B50FF2AC54EF
S31508004390DFF8EC3434F810409C601140DFF8DC4458
S315080043A034F8105095432943D96002221A60002236
S315080043B01A6024F8101058680028FCD130BDDFF8C0
S315080043C0C424DFF8C4041278DFF8C0140AB14978A7
S315080043D00EE0895611F1090FB8BF302108DBC16D0F
S315080043E039B1C26D40F24A31B1FBF2F189B2C91E48
S315080043F001607047E0B5DFF8980401880A2300F0E9
S3150800440065F8BDF806104FF6FF720D20FFF7BDFFE1
S3150800441007BDF8B50546B5F5004FDFF870441AD163
S31508004420DFF870040188022300F050F8BDF8000098
S31508004430000AFF2801D0010000D118206070BDF8DD
S3150800444000000006C00E10281CBF001D00F0A3F9CE
S31508004450BDF80000C543DFF82C64707808B1002069
S3150800446005E0A089ADB26840C00701D5012070708B
S31508004470DFF82404A58105F00104016841F4004130
S3150800448001604FF440520FF2D84000EB4400C5F3E8
S3150800449040074078010389B20220FFF776FF2046DD
S315080044A000F07CFD4022B90100F012FA2D06A80E94
S315080044B000F0010038433070FFF781FF707818B1BB
S315080044C0FFF798FF002070700020F2BD7F22684633
S315080044D000F0E8BD2DE9F04FDFF8C443DFF8BC7300
S315080044E0207887B0042304900D210B38C0B20390BE
S315080044F06846039A00F082FE9DF800008DF80A00CF
S315080045009DF801008DF809009DF802008DF8080055
S315080045109DF803008DF80500DFF888030078012868
S3150800452006BF607880F00105012501F02DFA824664
S315080045309DF9020003990AF10A06AAF10A09B0428E
S31508004540B6BF81454FF001084FF0000801208840AA
S31508004550ADF806009DF80100000604D47888BDF879
S315080045600610084201D04FF0010801F0A9FA9DF89B
S31508004570030000060AD4B888BDF80610084205D11B
S315080045809DF90000B042B8BF814502DB4FF0010932
S3150800459001E04FF0000948EA050059EA000000F07A
S315080045A0A480DFF804B3C149DBF80000C04E400818
S315080045B000F001008DF80400BE48006800F4E060D1
S315080045C005904FF4E0600860002001F079FE00F0E5
S315080045D08CFBADB1607858B1DBF80000B1494008F2
S315080045E04000CBF800000120087000F060FC07E0EE
S315080045F0306840F400503060306820F480503060F5
S31508004600A8480078012810D161780D4208BF01F04A
S3150800461083FFDBF80000A34940F00100CBF8000057
S3150800462000200870642000F042FC607880F00100E9
S31508004630054203D00498C0B201F0E9FF607838B1AA
S31508004640306820F480503060306840F400503060A4
S31508004650BDF80600C543B8F1000F08D002F0C2F84D
S315080046608DF801008DF802A0788828407880B9F185
S31508004670000F08D002F063F98DF803008DF800A04A
S31508004680B8882840B8809DF900009DF90A1088422C
S3150800469002BF9DF801009DF8091088420BD19DF9CB
S315080046A002009DF90810884202BF9DF803009DF894
S315080046B00510884206D0039904236A46C9B20D201C
S315080046C000F0C3FD05987B49086000F0F9FD9DF8E8
S315080046D0040001F0F5FD02F052FA607828B148F2BC
S315080046E060703060642000F0E2FB9DF8010001F084
S315080046F0E5FF9DF8030002F01DF907B0BDE8F08F4D
S3150800470080B501F034F9BDE80140E3E601F02FB9C0
S31508004710A0F10B01102928BFFF20704770B5064687
S3150800472001F0EAFC0546A6F10B001028A6F10B04D9
S3150800473001D38A2070BD60488168090702D40068E1
S31508004740C00701D58C2070BD554806705B480168C6
S315080047500C290FD00FF27C11594A92F90020A4B205
S3150800476031F824105118C161FFF7B4FE012D08BFB6
S3150800477001F063FC002070BD10B5044601F0F7F89F
S315080047802046BDE81040C9E74548007870473F48CD
S3150800479090F9000070472DE9F0410446202514F1F0
S315080047A02B0F86B049DB474801881423FFF78EFE96
S315080047B0BDF810004FF6FF71884203D0400448BF89
S315080047C0012607D43F2200211020FFF7D7FD002637
S315080047D080F0200504F12B022F2A2C483A491AD2D8
S315080047E013220FF2301300E0521ED2B213F91270E0
S315080047F0BC42F9DB03EB4204032764780C6000240F
S3150800480013F81210017000218846C6B1BDF81010C1
S315080048104FF6BF7228E0092C0FDA025D0A600470B1
S3150800482014232A480188FFF751FE4FF4C0514FF46C
S3150800483080744FF080082827E7E78B2019E04FF4AB
S31508004840605200F045F84FF4E062214600F040F867
S315080048508022414600F03CF8781980B24028A8BF6B
S315080048603F203F2280F0200100F032F8FFF7A7FD35
S31508004870002006B0BDE8F0810000000004780020A2
S31508004880E8100040AA7F00206410004054740020FD
S315080048905A6F0208846F02081C1000403C7E0020F4
S315080048A07E750020507500208020004080E100E0E1
S315080048B0D010004000E100E060200040AC1000404D
S315080048C0A97F0020526F0208C0100040566F0208E8
S315080048D00B205AE5AA21290055232900002528007E
S315080048E0AA26270055282700002A2600AA2B2600D4
S315080048F0552D2500002F2400AA3024005532230008
S3150800490000342200AA35220055372100003920003C
S31508004910AA3A2000D500E601EC02EF03F204F405FA
S31508004920F506F707F808F909FA0AFB0BFC0DFD0F5F
S31508004930FE11FF1300160119021C031F10001100B7
S3150800494020003000400041005000600070008000E8
S315080049509000A000B000C000D000E000F000000009
S3150800496000000103DFF8EC135120086070472DE9B9
S31508004970F041DFF8E4630546F0780428B4BF302731
S3150800498060274FF4F070B0FBF7F41E2D24B201DB5C
S31508004990281B04D5A8B2BDE8F04100F088BA02F099
S315080049A029F900F028F870700721DFF8B003DFF85E
S315080049B0B02300F047F8291B09B27943C91C8908B6
S315080049C0491EDFF8A053DFF88C7341602E6800F0AB
S315080049D0B0F83C68386820F04000386002F010F9FA
S315080049E03C602E6002F010F900F07BF94046BDE805
S315080049F0F04102F011B98046012080F31088704713
S31508004A0038B5DFF85413C9780429B4BF30246024B4
S31508004A104FF4F071B1FBF4F1451A1E2D04DAA12109
S31508004A200FF28C3002F0FEF8DFF83003DFF830239F
S31508004A30072100F007F805FB04F1C91C8908491E7F
S31508004A40416031BD01600021416081604FF0007115
S31508004A5011607047DFF8002301215170D0E72DE976
S31508004A60F041DFF80463DFF804430025356025606C
S31508004A704FF4A040606041F29A084046FFF777FF7E
S31508004A80706844F69041081A00B24FF4487190FBDA
S31508004A90F1F000B20828A8BF072004DA10F1080FC1
S31508004AA0B8BF6FF00700206008274046FFF75FFF92
S31508004AB04046FFF75CFF706845197F1EF8D1281D30
S31508004AC0C00808BF0120DFF8A812B1FBF0F080B2D9
S31508004AD06060BDE8F08138B5DFF8985201206FF0C4
S31508004AE00F04A8602C608020FFF741FFE868FF28C4
S31508004AF002D8641C102CF5DB31BD70B5DFF87802DE
S31508004B00DFF86052016841F001010160012141604E
S31508004B1002F070F82E68044600F00BF88D49512013
S31508004B2008602E6002F070F82046BDE8704002F07A
S31508004B3073B8286840084000286002F065B82DE977
S31508004B40F0418F4C8D4EA088834F4FF6FF78404535
S31508004B5040F2DC551CD18B48018802237F22201D98
S31508004B6000F0A0FAA088404504BF0220A080B069E2
S31508004B70800703D4B06940F00200B0610120B87024
S31508004B80A08830602846FFF765FF2846BDE8F08113
S31508004B90B2699207EED5BA78002AF6D1B268B36838
S31508004BA012F0010203D10F2809D2401C06E09B0728
S31508004BB005D523781BB1032801DB4044A080A088D3
S31508004BC022700228BCBF0220A0803068A1888842D3
S31508004BD0D4D1B06900F00300032818BFFFF78DFF92
S31508004BE00020D3E72DE9F04780466748017800257D
S31508004BF069B9C078072818BF09280DD0032818BF37
S31508004C00112809D013281CBF15280B2804D05F4883
S31508004C10016841F48071016001F0ECFF8146FFF7FD
S31508004C20EBFE4046FFF78BFF08B9012515E04D4F0F
S31508004C30484E3C68386840084000386001F0E4FF98
S31508004C40D6F800A0306820F04000306001F0D8FFA8
S31508004C50C6F800A03C6001F0D7FF00F042F84846CD
S31508004C6001F0DAFF2800D7D0BDE8F0870220B9E7BF
S31508004C703A483B4A002141608160016821F00201FF
S31508004C8001600021344841704FF00071116081784D
S31508004C9009B100218170C178012914D13C4901224A
S31508004CA00A603C4A1268D20748BF03210FD4022281
S31508004CB0C270086C40F00100086404203649086098
S31508004CC0364908607047C178042901D10521C170A9
S31508004CD0704721484078002818BFFFF7C9BF00F081
S31508004CE0E9BF002080F3108870472DE9F8431A4C75
S31508004CF02179207881F0010108421DD124E001F0D4
S31508004D0079FFFFF778FEE078052810D0154E114D8B
S31508004D1000F046F8D5F80090286820F04000286092
S31508004D2001F06EFFC5F80090376001F06DFFFFF7E0
S31508004D30D8FF404601F070FFE0780528DFD1002053
S31508004D40A0700520FFF74EFF00202070BDE8F18314
S31508004D500000000000800040C47F002010E000E052
S31508004D6004ED00E094ED00E0104000400C00004027
S31508004D700060E316084000401C4000400440004024
S31508004D8040750020906F02089607080838400040D2
S31508004D9018A000400C40004080E200E000E100E07E
S31508004DA03768306840084000306001F02DBF0000C9
S31508004DB0636C6F636B732E630000000010B50020F0
S31508004DC001F0E3FE684C40F68C2188422068B4BFA7
S31508004DD040F0080020F00800206010BD10B5044619
S31508004DE06248018882B000F05DF89DF800109DF8D1
S31508004DF00100FF2902BFFF280420002122005C4A87
S31508004E00136818BF801C23F46073C0B20828A8BFB3
S31508004E10072043EAC010106008291068A8BF0721B8
S31508004E20C00841EAC00010605248047013BD5248D9
S31508004E3000B5018883B000F035F8BDF800004FF6DC
S31508004E40FF7188420EBF4FF4E1600A2190FBF1F032
S31508004E50ADF800004748007808B3444801880223A3
S31508004E607F2201A800F01EF99DF80500BDF8003064
S31508004E70FF2808BF0420811CC9B20829A8BF07213A
S31508004E80C1F12F0202EBD272C0F12F00521000FBC3
S31508004E900320C1F12F01B0FBF1F0ADF80000BDF819
S31508004EA000000EBD02237F22684600F0FBB8334996
S31508004EB00A68032809D34B6D43F001034B650B6859
S31508004EC09B1AC3F313038342F9D3704710B5040042
S31508004ED004D110BD4FF47A70FFF7E9FF2046441E4F
S31508004EE080B20028F6D110BD2548017869B9C07886
S31508004EF0072818BF092814D0032818BF112810D06E
S31508004F0013281CBF15280B280BD01E48016841F42E
S31508004F1080720260C80504D438210FF2740001F0CB
S31508004F2081BE704720B1012807D0032818D019E0A0
S31508004F30154801B11721016012E049B1480800F18E
S31508004F40B77000F55850B0FBF1F0B0F1011F01D36E
S31508004F50202070470D4900F001024A6040080860A9
S31508004F60002070472120704700BC00405E6F020891
S31508004F7018000040AC7F0020746F020838200040FB
S31508004F809607080838400040100004E068C800404A
S31508004F907573625F6572726F722E6300F0B50446B0
S31508004FA089B00020FFF71AFF294801880A237F22C3
S31508004FB0684600F077F8BDF802004FF6FF75A8427C
S31508004FC005D14FF481710FF2940001F02BFE0026F3
S31508004FD00FF2A00701E02A4616B94FF47C4203E017
S31508004FE0022E08BF4EF23F023DF81610B85DFFF7D5
S31508004FF0CCF9761C052EEED3012C03D114237F227F
S31508005000144802E014237F22134801880FF26C0724
S3150800501003A800F047F800262A4608E02A46012E8B
S3150800502008BF4FF6C07202D0082E08BF002203A898
S3150800503030F81610B85DFFF7A8F9761C0A2EEDD3DE
S31508005040012C04BF0120FFF7C9FE09B0F0BD00001E
S315080050505A6F0208566F0208526F0208616E616C39
S315080050606F6775652D63656C6C2D626961732E6358
S315080050700000000000100C0D0E00000001020304E1
S315080050800708090A0B0F000038B514467F2C08BF1D
S315080050900024314D29431A4604FB0311BDE8384064
S315080050A001F0B8BE70B51E00044615461BD04BF27B
S315080050B03460814211D1092E28BF082633467F2243
S315080050C040F612012046FFF7DFFF32462349204605
S315080050D001F0EAFE38B940F2A27133462A46204664
S315080050E0BDE87040D0E770BD2DE9F0410C461A497D
S315080050F0DFF86C8041EA0006C007154602D56C2128
S3150800510000F034F8E80702D56D2100F02FF81548AD
S31508005110864204D3A819401E1349884202D36E2139
S3150800512000F024F8002706E0F05DFF2802D075217C
S3150800513000F01CF87F1CAF42F6D36A0821463046B9
S3150800514001F01DFF28B14046BDE8F0417B2101F082
S3150800515069BDBDE8F081000000000808B06A0208D1
S31508005160A46A02080008080800100808404601F06A
S3150800517059BD000030B5DFF83011DFF830510A6844
S3150800518083B001A80024026001202870002001F0E5
S315080051903BFF30B1002001F037FF10B12C704920D9
S315080051A03EBDDFF80C01018802237F220DF10200C3
S315080051B000F024F802237F220021684600F01EF83A
S315080051C0002001A9BDF8022031F81010914208BF4D
S315080051D00124401C0228F4D3BDF8000024B1B0F520
S315080051E07F7F07D100203EBDB0F57F7F14BF042026
S315080051F0062000E00720002129703EBD10B5FF29D2
S3150800520008DCDFF8A840247844B1BDE81040C9B2EC
S3150800521002F004BBBDE81040FFF744BF10BD10B54F
S31508005220FF2908DCDFF8844024786CB1BDE810401B
S31508005230C9B202F027BB7F2A08BF0022DFF87440F4
S31508005240214302FB0311016010BD2DE9F04104461C
S31508005250FF2C0D4616469846DFF85C0015DCDFF88D
S315080052604C100978B1B1DFF85470397811B1BF2103
S3150800527001F0D8FC0120387043462A463146E0B290
S3150800528002F030FE0020387004E0BDE8F041CA2183
S3150800529001F0C8BCBDE8F08104490978002918BFA7
S315080052A002F04CBF70470000306F0208A47F002050
S315080052B0786F020800000808346F0208A57F0020EE
S315080052C010B5DFF890471020206301F093FCDFF853
S315080052D088170A6842F001020A6001F09DFCDFF8AF
S315080052E07C07606020608A306168893161600121CD
S315080052F02163E060A060DFF86817E0688930E06045
S31508005300022020634FF6FF70086010BDDFF85407CF
S3150800531045F26401C1601E21416250210162C82123
S31508005320C1618165F021C16545F690014166882114
S3150800533081660621C16644F2066101604FF6FF7177
S315080053404160DFF82407007838B1DFF8200748F213
S31508005350607101604FF4C1514160DFF814070168BC
S3150800536041F0040101600020DFF808174870704713
S31508005370DFF8EC060068C00700D408E07047DFF8DD
S31508005380E006006810F0190F00D100E07047002110
S31508005390002003F056B82DE9F84F8046DFF8D816F6
S315080053A0012003F0F2F98A21DFF8B00601FB08F1C3
S315080053B04518681C4178007800EB0120DFF8BC1618
S315080053C009781FFA80F9DFF8B806017000EB080AB9
S315080053D000208AF802005FEA896003D5DFF8A44650
S315080053E0606E000640F18F80002609F0070003284A
S315080053F061D109F4406009F44041B0F5806F1CBFE3
S31508005400B1F5804F002956D00422B0F5006F08BFC9
S31508005410082203D0B0F5406F08BF0E225FEA496044
S315080054205CBF921CD2B2B1F5004F0CBF971C02F1BB
S315080054300807FFB2781C00EBD070C0054FEA106B66
S315080054405FEA080014BF60682068584533D3A81877
S31508005450B1F5404F03D103F040FA064612E0407812
S31508005460A95C01EB002080B203F0D0FCFF2808D02D
S31508005470DFF81416096831F810004FF4E66108429F
S3150800548000D00126BEB15FEA097014D45FEA0800AD
S3150800549014BF606820680BF10101884207D2E068F2
S315080054A05FEA080114BF022101210842EED1E85D36
S315080054B0042818BF0026E06D000900F001008642A6
S315080054C08AF802001FD0002EA26C4FF400604FF439
S315080054D080610BD0B8F1000F08BF0846024212D00F
S315080054E0606C40F00100606401200AE0B8F1000F2A
S315080054F008BF0846024206D0606C40084000606457
S3150800550000208AF80200BDE8F18F2DE9F84F04461D
S31508005510DFF87055DFF8686520000CBF28686868F2
S31508005520C1B2052905DAFFF723FF7068401C7060D1
S315080055308CE040008DF800008A2000FB04FBDFF8B1
S315080055401C859DF8000008EB0B094844A0F10807E4
S315080055503878797801EB00201FFA80FAB878663037
S31508005560B870307818B9DFF81405007830703078DC
S3150800557038700020307003F073FD7870DFF8E0743F
S31508005580386C20F4805038642000686E02D1786840
S31508005590400504D4012C23D17868000520D5FFF7EF
S315080055A0E7FEDFF8E804017891B1002101701AF4EA
S315080055B0E45FDFF8DC04016802D00022402005E041
S315080055C099F80100000900F001028F2004F00CF898
S315080055D020000CBF4FF480604FF40060786030E024
S315080055E01AF4E45F2BD100F01FFE10B15FEA4A40BF
S315080055F025D518F80B00802821DA386C99F801109F
S31508005600890626440ED5696E09060FD4A96CC90603
S315080056100CD4396822000CBF80224FF480720840EF
S31508005620104203D1FFF7A4FE0020B070B2789DF8AF
S315080056300010484604F0FEF80020B07001E0FFF7BD
S3150800564097FE002C0CBF012002202861BDE8F18FCF
S315080056502DE9F84FDFF80844DFF828642068216C44
S31508005660DFF830B4DFF82484DFF82C94DFF808A4D8
S3150800567001EA00053AE071B18A22DFF8E0135043E7
S3150800568008444078C00606D4DFF8040401680022FE
S315080056908F2003F0A9FF280608D50FB9FFF768FE83
S315080056A004F00DF9802025F080052060E80509D56D
S315080056B00FB9FFF75DFE04F002F94FF4807025F488
S315080056C080752060680407D50FB9FFF751FE4FF4BF
S315080056D0804025F480452060280407D50FB9FFF7D8
S315080056E047FE4FF4004025F400452060002D73D096
S315080056F00027280706D50020FFF74DFE082025F0CD
S3150800570008052060E80606D50120FFF744FE1020AC
S3150800571025F01005206005F06000602803D1B06C04
S31508005720C0050AD401E0A80605D52020206025F08A
S315080057302005002006E0680606D54020206025F0F2
S3150800574040050120FFF7E1FEE80404D54FF4805038
S3150800575025F480552060E8079DD5012020606D0856
S3150800576002F0AFFE6D0078B14FF448725146012041
S3150800577002F0AEFF02F0E5FD40054CBF0320012014
S31508005780002102F05EFE012799F8010008B100F039
S3150800579095F999F80000002806D000F0B7FC012812
S315080057A007D198F8000000283FF475AF9BF8000071
S315080057B004287FF470AFF068400800F00100002864
S315080057C014BF7168316811B92168C904F7D5002872
S315080057D014BF716831684EE700202060BDE8F18F7C
S315080057E0DFF8B802006870470020DFF8B41201EB52
S315080057F04002401C93885B1C01EB4001938049885A
S3150800580009B90828F1D3704738B50446FFF7ECFF05
S31508005810A34D1022291D204601F0FCFA05F11401BA
S31508005820204604F0E5F8FFF7DFFF05F11401281D0F
S3150800583004F0DEF8214605F11400BDE838401022D0
S3150800584001F0E8BAF8B5974D2E780446012028707D
S31508005850300008D10021032001F03AF90F2701F0A2
S3150800586052F97F1EFBD104B126702878F2BD10B517
S315080058708C4C217881F00101084303D101F07FF9AE
S315080058800020207010BDF8B5FFF7BEFF0024844E37
S3150800589000250F2701F037F97F1EFBD1311DC0F314
S315080058A0801031F81410A8404840311D6D1C21F8AD
S315080058B01400102DEDD3641C102CE9D3F1BD38B5B6
S315080058C00446FEF703FD08B1FEF7F3FC1025204653
S315080058D0FFF7D9FF6D1EFAD1714901200870FEF74E
S315080058E0F5FC08B1FEF7E5FC012032BD2DE9F043D1
S315080058F06B4F0446387885B088469146012530B9FD
S31508005900FFF7A0FF05466846FFF7D9FF05400026C2
S315080059101FE016F0070015D15FEA090006D000203F
S31508005920FFF790FF05406846FFF7ADFFFFF75CFFFE
S315080059301022391D684601F06DFA07F11401684610
S3150800594004F056F806F007013DF8110024F8160091
S31508005950761C4645DDDB6846FFF756FF0020FFF755
S3150800596086FF284605B0BDE8F0830022BEE703217E
S31508005970022001F0ADB84FF6FF71081A292190FBF5
S31508005980F1F03A3040B2704738B501F0BCF8FFF78D
S31508005990F2FF454D04462878B0B90321032001F0EB
S315080059A097F84248018802237F226846FFF77AFB68
S315080059B001F0A9F8BDF80010401880B2FFF7DBFF28
S315080059C0153868700120287001F0D9F86878201A0F
S315080059D040B232BD80B50321022001F079F8BDE856
S315080059E00140D1E770B532480078002490B9FFF736
S315080059F0F1FF204E0546707848B13078401B40B21A
S31508005A0003F0FFFF0B2805DB3570012402E00120B7
S31508005A1035707070204670BD264800787047254955
S31508005A200B78984200D1704780B5087040B122497A
S31508005A30002008600848016821F08001016001BD66
S31508005A4000F072FC00F048FC00F0B1FBBDE8024033
S31508005A5000F095BB0020004084200040427E0020D4
S31508005A6000A000404C1000407F750020D010004078
S31508005A7080200040B17F00207F5300087E750020FB
S31508005A80287800202020004078730020B87A00206B
S31508005A90C07A00204F750020AD7F002038200040D6
S31508005AA030780020B37F0020AF7F0020766F020891
S31508005AB050750020B47F0020541000407047000045
S31508005AC010B50D48018884B00A237F226846FFF77F
S31508005AD0E9FABDF800004FF6FF74A04204D14F2141
S31508005AE00FF2180001F09EF8BDF8001022460020BB
S31508005AF0FEF74BFC1FBD00005A6F0208616E616C11
S31508005B006F6775652D66696C7465722E6300000093
S31508005B10DFF82008007848B1DFF81C080179012968
S31508005B2004BF4079042801D101207047002070473E
S31508005B300FF6B0014008085C7047010644BF4FF6EF
S31508005B40F83101EAC0007047491C800189B2B0FBF0
S31508005B50F1F080B2FF288CBF0020C0F1FF00C0B270
S31508005B60704738B5DFF8D807C17809B1002032BDCB
S31508005B70DFF8D847617871B1E1780079451820795E
S31508005B80ADB28542A8BF054603F056FF0121A940DC
S31508005B90491E084000E0002061790818C0B232BDED
S31508005BA02DE9F0470446C00705D540F29B110FF6CC
S31508005BB0240001F037F8DFF89857286DC00748BF6A
S31508005BC08C2075D4DFF87807DFF88077002101701C
S31508005BD0417829B9397819B1A96F41F0010102E074
S31508005BE0A96F49084900A967DFF84C877A7898F8B9
S31508005BF00610DFF86097DFF8606792B1002202713D
S31508005C000129286D40F00400286506D14FF6FF707B
S31508005C1030604FF40070C9F80000FFF7A2FF824613
S31508005C200CE0286D20F00400012928654FF0000AD1
S31508005C3004D100F02FFA6420FFF739F9A86F20F095
S31508005C400800A8671420E864C5F848A0787838B131
S31508005C5098F80600002801BFA86C00280120A8644F
S31508005C60B8790028286D14BF40F0080020F0080015
S31508005C702865FFF74DFF18B1306C40F00800306416
S31508005C80202028626C602C606868DFF8D0167F30A8
S31508005C906860042028624FF4E0600860DFF8C016E8
S31508005CA00968C9F80000286D40F001002865002041
S31508005CB0BDE8F087DFF8AC06002141608160016825
S31508005CC021F0020101604FF00070DFF89C160860B1
S31508005CD00120DFF8981608707047332800D27047FD
S31508005CE010B5B0F5002F0CD2DFF8804600212170E0
S31508005CF0FEF786FE02E0012003F0BAFE20780028AF
S31508005D00F9D010BD2DE9F84FDFF84C86DFF830568C
S31508005D10D8F80000D8F84010DFF8347601EA000415
S31508005D20A4B2C8F800406878002840F0D380E0079D
S31508005D30DFF83C66DFF814964CD5D7F800A0386C27
S31508005D40796C41EA0041A96099F8000000283DD025
S31508005D509AF80100800639D501202870FFF7D8FE89
S31508005D60C0B31920FFF7A3F8DFF808B64FF4404090
S31508005D70CBF82800DBF800000090F06E40F40050E5
S31508005D80F066F06E40F48050F0669AF80010A86845
S31508005D904901B83101EB000AFFF722FDAAEB000022
S31508005DA0C0F31300FFF799FFF06E40084000F06655
S31508005DB0F06EBDF800100843F0660020CBF8280006
S31508005DC048F26070F066E888306003E00022002040
S31508005DD003F00AFC20060ED5287830B1002028707A
S31508005DE00022A968402003F0FFFBD8F83C0020F405
S31508005DF08050C8F83C00600608D5687830B9FFF7C7
S31508005E00EFFC01460022892003F0EEFBE00652D59E
S31508005E10DFF824A5DFF83CB59AF80400012804BF8A
S31508005E209AF8061001291FD100F076FB386F40F06A
S31508005E3001003867002400208AF80600FFF740FAB8
S31508005E400A20FFF734F84FF6FF70C8F800004FF441
S31508005E50E060CBF800000920B8660120B864B86F86
S31508005E6040F00800B86718E02979491C2971C9B2B9
S31508005E7099F80220914215D2012808BF00F0DDF8F2
S31508005E80B86F20F00800B8671420B866FFF769FEF7
S31508005E90B8644FF40070CBF80000386D40F001008C
S31508005EA0386508E0687830B9FFF79AFC01460022A1
S31508005EB08D2003F099FB20070CD5FFF729FE48B182
S31508005EC03068E88001203060D8F8400020F00800EB
S31508005ED0C8F84000A0060AD520203862687830B98C
S31508005EE0FFF77EFC01460022882003F07DFB6878D8
S31508005EF020B114F4407F04BF0120A870BDE8F18FDB
S31508005F00DFF8780400887047DFF83014002808683E
S31508005F1014BF40F4404020F440400860704770B514
S31508005F2082B00546FEF7F2FBDFF85404DFF81444A6
S31508005F30DFF80464002101601521E160092101658B
S31508005F401F21416001210166DFF830040088FEF751
S31508005F5060FAFFF7DBF904F05DF800F02BF93089F9
S31508005F6000F055F9708900F05AF900F043FE6168AF
S31508005F7041F04001616000F04FFE707800F0E8F8EB
S31508005F80B07800F0FCF8DFF8FC03007800F029F997
S31508005F90DFF8F40390F90000FEF7FDFB307800F017
S31508005FA08FF996F9030000F097F9DFF8E00300F09F
S31508005FB0B5F9BDF80000DFF8D813C0054CBF0020BE
S31508005FC0BDF800000870DFF8CC030078FEF7A6FBE2
S31508005FD028B140F2F2310FF2FC3000F023FE012D19
S31508005FE004D12068C00748BF00F027F86DB92068BB
S31508005FF0C0070AD400F090FA206840F0010020603B
S31508006000C820FEF754FF0020B071F120DFF848538E
S31508006010286440F2F910E86302F053FAFFF774FFB8
S31508006020FFF74EF92068C00704D54FF6FF702860C1
S3150800603000F05DF8FEF759FE73BD70B5DFF85853EA
S31508006040DFF8F4422E68A079012822D000F0D2FDAC
S31508006050B6B2DFF808232E604FF4E0611160DFF86E
S3150800606018130A6A520852000A620A68520852004D
S315080060700A600A6842F002020A604A6A42F00102AD
S315080060804A620121A17100F0C7FDBDE8704000F029
S3150800609021BA70BD70B5A84CA07938B300F03CFAA7
S315080060A000F0A8FD0546DFF8F412A74E01200860A7
S315080060B0306D40F0010030650020A071FFF700F94F
S315080060C020203060306B40F002003063F06D40F005
S315080060D00800F065284600F09FFD0A20FEF7E7FE57
S315080060E09D494FF6FF70086000F001F870BD4FF447
S315080060F0E0609849086070478F48807970478E48F5
S315080061000079012808BFFFF798BF70478A480079C9
S31508006110704780B5022801DB012002BD8649087157
S315080061208979884205D010B9FFF7B4FF01E0FFF777
S3150800613084FF002002BD9A480068800200149A383D
S3150800614001B211F1800FB8BF6FF07F0040B27047FF
S3150800615010B5044600F04EFD92490A68002C04D09A
S3150800616042F012020A60012103E022F012020A60DC
S315080061700021714A517043E06F484078704738B53E
S31508006180054600F037FD0446FFF746FC40B985484A
S315080061902900016814BF41F0800121F080010160E7
S315080061A0654885702046BDE8324000F035BD624836
S315080061B0807870477C494A780B787C4803EB022242
S315080061C002608B78CA7803EB022242600B794A791F
S315080061D003EB02228260CA79897901EB0221C16048
S315080061E0704710B5044600F005FD6E4922000A689E
S315080061F014BF42F0200222F020020A6061490C70A6
S31508006200BDE8104000F008BD4B48008970474A4970
S31508006210088167490860704747484089704746497A
S315080062204881644908607047634800787047524857
S31508006230816A41F0020181620121016070474E487E
S3150800624000210160816A21F0020181625020FEF777
S315080062502EBE38B5594C5A4821695A4D0180E16914
S315080062604180E96C818000202061FFF7E0FF012072
S31508006270E0610020606220624CF25D00E8642868F4
S3150800628040F4004028604FF40040206048F20200C5
S31508006290206031BD80B5FFF7D2FF48484FF4004172
S315080062A001600021016047490A6822F400420A6039
S315080062B0434A9388CB64118801615188C16101BD45
S315080062C0204902000A6814BF42F0020222F00202C4
S315080062D00A6019490870704738B504467F2C0AD1F8
S315080062E0394800F01BF8BDF80000C00554BFBDF8DA
S315080062F000406FF04A0400F07DFC0546FFF78CFB72
S3150800630030B964B204F19A0080053049000C08607F
S315080063100948C470284600F07FFC31BD0188022375
S315080063207F226846FEF7BEBE034890F90300704711
S3150800633000000000D67F00204A75002040A00040DB
S31508006340B87A00208020004030200040C474002025
S315080063501020004000E100E004A0004080E100E0D9
S31508006360A820004010E000E004ED00E0D77F002000
S3150800637064100040E4100040602000406074002073
S315080063805C100040D57F002054740020926F0208EC
S31508006390A97F00207E7500201C10004028100040B0
S315080063A00C10004084200040C47A00209820004049
S315080063B094200040902000409B7500201810004053
S315080063C0747F0020C0100040966F020854100040E9
S315080063D0704700007068792D636F6D6D6F6E2E6360
S315080063E000000000FEF7C80138B50120FEF7A7FB3C
S315080063F00020FEF7F3FC634C206840F0080020609C
S31508006400FDF74EFFFEF7DAFC00F022F80D8805606E
S315080064104D88456088881060C8885060088918606B
S315080064204889586000F056F8206820F0100020606F
S31508006430FDF7F1FE03F0FAFDFEF718FCFDF72EFF57
S31508006440BDE83140FDF75EBF40F2016003F0F0BDE4
S3150800645052494E480A78C2604B784D4AD3604D4B34
S315080064608978D9604E497047F0B50F249D0004FA23
S3150800647005F51668284212D0002505EB830720FA91
S3150800648007F7FF0708D5AF0004FA07F731F813C076
S31508006490BE4307EA0C073E436D1C042DEDD3166078
S315080064A0F0BDF0B5FF25DE00B540146828420FD0D0
S315080064B0002505EBC30620FA06F7FE0705D50126D3
S315080064C0AE40CF5CB4433E4034436D1C082DF0D338
S315080064D01460F0BD2DE9F8430021002001F0B1FF5A
S315080064E002F096F82F4C2068A0B10026264FDFF858
S315080064F09C9000F02FF8761C032EFAD3DFF89880CC
S315080065000026002700F034F800F02CF8761C7F1CD3
S31508006510032FF7D3BDE8F1832DE9F84302F084F899
S31508006520204C2068A0B100261C4FDFF8609000F0D0
S3150800653011F8761C032EFAD3DFF8648000260027AC
S3150800654000F016F800F00EF8761C7F1C032FF7D320
S31508006550BDE8F18309EB462000F10C0220683346BA
S3150800656039469EE7761C2068F3B22A1D41467BE72A
S3150800657009EB47252068F3B22A46414674E703200B
S31508006580FEF78ABE00BC0040F073002000B0004051
S3150800659000B2004000B40040E4730020E07300201D
S315080065A0D47300201476002010B503F045FE044687
S315080065B003F046FEC0B208B9012C07D1072C11D842
S315080065C0DFE804F004100608080A0C0E002010BDC7
S315080065D0092010BD022010BD032010BD0B2010BDE0
S315080065E0062010BD44F0800010BD00002A490A6844
S315080065F0520852000A600A68104308604FF40041C6
S3150800660026480160002101606420FEF750BC2DE990
S31508006610F047234D204FD5F80090224C8046286835
S3150800662040F400402860386820F4805038602078AC
S3150800663068B162781C48A17800EB820200EB8800FA
S3150800664012F82A2C10F82A0C891A461802E001209A
S3150800665020262070B0B2FFF7C9FF0FF2500A02E0F9
S31508006660B0B2FFF7C3FF386B042805D0386B400774
S3150800667054BF761E761CF3E7F86A38B184F80180B1
S31508006680A6701FFA89F02860BDE8F0874FF490716C
S31508006690504600F0C7FAE6E7D01000401810004050
S315080066A01C100040D27F0020D4480008616E616C3F
S315080066B06F6775652D76636F2E63000081014FF451
S315080066C0FE5289B20C20FDF760BE2DE9F84F8B4CBF
S315080066D0DFF82CB2A56820681FFA80FA00F04FFA96
S315080066E00127B020ADB200264FF00A08B94620634C
S315080066F008E016F1190FB8BF4FF00A08464436B23B
S315080067007019A060DBF80000000702D559EA0700F7
S3150800671028D00120FEF7CBFBB9F1000F11D0AAF162
S315080067200300874202DAFF1CBFB213E00AF50040F5
S3150800673020600621092000F0CBF957464FF00009E2
S315080067400BE0DBF80000000707D5042FA6BFFF1EE5
S31508006750BFB2002707F5004020601A2EC9DB6FF08C
S315080067600908CBE7A560C4F800A00820CBF800000C
S315080067706448006880B2BDE8F28F80B55E4B624916
S315080067801B784FF0FF326BB1002819BF4A605F488B
S31508006790486041F2111008605D4841880088BDE8EC
S315080067A0044092E7002819BF4A600A6048600860FA
S315080067B000F0E5F9BDE804400621092000F0D9B942
S315080067C038B50120FFF7D9FF04460020FFF7D5FFAB
S315080067D005460120FFF7D1FF4042001B00EB4500AC
S315080067E000B232BD2DE9F04F4A4C4B4D424F83B0B3
S315080067F0A06AADF802004FF000082068ADF8000066
S31508006800D5F800B0387858B14FF6FF720021082045
S31508006810FDF7B4FD8046C022C0210820FDF7B5FD6E
S315080068203E48DFF8FC90007818B148F26070C9F865
S3150800683000007888364E40F4404040F04C00C9F8D5
S315080068403C000220A0620120206040F24C40FEF786
S315080068502EFB0120E86028600020308040207080F0
S31508006860387800B12020FFF729FFFFF7A9FF8246F5
S31508006870402030807F207080FFF720FFFFF7A0FFC1
S3150800688000F050F8FE2148430190AAEB060A387832
S3150800689048B1304603F0B5F800F044F8019980B2E3
S315080068A001EB861103E000F03EF8019980B2B1FBD6
S315080068B0F0F080B2401CC6031FFA8BF02860002057
S315080068C0E86002202060BDF800002060BDF80200E4
S315080068D0A0620020C9F83C00387828B14FF6FF724C
S315080068E041460820FDF751FD40F24C40FEF7DFFA1D
S315080068F0300CBDE8FE8F000046750020C010004031
S3150800690018A000400070004038100040EEEEFFFF6F
S31508006910707F002060200040281000407F7500200E
S31508006920D01000400646504603F06BB841003F229F
S3150800693089B201E001463F220220FDF726BD2DE976
S31508006940F04F564C564D95B0E06CADF810004FF62A
S31508006950FF782068ADF80E004246E86AADF80C00EC
S3150800696000210120FDF70AFDADF80A004246002184
S315080069700B20FDF703FDADF8080000264FF4004094
S3150800698020600DF1140B00202861686148F20200AE
S3150800699000F088F84CF68C30E0644FF4805248F2E8
S315080069A0F000E86211460120FDF7EFFC424600219F
S315080069B00B20FDF7EAFC0621062000F0DAF8019024
S315080069C000F082F800904CF69C30E0640020FFF757
S315080069D0ADFF0621062000F07BF8B0B2FFF7A6FF50
S315080069E00621062000F074F800F08DF82BF8160042
S315080069F0761C202EF1DB00F086F81020FFF796FFB4
S31508006A0000F062F80099019A401ABBF820108E1A15
S31508006A10404306FB06094FF0100A112700F04EF80E
S31508006A2000F052F800F043F805DB1FFA87FA7F1CDE
S31508006A30202F8146F2DBBAF1100F0ED10F2700F096
S31508006A403DF800F041F800F032F806DB1FFA87FA45
S31508006A507F1E3FB2002F8146F1D5BDF81000E064D5
S31508006A604246BDF80E002060BDF80C00E862012021
S31508006A70BDF80A10FDF789FCBDF8081042460B2040
S31508006A80FDF783FC01202861002000F00BF84FEA8F
S31508006A904A00C0B215B0BDE8F08F0000C010004033
S31508006AA018100040286040F24C40FEF700BA0099E2
S31508006AB0401A404306FB0600484570473BF8170056
S31508006AC00199461AB8B231E70621072000F051B8F5
S31508006AD070B505460E4603F0C3FB3F4C206C20F00C
S31508006AE00800206403F0BEFB00F084F8E90141F0D9
S31508006AF001013A4A41EA0631116008212160BDE8E0
S31508006B00704000F089B82DE9F041354C354D324ECC
S31508006B1025E003F0A5FB344904200860306C40F0FA
S31508006B20080030642F68286840084000286000F094
S31508006B306BF8D4F80080206820F04000206000F050
S31508006B405FF8C4F800802F6000F05EF8306C2749C3
S31508006B5020F0080030640420086003F083FB3068E6
S31508006B600007D6D5082030602148006880B2BDE805
S31508006B70F08180B5FFF7ACFFBDE80140C3E71748D1
S31508006B8001684908490001607047F8B50746FEF7ED
S31508006B904EF9044639460320FFF7EBFF054639460A
S31508006BA00120FFF7E6FF0646FDF7E7FB394600201A
S31508006BB0FFF7DFFF0746FDF7DFFB084801684908CE
S31508006BC049000160781B0004711BB0FBF1F06043BB
S31508006BD04000000CF2BD000018A000400470004000
S31508006BE00080004094ED00E000E100E080E200E073
S31508006BF000700040EFF31180602181F3118870471F
S31508006C0000BF30BF00BF7047BFF35F8FBFF34F8F22
S31508006C10BFF36F8F7047000080F31188704700003C
S31508006C2042DE704738B504460D46FDF742FBFFF7CE
S31508006C30E1FF2946204603F03CFB2B4622466B49DA
S31508006C40012003F07DFD29462046BDE83440E7E7EC
S31508006C5067482DE9F047674D01682E1D4FF42068F7
S31508006C607165016AB16564490968F165416A316609
S31508006C70816A7166C16AB166016BF166806B3067BD
S31508006C8096F8340040074CBFF46BB46B03F063FA14
S31508006C900022F2648442594A014624BFA2F1200A1E
S31508006CA0A2452746316505F18C03DFF854C1DFF8A4
S31508006CB054E118D3A0693064E4697464746DC4F34C
S31508006CC00804062C13D1704511D360450FD20088ED
S31508006CD04DF64264A0420AD13068586040F2017805
S31508006CE07068986003E0002737647764074646486B
S31508006CF0814202D2014600E0091D0846904203D2AD
S31508006D000C68B4F1CD3FF7D04049081AB0640021A9
S31508006D10002005EB8004401C0628A167F9D3002053
S31508006D2003E0C0B205EB8004A167974222D252F86D
S31508006D30041D7145F9D36145F7D2CC07F5D5002472
S31508006D4005EB8409D9F87890894502D0641C062C8D
S31508006D50F6D3062CE9D1002814BF401E0520E0E72B
S31508006D60716F002405EB8402641CD76F9767052CA6
S31508006D70F8D319600146481EC9B20029F0D1706DD2
S31508006D80C0F3080002280AD0032815D0042816D014
S31508006D90052817D0062818D00C281CD01EE01C4839
S31508006DA00168890748BF40F602181CD40068C00766
S31508006DB019D540F2025816E040F6012813E040F6CD
S31508006DC0022810E040F603280DE0B8F5206F0AD136
S31508006DD040F6042807E040F6052804E018B1242800
S31508006DE038BF40F607284046BDE8F087146A02080F
S31508006DF004ED00E00000002000E300E060730020DE
S31508006E00146A020890410008980000206073002068
S31508006E101CA00040814233D210441144401E491E32
S31508006E2010E011F8013900F80139121F11F801397B
S31508006E3000F8013911F8013900F8013911F801395A
S31508006E4000F8013992B2042AEBDA93B2002B1EBF7E
S31508006E5011F8013900F80139521EF6D1704711F8B8
S31508006E60013B00F8013B121F11F8013B00F8013BFA
S31508006E7011F8013B00F8013B11F8013B00F8013B12
S31508006E8092B2042AEBDA93B2002B1EBF11F8013B2B
S31508006E9000F8013B521EF6D17047130003D00A468C
S31508006EA0194603F089BC704710B500E0521E93B22C
S31508006EB023B100F012F8F9D0181B10BD002010BD40
S31508006EC010B500E0521E93B22BB100F006F8F9D0C7
S31508006ED0181B40B210BD002010BD10F8013B11F878
S31508006EE0014BA342704700004148018A40F6A77249
S31508006EF0914202BF408A4FF47F41084203D10228DB
S31508006F0001DB01207047002070472DE9F84F8246C3
S31508006F108846384DDFF8D4B0FFF76CFE2F68044674
S31508006F202868400840002860FFF76EFE01208BF8AD
S31508006F300000FFF7D9FF28B94FF483710FF2B800A4
S31508006F40FFF770FE2A48D0F8289041464AF4807028
S31508006F50C84706462F60FFF757FE2046FFF75CFE38
S31508006F6000208BF800000FF298040EB1A05D04E033
S31508006F7041464AF40070C847205CBDE8F28F2DE907
S31508006F80F84F804689464FEA420A1A4EFFF732FE04
S31508006F90376805463068400840003060FFF734FE21
S31508006FA0FFF7A2FF28B94FF4A4710FF24C00FFF7C0
S31508006FB039FE0F48D0F824B00023524649464046C9
S31508006FC0D84704463760FFF71FFE2846FFF724FE1A
S31508006FD00FF22C050CB1285D05E053460022494600
S31508006FE04046D847285CBDE8F28F0000C37F0020E2
S31508006FF00000080894ED00E0666C6173682E630073
S31508007000000202024B4B46472DE9F84F8046DFF84F
S315080070107C902122FF214846FFF73FFFDFF870B03A
S315080070204FF4A272FF215846FFF737FF21250024A7
S31508007030184EDFF864A01AF804001849375D095D90
S31508007040401C00EBD070401001B11930C01C00FB89
S3150800705007F2134830F81410124803F0E4FB012F26
S315080070601CBF2BF814507D19641C212CE3DB0E4839
S3150800707021234FF4805240F20C6103F0D4FB4946B9
S315080070804046BDE8F44F00F015BB00BFDC77002092
S3150800709098760020546C0208306C02080C6C0208C2
S315080070A0C86B02084C6B0208686B020810B5DFF85B
S315080070B00C4CDFF80C3C2488001B03EB4000002333
S315080070C004E030F8134021F813405B1C9342F8DBC8
S315080070D0002010BDDFF8E42BDFF8E41B1288801AC5
S315080070E001EB40010220FFF710BFF8B504460F4632
S315080070F01546DFF8CC6BE8B200B34FF6FF70ADF873
S315080071000000002017F8011B0DF80010401C6D1E2A
S31508007110C0B2022802DAE9B20029F3D1DFF89C0BE3
S315080071200088A4B2201A0122694606EB4000FFF740
S3150800713026FF641C0100DED000F0E8BB0120F2BD8A
S3150800714070B582B004460D461646F0B278B100F026
S315080071500FF8641C00201DF8001005F8011B401CE0
S31508007160761EC0B20228F0DAF1B20029F3D173BD57
S3150800717001226946A0B299E7DFF8481BDFF8482BD9
S31508007180095C125CDFF8483D185C10B102F599728B
S3150800719092B241EAC21080B27047DFF8283BDFF8A6
S315080071A0342D1B5C012B1CBF32F81000081802EBAB
S315080071B04000704730B591B004460D4604E0401CC7
S315080071C080B2202809DB2034A1B28D420ED32022BA
S315080071D0FFF7CFFF00204FF6FF723DF810109142DF
S315080071E0EDD0A0B2FFF776FF203CECE711B030BD3A
S315080071F010B5044661882088FFF7DCFF0120A071DE
S31508007200DFF8181C208809780818DFF8CC1C0988CC
S3150800721000EB4100801DA08010BD10B5DFF8004CC2
S3150800722000F088F800F04EF900F049F904F1080179
S31508007230DFF8A80C8160446004F11001C16010BD3C
S315080072402DE9F04301F000F885B00578A846B8F1B5
S31508007250070F03DB40F2D32100F010FB0020A071DA
S315080072606A1C208892B201A9FFF720FFBDF8040026
S315080072704FF6FF76B04218BF002856D00DF1040924
S31508007280301A39F8181081424FD1012704E0BDF8A9
S315080072900410884249D17F1C474514DA39F817008B
S315080072A00100F4D1DFF8381C0A88208807FB022180
S315080072B04118711807FB020089B280B2FFF77AFFFE
S315080072C00220A071E7E7A079022830D02088281884
S315080072D0C01C00F0B4FFBDF80000000B404524D1E7
S315080072E020882818401D00F0AAFFBDF80010BDF838
S315080072F00000711A000A01F0FF01884215D1032027
S31508007300A071012220882818401C0DF1020180B2C4
S31508007310FFF7CCFEBDF80200FF2802D10420A071B9
S3150800732005E0B04218BF002801D000F003F805B008
S31508007330BDE8F08320465BE770B5DFF8E44ADFF87E
S315080073409C5BDFF87C690020A071A073A07582B0F1
S3150800735004F10800A8606C6004F11000E86020469B
S31508007360FFF76EFF04F10800FFF76AFF04F110004B
S31508007370FFF766FFA179A07B042908D1002104281C
S31508007380ADF800102CD1FFF748FF012076BDA17D8E
S31508007390042812D100200429ADF80000F3D0FFF725
S315080073A0C9FF00F08CF8DFF8743A208900F08DF8F0
S315080073B0060026D10320A07334E0042929D1002031
S315080073C0ADF80000FFF7B6FF00F07CF8DFF84C3A9E
S315080073D0208A00F07AF8060013D10320A07518E079
S315080073E0A07D0428CFD000F06DF800F068F8DFF82B
S315080073F02C3A208800F069F8060002D10320A07113
S315080074000AE0304603F089FA1EB140F2C73100F0AF
S3150800741035FAA079032805D1A07B012804BFA07DF1
S31508007420012843D0A079032801BFA17B0329A17DA8
S3150800743001293BD0022801BFA17B0329A17D01298F
S315080074400DD0012801BFA17B0329A17D012906D002
S31508007450012801BFA17B0329A17D032904D104F1D9
S31508007460080004F1100125E0012801BFA17B0229CB
S31508007470A17D03290DD0012801BFA17B0129A17D8A
S31508007480032906D0032801BFA17B0129A17D032971
S3150800749004D104F11000214608340BE0032801BF8B
S315080074A0A07B0128A07D02287FF46DAF204604F159
S315080074B0080110346860EC60A960002076BD04F10C
S315080074C0100095E604F1080092E61B781818DFF814
S315080074D0EC371B88401CC01A0122694606EB40009F
S315080074E0FFF74DBD2DE9F04F00F0AEFEDFF8449CE6
S315080074F00078DFF844AC85B00D46ADF80C000122E3
S315080075002088BDF80C100818461D0DF10201B0B20E
S31508007510FFF7CCFDBDF80200000AADF80200761CA4
S31508007520DFF8B409B0F80080BDF8020040451CBF7A
S315080075300120287000271BE0401CC1B2414515D226
S31508007540C0B283463AF81B10BDF80A209142F3D11F
S31508007550FFF712FE4FF680710840BDF808104FF687
S3150800756080721140884208BF09F80B707F1CBFB2B1
S31508007570BDF80200874207DA022202A9B0B2FFF775
S3150800758095FDB61C0020D8E7002101E0491C89B208
S31508007590414509DA19F801008842F7D00120287018
S315080075A002E022F8176006466088C01EB6B2B042EE
S315080075B04FF6FF7A6BDB012269463046FFF776FD08
S315080075C0BDF80000FF27504561D0701C01220DF15F
S315080075D0060180B2FFF76AFDBDF80010BDF8060087
S315080075E0AAEB0101884261D1BDF80010BDF8000080
S315080075F001F07F0ABDF80210F61C000A884255DA27
S31508007600002100E0491C414504DA19F801208242AC
S31508007610F8D1CFB22388BDF80CC0634403EB400011
S31508007620801D00F048FDBDF804006188C0F3C7104E
S31508007630401C00EBD07006EB600082B2914235D355
S31508007640FF2FB0D0DFF8841CC95DBAF17F0F0CBFDD
S31508007650002252468A4208DABDF80020DFF8703860
S31508007660DB5D1206D20F9A4202D0012129709AE7F1
S315080076700129DFF85C2C94D0BAF17F0F32F8171085
S3150800768008BF4FF0000A514422F811608BE7A68024
S315080076906088B1B288420BD301226946B0B2FFF7BF
S315080076A005FDBDF80000761C5045F1D00120287074
S315080076B000F0F8BCF8B58DF80000DFF8B41BDFF869
S315080076C0FC05DFF858370288DFF85407DFF80C485E
S315080076D0028009884180DFF800181E780D88DFF8D7
S315080076E0F43BB21802EB4502921D82800022827199
S315080076F0DFF8E42B12880281B21802EB4502921DCC
S315080077001B888281438100228273DFF8D03BDFF831
S31508007710D02B12880282B21802EB4501891D1B88FC
S31508007720818243820021817503F046F900284DD1F4
S31508007730FFF702FE9DF8001008438DF800000122AD
S31508007740606800883018801CA11C80B2FFF7AEFC68
S315080077509DF8000000283CD16068DFF87877694614
S31508007760FFF7C0FEDFF87C0B0688A068817903293D
S3150800777021D16946FFF7B6FE6168DFF8502B002075
S315080077800FE0A84202DA135C012B09D137F8103052
S31508007790B1F800E0734524BFB1F802C09C450AD28F
S315080077A0401CB042EDDB02208871A1686068616008
S315080077B0E168A160E06000204FF6FF7200E0401C1F
S315080077C0B04206DA37F810109142F8D101208DF848
S315080077D00000607828B101208DF800000020607054
S315080077E002E09DF80000B8B14D2003F096F86088D5
S315080077F0401C6080E068FFF7FBFC9DF8000000F085
S3150800780052F838B100F086F820B19DF8000000F073
S3150800781063FA08B90120F2BD0020F2BDF8B50D469D
S31508007820DFF8B416098817467F2F08BF00278D4250
S315080078303EBFDFF89014495D8F4204461E4605D2C6
S31508007840DFF88414495D8E4200D11CB940F25361B9
S3150800785000F014F839462846FFF79FFCDFF8141A9B
S315080078600088495D29B10146284600F049FC206098
S31508007870F1BD32462146BDE8F84061E40FF698208E
S31508007880FFF7D0B910B5044608461146FFF785FC40
S31508007890DFF8282400881288DFF84C1A801A01EBD2
S315080078A04000206010BDF8B5DFF83016DFF8104448
S315080078B0DFF88458002814BFC8688868DFF85C15A4
S315080078C0008809780818861DB6B2002702E0B61C9B
S315080078D0B6B27F1C00F09EFA874215DAF8B2FFF7B7
S315080078E04BFCADF80000022235F81700DFF8FC392A
S315080078F01B88ADF802006946F01A04EB4000FFF752
S315080079003EFB0100E3D001E00120F2BD03F005F8DB
S315080079100020F2BD2DE9FF47DFF8BC05DFF8FC14AF
S3150800792000880978DFF89883ADF80A000025DFF8A3
S31508007930AC05C06800880818BDF80A1000EB4100BD
S31508007940861DB6B200E06D1CBDF80A00854280F2BD
S31508007950AC80DFF87C05405D8DF808004FF0000A22
S3150800796063E0ADF802004FF6FF70BDF80210401A4A
S31508007970ADF806004FF6FF72D048BDF8001004882F
S31508007980301B761C914208EB4000B6B216D100F0C7
S315080079909EF801001CD100F09FF8010018D1B61C12
S315080079A0B6B2C9483E80425DDFF8440950F8251052
S315080079B03046FFF79AFB002830D17FE0C249495D7F
S315080079C0491C01EBD1714FEAC15900F080F801005A
S315080079D071D100F081F801006DD1B61CB6B23E80B7
S315080079E09DF80800002841D000200390DFF8EC0439
S315080079F0007828B103AA6946A8B202F0E1FF05E0BB
S31508007A00BDF80010E8B200F07BFB0390301B4FEA8C
S31508007A10196203A900F006FA01004CD1DFF8D40870
S31508007A20405D8619B6B20AF1010AA648445D5FFAB6
S31508007A308AF0A04287D25FFA8AF1E8B2FFF7ADFB77
S31508007A4007463888ADF800009DF80800C00140EAEE
S31508007A500520ADF80200012CBDF802000EBF40F06B
S31508007A607F005FFA8AFA4AEA00007AE700270CE004
S31508007A7000F027F8FFF71AFBB819001B012201A925
S31508007A8000F0D0F9010016D17F1CFFB2B7EB196FD1
S31508007A90C4DADFF8480400780028BDF80000E7D00B
S31508007AA000F00FF802F08AFFE6E7DFF83004C06856
S31508007AB08680012002E002F030FF002004B0BDE815
S31508007AC0F087411CADF80010012201A97047012278
S31508007AD00DF10201FFF753BA301B01220DF1060121
S31508007AE008EB4000FFF74BBA2DE9F64F8046DFF862
S31508007AF00838DFF800081B680C2685B0415CDFF8FB
S31508007B00FC070288500892FBF6F63618B3424FF087
S31508007B100009019128BF481808D2182692FBF6F2E8
S31508007B20801A834203D301EB510080B201900026EC
S31508007B30DFF8A87300E0761C00F06CF9864280F244
S31508007B40AE80002441E001220DF102011FFA8BF0FC
S31508007B50FFF7ACFABB68DFF864C19B88BCF800C0C5
S31508007B605748EB18A3EB0C03012200F0AFF801000D
S31508007B700BF1010B16D16D1C0498EDB28542E2DBC0
S31508007B80BDF80010BB684FF6FF70401AADF802004A
S31508007B9001224A489B88058849489B1E5B1B00F0C2
S31508007BA095F8010073D1BB6845489B88DB1E5B1BB3
S31508007BB0012200F03FFB010069D1B868039A818869
S31508007BC01180818851448180641C3E48855DE0B2FD
S31508007BD0A842B0D2E1B2F0B2FFF7DFFA0390B0F8EC
S31508007BE000B03948805D401C00EBD070C005000E1F
S31508007BF00490BDF81400864202BF9DF81810E0B242
S31508007C008842E1D078680288934524BF4088584561
S31508007C10DAD301981FFA88F880454CDADFF8D406DB
S31508007C2010F806A0B868828841885244D21C91424E
S31508007C3003DA01207870452029E0A549895DCA0143
S31508007C4042EA0622ADF80020012DBDF800200EBF3D
S31508007C5042F07F02E4B22243ADF80020D044828885
S31508007C60D21C4FF001098280B9B15946F0B200F032
S31508007C7047FABB68114D049A02909B882D881048D4
S31508007C805B1B02A900F024F801003FF479AF02F06B
S31508007C9044FE002007B0BDE8F08F00256CE7B9F177
S31508007CA0000F08D1796802208871B9687868796008
S31508007CB0F968B960F8600120ECE700009E6F0208D9
S31508007CC000700708546C0208306C02080DF10201B6
S31508007CD000EB4300FFF753B92DE9FE4F5FEA000BAF
S31508007CE07E4DDFF8048614BFE868A868012200887C
S31508007CF0019000F08FF8C0F1FF0101F0FF0141EAA1
S31508007D000020ADF802000DF10201444804780198FC
S31508007D102618DFF8D8050788701DC01B00F082F802
S31508007D20010052D140F6227040EA0430ADF8020054
S31508007D300122F01CC01B0DF1020100F073F80100CE
S31508007D4043D1B01CC01B0122A91C08EB4000FFF759
S31508007D5016F9010039D1701CC01B08EB40095FEA0F
S31508007D600B004FF6FE7A05D0FF2000F05FF8010001
S31508007D702BD109E06868008801226946FFF796F961
S31508007D80BDF80000012802D1ADF800A002E0401EAF
S31508007D90ADF800004FF6FF70BDF80010401AADF8B8
S31508007DA008000122F01B02A900F03CF801000CD1E2
S31508007DB02046441E70B10198A4B22018C01B0122A7
S31508007DC0694600F02FF80100F2D002F0A6FD002067
S31508007DD0BDE8FE8FBBF1000F17D0E9680320887154
S31508007DE06868FFF705FAA868FFF702FAEA6868689C
S31508007DF0A968AA60A8606960E8606A600020E9600E
S31508007E0000F014F80100E0D102E0A96803208871A7
S31508007E100120DDE73048008870470000BD6F020882
S31508007E20DC74002008EB4000FFF7A9B8ADF80200A3
S31508007E3001220DF102014846FFF7A1B8F8B504463C
S31508007E40DFF8B00482B0455CA088134662882E1815
S31508007E50F61CB24204DA214901204870452033E075
S31508007E60C01CDFF89C24A08080B2525C1946FFF73C
S31508007E703CF960B3DFF87404DFF86C740688A088F0
S31508007E80C01E801B012202A907EB4000FFF777F806
S31508007E90010019D1BDF808104FF6FF70401AADF869
S31508007EA000000122A088801E801B694607EB40005F
S31508007EB0FFF765F8010007D10899A0880880A0880F
S31508007EC02818A0800120FEBD02F027FD0020FEBD77
S31508007ED00C6C020898760020AA6F0208407A0020E7
S31508007EE09C6F02082DE9F84F84B0044688469146EF
S31508007EF0FCF7DFF9FFF78EFFADF806000127B9F1A9
S31508007F007F0F08BF4FF0000984423EBFDFF8BC135D
S31508007F10095D894509D2DFF8E8139DF81000095D67
S31508007F20884202D1B8F1000F03D140F6C401FFF729
S31508007F30A5FC49462046FFF730F901250646DFF835
S31508007F40C4038179B6F800A002291FBF817B0229E4
S31508007F50807D022802D1432002F0DFFCC548005D7F
S31508007F6080B35146204600F0CBF8D8F8001081427D
S31508007F7056D0AAF1030000F09EF8DFF88C53DFF81C
S31508007F807433686842881B5D8188D21ED21A8A4279
S31508007F9007DB31B1A9680A889245A4BF49885145CB
S31508007FA075DBE8688079D5F808A0022839D144201D
S31508007FB002F0B3FCE8688079012832D0452002F047
S31508007FC0ACFC55E09DF8100002904FF0000B22E043
S31508007FD00BEBDB700AEB600000F031F908EB0B00E5
S31508007FE018F80B10407801EB00200299491E8B45C2
S31508007FF080B207D1BDF8001001F0FF0100F0FF00C4
S31508008000ADF80010BDF8001088420BF1020018BF49
S3150800801000255FFA80FB02988345D9DB002DA8D09E
S3150800802040E0A8688179012914D10020FFF73BFCBC
S31508008030002837D00020FFF74FFE002832D0B3487B
S31508008040BDF80630007800EB4300C01D4A462146BD
S3150800805080B204E0032911D14A4621460020FFF7E1
S3150800806043FD28B100F021F85046FFF7E7FEC8B9EE
S315080080703846471EC0B2002812D113E002290CBFA9
S3150800808040F6B31140F6B511FFF7F8FB0AE000F029
S315080080900CF8FFF7D3FE28B93846471EC0B20028A9
S315080080A07FF447AF05B0BDE8F08F00964246BDF8AD
S315080080B0043021467047012201A980B2FEF7F6BFB7
S315080080C070B582B0044600251926FFF751F8BDF8A9
S315080080D00000641C30B14FF47F41401A07D0FF38C6
S315080080E003D006E0AD1C761EEFD168B276BD6D1CD6
S315080080F0FBE7BDF80000C0B200B96D1CED43F4E71C
S3150800810038B50C46002100917D490D5C2A46694622
S315080081102046FFF715F8681C00EBD07004EB6000EA
S3150800812080B2FFF7CDFF002848BFC043009940B290
S31508008130401832BDDC770020C86B0208F0B57449D8
S3150800814009880446624883B0254630F815608C4293
S3150800815002D24848405D18B940F66A21FFF78EFBFF
S315080081606748455D681C00EBD07006EB6007B8B23F
S31508008170FFF7A6FF322814D2BFB2C10707EB60008B
S315080081805A4F594B3F884CBF00214FF47F41ADF8F9
S315080081900410C01B012201A903EB4000FEF7EFFE05
S315080081A060B131462046FFF7ABFF00902B46401CD6
S315080081B000907F2269462046FFF794FEF7BD70B50A
S315080081C000F042F8067882B0354629464D1E2088CA
S315080081D0022921DBEDB2281800F031F8BDF80000BD
S315080081E00028F2D04B492088098805FB010080B297
S315080081F0FEF770FF0020ADF80000012223883B4CF3
S3150800820039482488EB181B1B00F014F8010018BF26
S3150800821002F083FB284676BDFEF75CFF0120A071BD
S315080082203B4920880988301800EB4100801DA08052
S31508008230E8B276BD694600EB4300FEF7A0BE012210
S31508008240694680B2FEF732BF0446304870472D486B
S315080082508179022908D0817B022908BF083003D01A
S31508008260817D022901D11030A9E70020704700005E
S31508008270A06F02080C6C020870B5FFF7E5FF0678D8
S3150800828082B000250CE02088F6B23018FFF7D7FF39
S31508008290BDF8000000281EBF4FF6FF7188426D1C0E
S315080082A03046461E0028EED1E8B276BD15488179DB
S315080082B0022908D0817B022908BF083003D0817DB6
S315080082C0022901D11030D7E700207047546C020804
S315080082D098760020A46F0208A26F0208A86F020809
S315080082E0A66F0208AC6F0208007007089E6F0208A6
S315080082F0AC6E02089C6B0208986B02089A6F02081B
S31508008300306C0208DC740020407A0020BD6F020839
S31508008310AA6F02089C6F020873696D2D65657072F5
S315080083206F6D322D696E7465726E616C2E63000016
S3150800833030B10368002A14BF194323EA010101601A
S315080083407047DFF8400300687047F8B5DFF8347304
S315080083503D6804460026DFF83003044214BF0226AF
S315080083603C6024EA0500C00307D50021002000F080
S3150800837045F80021002000F064F830000CD1386878
S3150800838000F4804005F48041884205D0A00B00F037
S31508008390010000F0ACF806463046F2BD70B5BB4C9D
S315080083A0BB4E25783078B7490968C9031ED405F04D
S315080083B0010100F00102114318D0B6490A6842B11A
S315080083C0000706D5096808208847307800F0F700C6
S315080083D03070B149086870B128070CD509680820BB
S315080083E08847207800F0F700207004E0AB48017851
S315080083F009B100210170BDE8704027E12DE9F84375
S3150800840004468846FEF7F6FB8146A548007801270C
S31508008410B0B19E4FA04E3D78200009D1002D1CBF5B
S315080084203068002804D0680602D53168402088479D
S31508008430C6F80080A5421CBF3C70FFF7AFFF0027B7
S3150800844021E02DE9F84304468846FEF7D3FB81462A
S31508008450934800780127B0B18D4F8E4E3D782000A5
S3150800846009D1002D1CBF3068002804D0680602D543
S31508008470316840208847C6F80080A5421CBF3C707A
S31508008480FFF78CFF00274846FEF7C6FB3846BDE8CF
S31508008490F28338B5824D2978884204460FD02000E9
S315080084A007D100210020FFF7CCFF00210020FFF7AD
S315080084B0A5FF2C702046FDF727FD00F0C7F8002021
S315080084C032BD7748007870477648007800F001009A
S315080084D07047744974480978C90705D54FF40041AF
S315080084E0C16008210160B1E00821016070472DE9EB
S315080084F0F0416C4D6C4E0446287800F0010121438A
S315080085004FF4004706D00021B16568490F6008217D
S315080085103160F76000F0FE0020432870FEF76AFB22
S31508008520DFF88CE16349DEF80080634A634BDFF8C5
S3150800853090C1002C28F4704823D048F40048CEF89F
S315080085400080DEF8088028F08008CEF808804FF012
S31508008550080EBCF802806EF30F38ACF8028093F868
S3150800856000C00CF07F0C83F800C0B2F802C06EF3AE
S315080085700F3CA2F802C00A7802F07F020A70602156
S3150800858022E048F48058CEF80080DEF8088048F0EB
S315080085908008CEF808804FF0010EBCF802806EF312
S315080085A00F38ACF8028093F800C04CF0800C83F8C2
S315080085B000C0B2F802C06EF30F3CA2F802C00A78F7
S315080085C042F080020A700021B16507213D4A116018
S315080085D0FEF722FB7CB10720FBF788FE401E804190
S315080085E03949C00F08702878800706D500F02EF89C
S315080085F03648076001E000F029F8287800F0010203
S315080086004FF480411F48FFF793FE0020BDE8F08134
S315080086102448017801F0FD010170C80703D52349F4
S315080086204FF40040086070471E48017841F0020187
S315080086300170C80700D4704710B51C484FF40044B1
S315080086400460FFF746FF2148046010BD80B5144852
S31508008650007814480078C0070BD50720FBF73DFEC5
S3150800866000B1012018490978C0B2884208BF012024
S3150800867002D00A4A00201070BDE80240FDF7CFB9C3
S3150800868000000000D0750020FFBC0FF8947F002082
S31508008690957F0020D8750020D4750020937F002090
S315080086A0927F0020967F002014A8004080E100E019
S315080086B004B00040F0730020E4730020E07300204B
S315080086C0D473002024BC00405E75002000E100E061
S315080086D02DE9F84305460E463000144605D1FDF748
S315080086E07FF82018C0F313004DE02F46022F0FF233
S315080086F03C1803DB40214046FEF794FA102C05D2BD
S315080087002846B047BDE8F143FDF76AB8DFF810918F
S3150800871059F8270018B148214046FEF783FAB4F500
S31508008720002F03D349214046FEF77CFA49F8276013
S315080087303C4F3D4E95B9FEF75DFA0546FDF750F8F4
S315080087402418A0B27860200C3860022030602846D1
S31508008750FEF762FA306C40F0020011E0FEF74AFAC2
S315080087600546FDF73DF82418A0B2F860200CB8605D
S31508008770042030602846FEF74FFA306C40F00400BB
S315080087803064C4F31300BDE8F28370B50446264688
S31508008790022E0D4604DB66210FF29000FEF742FA20
S315080087A0FEF728FA1E4951F82620AA4210D10022BF
S315080087B041F82620002C1C490A6C04D122F002023A
S315080087C00A64022203E022F004020A6404220A6010
S315080087D0BDE87040FEF720BA70B5134C104E2068FD
S315080087E0216C01EA0005ADB2A80709D5206C20F076
S315080087F0020020643168080002D0002030608847F3
S3150800880068070AD5206C20F0040020647168080007
S3150800881003D00020706001208847256070BD0000E5
S31508008820687B00204020004008A0004073796D62F4
S315080088306F6C2D74696D65722E630000DFF8A015E4
S3150800884000200870FF21DFF89C0501700171704750
S31508008850F8B5044602F0C5F80546DFF88C05DFF8DA
S3150800886084750688204602F0BFF9B0F5006F16D168
S31508008870204602F0DDF900F0C9FAFF280DD000F015
S3150800888037FA2146381D02F08BFDDFF854050178CA
S3150800889081B10089A9190E1A10E09320F2BDFF21B3
S315080088A0384602F0A8FD052802DA21463846EAE7E6
S315080088B03920F2BD0581314602F0FCFDB2B2032132
S315080088C0204602F008F903220521204602F00EF997
S315080088D0204602F08BFA0020F2BDF8B50446DFF810
S315080088E004050078FF2813D0DFF8005529680E5CC8
S315080088F03746384602F08DF9014608222046FEF72B
S31508008900D3FA08B90120F2BD2868C75DB742F0D18D
S315080089100020F2BD2DE9F843044602F00EF9000BDB
S3150800892000F00106204602F098F90546204602F0B6
S3150800893083F9B0F5404F14D1002E62D029460020A5
S3150800894000F091F90446FF2C5BD0002103F038F8BB
S31508008950002856D000F0ADF940F0800205212046E7
S3150800896046E0284603F0BEFB054600F04FFA0446EB
S31508008970FF2C08BF002045D001200021224603F025
S31508008980DFFBDFF86C24D2E9008948EA000349EAEC
S315080089900107C2E90037A6B3DFF85864336833F82D
S315080089A014704FF4E6631F422BD0BB0623D5280A62
S315080089B08DF801008DF800506946012000F053F942
S315080089C00546FF2D08D1306830F814104FF6DF72CF
S315080089D0114020F8141014E0002102F0F1FF80B1D4
S315080089E00521284602F089F840F08002052128462C
S315080089F002F07CF805E0D2E9024520432943C2E9A2
S31508008A0002010120BDE8F28338B5044602F0ECF80D
S31508008A10B0F5006F0CBF01250025204602F0F9F8D5
S31508008A2004462146284600F01EF9FF2810D18DB1CC
S31508008A30204603F057FB00F0E9F9FF280AD0DFF8D3
S31508008A40B413096831F810004FF4E261084201D006
S31508008A50012032BD002032BD2DE9F04107460C4603
S31508008A6002F0C2F8DFF87C53B0F5006F0CBF281D82
S31508008A7028460078FF2846D0DFF870130968085C96
S31508008A800646B7423CD1FEF7B5F880460521304682
S31508008A9002F033F800F07F00471EFAB2052130468F
S31508008AA002F024F8200018BF312C01D0FFB207BB12
S31508008AB0FEF7A0F80746304602F096F8B0F5006FC4
S31508008AC0314605D1281D02F096FC00F0F6F802E0C2
S31508008AD0284602F090FC3846FEF79EF84046FEF718
S31508008AE09BF82146304604F0E6FA304602F08CF947
S31508008AF004E000F0E2F84046FEF78EF8012003E0B5
S31508008B008E5D8642BDD10020BDE8F08110B501F02A
S31508008B1068FFB34C21892081411A88B200F0F1F828
S31508008B204FF6FF71884202D10020207010BD014621
S31508008B302046BDE8104002F0BDBC4FF6FF70E0E0ED
S31508008B402DE9F84F00F089F808BF824200F08380CB
S31508008B500127834600248046FEF74CF8A44A82463D
S31508008B60D2E9000100250BEA010207EA0006AA423B
S31508008B7008BFAE421CD0FE436FEA0B099C4A304040
S31508008B8001EA0901C2E900010125D2E902010BEA5D
S31508008B90010307EA0002434508BF424508D0944A44
S31508008BA0A846D2E90201304001EA0901C2E90201F8
S31508008BB05046FEF731F8002D3FD08E48006830F851
S31508008BC01400810739D58C49096831F81450B8F171
S31508008BD0000F06D000F49870102808BF4FF0010A5D
S31508008BE001D04FF0000A85480078C0070AD58449A5
S31508008BF00968002041F8240082480068015D41F0B8
S31508008C00F00101558AF0010018EA000F09D07948E9
S31508008C10006830F8141041F4006120F8141002F0CE
S31508008C2021FF002000902B461A226CA1032001F098
S31508008C3034FE5146284604F0A2FE4FEA4B0040EAAD
S31508008C40D77B7F00641C402C05DA00F006F808BFC5
S31508008C5082427FF480AFBDE8F18F6548D0E90023F2
S31508008C600020834270472DE9F04188465D49002877
S31508008C701ABF091D022508250878FF2816D05B4E5D
S31508008C8031680F5C3C4600F014F800060AD420460A
S31508008C9001F0BFFF01462A464046FEF705F908B926
S31508008CA0204604E03068045DBC42ECD1FF20BDE8F4
S31508008CB0F0810521204601F020BF70B50021202053
S31508008CC004F026FF47480079FF2810D0474C216852
S31508008CD00D5C2E46304601F0ABFF00F097F8FF28F2
S31508008CE001D000F005F82068865DAE42F2D170BD6D
S31508008CF04049096831F8102042F0200221F8102076
S31508008D0070472DE9F84F80460FF2FC00354E006893
S31508008D10364F00904FF6FF7A344600E0341DFDF7D3
S31508008D2069FF814606E0204602F04FFB2946684661
S31508008D3002F036FB204602F093FB40B938682178EA
S31508008D40455C0321284601F0BDFE8045EBD2301D67
S31508008D50844208BFFFF7B1FF4846FDF75DFF20785C
S31508008D60FF2819D0396811F800904D460321284686
S31508008D7001F0A8FEA0EB080B1FFA8BF20321284688
S31508008D8001F0A9FE3868455D51461FFA8BFA8A45F7
S31508008D9088BF8A464D45E9D1301D8442BED1684612
S31508008DA002F05EFBA8B9684602F00FFB044601F024
S31508008DB0CEFE00F096F8FFF77CFF000603D44221AA
S31508008DC0204604F078F9204602F01EF800F0BAF8BA
S31508008DD0E5E71FFA8AF0BDE8F28F00004257420025
S31508008DE0CC7A0020107500202475002070730020AE
S31508008DF0B075002078730020747300206C7C002006
S31508008E007C730020C4730020FF000000F8B50F4DE6
S31508008E102E68040001D1FF20F2BDFDF7EBFE0C4FD2
S31508008E2029683A7821F8124036F8021BA142FBD18C
S31508008E30FDF7F2FE29683A78B01E401A4010C1B212
S31508008E40914208BFFF20C0B2F2BD00BF7473002074
S31508008E50627500202DE9F84FDFF8E446DFF8E4569E
S31508008E602068DFF8E4B6DFF8E496DFF8E4A6E86100
S31508008E70286200264FF6FF7827E02068F6B24821D8
S31508008E8071434718482200213846FEF706F899F834
S31508008E9000003870A7F80280002038737873761CB3
S31508008EA00B20B8730320F8734FF6FE703882A7F8C4
S31508008EB0128000F0C1FD387600F0BEFD787600F02D
S31508008EC0BBFDB8769BF80000F876F0B29AF8001069
S31508008ED08842D2D3281DBDE8F84F0222FF21FDF7AC
S31508008EE0DCBF2DE9F041DFF86C560FF288680446BE
S31508008EF095F9000010F1010F03DA5C214046FDF7F1
S31508008F0091FEDFF84C7639788C42264605D3FE2E3C
S31508008F1003D05E214046FDF785FE2878DFF8241643
S31508008F20401C287040B20844047438788442DFF83C
S31508008F301006006828BF0E78482272431044C8619C
S31508008F40BDE8F08110B5DFF80C4694F9000000285A
S31508008F5002D56F2100F0A3F82078DFF8E815401E47
S31508008F60207040B2DFF8E8450A78247800284EBF1A
S31508008F7010460818007CA04238BF0246DFF8C00534
S31508008F80006848235A431044C86110BD10B5002034
S31508008F90DFF8B01500E0401C00F07BF80AD2DFF8D5
S31508008FA0A035C0B21B68CA694824444323449A4280
S31508008FB0F1D110BD8A2168E0DFF8980590F9000024
S31508008FC010F1010F01D10120704700207047FE20E3
S31508008FD087E7DFF870050078704738B50446FFF76D
S31508008FE0EBFFDFF8605550B9DFF8680590F9000027
S31508008FF02844007CFE2802D0A62100F050F8DFF8AD
S31508009000501509788C4201D3B12032BDDFF83005FE
S315080090102C704821006861430844E861002032BD8D
S3150800902038B5DFF83005DFF81C5590F900402819E7
S31508009030007CFE2807D0FFF7BFFF20B9C32100F048
S315080090402EF8FF2032BD611E00E0491E49B2080015
S3150800905004D46818007CFE28F7D032BD287832BDC3
S3150800906010B50020DFF8DC1400E0401C00F011F811
S315080090700AD2DFF8CC34C0B21B680A6A48244443D3
S3150800908023449A42F1D110BDE22100F008F8FF20EE
S3150800909010BDDFF8BC341B78C2B29A4270470FF293
S315080090A0D440FDF7BFBD10B5FBF76EFBDFF894445F
S315080090B0216A897B884203D00846FBF75DFB50B9D5
S315080090C0FBF765FB0146206A90F90F00814204D040
S315080090D0FBF761FB08B1012010BD206A008AFDF785
S315080090E096F8206A408AFDF79AF8206A007B0128DC
S315080090F018BF0020FDF775F8002010BDDFF85014E2
S3150800910010B509788842044603D34FF48371FFF7F4
S31508009110C6FFDFF84404007808B9702010BDDFF8F0
S3150800912020040068482161430844DFF818140862DF
S31508009130BDE81040B7E7DFF820140870704710B58F
S31508009140DFF818440020207002F06FFF20B920468F
S31508009150BDE8104002F0A4B900F054F8DFF8F013A7
S315080091600978884206D3FFF711FF044600F010F885
S3150800917018B12046BDE81040C0E710BDDFF8C403AB
S31508009180006A008A7047DFF8BC03006A408A7047A5
S31508009190DFF8AC130968482250430844407B02288C
S315080091A01CBF1128432801D10120704700207047B1
S315080091B0DFF88C130968482250430844007B0128CD
S315080091C01CBF0228032801D10120704700207047E0
S315080091D010B5002400E0641C00F028F810D2FFF750
S315080091E0D7FF0028F7D0D648E4B200684821614383
S315080091F00844007B012818BF0228ECD1204610BD80
S31508009200FF2010BD10B5002400E0641C00F00EF825
S315080092100AD2FFF7CDFF0028F7D0E0B2FFF7B8FF74
S315080092200028F2D0E0B210BDFF2010BDC849097869
S31508009230E0B28842704770B500240025C44E08E0A5
S31508009240FFF74FFE04F0E9FF00B10124FFF77AFEAD
S315080092506D1C3178E8B28842F2D3204670BD80B5DD
S31508009260FFF7D0FFFF2801D0012002BD002002BD74
S3150800927038B5BB4C054620680321A94088432060C1
S31508009280FFF784FE2168A8400843206031BDB44931
S315080092900968C14001F00300704738B504460D4619
S315080092A0FE20FFF71EFE2946204605F062F9BDE8B6
S315080092B0314047E610B50446FE20FFF712FE204669
S315080092C005F07CFABDE810403CE682B08DF8001047
S315080092D0DDE9002311461A4602B005F0D1BA32B5C7
S315080092E086B004468DF8042004F0D6FE05462046CE
S315080092F004F0E0FE80F001010D420DD0BDF8180023
S3150800930004F0B6FF8DF80000FF2804BF00208DF892
S315080093100000CDF808D01AE0294308BF06A815D0E2
S31508009320054214D0BDF8180004F0A2FF8DF800001D
S31508009330FF2804BF00208DF800009DF800008DF876
S315080093400C00BDF81800ADF80E0003A80290FE2028
S31508009350FFF7C7FDDDE901010A460146204605F08B
S315080093608FFAFFF7EFFD07B030BDF8B5784E754DAB
S3150800937004463078687000270DE0FFF7B2FDE8690B
S315080093804169FFB244F8371004EBC701C07E087183
S315080093907F1CFFF7D7FD3178F8B28842EDD3F1BDCF
S315080093A0F8B504460025674E0DE02846FFF799FDF7
S315080093B0F06954F8371041616D1C04EBC70109794F
S315080093C0C176FFF7BFFD6249707809788142EDB230
S315080093D038BF08462F468742E7DBF1BD38B5FFF7A9
S315080093E0D5FD5B4A574B1278002100E0491CCCB2E8
S315080093F094420ED29C78C9B20C1994FBF2F502FB82
S315080094001544E4B21C442579854202D0FF2DEDD1DE
S31508009410207131BD70B54B4C4D4EA0783178204443
S3150800942005798D4203D340F22921FFF738FEA0784B
S315080094302218FF211171401C317890FBF1F201FBD3
S315080094401200A070284670BD3E488178084400790D
S31508009450FF2801D0012070470020704710B5FFF79C
S31508009460FEFE70B1374CE069007B042809D1142050
S31508009470FFF7FEFE04F10800BDE81040642102F083
S3150800948019B8BDE8104002F08FBB80B52D49002001
S3150800949008721420FFF7FBFEFFF723FD02F084FB9A
S315080094A0BDE801404EE500002DE9F8438146FFF787
S315080094B06DFDB9F1040F0FF2BC082A4C214F2A4D55
S315080094C02A4E34D8DFE809F0030A0A1B1B00F8699C
S315080094D000F128010020086088602FE0FFF7BFFE32
S315080094E020B14FF418714046FDF79CFBF8693168C6
S315080094F040F8281F21688160297801711EE02A78C2
S315080095003568F9690E2303FB02F6354443432B44B9
S3150800951041F8283F236803EB8202154B1B7802EBC0
S31508009520830202EB800088600120087106E040464D
S31508009530BDE8F44340F27121FDF774BBBDE8F18341
S315080095409C730020887A0020737500209F7F002076
S31508009550677500209975002098750020AC7A002060
