S0100000656D3236302D7573622E73333703
S3150800400030EA002069520208814B0208854B0208F3
S31508004010A70A0A0100410008041203AC3062CC006A
S315080040200000000000000000000000000000000082
S315080040300000000000000000000000000000000072
S315080040400000000000000000FFFFFFFFFFFFFFFF6A
S31508004050FFFFFFFF007007080000000000000000D7
S31508004060FFFFFFFFFFFFFFFFFF000000000000004B
S315080040700000000000000000000000000000000032
S31508004080F0FF002000000000E9FF0020E9FF002003
S3150800409030EA0020445E0208F8550208D0E0002005
S311080040A0B40F00200000080800000120F2
S3150800410030EA002069520208814B0208854B0208F2
S315080041108D4B0208894B0208914B0208084C02088D
S31508004120084C0208084C0208084C0208084C020809
S31508004130954B0208084C0208084C0208CFD3010820
S315080041404B4B0208084C0208D7E70108084C02083E
S31508004150332B0208084C0208084C0208084C0208CF
S3150800416069F10108B1D10008ADF900089D400208BF
S31508004170084C02082B4A0208734A020819CC0008A0
S3150800418067F30108084C0208084C0208714C02083B
S3150800419010B58C0801EB5474E408A1EBC40103685C
S315080041A0012409E010B54C0801EB9474A408A1EBAE
S315080041B08401036889000F2400F062F8016010BDCD
S315080041C070B500F0E7F8044600F0E4F8054600F09C
S315080041D0E1F800F00106182C05F00F0528BF362077
S315080041E03CD200F0A9F84FF4F051084218BF382025
S315080041F034D1E00803D0022809D004D30CE03246B3
S315080042002146554806E032462146544802E03246E1
S3150800421021465348FFF7BCFFA00805281DD8DFE84C
S3150800422000F003070B0F13172A4621464D4812E0E4
S315080042302A4621464C480EE02A4621464B480AE0C3
S315080042402A4621464A4806E02A462146494802E0C7
S315080042502A4621464848FFF7A5FF0020BDE87040DA
S3150800426000F0B1B84B0810B501EB93739B08A1EBAE
S315080042708301890003880F2400F002F8018010BD2D
S315080042808C40A34302FA01F1194370478B0810B515
S3150800429001EB5373DB08A1EBC30103780124FFF795
S315080042A0EFFF017010BD2DE9F84300F073F80446DE
S315080042B000F070F8054600F06DF8064600F06AF85A
S315080042C0074600F067F805F00F0806F0010500F04C
S315080042D00109182C07F00F0628BF362024D200F053
S315080042E02BF84FF4F051084218BF38201CD160084B
S315080042F004EB907087082148424600F019F82048D8
S31508004300324600F015F8A00804EB5070C6081D48A0
S315080043102A4621463044FFF7B9FF1B484A4621463C
S315080043203044FFF7B3FF0020BDE8F24300F04BB876
S31508004330214600EB470095E701200021224600F0C0
S315080043405FBA80B500F062F81049114A08400021AA
S31508004350C2E9000101BD00000CB000400CB20040EB
S315080043600CB4004000B0004004B0004000B2004069
S3150800437004B2004000B4004004B4004040EA002003
S3150800438054EA002030EA002038EA0020FFE1FF0066
S3150800439068EA00202A480168491C016011F8010DE5
S315080043A0704738B50446264D08462968224600F067
S315080043B038FA28682044286031BD214A1168084423
S315080043C01060084670471F491F4B0A681B68D31AB6
S315080043D0DC2BB8BF10700868401C0860704710B521
S315080043E00446C0B2FFF7EFFF200A48E010B5FFF712
S315080043F0D1FF00F042F904EB002080B210BD10B5E1
S31508004400044680B2FFF7EBFF200CB7E010B5FFF7C4
S31508004410EDFF00F05EF804EB004010BD38B5094C1E
S31508004420094A2368126805469A1AAA18DD2A03DA81
S315080044300246184600F0F5F920682844206031BD88
S3150800444094F8002098F80020D0FA002010B500F063
S3150800445042F8FFF7CBFF2081FFF79CFFA072FFF71A
S3150800446099FFE072FFF796FF2073FFF7BFFFE08121
S31508004470FFF790FF2074FFF7C9FF606110BDBDE824
S315080044801040A0E710B500F024F82080FFF7AEFF33
S315080044906080FFF77FFF2071FFF77CFF6071FFF7F1
S315080044A0A5FFE080FFF7A2FF2081FFF773FFA07248
S315080044B010BD10B500F00AF8A078E0E710B500F0D6
S315080044C008F82080FFF766FFA07010BD0446208814
S315080044D085E704468AE704462146082061E710B5C1
S315080044E000F0CBF8A070FFF781FF2080211D00F0B7
S315080044F0C2F8FFF74FFF00B10120E070FFF74AFF4F
S315080045002073FFF747FF607310BD10B504462146B8
S3150800451000F07FF82069BDE8104070E710B5044642
S31508004520214600F078F8FFF771FF206110BD10B53D
S31508004530FFF7CFFF208010BD207944E710B5044669
S31508004540FFF7CDFF04F1100000F01BF804F11C0181
S3150800455000F091F8FFF74AFF24F8240FFFF746FF0B
S315080045606080FFF717FF2071FFF714FF6071FFF7F0
S3150800457011FFA071FFF70EFFE07110BDBDE81040F6
S315080045802DE710B50446FFF741FF2060FFF73EFF11
S315080045906060FFF72BFF208110BD10B500F010F802
S315080045A000F08CF8E088FFF71AFF2089FFF717FF5D
S315080045B06089FFF714FFA089FFF711FFA07B5EE76C
S315080045C0044620681BE710B50446FFF71FFF206066
S315080045D0FFF70CFFA080FFF709FFE080FFF706FF53
S315080045E02081FFF703FF6081FFF700FFA081FFF737
S315080045F0D1FEA07310BD10B5FFF7E2FFFFF79CFFD1
S31508004600611D00F006F804F11501BDE81040102000
S3150800461004E7102002E71020C3E610B50446207A06
S31508004620FFF7D1FE207A010006D12068FFF7E7FEE2
S315080046302068FFF7E4FE04E0022802D1214600F0D4
S3150800464002F8607A1BE70820E8E610B500F015F8CE
S315080046500100207206D1FFF7D9FE2060FFF7D6FECB
S31508004660206004E0022802D1214600F004F8FFF792
S3150800467091FE607210BD082093E604468AE638B5B6
S31508004680044602252078FFF79EFE2078401E012862
S3150800469006D96089FFF7A3FEA11CFFF7D4FF09E03E
S315080046A000F00CF800F00CF800F008F800F008F834
S315080046B000F004F80C346D1EE4D131BDA0888EE6F6
S315080046C060888CE610B504462078FFF77CFE6068A3
S315080046D0FFF795FE04F10800FFF79FFFA08AFFF792
S315080046E07EFEA07DFFF76FFEA069FFF788FE04F146
S315080046F01C01FFF78EFF04F12C00FFF7C0FF14F82A
S31508004700440FFFF760FE6078B9E610B5FFF7DEFEE6
S31508004710FFF7D6FFA08831E710B5FFF7DAFE20804D
S31508004720FFF764FE6080FFF761FEA08010BD30B51C
S3150800473002F8010B002312E031F8234002F8014B7E
S3150800474031F82340240A02F8014B01EB83045B1C71
S31508004750658802F8015B6488240A02F8014B8342E3
S31508004760EADB30BD0CB4F8B505460C4606AE08E0E3
S3150800477056F8040B290003D00078FFF71EFE3860B0
S31508004780641C2078010037D056F8047B622827D0AD
S315080047907028EDD0732818BF752804D076280CD059
S315080047A0772814D0ECE7280003D0FFF7F3FD38701C
S315080047B0E6E73878FFF707FEE2E7280003D0FFF7B9
S315080047C015FE3880DCE73888FFF709FED8E72800A9
S315080047D002D0FFF71BFED2E73868FFF710FECFE7D7
S315080047E056F8040B00782900394602D0FFF7D9FDA0
S315080047F0C6E7FFF713FEC3E7F1BC5DF80CFB000044
S31508004800D2B2203A22BF00FA02F100207047524283
S31508004810D041D2F1200291404140D04090404140E1
S315080048207047814233D210441144401E491E10E09D
S3150800483011F8013900F80139121F11F8013900F889
S31508004840013911F8013900F8013911F8013900F870
S31508004850013992B2042AEBDA93B2002B1EBF11F883
S31508004860013900F80139521EF6D1704711F8013B9B
S3150800487000F8013B121F11F8013B00F8013B11F843
S31508004880013B00F8013B11F8013B00F8013B92B2ED
S31508004890042AEBDA93B2002B1EBF11F8013B00F88D
S315080048A0013B521EF6D17047130003D00A4619463B
S315080048B000F020B8704710B500E0521E93B223B13D
S315080048C000F012F8F9D0181B10BD002010BD10B565
S315080048D000E0521E93B22BB100F006F8F9D0181B6F
S315080048E040B210BD002010BD10F8013B11F8014B75
S315080048F0A342704762F30F2262F31F42401810F07A
S31508004900030308D0C91A1FD3DB0748BF00F8012DD7
S3150800491028BF20F8022D130030B414461546103966
S3150800492028BF20E93C00FAD8490728BF20E90C002F
S3150800493048BF40F8042D890028BF20F8022D48BF3B
S3150800494000F8012D30BC7047C91818BF00F8012DB2
S31508004950CB0728BF00F8012D7047000010B50446A4
S3150800496000F0C8FD204601F0BAFD204602F0CEFA56
S315080049702046BDE8104002F083BC01F0F8BD10B532
S31508004980044600F004FE204601F023FE204602F00D
S31508004990E5FA204602F0D9FC2046BDE8104002F0B0
S315080049A071BC10B500E010B5044600F060FE204664
S315080049B001F036FF204602F0EDFA204602F02FFD00
S315080049C02046BDE8104002F06CBF10B5044600F062
S315080049D07BFE204601F052FF204602F00AFB09E062
S315080049E010B5044600F095FE204601F089FF2046E2
S315080049F002F01CFB204602F02AFD204602F069FF61
S31508004A002046BDE8104002F0D4BC80B503F0C4F9D6
S31508004A10BDE8014002F002BA10B5044602F000FEF5
S31508004A202046BDE8104002F0D8BC0198704703F054
S31508004A3022BA70472DE9F04701241028A4B00FF6D2
S31508004A402025DFF89479A2A3A3A60FF28829A3A1AB
S31508004A500FF28C280FF28C2A00F04C8118281CBF04
S31508004A601D2820286FD0212800F0128122286AD01C
S31508004A70282800F0B580292800F0D8802A2862D096
S31508004A802B2800F064812D2800F082812E285AD028
S31508004A90302826D0332800F08081342800F0808121
S31508004AA0352800F0FC82362800F09F81372800F070
S31508004AB02A82382800F0C481392800F058823A281A
S31508004AC000F0EA81422800F066824A2800F0C28097
S31508004AD04C2800F0EE825A2800F06F825B2832D00C
S31508004AE05D2800F0E183632800F0B282642800F0B4
S31508004AF0BC826A2803D06F2800F02383712800F04F
S31508004B00F082732818BF772800F0DC837A281AD039
S31508004B10822800F06B82832800F0A183842818BFBE
S31508004B20852810D086281CBF872888280BD0892876
S31508004B3000F09C838A281CBF8B288D2803D09028D8
S31508004B4000F01984952800F09D83962800F09F822E
S31508004B509A281CBFA128A428F5D0A62800F06E83A1
S31508004B60A82800F00A83A92800F02383AF2800F0BC
S31508004B703D83B128E7D0B22800F0B283B92800F007
S31508004B80CB83BA2800F0CD83BC2800F0CD83BD289E
S31508004B9000F0D583C12800F08780C22800F0A780DE
S31508004BA0C32800F0A180CE2800F02D83D42800F079
S31508004BB0CD83D52800F0CF83D62800F0D183D72817
S31508004BC000F0D383D82800F0D383E828BBD0ED289B
S31508004BD000F04183EE28B6D0FE2800F05182E9E3C2
S31508004BE001A9684601F02EFC00F023FC314600209E
S31508004BF0FFF7B8FD00F00DFCBDF80C00FFF7EFFB62
S31508004C009DF80E00FFF7DFFB9DF80F00FFF7DBFBB3
S31508004C109DF81000FFF7D7FBBDF81200FFF7DFFB82
S31508004C209DF81400FFF7CFFB069804E308208DF8DB
S31508004C3009000DF10A0103A801F02AFC8DF8080005
S31508004C4003AB0DF10A00019002AA0DF109000090CC
S31508004C50E2A142E200F0FAFB9DF8010001A901F089
S31508004C6028FC00F0ECFB00F0D4FB9DF80C00FFF7E5
S31508004C70AAFBBDF80E00FFF7B2FB9DF81000FFF780
S31508004C80A2FB9DF81100FFF79EFB9DF812008EE32C
S31508004C9001AB0DF10102D2A100F0C8FB01999DF804
S31508004CA0010001F008FC2CE30DF1060200F09AFB66
S31508004CB09DF8060001AA02A901F073FB8DF805000C
S31508004CC002AB01A800900DF10502C6A105E200BFDE
S31508004CD076000000757570007575000062000000AA
S31508004CE0757000007500000001F05DFB5FE301F0E0
S31508004CF05CFB5CE30DF1150004900DF11E030DF14C
S31508004D001600039006AA0DF1170002900DF11A007D
S31508004D10019007A8009001200FF23C71FFF722FDD1
S31508004D209DF81500BDF81A30BDF81C20BDF81E10F8
S31508004D3002909DF8160001909DF8170000909DF8C6
S31508004D40180003F029F98DF8140005AADCE2FFF72C
S31508004D5021FB0546FFF71EFB8DF80000FFF71AFB3F
S31508004D608DF80100FFF742FBADF80200FFF712FBD2
S31508004D708DF804000DF105010820FFF712FBFFF777
S31508004D8009FB8DF80D006946284602F087FD0EE3FB
S31508004D90FFF700FB02F083FD09E303F026FDB0E20E
S31508004DA00DF1120304AA90A100F040FB06A8FFF734
S31508004DB069FB03A8019003AB05A800900DF10F024B
S31508004DC0494600F015FB0DF10D00029006AA05985C
S31508004DD09DF80F30BDF8121001909DF80C00009058
S31508004DE09DF8100001F025FA23E00DF1120219468C
S31508004DF00120FFF7B7FC06A8FFF744FB03A80290BB
S31508004E000DF10F0305A8019004AA03A800F0EEFA15
S31508004E100DF10D00029006A905989DF80F309DF832
S31508004E20102001909DF80C000090BDF8120001F0CA
S31508004E3009FA8DF80E000DF10D030DF10E0233E19E
S31508004E4007A8FFF71FFB04A8039005AB06A8029066
S31508004E500DF1150204A801900DF113000090012030
S31508004E600FF20461FFF77EFC0DF11100029006981F
S31508004E709DF813309DF814209DF8151001909DF8A3
S31508004E801000009007A801F0E9F98DF812000DF15D
S31508004E9011030DF1120207E10AA8FFF7F3FA06A8B3
S31508004EA005900DF11D0309A804900DF11E0206A830
S31508004EB003900DF11B00029007A8019008A8009026
S31508004EC001200FF2AC51FFF74DFC0DF119000490CB
S31508004ED00998BDF820309DF81D209DF81E100390F6
S31508004EE09DF8180002909DF81B0001909DF81C0083
S31508004EF000900AA801F0CDF98DF81A000DF11903F2
S31508004F000DF11A02D0E00DF1190000900DF11A0307
S31508004F1007AAB5A100F06CFA09A8FFF7B3FA05A825
S31508004F2002900DF1170308A8019006AA05A800F03B
S31508004F305DFA0DF11500049009AB08989DF8192043
S31508004F40BDF81A1003909DF8140002909DF81700FA
S31508004F5001909DF818000090BDF81C0001F0BEF9FC
S31508004F608DF816000DF115030DF116029CE00DF1F2
S31508004F70060219460120FFF7F5FB03A8FFF782FA98
S31508004F8000F039FA029B9DF80420BDF8060003A933
S31508004F9001F0D9F971E10DF1050000900DF1060354
S31508004FA002AADBA100F024FA9DF805209DF8061058
S31508004FB0BDF8080003F050FD11E100F02EFAD5A166
S31508004FC000F016FA039A9DF80810BDF80A0003F0D7
S31508004FD0BDFE8DF809000DF1090295E175627600AE
S31508004FE075770000757675007576000008208DF8CF
S31508004FF011008DF810000DF10E00029005A8019021
S315080050000DF11100009008AB0FF26C450DF10F027F
S3150800501000F0EDF903A802900DF11200019006A820
S3150800502000909DF80E30BDF814209DF80F0008A9D1
S3150800503001F0BDF98DF80D0006AB03A802900DF13D
S315080050400D020DF112000190294604A8009044E0D3
S3150800505000F0FCF99DF8010001A901F0CDF900F076
S31508005060EEF901A8FFF725FAA7E100F0EFF901A884
S31508005070FFF724FA9DF8010001A901F0D0F940E1F3
S3150800508000F0E4F99DF8010004F0A4FD39E100F010
S31508005090B2F902999DF8040001F0F0F8EDE06846CF
S315080050A005F0C2FA00F0C5F931460020FFF75AFBB1
S315080050B083E186208DF806000DF1050200F092F9CD
S315080050C09DF8050002A901F0F9F98DF8040002AB74
S315080050D00DF10600009001AABAA10020FFF742FBD5
S315080050E06BE16A4600F07EF938786A289DF8000078
S315080050F001A902D105F0A2FA01E005F002FE8DF839
S3150800510001000DF1010200F09DF9BDF80400FFF75A
S3150800511066F99DF80600FFF756F90DF1070110200C
S31508005120FFF77CF90698FFF76AF90798FFF767F91A
S315080051309DF82000FFF747F90DF1210100F06AF903
S315080051403BE109A8FFF7EAF900F067F9494600F0DC
S315080051504FF904A80090039B9DF808209DF80A10B3
S3150800516009A801F0A9FE8DF809000DF1090200F061
S3150800517069F904A8FFF7C9F91FE108208DF80E00A0
S315080051808DF80D0007AB0DF10D00029004AA05A8D5
S3150800519001908DA10DF10E00009000F029F9BDF8DF
S315080051A0100005AA07A905F091FF8DF80C0003AABF
S315080051B0AAE008208DF8050002AB0DF10500009065
S315080051C00DF1060281A100F013F904A91020FFF7DA
S315080051D0E8F8BDF8060004AA02A905F0B7FF8DF89D
S315080051E0040001AA90E000BF7676750000F00BF97E
S315080051F000F01BF903A91020FFF7D3F803A901A8AB
S3150800520001F074FE7DE000F0FEF802208DF8000043
S3150800521000F00BF903A901A801F070FE00F00FF9E0
S3150800522003A900F0F7F805A91020FFF7F7F8099881
S31508005230FFF7E5F80A98FFF7E2F8BEE000F0DBF8BA
S3150800524002999DF8040002F01FF88DF805000DF18B
S31508005250050200F0F7F802F032F8FFF7B4F8FFF7A6
S3150800526099F800B1012001F0D6FFA0E000F0C3F8DC
S3150800527002999DF8040001F0D7FF8DF805000DF19D
S31508005280050241E03A780FF2F810002500E06D1C9F
S31508005290EDB2415D9142FAD1FFF77CF80FF2F811B1
S315080052A051F82510884782E0FFF774F80546FFF79E
S315080052B09DF80146387830280CBF484A484A28469F
S315080052C090477AE069461020FFF76BF83878772818
S315080052D0684602D106F032FA69E005F02EFF66E06C
S315080052E001A8FFF72BF90DF101030DF1020238A110
S315080052F000F09CF89DF901209DF8021001A802F023
S3150800530083F88DF800006A4600F09CF855E000BF67
S315080053107675750076757000FFF73CF806F068FF3D
S3150800532045E006F070FF42E004A9684606F037FF3C
S315080053306846FFF732F904A8FFF75DF93DE06846CD
S31508005340FFF741F9684606F032FF36E0FFF722F824
S3150800535006F02EFC31E0FFF71DF806F0A5FB2CE061
S31508005360FFF744F806F088FF27E006F005FA1EE086
S3150800537006F016FC1BE008208DF8120006AB04A800
S3150800538003900DF1110205A8029012A104A801903C
S315080053900DF11200009000F02BF89DF8110000B1F5
S315080053A00120059B9DF8102006A901F02FFBFFF7A9
S315080053B00AF802E006F074FF0446204624B0BDE869
S315080053C0F08700007562000076626200766200006F
S315080053D07573000075627000ADFF0020BB7A000887
S315080053E0551A010851460120FFF7BCB90090294615
S315080053F00120FFF7B7B901A8009002AB01AA414600
S315080054000120FFF7AFB908208DF801000DF101035F
S31508005410704701A90820FFF701B802A8019002AB5E
S3150800542003A800900DF10A02704701AA0120FFF7B0
S3150800543099B98DF801006B460DF1010270478DF898
S3150800544000006A4651460020FFF78CB90DF10102AB
S3150800545051460120FFF786B975767676757575001B
S31508005460757575700000000075757575700000001B
S31508005470757576757575700075627675000000002D
S31508005480181D207A2A84858687888B8A8D959A2E78
S315080054905BB1A4A122E8EE000108010875A3010882
S315080054A05D37010801530108E17D0008758E010882
S315080054B0F58E01080B8F01081F8F01083B8F010825
S315080054C0D38F0108BD8F010801900108EDEE000891
S315080054D023A400083B9901083F9901084BAF00082F
S315080054E025CD010833CD0108199100086D900108F2
S315080054F07B90010838B504462078002846D16070AC
S31508005500012020722070A078032832D0072834D0D2
S31508005510112808D0152833D0302818D0312819D0AA
S3150800552032281AD030E00720DFF89C5B207204F19D
S315080055300900298807F07FFAA878E072E8782073CE
S31508005540287960736879A073A879E07331BD07F08C
S3150800555098FA17E007F058FB14E00420207207F0C9
S31508005560A0FA04F10901BDE838400246012007F017
S3150800557066BADFF8580B007804E007F0F7FC01E09C
S3150800558008F028F9607231BD0020207031BD38B5A9
S3150800559004462078002869D101202070A0780428C4
S315080055A014D007281FD00E2825D0112859D0152821
S315080055B041D0172844D018284CD019284DD0302867
S315080055C033D031281FD0322823D04DE0207A012845
S315080055D02FD1607A00B10120DFF8F41A0870002094
S315080055E008F054FA3BE0607A10B107F08DFC39E018
S315080055F007F09CFC36E0607A00B1012007F01AFB40
S3150800560000282FD015E0607A00B1012007F0E4FAEF
S315080056100EE0207A04280CD104F10901012007F0D4
S315080056201CFA07F042FAE8B103E0607A07F02BFAB1
S31508005630C0B1362016E094F9090008F0A3F80EE088
S31508005640657A04F10A0007F0EFF90146284608F0E2
S3150800565058FB04E008F050FB01E008F040FB00208E
S3150800566000E03720607031BD0020207031BD10B5D4
S315080056700446DFF8600A0079217856280CBF012015
S31508005680002001BBA1706178072910D130B108F05C
S3150800569057FB012814BF632062200EE0E0786228D9
S315080056A00CBF0120002008F04EFBA07009E0042979
S315080056B009D1DFF8241A10B10878E07001E0E07823
S315080056C008700120207010BD017809BB8170012186
S315080056D00170417801290ED00C2909D017290DD05F
S315080056E02D2902D034290CD010E0DFF8F0190AE091
S315080056F0DFF8EC1907E0DFF8EC1904E0DFF8E81941
S3150800570001E0DFF8E8190978818070470021017007
S31508005710704738B50446207800285AD101202070F1
S315080057200020A0706078012815D00C280FD0172803
S315080057303DD02D2802D0342844D048E0A18803293A
S315080057403DDAC9B2DFF8940908F06CFC38E0A088A5
S31508005750DFF88C1939E0DFF89809008828BBA0889B
S3150800576018B3DFF89059287808F086FE08F08FF904
S3150800577080B1A188DFF86C09C9B208F053FCA070A3
S3150800578008F088F8DFF87009DFF870190068401D1E
S31508005790086001E03820A070012008F002FE287099
S315080057A00020DFF85C19088031BD382008E0A088A1
S315080057B009F0E9F918B9A088DFF82C1905E03620B0
S315080057C0A07031BDA088DFF82419087031BD00200B
S315080057D0207031BD80B501208DF800006846FFF7BE
S315080057E01BF99DF8000002BD2DE9F04FA7B008F09F
S315080057F017F908F033F9DFF800890446D8F80000ED
S31508005800817800270225FF294FF003092DD1C17899
S315080058100679042511F03F004FF0050918BF4927FE
S3150800582023D108060AD509F059FC28B109F05AFC13
S31508005830123C0746E4B218E0482716E009F055FC82
S31508005840002818BFCB2E0AD0CA2E18BFCC2E06D0D9
S31508005850CD2E18BF002E02D0AA2E18BF482709F051
S315080058603DFC00281CBFCC2E4A27D8F80000465D10
S3150800587090F801A0DFF85C580AF003018DF80810CB
S315080058802E71017869704844DFF878180860DFF8E7
S315080058906C1808604FEA5A1000F00300687109F0A6
S315080058A0C4FC380018BF582604D15FEA0A6002D53E
S315080058B05826322082E2A87820B9287910B15826CD
S315080058C030207BE209F084FD10B95826422075E2A3
S315080058D0FFF780FF002800F073822879A978DFF89F
S315080058E028B8020095A70FF2582A4FF6FF7974D008
S315080058F0012800F0F281022800F0AC80032800F0AD
S31508005900FE80052834D0062800F04581092818BFEE
S315080059100A2800F048810B2818BF0C2800F04A8195
S315080059200E2800F05E81122800F0A381132800F0EB
S31508005930D981172800F0E981262800F0D98127287F
S3150800594000F0DE81472800F0D081492800F039812F
S315080059504E2800F06D81522854D0532869D0552816
S3150800596000F09080562800F0A48065282AD0812867
S3150800597000F006818F2800F0F581912800F00D824D
S31508005980942800F0FC819D2800F0A281AA2800F046
S31508005990AC80AB2800F0D680AC2800F0E880AD28B3
S315080059A000F0E880AE2800F0E880CA2800F0B78149
S315080059B0CB2800F0BD81CC2800F0C881CD2800F0A6
S315080059C0C881F12800F07181F5281AD0F62800F070
S315080059D00681FC2800F0A081EBE1FEF7DBFC04461B
S315080059E00620FEF7F0FC0220FEF7EDFC46F230201A
S315080059F0FEF7F5FCA878002808BF062C01D101207F
S31508005A00A870DDE100F00CFAFEF7C4FC8DF8010081
S31508005A106846FEF7DAFF9DF8000028B937208DF8AA
S31508005A2002000020ADF8040001AB0DF10202B3A19B
S31508005A3057E0012918BF382023D100F0F1F901AB4E
S31508005A400DF10102ADA10120FEF78CFE6846FEF7B6
S31508005A50C7FF25E03827012912D1611FC9B20520E1
S31508005A6007F0E8FF0446FF2C08BF352708D009F0E1
S31508005A70C1FC002814BF00273627204608F0FCFC86
S31508005A8038469BE1042200F0CCF90DF103030DF131
S31508005A90010239460120FEF765FE6846FEF783FFD8
S31508005AA09DF8000010B937208DF802009DF8020015
S31508005AB084E1042200F0B5F9FEF76CFC8DF80100CC
S31508005AC06846FEF76EFF9DF8000028B937208DF866
S31508005AD0020000208DF803000DF103030DF1020208
S31508005AE039460020FEF73EFE6AE100F094F9FEF71B
S31508005AF051FC8DF80E0003A8FEF730FF0BE000F00E
S31508005B008AF904AB0DF10E02BCA10120FEF72AFEAC
S31508005B1003A8FEF732FF9DF80C0028B937208DF848
S31508005B200D0000208DF8140000F06EF90DF10D023D
S31508005B3051460020FEF716FE42E100BF75750000CB
S31508005B407575620000F067F900F05EF90DF10E0256
S31508005B5051460120FEF706FE03A8FEF710FF9DF842
S31508005B600C0000280CBF37209DF80D0026E1FEF733
S31508005B7027FB25E1FEF797FB22E1FEF7E2FB1FE193
S31508005B80062CFCDBDFF87405DFF8701500680019D1
S31508005B90401F086014E1012000F047F9002840F092
S31508005BA02A8107260CE109280CBF0120002002F0F3
S31508005BB03BF905E10C280CBF0120002000F0EAF9AA
S31508005BC0FEE0012168460AF07EF828B10020FEF7BB
S31508005BD0FAFBBDF8000095E03620FEF7F4FB00203E
S31508005BE090E0FEF7D7FB8246FEF700FC8146FEF7FB
S31508005BF0D1FB0746FEF7CEFB0446B9F5004FB4BF06
S31508005C00042F702011DABAF1020F0FDA0BEBCA0A69
S31508005C103A46DAF8000049460AF000F9AAF804906C
S31508005C2004B900278AF806700020C7E07020C5E08E
S31508005C30FEF7B0FB814600240020B9F1020FADF84B
S31508005C4002008DF800000BDA5BF839006A460DF1A0
S31508005C5002010AF0F3F80BEBC900807900B10124C0
S31508005C60BDF80200FEF7BBFB9DF80000FEF7ABFB94
S31508005C7083E0FEF78FFB040018BF012400200AF01A
S31508005C800FF907463A46FF2A08BF182029D0002CE4
S31508005C9014BF48460220BEA10AF050F90020FEF7BC
S31508005CA092FB384608F0E8FB8AE04FF00009DFF877
S31508005CB05C4434F81900FEF792FB09F10109B9F1C1
S31508005CC0280FF6DB287965287AD108F008F877E0F6
S31508005CD0FEF78CFB07F0ADFE72E0FEF75BFB0AF001
S31508005CE089FA6BE009F083FB6AE009F077FB67E065
S31508005CF0DFF81C140820FEF791FB61E075760000BA
S31508005D000AF059FCFEF76BFB5AE06846FEF70FFCF3
S31508005D10684603F015FB51E00AF0FCFD4EE000F082
S31508005D206FF8FEF773FB014603A80AF0FFFD45E08E
S31508005D30FEF730FB044607A900F063F803AA07A993
S31508005D4020460AF0F5FDFEF73EFB21E00AF0F2FDDB
S31508005D5034E068460AF0F0FDFEF735FB0098FEF7DA
S31508005D604EFB2DE00AF016FE0124484505D0FEF745
S31508005D7011FBDFF8A0130024087020461EE000F08F
S31508005D803FF807A900F03DF807A903A80AF048FE5E
S31508005D9003A91020FEF742FB12E00AF0FBFDFEF70E
S31508005DA01EFB0420FEF70FFB1220FEF70CFB032058
S31508005DB004E0FEF73FFE18B958263120FEF703FB2C
S31508005DC0D8F8001068780870D8F80000817800299B
S31508005DD002BF29780029867004D0FF218170D8F87F
S31508005DE000000671072E0CBF012200229DF808004C
S31508005DF0012100F030F827B0BDE8F08F7577000074
S31508005E0003A91020FEF7CDBA05A8019005AB0DF140
S31508005E101500009070478C22002103A8FEF744BDA8
S31508005E20062200216846FEF73FBD38B5B04D044648
S31508005E30288810B107F053FD08B9002032BD28881C
S31508005E4008B907F023FEB44800780122214600F07D
S31508005E5002F8012032BD2DE9F84FA74F04463868ED
S31508005E6088468178934602254FF00309FF29A349FE
S31508005E70096804BF04254FF005090E1A09F02EF922
S31508005E800028B6B21EBF3868405DCC281CBF123643
S31508005E90B6B25FEA0B0004D038684078C0F3411AFE
S31508005EA002E009F0C0F982468C4909788A4505D38B
S31508005EB040F229410FF26C200AF0BEFD4FEA4A1063
S31508005EC040F08000DD2E5FFA80FA05DBDC2007F063
S31508005ED008FE4AF0020A02E0F0B207F002FE7D4828
S31508005EE0C17819B100214AF0020AC1708B490A78B3
S31508005EF01AB100224AF0010A0A707D4E318809B1AA
S31508005F004AF0040ABBF1000F06D05FEA080114BF85
S31508005F104AF0080A4AF0100A396881F801A0396877
S31508005F20897811B9012101700FE009F0D7F8002826
S31508005F301EBF3868415DCC2904D08021C17009F0A4
S31508005F40CFF802E039680020C87009F0CEF848B1E9
S31508005F503868415DCB2901BF10F8090000280220E6
S31508005F6009F0C2F8012C30886B4A18BF022C05D1FB
S31508005F7008B9147004E00020107004E0147010B919
S31508005F80002007F083FD4046BDE8F24F07F09CBDB0
S31508005F90620000002DE9F0419AB00446FEF7FAF9CE
S31508005FA00546062D13D1002C39D12820FEF70BFA09
S31508005FB05B4801880223224601A80AF071FEBDF853
S31508005FC00400FEF70CFA641C142CF1DB79E0082DAA
S31508005FD01DD124BB4020FEF7F6F9042322460D21E5
S31508005FE068460AF05DFE9DF80000FEF7ECF99DF89C
S31508005FF00100FEF7E8F99DF80200FEF7E4F99DF8BE
S315080060000300FEF7E0F9641C102CE6DB59E00B2DC3
S3150800601001D124B952E0200003D0092D01D1702006
S315080060204DE000260FF2101000EBC60738788542BF
S3150800603030D197F80180200004BF4046FEF7C3F927
S31508006040786801884346002202A80AF029FE200043
S3150800605027D0FEF79FF997F80180404501D0022026
S315080060602DE0002000E0401CC1B2414502A905D23E
S31508006070C0B2095CFF29F6D0462020E04046FEF76C
S3150800608090F978680088424602A90AF09AFE00202C
S31508006090FEF799F9761CF6B20A2EC3D374B1B1206D
S315080060A00DE0092D05D1152200210DF14E00FEF750
S315080060B0FBFB787802A9FEF7B1F902E00020FEF7AB
S315080060C082F91AB0BDE8F081305B0208B5EC002011
S315080060D0B0FF0020A9FF0020CFEC0020BCEC002078
S315080060E0A6FF0020B4EC0020AFFF0020BEEC002085
S315080060F00AF90020E8EC0020D0FA002098F80020E1
S3150800610008F9002094F800202CEC0020ECFA002076
S31508006110D8FA0020E7EC0020D0FF002006F900207E
S31508006120625B0208636F6D6D616E642D68616E64F3
S315080061306C6572732E63000001100000565B02083E
S3150800614002100000585B0208030200005A5B0208AE
S31508006150051000005E5B020807080000605B020885
S3150800616000020000525B0208040200005C5B0208A1
S31508006170095C0000645B02080A140000665B0208FA
S315080061800C080000545B02082DE9F84F80460D46BE
S31508006190DFF8140C0A99067801247E2991469A4656
S315080061A0A8BF742043DA080003D00B9808F0E7F973
S315080061B001E000F0C5F883460C9FBBF1FF0F03D141
S315080061C000201824387031E0342E06D0362E0ED032
S315080061D0382E13D0962E18D01AE05B464A46294622
S315080061E0404602F03DF8044602F065FD10E05B46C5
S315080061F042464946284602F093F808E05B46EAB26A
S315080062004146484602F007F901E00BF08FFA0446CA
S31508006210962E1CBF99F80A00387024B9DFF88C0B43
S31508006220006800F80BA0584608F026F92046BDE895
S31508006230F28F10B584B0089C0294079C0194069CC2
S31508006240009407E010B584B00446104600F00FF835
S315080062500A462146FFF798FF04B010BD10B504465C
S3150800626084B00846114600F002F82246F2E7089A7A
S315080062700292079A0192069A00927047E0B50022A8
S31508006280019100900292002300210020FFF77CFF75
S315080062900EBD2DE9F04683B00D460C990746080059
S315080062A091469A4603D00D9808F069F901E000F086
S315080062B047F804460E9EFF2C03D10020182530709F
S315080062C00BE00A980190CDF800A023464A462946D5
S315080062D0384602F085F800F027F822E02DE9F04666
S315080062E083B089460C990546080092461F4603D096
S315080062F00D9808F044F901E000F022F804460E9ED5
S31508006300FF2C03D10020182530700AE00A98009067
S3150800631001943B4652464946284602F023F800F0C7
S3150800632003F82846BDE8FE860500B87A307004D121
S31508006330DFF8781A09680B980855204608F09CB8C3
S31508006340002008F0FBB838B5DFF8644A2080C88812
S31508006350440606D5DFF85C4A2478202C03D10004CD
S3150800636001D4702032BDDFF8504A1000216004D0F5
S315080063701146184608F003F901E0FFF7E1FF054664
S31508006380FF2D08BF18240AD020684088294602F045
S3150800639033FA044602F08FFC284608F06DF82046CA
S315080063A032BD02F008BC0BF0FFBA0BF0F9BA2DE9C2
S315080063B0F041069F0D4604461646984639460BF0A8
S315080063C075FB20460BF08AFB0799088038460BF0C8
S315080063D094FC08990870294620460BF0FDFA0746F2
S315080063E038B9314620460BF035FB414628460BF0B6
S315080063F0A2FC3846BDE8F081DFF8C0391B78984220
S3150800640001D370207047DFF8B829126832F82030B7
S315080064100B8002EB80008078887000207047DFF8D8
S315080064209C391B78984201D370207047DFF8902971
S3150800643012680B8822F8203002EB80008978817078
S315080064400020704730B585B00C4604F00CF80546B8
S3150800645000202073102307226946012006F0DBFC82
S31508006460082202A92046FEF7DCF9BDF800002081C3
S3150800647004F114019DF80200A0729DF80300E07271
S3150800648004F110000BF0AFFCE08105B0284630BDE2
S3150800649038B504460D460AF073F901460822204627
S315080064A0FEF7BFF90AF068F92880DFF818090078BE
S315080064B032BD0CF067B8FF2202F0B4BF70B5A2B0C7
S315080064C00D460446694604F0B5F8060004D12A4686
S315080064D069462046FEF72BF9304622B070BD10B546
S315080064E004462078002841D1012020722070A07827
S315080064F0401E0BD0401E07D0801F07D0401F05D076
S31508006500401F022802D903E0022020720020607092
S31508006510A07801280CD0022814D008280CD00D2801
S315080065200DD0122817D0132817D0142818D01BE01E
S31508006530DFF89408007815E002F0DBFC12E00CF0B6
S31508006540B0FD0FE0DFF88408018804F10900BDE812
S31508006550104006F070BAFF2004E002F05DFF01E08B
S315080065600CF028FF607210BD0020207010BD10B519
S31508006570044682B0207858BB012020700020607045
S31508006580A07818B1022819D00BD31FE061686A46B3
S31508006590C9B208F095FF60700220207204F1090064
S315080065A007E00320207268460DF0CFF8607204F108
S315080065B00A00BDF8001006F03EFA13BD012020724D
S315080065C0606880B202F007FB607213BD002020707D
S315080065D013BDF0B5044687B02078002840F01A812C
S315080065E001202070A078010027D0012849D0022870
S315080065F04ED0052818BF062852D0082800F0FB8080
S3150800660009285BD00A2800F07E800B2800F08080DD
S315080066100C2800F0C4800F2800F0C580232818BF76
S31508006620242800F0CD80252800F0DB80292800F0FA
S31508006630E480342800F0E380EAE0207A102860D16C
S3150800664000F0EAF8ADF80400082294F90B008DF87A
S31508006650060004F11001207B8DF80700607B8DF899
S315080066600800A07B8DF80900E07BADF80A0003A8B6
S31508006670FEF7D7F81023072201A9002006F0CBFB66
S31508006680C3E0207A01283CD1607ADFF83C17BBE0EA
S31508006690207A022835D100F0BFF8DFF830170BE072
S315080066A0207A02282DD100F0B7F8A17805290CBF69
S315080066B0DFF81C17DFF81C170880A6E0DFF81807B4
S315080066C00568207A46080DB9DEB99EE0DFF80C07A2
S315080066D00078B04215DB002707E004EB47000930D5
S315080066E006F0A2F925F817007F1CB742F5DB4FF430
S315080066F0004725F8167028460DF067FA002801D0DD
S315080067002F80362082E000F087F80DF044FC7CE00C
S3150800671000F082F8DFF8C8261268527B05464FF665
S31508006720F87122B9884202DA09F049FF6DE02A00B9
S315080067302FD088422DDA09F03EFF854229D0284617
S315080067400EF0F8FA28BB05A928460BF070FA00BB2C
S3150800675028460FF05FF8E0B928460FF081F9C0B96E
S3150800676028460FF090FBA0B928460BF04EFF80B9DB
S3150800677028460FF0D1FB60B9284609F020FF992377
S315080067801322A1A103200FF0DAFB99200FF0F0FCE9
S315080067903BE009F010FF854237D0382036E0607AB2
S315080067A0DFF8401630E0657A04F10A0006F03CF995
S315080067B0ADF800006A462946012008F081FE25E06A
S315080067C0217A042912D123280CBF0325012504F1B7
S315080067D00901012006F041F9014628460FF056FD49
S315080067E014E0607A032818BF042801D002200DE0BF
S315080067F003F004FD09E0372008E0702006E0607A1F
S3150800680000B10120DFF8E01508700020607001E093
S315080068100020207007B0F0BD04F1090006F004B9A5
S3150800682010B50446DFF880050078217856280CBF95
S315080068300120002009BBA170DFF8782561780329BB
S3150800684005D108B150780FE0E078507013E00229BE
S3150800685005D108B1107807E0E07810700BE0092937
S315080068600BD118B103F0A1FEE07004E0E07800B1A6
S31508006870012003F08EFE0120207010BD017801B1C1
S31508006880704730B58170012101704178052908D01B
S31508006890122915D018290CD01F2914D0382915D03B
S315080068A018E0DFF84815DFF8482509781278891ABC
S315080068B024E0DFF840150A78511E8941C90F1DE00A
S315080068C0DFF8341504E0DFF8341501E0DFF8301599
S315080068D0098813E000220FF2645300E0521CD2B27A
S315080068E014461D5DFF2D02D10021017030BD8D4279
S315080068F0F4D10FF2645151F824100978818030BD23
S3150800690070B50446207800287BD10120207000202D
S315080069106278A070052A0AD0122A2CD0182A1FD00D
S31508006920192A04D01F2A22D0382A2FD033E0DFF8BC
S31508006930C0040578DFF8B40401784E1BA188052A3F
S315080069400CBF0E460D46A919C9B207F06BFB002805
S31508006950A07056D1E9B2F0B2BDE870400FF0FEBEA5
S31508006960A188481E8041C00FDFF888143FE0A08840
S31508006970DFF888140DE0A18847F231508142A8BF9C
S3150800698036203BDADFF87004018070BDA088DFF896
S315080069907014088070BD0FF2A44100E0401CC0B21C
S315080069A00346CD5CFF2D02D10020207070BD9542B4
S315080069B0F4D1A188022B08DADFF8480450F823003E
S315080069C00078884238BF362018D30FF28C4050F82A
S315080069D02300092B0DDAC9B207F024FBA0700028A2
S315080069E004BF607811280CD1A088DFF81C14087041
S315080069F070BD342A04D1C9B207F014FBA07070BD6B
S31508006A00017070BD0000000042420000F8B504465F
S31508006A100D461146184607F0B2FD18260746FF2F01
S31508006A2008D03A462946204610F0ECF9064638467C
S31508006A3007F022FD3046F2BD38B504460D462188DA
S31508006A40284605F0F8FF6188A81C05F0F4FF2079B0
S31508006A50287160796871A81DE18805F0ECFF218925
S31508006A6005F1080005F0E7FFA07AA87231BD10B558
S31508006A7086B004461B208DF80000A0788DF801002A
S31508006A800DF10200218805F0D6FF0822211D01A874
S31508006A90FDF7C7FEE1788DF80C10217B8DF80D10F7
S31508006AA0607B8DF80E000DF10F0000F0BEF9112184
S31508006AB000F01FF906B010BD80B51C228DF8010044
S31508006AC08DF802108DF80020D9E02DE9F04788B03E
S31508006AD007460D46144610F00BFA8246224629460A
S31508006AE0384608F079FC002863D10DF1090010F04A
S31508006AF007FA30B962208DF80800092102A80FF0BC
S31508006B0052FAFF2C0FBF0026C04909680E5D4520C2
S31508006B108DF808008DF809700DF10A012846FFF76F
S31508006B208BFF0DF1150000F080F951460DF11700A5
S31508006B3005F081FF01F085FE8DF819000027B4489D
S31508006B40DFF8AC820568DFF8A49201E07F1C0C35FB
S31508006B5099F8000098F80010FFB2401A87420ADA3E
S31508006B6028885045F2D108F062FBA97AC1F34201A0
S31508006B708142EBD100E0FF278DF81A708DF81B6073
S31508006B80504602F028F88DF8040000B10120009064
S31508006B9001AB2246142102A80FF00DFA00281EBFE9
S31508006BA084480078212804D19A48017841F00401E4
S31508006BB0017008B0BDE8F0872DE9F0430746934811
S31508006BC000681D4687B0465D0E9C8846914621465C
S31508006BD0384601F0C0F93F208DF804008DF805709D
S31508006BE041460DF1060005F026FF02A94846FFF7C3
S31508006BF023FF6E480068405D8DF813008DF8144039
S31508006C0085480078402804BF0026FF25002000900C
S31508006C108DF8156000232A46122101A80FF0CBF93A
S31508006C2007B0BDE8F08330B589B00D46044604A91F
S31508006C300BF0A8FC23208DF800008DF801408DF894
S31508006C4002500DF10300BDF81A1005F0F4FE0822F3
S31508006C5004A90DF10500FDF7E4FD9DF818008DF86F
S31508006C600D000E2100F045F809B030BD80B57C2135
S31508006C708DF8001001460DF1010005F0DCFE032138
S31508006C8068460FF090F901BD70B586B004467D20C0
S31508006C908DF800000D46164621460DF1010005F057
S31508006CA0CAFE082229460DF10300FDF7BAFD8DF844
S31508006CB00B600C2100F01DF803A810F021F918B993
S31508006CC003A920460FF050FD06B070BD38B504463E
S31508006CD00D4601F01FF980208DF800008DF801405F
S31508006CE029460DF1020005F0A6FE042100F001F880
S31508006CF031BD68460FF057B910B584B00446462032
S31508006D008DF8040001A821784170617881700DF131
S31508006D10070000F08AF83D48A1780068405C8DF8C5
S31508006D2009000023002000900621A27801A80FF090
S31508006D3042F91FBD80B598208DF800008DF8011026
S31508006D40684602219DE71FB50C4692218DF804106E
S31508006D50082201460DF10500FDF763FD0DF10D0052
S31508006D6000F063F829480068005D8DF80F000023DD
S31508006D700020009022460C21D8E7244A00B5126864
S31508006D8083B0125C8DF8051093238DF80620002138
S31508006D908DF80430009102460023032101A80FF064
S31508006DA00AF907BD00000000ADFF002070FC0020B6
S31508006DB08AFC0020D7EC00208CFC0020BAEC0020CE
S31508006DC06CEB0020D5FF0020E1FF0020AAEC002094
S31508006DD08EEC002090EC0020C0FC00206CFC00200B
S31508006DE064FC002074FE0020F4EC0020C1EC0020B6
S31508006DF0DDFF0020B6EC00207CEC002078EC0020BB
S31508006E0088EC0020BCEB0020C6EC00203CEB002000
S31508006E10A0EB002088FC0020CFEC002080B50AF00B
S31508006E20CFFDBDE8014010F085B810B5044610F056
S31508006E3058F8601CBDE8104010F055B8110203065A
S31508006E4007081A2B2C1910131B1C1D2021222A2E69
S31508006E5033343537FF000000B7EC0020BDEC0020C6
S31508006E60C2EC0020BAEC0020B8EC0020B9EC0020F7
S31508006E709FFF0020BBEC00206CFC0020DDFF0020FB
S31508006E80C7EC0020C8EC0020C9EC0020C3EC0020A9
S31508006E90A1FF00201DEC0020CAEC0020CBEC00204E
S31508006EA0A5FF0020A8FF0020EFEC0020BEEC002084
S31508006EB07BFC0020EEEC002038B50446002910467D
S31508006EC001461A46204602D011F04CFC01E011F0AA
S31508006ED01AFC0546002C1EBF04980028A04203D0C1
S31508006EE02146142211F0AAFC284632BD0246022089
S31508006EF000291CBF104611F0CDBC7047024602207F
S31508006F0000291CBF104611F056BD70471CB5044633
S31508006F100020ADF800002078F8B902202072A07889
S31508006F200A280AD0102810D101A811F02CFF607089
S31508006F30BDF80400ADF8000004E000206070684663
S31508006F400DF042F80120207001E0207828B1BDF844
S31508006F50001004F1090005F06EFD13BD38B50446AE
S31508006F602078002804BFA078102812D104F109015E
S31508006F70012005F072FD054604F10D0005F054FDEB
S31508006F80ADF800006946284611F0D2FE607001206F
S31508006F90207031BD76490978027856290CBF01213F
S31508006FA000212ABB8270012202704278130006D1A2
S31508006FB0704A09B1117811E0C07810707047052A37
S31508006FC005D16D4A61B1117841F0500106E0062AF3
S31508006FD00CD16A4A21B1117841F06001C17070473D
S31508006FE0C17801F00F01C17011707047002101705E
S31508006FF0704710B504462078B8B900F045F806D0B1
S315080070001E2807D0242807D0362808D00BE009F018
S31508007010BBFB06E05A4800E05A48007801E05A48A7
S315080070200088A08010BD0020207010BD10B5044651
S31508007030207840BB00F028F806D01E280AD024285D
S3150800704012D0362819D01CE0A088BDE81040C0B27E
S3150800705009F09EBB4D48A188007888420AD3C9B278
S31508007060474806F0DFFF06E0A1880B2902DA454803
S31508007070017010BD3620A07010BDA0884249088056
S3150800708010BD0020207010BD012020700020A070C7
S3150800709060780D28704700002DE9F04F1646012E3E
S315080070A089B0804689469A4612D10124002506A849
S315080070B00CF094FF022755EA0401DFF8B8B005D0B2
S315080070C058B9BDF81800800707D535B1032715E06C
S315080070D00024032EEAD10125E9E79BF800000528DC
S315080070E00AD8DFE800F0030605090841012705E08C
S315080070F085B1002702E02746022F0BD009F05BFA7C
S31508007100824507D0514640460AF021FC494640468A
S315080071100FF02AFB019753469BF800000090324671
S3150800712049464046FDF781FC044624208DF80800B0
S3150800713041460DF1090005F07EFC082249460DF18D
S315080071400B00FDF76EFB8DF813608DF81440514661
S315080071500DF1150005F06FFC0F2102A80EF023FFB4
S31508007160204609B0BDE8F08F002DC2D0AEE700007A
S31508007170ADFF0020D4EC0020A3FF0020C4EC0020C3
S31508007180A2FF0020A7FF00207AEC0020765B020809
S3150800719080B56E218DF800108DF801000221684631
S315080071A00EF001FF01BD10B584B00C469B218DF889
S315080071B00010082201460DF10100FDF732FB8DF89B
S315080071C009400A2168460EF0EEFE1FBDF0B583B0F1
S315080071D010F8014B0E461746214607F0D0F905462A
S315080071E0FF2D03D10E4901200870F7BD8E208DF8BA
S315080071F004008DF80560002000908DF806708DF863
S31508007200074000232A46042101A80EF0D4FE28468A
S3150800721007F032F9F7BD00B1024811F0F5BD0000DC
S3150800722006F90020CD71000800B58028A1B0A8BFD6
S3150800723002200ADA8DF8000002460DF10100FDF77A
S31508007240F0FA0021684611F085FE21B000BD10B5A0
S3150800725004462078002804BFA07833280FD10120DF
S31508007260207009B1002004E0607A11F0CBFE00B16D
S31508007270362060700120207211F0D4FE607210BDB5
S315080072800121E4E70021E2E730B58BB004460D465C
S315080072902A22FF216846FDF707FB2146284607F004
S315080072A06EF90446FF2C08BF182505D011F0D6FE46
S315080072B00546204607F0E0F828460BB030BD10B565
S315080072C04E4C2178FF29A8B008BF702020D0002096
S315080072D000904A2300220AA807F06DF900200090C2
S315080072E0252321784A221DA807F065F90020009079
S315080072F0242321786F2201A807F05DF9207807F08A
S31508007300BBF8FF20207001AA0AA91DA811F0B3FE38
S3150800731028B010BDF8B5394F04463878FF280D4611
S31508007320164608D19321002007F029F9FF2838705E
S3150800733001D13520F2BD01200090334639782A461E
S31508007340204607F038F90020F2BD10B50446A6B06D
S31508007350207860BB01202070A0781A2804D024D396
S315080073601C2815D00AD320E04A2204F1090113A8E3
S31508007370FDF757FA4A22002113A812E0252204F144
S31508007380090109A8FDF74DFA25224A2109A808E0AE
S31508007390242204F109016846FDF743FA24226F21E5
S315080073A06846FFF7B7FF607001E00020207026B03E
S315080073B010BD0178002904BF417829290CD110494C
S315080073C00978522904D10F4909788180002100E003
S315080073D03821817001210170704710B5074C20785B
S315080073E0FF281FBF06490978AB29ED2903D007F006
S315080073F043F8FF20207010BD00000000D6EC0020E6
S31508007400ADFF0020A4FF002011B1012903D004E03C
S31508007410114604F017BA04F066BA0220704710B590
S3150800742004462078002804BF607808280ED114483E
S315080074300078562803D104F0F6FEE07002E0E07802
S3150800744004F0F4FE0020A0700120207010BD017821
S31508007450A1B941782F2908BF0A4902D030290DD190
S31508007460094959B1064A1278522A07BF0978818014
S3150800747082880A700021817001210170704700001E
S31508007480ADFF0020CDEC0020CEEC002030B58FB04B
S3150800749005460C463B2200216846FDF705FAB6204C
S315080074A08DF800000DF10101284600F076F8DCB1F0
S315080074B000218DF82910082221460DF12A00FDF732
S315080074C0B0F90DF12905207A68720DF1330061894A
S315080074D005F0B1FAA1890DF1350005F0ACFAA07BEB
S315080074E0A873E07BE87302E001218DF829100DF1FD
S315080074F03900FFF79AFC3B2100F00CF80FB030BDBD
S3150800750080B5B7218DF800108DF80100022100F032
S3150800751001F801BD68460EF046BD10B586B00446B2
S31508007520B8208DF800000DF10100218805F083FAD6
S3150800753061880DF1030005F07EFAA1880DF10500BA
S3150800754005F079FAE1880DF1070005F074FA21894A
S315080075500DF1090005F06FFA61890DF10B0005F0D0
S315080075606AFAA1890DF10D0005F065FA0DF10F0013
S31508007570FFF75BFC1121FFF7CDFF06B010BD00B584
S315080075808BB0BB218DF800100DF1010100F005F854
S315080075902921FFF7BFFF0BB000BD38B504460D46DD
S315080075A0A0782870681C218805F045FA0822211D54
S315080075B0E81CFDF736F9E078E87205F10E01207B44
S315080075C02873607B68730120226905F038FA6269BE
S315080075D005F11201012005F032FA218B05F116009A
S315080075E005F029FA082204F11C0105F11800FDF737
S315080075F018F9A18C05F1200005F01DFAE18C05F1BA
S31508007600220005F018FA04F1280105F124000A7889
S3150800761002704A7842708A788270C978C17031BD22
S31508007620F8B5BB4D0446286800792B38022801D9DD
S315080076300D382ED1FCF7AEFE06462868B549401D22
S315080076400860002131200EF076FD05464FF6FF77DB
S315080076500BE005F10D0080B20EF09AFCB04213D093
S31508007660294631200EF067FD0546BD42F1D10021BD
S3150800767000E0294632200EF05EFD0546BD4208D0E0
S315080076800EF086FCB042F4D1A420FCF79CFE002044
S315080076902070F1BD38B50446002100E029463F2098
S315080076A00EF049FD05464FF6FF7085420CD0284678
S315080076B00EF06EFC0228F1D1681C80B20EF068FC50
S315080076C0A042EBD1012032BD002032BD2DE9F8439E
S315080076D08046002145200EF02EFD4FF00009044695
S315080076E08D4D4FF6FF7609E0FF21B8B20EF055FC36
S315080076F0A1B245200EF01FFDA1460446B44224D08F
S3150800770004F11007B8B20EF043FC4045F0D120460C
S315080077100EF03EFC022818BF0328E5D1A41FA0B22C
S315080077200EF036FC01462888401A32187B482A8013
S315080077300919121B92B2007800924B1C9BB20246A2
S31508007740A1B207F031F94C46D2E7BDE8F183F0B5AE
S31508007750734F3D788BB0064607F069FD07F065FD67
S3150800776000F07BF806D012282FD17188707807F0C0
S31508007770EAFE50B3707804A907F084FE88B1BDF814
S31508007780100040F20911884204BF7088B0F5006FF6
S3150800779007D1701D11F07AFCB52802D0A8B90024CB
S315080077A013E00124002500E06D1C3978E8B2884210
S315080077B00BD206A900F099F99DF818000028F3D114
S315080077C03146E8B200F09CF9044631208DF80000F5
S315080077D030788DF8010070788DF802000DF10300FD
S315080077E0718805F028F930798DF805000822711D91
S315080077F00DF10600FDF715F88DF80E508DF80F40BF
S31508007800102168460EF0CFFB20460BB0F0BD38B508
S31508007810054607F00CFD07F008FD00F01EF818BF36
S3150800782012280DD12846FFF735FF08B1752407E061
S31508007830284600F0B0F9040004BF2846FFF746FFC3
S3150800784032208DF800008DF801508DF80240032192
S3150800785068460EF0A8FB204632BD324800786C24F4
S315080078601128704738B504460D46FFF713FF08B1CF
S31508007870752511E03DB107F0D6FC68732946204608
S3150800788000F03EF902E0204600F085F9054628009A
S3150800789004BF2046FFF71AFF284632BDE2E700215B
S315080078A0E0E721490978027856290CBF0121002111
S315080078B0002A04BF4278012A0AD11A4A002919BFA8
S315080078C01178C170C1781170002181700121017091
S315080078D0704710B504462078002804BF607804284D
S315080078E014D111490E480978522903D10078A0808D
S315080078F0002008E00D4AA18812788A4232BF362055
S31508007900C9B206F08FFBA0700120207010BD0000E0
S31508007910D0FA002094F800200AF90020E8EC0020AC
S31508007920A0FF0020D5EC0020ADFF0020745B020804
S315080079301FB50C4602460D231621684609F0B0F914
S315080079400D2269462046FCF76CFF207840096073D3
S31508007950207800F01F0020701FBD30B585B00446A2
S315080079600D460D226846FCF75CFF9DF80000697B12
S3150800797040EA41108DF800000D236A46214616207C
S3150800798009F0B5F905B030BD2DE9FF41044600F010
S315080079905FF814E03068EDB2A84630F81800A04247
S315080079A00CD16946284600F0A0F89DF80000022888
S315080079B004D031684FF6FD7021F818006D1CE8B246
S315080079C039788842E6D3BDE8FF812DE9F045884637
S315080079D04FF6FF7AD04585B0044605D100F0D8F9B0
S315080079E010B908F0E8FD30E000F032F80CE0D045B8
S315080079F008D0306830F81510414504BF4FF6FD71C0
S31508007A0020F815106D1CEDB2387885421CDA3068FE
S31508007A1030F8150000F018F9F4DA69462846FFF739
S31508007A2087FF082221460DF10500FCF744FF0028D0
S31508007A30DDD13068D04502D130F8150005E020F8D0
S31508007A40158011F05DFBDDE7504605B0BDE8F08511
S31508007A500025DFF8C463DFF8C47370472DE9FF47D4
S31508007A60804689460026DFF8B873DFF8AC43DFF8AE
S31508007A70AC5316E02068F6B2B24630F81A0000F0A9
S31508007A80E3F80DDA69463046FFF752FF0822414609
S31508007A900DF10500FCF70FFF10B9386800F80A90D9
S31508007AA0761CF0B229788842E4D3BDE8FF87DFF870
S31508007AB06813096831F8100070471FB5DFF85C23B2
S31508007AC0127890420C460FD2D349096831F8101043
S31508007AD04FF6FE72914207DA694600F006F821462B
S31508007AE00DF10500FFF771FF1FBD80B5CB4B1B7865
S31508007AF0984201D3692002BDFFF71AFF002002BD94
S31508007B0070B504460D4623460022B4A103200EF0A4
S31508007B1016FA28780028204602D1BDE870403AE0D7
S31508007B20BE490978884201D3692070BD11F005FF66
S31508007B3008B1752070BD07F085FB6873681D0AF0EB
S31508007B40DCF806464FF6FF71681DFFF73EFF024652
S31508007B5029783346204600F006F829462046FFF7DE
S31508007B60FCFE002070BD30B54FF6FF740D0008BF4F
S31508007B70224608D0032908BF4FF6FE7203D0A24258
S31508007B8008BF4FF6FD72A449096821F81020A449D8
S31508007B9009680B5430BD30B505462C4685B02346DA
S31508007BA001228EA103200EF0CAF99C4909782846BD
S31508007BB0884228BF692019D211F0BFFE08B1752086
S31508007BC014E069462846FFF7B3FE9DF8000030B179
S31508007BD000208DF8000069462846FFF7BEFE8E494C
S31508007BE009684FF6FF7021F81400002005B030BD73
S31508007BF0F0B585B007460C46874D884E00E07F1CD9
S31508007C003178F8B288421CD22868FFB230F81700DB
S31508007C1000F01AF8F3D169463846FFF789FE9DF851
S31508007C200500E1B2884204BF9DF80610B1EB142F97
S31508007C30E5D107F007FB9DF80D108142DFD13846E4
S31508007C4000E0FF2005B0F0BD4FF6FE718842704790
S31508007C502DE9F14F84B00D460E9C6F4FDFF8BCA19D
S31508007C6090469946002607E03868BDF8101030F8A7
S31508007C701B0088422CD0761C9AF80010F0B2884275
S31508007C8028D23868F6B2B34630F81B00FFF7DCFF97
S31508007C90F1DA69463046FFF74BFE5FEA080007D17E
S31508007CA09DF80100484504BF9DF80400A042E2D1B2
S31508007CB007F0C8FA9DF80D108142DCD1002DD3D00B
S31508007CC008220DF105012846FCF7F5FD0028D2D15A
S31508007CD0304600E0FF2005B0BDE8F08F10B5144629
S31508007CE0FFF726FE2046BDE8104008224D49FCF75E
S31508007CF098BD2DE9FF470446084615461E4600F07E
S31508007D0047F808B1002040E00027DFF80C81DFF8CB
S31508007D100C9100E07F1C99F80010F8B2884223D233
S31508007D20D8F80000FFB2BA4630F81A004FF6FF71CD
S31508007D308842EFD069463846FFF7FAFD0C220DF166
S31508007D400101601CFCF7B7FD0028E3D1BAF1FF0F6B
S31508007D500CD10020307007F074FA307855B138B974
S31508007D602046FFF7F4FC09E0FF27F2E70120F1E7D8
S31508007D70012006E028B13846FFF749FD401E80413C
S31508007D80C00F307007F063FA012004B0BDE8F08731
S31508007D9008222449FCF78FBD30B585B000241F4D55
S31508007DA016E06946FFF7C4FD9DF80000042806DBC7
S31508007DB000208DF800006946E0B2FFF7CEFD9DF879
S31508007DC0001000234FF6FF72E0B2FFF7CCFE641CEA
S31508007DD02978E0B28842E4D305B030BD42420000BB
S31508007DE030B585B002220BA103200EF0A8F80020BA
S31508007DF08DF800000024094D03E06946FFF7ADFD44
S31508007E00641C2978E0B28842F7D3FFF7C5FF002043
S31508007E1005B030BD4200000094EB0020A0FF002012
S31508007E2098EB0020D8FA002030B583B00446FCF75A
S31508007E30B1FA0546202D1ADA5CB169460820FCF726
S31508007E40B0FA08236A462946212008F050FF002088
S31508007E500EE008232A462121684608F021FF002063
S31508007E60FCF7B1FA69460820FCF7D8FA37BD702046
S31508007E70FCF7A9FA37BD704770B55D4D6E8A0446A2
S31508007E8005F1080011F0C9FD012C08BFAE8A02D021
S31508007E90022C08BF022618B1FA217143884206D37C
S31508007EA0310205F10800BDE8704011F0A9BD70BDAA
S31508007EB07CB54F4C0020E07020714FF6F972208A8D
S31508007EC090421CBF4FF6F872904202D000202072F2
S31508007ED073BD6179474E4FF6FD7589B14FF6FC7053
S31508007EE001900023002000900022308800210AF02B
S31508007EF0C0FE0020607135800120BDE87640BBE7F2
S31508007F00A1780FF00FFA3088A842F5D001206071E9
S31508007F100220F2E710B500F039F81CBF4FF6F874E6
S31508007F20A34217D1A92818BFAA2813D1D078137845
S31508007F30401CD070C0B298420CD32E4803884FF626
S31508007F40FD74A34202D10180002050710020BDE8D3
S31508007F50104091E710BD10B500F018F81CBF4FF699
S31508007F60F874A34211D103001CBF012802280CD1C2
S31508007F7066290AD110795178401C1071C0B288421E
S31508007F8003D3BDE81040002076E710BD184A138ACF
S31508007F904FF6F974A342704710B5154C218292002A
S31508007FA0029921709B0003996282A38261709BB239
S31508007FB00499A17092B293420AD301001EBF218A86
S31508007FC04FF6F87291421CBF4FF6F972914201D0F2
S31508007FD0702010BD002161714FF6FD71054A1180B0
S31508007FE018B10120FFF748FF00E02072002010BDFD
S31508007FF0F0F8002080EC00202DE9F54F8BB08B4679
S315080080000C98169C1799ADF804B00026C0889A46B5
S315080080100746B046B14649B9F90607D50C9A9DF800
S315080080202C000094594611F01BF816E1790548BF53
S315080080304FF48058390548BF48F40068B90548BF69
S3150800804048F0800803D4F90548BF48F040089DF871
S315080080502C1002915D469DF82C1003910A2966D8CA
S31508008060DFE801F0082F1B3C65653C06083C180054
S315080080704FF00209BDF80420CDF800A0334648F4B5
S31508008080027120460BF0ECF88246BAF1FF0F50D188
S315080080901820E2E04FF00309ECE706A95FFA8BF037
S315080080A0FFF723FD08220DF11D0104A8FCF7B9FB13
S315080080B0DFF88808006830F8150004AEADF804004B
S315080080C0D8E704A95FFA8BF009F0F0FCDFF870082E
S315080080D000680C21694304AE405AEFE74FF6F87181
S315080080E08D4224DB4FF40261084220D100F012F9D8
S315080080F018BF91201CD1FF2C0FD000F076FB0299F7
S3150800810003290CBF01210021401ADFF83818096835
S31508008110095D8842B8BF74200ADB029803280CBFA1
S315080081204FF00C094FF0080928F4C078A2E701209F
S3150800813093E0DFF8145828884FF6FF71884218D064
S31508008140504611F08CFD0090001D298804F073FC40
S31508008150DFF8F80700990078C8714FF6FF70288095
S315080081605FEAC84005D500980822291D0830FCF7A3
S3150800817058FB0C9A494650460BF046FA08B9182699
S3150800818067E0DFF8CC070068C07E70B1B8060CD58A
S31508008190F8074CBF2020002040F00103324600219A
S315080081A050460EF00DFA060053D1FF2C15D0504656
S315080081B011F04BFDDFF898170968C97E01B1122145
S315080081C0DFF880271268135D12F80A20D218743077
S315080081D089188842B8BF74263BDBB80407D55046D1
S315080081E011F04DFD40F48061504611F04AFD0298A9
S315080081F0082812BF0928504611F050FD179848B1B3
S31508008200BDF80410504611F062FD179880F800A0DA
S31508008210002022E00398C01E05D0C01E012884BF96
S31508008220C01E012807D850460EF0D3FE00280CBF02
S31508008230A12600260DE0B80444BF4FF6BF700740DC
S315080082409DF82C103B465FFA8BF2504610F059FF0A
S315080082500646504606F010F930460DB0BDE8F08FD8
S315080082602DE9F043164685B00446F08804900D467D
S3150800827070790FF2187103901F4630790290A8465C
S3150800828070880190434630880090082200F099F8DB
S3150800829000F040F818BF91201AD1FF2F09D000F03E
S315080082A0A4FADFF8A0160968C95D884238BF7420A9
S315080082B00ED320000FD14FF6F870804528DA00203B
S315080082C001900097FF23324629462046FFF794FE81
S315080082D005B0BDE8F083022C4FF6FE790CD1DFF825
S315080082E0741609788D4213D2DFF85006006830F804
S315080082F018004845E3DB0BE0012C09D1DFF85816D6
S3150800830009788D4204D2E8B209F0E8FB4845D6DB85
S315080083100120DDE7DFF838060068407B0228704751
S31508008320F0B587B00D461646044605961F46E888FA
S315080083300FF2606104902346687903900922287930
S315080083400290688801902888009000F03AF800208A
S315080083500190009733462A4621460620FFF74CFE31
S3150800836007B0F0BD2DE9F04188B01E460E9C079473
S315080083708046F08806901746707905900D46307944
S315080083800FF21C6104904346708803900A223088D5
S3150800839002900197009500F014F8DFF8AC05A0F8F4
S315080083A000802346DFF8A4050770002001903246B6
S315080083B00F98009029460620FFF71EFE08B0BDE874
S315080083C0F08103200DF0BBBD80B538B10146082207
S315080083D0DFF88805FCF725FA002002BD022002BD59
S315080083E070B588B000F02EF80C98DFF85C1500968A
S315080083F008802B460D98DFF8541508702246DFF8DA
S3150800840060050078002814BF4FF6FF714FF6FD711E
S315080084100020019011E070B588B000F013F8DFF87D
S31508008420400500780096002814BF4FF6FF714FF6F6
S31508008430FD71002001902B4622460320FFF7DCFD44
S3150800844008B070BD04460D46069205951E46E0889E
S315080084500FF2585104900622607903902079029011
S315080084606088019020880090032023890DF067BD5D
S3150800847010B5DFF8F00406F0E0FA0446FF2C0DD03C
S315080084802146042005F071FD18B10121204600F0AF
S3150800849006F82046BDE8104005F0EEBF10BD2DE9F0
S315080084A0F04F89B082468B4611F0D9FB0646B01CC0
S315080084B004F0BAFADFF8B044DFF8B054074650467D
S315080084C00AF07FFF0146504606F07CF98046504682
S315080084D011F0DFFB06F0BAFE301D04F0A5FA208085
S315080084E0009708F068F8009989B2814208F00309F4
S315080084F012D04FF6F87087420EDA7078C0070BD4A0
S3150800850038460AF072F8002805D02088012352461A
S31508008510394600F09EF97AE005A950460AF0E0FFD0
S3150800852005A8286030460AF069FFDFF84414086099
S315080085300321504611F083FBDFF838140870042134
S31508008540504611F07CFBDFF8301408705FEA0B0028
S315080085502BD09DF81A00800627D508F02CF8DFF8EE
S31508008560F06340B13068007D800704D4B9F1010F8B
S3150800857008BF182300D008230022002150460EF019
S315080085801FF890B108F00300012802BF3068407B4D
S31508008590112805D102F03BFA10B9AF2000F033FCE0
S315080085A006F055FE0020286048E018F0030003D0C6
S315080085B0022806D00AD32AE05946504600F041F868
S315080085C025E05146404610F0CAFD20E007F0F3FFCB
S315080085D0218881421BD05146052005F0C6FCB0B162
S315080085E02968887940060DD50C2202A8FCF719F9E6
S315080085F000200190FF23FF20009002AA21880A206C
S31508008600FFF7FAFC21885A4650460BF027FD07F07B
S31508008610D2FF218881420DD150460AF0D2FE01468A
S31508008620504606F0CFF80C21084203D100215046E7
S3150800863010F0CCFF0020286006F009FE09B0BDE85E
S31508008640F08F2DE9FE4F814611F009FB0646484694
S315080086500AF0B7FE0146484606F0B4F805467078B3
S31508008660DFF80843DFF8007300F001000290B01C41
S3150800867004F0DAF94FF6F8718842ACBF4FF0010AF8
S315080086804FF0000A07F097FF398881422068408832
S31508008690ADF802000CBF4FF001084FF00008B01CFF
S315080086A004F0C2F90146029840EA0A008DF804006F
S315080086B09DF80400002814BF06200820002206F0B2
S315080086C038FE20680188BDF80260002904BF407999
S315080086D000281ED1694648460AF00CFA23689DF818
S315080086E00010421ED2B2042011F0BDFB206840885B
S315080086F048F20201884203D13888494602F057FAFF
S315080087003888B6F5004F10DBBDF8022049460AF056
S3150800871005FA2068029919B905F00C010C2935D11A
S31508008720008909F019FB30BB51E0DFF850B202218D
S315080087308BF800105346002249460AF057F820687D
S315080087408079400604D5BDF80200FF2100F054F8F0
S31508008750132EDED02068C0884004DAD48849097808
S315080087609BF80000CA0701D50228D2D089072ED562
S315080087700128CED02BE020680189B8F1000F14BF7C
S31508008780032502250020FFF733FA12E0017900914C
S315080087900022437938880021FFF75AFA05F00C01C0
S315080087A0082905D1B8F1000F0CBF0425052500E0FE
S315080087B00025744908709DF8040008B9382E01D1BF
S315080087C0012200E00022294648460EF031FBBDE8AA
S315080087D0F78F10B5044600F008F8610548BF083859
S315080087E0210548BF0838C0B210BD59490968C97E75
S315080087F0642001B15220704770B55C4E0C4686B0B5
S31508008800054631680C2202A8FCF70BF83068017996
S315080088108DF80D10FF2341798DF80C10ADF80A502C
S315080088204FF6BF71C08800940840ADF80E0002AA42
S31508008830002001904C4801880720FFF7DDFB06B0B1
S3150800884070BD5148007808B9FF2070474D48007838
S3150800885070472DE9FB47914685B01C4648460AF005
S31508008860B0FD0146484605F0ADFF032108428DF8E4
S3150800887000005ED13D4805683B48068801A9484680
S315080088800AF02EFE394901A808604FF0000ABDF823
S315080088901400354908809DF80900002804BFBDF872
S315080088A0040000283FD1484611F0D9F9801C04F08D
S315080088B0BBF84FF6F8718842ACBF4FF00108D046B6
S315080088C0002C14BF02240124012729E0BDF8140056
S315080088D043463A46494609F089FF5FEA000A1ED030
S315080088E0022C08BF012F1AD1BDF8180016490880B6
S315080088F017480068417E491C4176A1F1800013495A
S3150800890008700C219DF80000084208D19DF80A005D
S31508008910400604D5BDF80600FF21FFF76DFF7F1C52
S31508008920FFB2BC42D2DA114805600F4806805046AD
S3150800893000E0002008B0BDE8F087000094EB0020B6
S31508008940A0EB00203CEB0020F4EB0020B8FF002051
S3150800895064FC0020A0FF0020C1EC0020F8EB0020FA
S31508008960A8FF002028EC00208AFC00208CFC0020B0
S3150800897090FC0020F1FD0020F2FD0020B7FF00204A
S31508008980A5FF0020D9FF002088FC00204257575732
S31508008990424257004257575742425742000000008A
S315080089A0425757425757424257420000425757428A
S315080089B0424257424200000010B5044606F035FC14
S315080089C00FF037FA010018BF00F013F80C212F48F2
S315080089D061430844827981880068BDE8104007F041
S315080089E01DBA0020E8E70120E6E70220E4E70320B5
S315080089F0E2E710B582B0044606F019FC0C2148439C
S31508008A0022490844210017BF312C0021017A491C4C
S31508008A100172C279017A91420AD300210172432078
S31508008A208DF800008DF80140022168460DF0BBFA6A
S31508008A3013BD17490978312900D0704780B54421FC
S31508008A408DF8001001460DF1010003F0F4FF032133
S31508008A5068460DF0A8FA01BD38B50E4C0B4B2478C4
S31508008A600C256C43B0F5004FB8BF0429234401DB3D
S31508008A70702032BDDA71988099719A799988186848
S31508008A8007F0CCF9BDE831400FF0D3B9C4EB0020AC
S31508008A90D8EC0020AEFF002070B5160004460D463F
S31508008AA002D108F054FF02E0FF2108F0FFFE32462B
S31508008AB029462046BDE87040A0E02DE9F04782B07F
S31508008AC005468A46174698460DF04EFEC0480A9C4B
S31508008AD00078B0B10C2F14DAFF21284608F0E6FE1C
S31508008AE0814600260AE004EB4601C9B2404605F075
S31508008AF024FF494608F0DAFE8146761CF0B2B842F1
S31508008B00F1D3009443463A465146284600F08EF87B
S31508008B10BDE8F3872DE9F04704468A4600F0D5F804
S31508008B20012846D1204608F0ABFEAA4A126812F878
S31508008B300A700025FF281CD081464C46DFF898822B
S31508008B4000E06D1CD8F8000000EB84008478FF2C48
S31508008B50F7D1E8B268B1EDB20C2D0ADA6800861CC6
S31508008B60BAF1FF0F24D0F119C9B2504605F0E3FD5A
S31508008B7008B100201DE02A463946504605F027FE72
S31508008B807C1C6A1ED2B2E1B2504605F020FE671C74
S31508008B904C4606E030F82420F9B2504605F0DAFED5
S31508008BA0BF1CD8F8000000EB84018C78FF2CF1D1AB
S31508008BB0F0B2BDE8F08710B5FF280AD0864B1B68CF
S31508008BC033F820400C8003EB80008078107000207A
S31508008BD010BD032010BD10B508F052FE0024FF2872
S31508008BE00AD0022401E0A41CE4B27B49096801EB1F
S31508008BF080008078FF28F6D1204610BD30B583B0B6
S31508008C000C46C4218DF80010154601460DF10100E9
S31508008C1003F011FF21460DF1030003F00CFF8DF858
S31508008C200550062168460DF0BEF937BD2DE9F0411D
S31508008C3086B0074688461D460DF1050014460EF017
S31508008C4050F901A80EF04FF959208DF80800394659
S31508008C500DF1090003F0EFFE082241460DF10B0065
S31508008C60FBF7DFFD9DF805000C9B8DF813006600E9
S31508008C709DF804008DF81400F6B28DF8154000969C
S31508008C802A460021284605F08FFE3146284605F07B
S31508008C9052FD0020009000232A460E2102A80DF05E
S31508008CA08AF906B0BDE8F08110B5044600F003F86D
S31508008CB04A48047010BD10B5484C2078FF2803D0E8
S31508008CC005F0DAFBFF20207010BD2DE9F041DFF832
S31508008CD00C81074698F80000FF2882B00C4619D088
S31508008CE03C4D2A68115C8E1EF6B2314605F025FE0B
S31508008CF0B8420FD12868075DF5052D0EFF2C02D165
S31508008D00A81CC0B220E0F019811CC9B2204605F0A3
S31508008D1012FD08B1012017E02A463946204605F01B
S31508008D2056FD6A1E791CD2B2C9B2204605F04FFD1F
S31508008D3098F800200096B91C002389B2204605F051
S31508008D4033FEFFF7B8FF0020BDE8F6812DE9F041B4
S31508008D5080461F480078002688420F46154638BFC9
S31508008D60742032D3012005F01CFB0446380010D0CD
S31508008D707900C9B2204605F0DEFC50B907E035F89F
S31508008D8016207100C9B2204605F0E4FD761CBE42E5
S31508008D90F5DB2046FF2811D00E4909680D5CA91C91
S31508008DA0C9B205F0C8FC28B942462946204605F04E
S31508008DB0D1FD03E0204605F05FFBFF242046FFF7C0
S31508008DC073FFFF2C0CBF18200020BDE8F0810000BF
S31508008DD09FFF00203CEB002090EB0020D9EC002000
S31508008DE0DFF8AC2C1268127882420AD019B1012A2F
S31508008DF003D1022805D000207047022A08BF01289F
S31508008E00F9D101207047DFF88C1C8875704710B5BA
S31508008E10DFF87C4C2068407B112805D040F207110A
S31508008E200FF20C0007F008FE21684120487310BDB8
S31508008E306173736F63696174696F6E2E63000000F6
S31508008E4080B5022006F0F9F906F000FA00F02FFCCA
S31508008E50042805D1DFF83C0C417D491D417505E024
S31508008E604FF47A71DFF8F00C10F0CAFDBDE8014046
S31508008E7006F0EDB910B5DFF81C4C0020E074207838
S31508008E80FF2803D005F0F8FAFF20207010BD70B552
S31508008E9082B004460D4605F079FA0646B01D03F081
S31508008EA0C3FD00F44040B0F5404F0CBF062000203B
S31508008EB03118097C4A00490802F00E0201F038010F
S31508008EC08918401800F11106DFF8EC0C0068005DFF
S31508008ED0F6B286420BDA831BDBB20F2BA8BF0F2331
S31508008EE00020009032462146284605F064FB3046AD
S31508008EF076BDDFF8D00C0068407B33281CBF4328BA
S31508008F00532801D101207047002070471FB5012062
S31508008F1010F0B2FF10F0B4FF0EF04EF8F0B1DFF823
S31508008F20744BA07910B104F10A0005E0207869466F
S31508008F30FFF7ADFF0DF10300DFF81C2C00211170BF
S31508008F40617901F0C3F9FFF795FF00F008F809F019
S31508008F5015FF10F0E6FF012001F0E5FA1FBD10B578
S31508008F6000F02CFE017B032918BF042905D140888F
S31508008F7001F0B0FA08BF032008D007F0FDFB04464D
S31508008F8007F0FEFB2146FEF720FD022007F004FC51
S31508008F9008F020FF00F003FEBDE8104009F01ABFF4
S31508008FA038B5DFF8F04ADFF8E85AA075FFF762FF30
S31508008FB000214FF6FF7001F07FFA2868417B0329EC
S31508008FC018BF00291ED0332918BF432914D101F030
S31508008FD022FA2868017B032918BF042906D1032130
S31508008FE04173A07DBDE8324006F097B9A07D06F032
S31508008FF094F9BDE83140B2E721214173BDE831401B
S315080090000AF005BC31BD10B5DFF8841ADFF8844ACA
S315080090100968002048734FF6FE7007F0D0FA4FF63D
S31508009020FF7007F0D4FA01F0F6F9A07DBDE810400C
S3150800903006F073B970B5044684B0E07A0FF2D00131
S31508009040DFF84C5A0290234694F90A00019015223B
S31508009050208901F099F82868407B60B9208901F0D9
S3150800906039FA08D000F042F905D106F0F1F810B93E
S3150800907006F0F0F810B1702004B070BD2868007DC5
S3150800908080070AD507F097FA4FF6FE71884202461E
S3150800909004D10CF0C2FD024600E00022214610462B
S315080090A001F0D4F806000DD12868007D80074CBF72
S315080090B00220012001F0A2F8002101200AF0ADFFEC
S315080090C0060001D03046D7E7DFF8C809007F08B1A7
S315080090D009F050FB00220821204607F0DAFB30B1E0
S315080090E00421204606F0EFFD08B9A520C4E7DFF8FD
S315080090F0D80A00782074DFF8D40A60610020E0817D
S31508009100204600F0F8F8064606F05BF8DAE70000B5
S31508009110423870574242000010B5044623461822CA
S3150800912001F07BF9DFF8A80A0021017114B1FF2CC0
S3150800913002D10121017007E0012100F8041BA100FA
S31508009140491C090210F05CFC00F029FD002010BD46
S31508009150DFF87C1A00200871DEE730B50D4689B0C5
S31508009160044668690FF2781107902346287C069012
S315080091701622E8890590287B0490E87A039095F9E9
S315080091800A00029028890190009500F0FEFF287BCE
S3150800919000280CBF4FF6FE7007F00DFA2B46224644
S315080091A009B0BDE83040014601202DE9F041DFF85D
S315080091B0E06880463068407B00280F4614461D4606
S315080091C049D1200047D0052C45DA00F08FF842D166
S315080091D006F03EF800283ED106F03CF808B1042C0B
S315080091E039DB287B032816D14FF6FE70874214D147
S315080091F0012C08BF002710D0022C2CD107F0DBF970
S315080092004FF6FC71884202DA07F0D5F901E00CF056
S3150800921004FD074601E0012C1DD0B8F1000F0CD063
S31508009220287B03280CBF01210021012C0CBF01203B
S3150800923000200AF0F2FE01004FD12946384601F017
S3150800924005F8010049D105F0FDFF05F0E0FF20B162
S3150800925006F000F808B170203FE03068DFF834788F
S31508009260407B33281EBF53280020F875204600F09F
S31508009270C5FF387F20B105F0EDFF08B909F07AFA85
S31508009280287B032803D12846BDE8F04133E00822AD
S31508009290294607F10A00FBF7C4FA287B0328A8BF6A
S315080092A00020B874FFF7E6FD9420B875B87C3168DD
S315080092B000280CBF01203120487300203875012092
S315080092C03168897BBA7F00FA01F1052010F0C1FFE9
S315080092D0010002D0326800215173BDE8F081000018
S315080092E0424238705742424257424400DFF8740CF3
S315080092F000780B28704710B504460022082107F0AD
S31508009300C8FA08B1012010BD07F055F900224FF63A
S31508009310FF7100F0C1FF217C204600F0D7FF62698B
S31508009320E189207C08F089FDDFF864070068007B86
S31508009330012808BF0BF0FBFBFFF711FE002010BD4C
S3150800934038B5DFF84C4701462068407B002802BF45
S31508009350DFF8100C00780B2801D0702032BDDFF83A
S31508009360F85721B1022205F10800FBF75AFA6846B8
S3150800937001F079F808B1932032BD9DF80030142227
S3150800938001F04BF800F0ECFF010044D19DF8000015
S3150800939000F034FF2068007B012818BF022807D098
S315080093A0032818BF042825D1002001F097F808B330
S315080093B000F0EDFF2068007B032814BF042811F095
S315080093C0F3FAFFF7CCFD012011F018FB010022D1BA
S315080093D02068007B032818BF04281BD1287A800739
S315080093E018D50522DFF8E417012000F01BF8010064
S315080093F010D032BD2168132048730020DFF8941678
S31508009400087501202168897B00FA01F105220720E9
S3150800941010F01FFF002032BDDFF87806C07D7047C8
S31508009420FF22FFE72DE9FC41804600F0C7FB0D4609
S31508009430017B0129164623D0407B022818BF032842
S315080094401ED1332007F0A8F9DFF84876BA7F2946F7
S31508009450052010F0FEFE044698B9FFF70BFD07F04D
S31508009460B2F838815FEA080014BF02200120B874F8
S3150800947007F10A0001F00FF800203875FE7500E0C4
S3150800948070240194009543462C220FF2100100F037
S315080094907CFE2046BDE8F6810000000042424442B8
S315080094A00000000038B5044604F070FF0546204663
S315080094B010F0CBFB2C18204603F0B6FA4FF6FF51F6
S315080094C001402046BDE8344003F0B5BA70B588B00F
S315080094D00C4616461D4630B9204611F091FA03A9E6
S315080094E009F050F803A807218DF808100190310AF1
S315080094F08DF80A1001200C998DF80B1000908DF844
S315080095000960042302AA0121204609F034FF064611
S31508009510FF2E18D0214610F0DAFB15B93046FFF7B2
S31508009520C1FF0D9808B930460DE0204609F05DF8F0
S3150800953018B1304611F092FA01E000F020FE3046EC
S3150800954004F09AFFFF2008B070BD2DE9F24F84B0F1
S31508009550044616469B4600274FF6FF7556B1304619
