S0110000656D3236302D756172742E73333790
S3150000000048E103209DA20200C95B020081A2020012
S31500000010A70A02020002000004180FAC3062CC00EE
S3150000002000000000000000000000000000000000CA
S31500000030000000001CB802000000000000000000E4
S315000000400000000000000000FFFFFFFFFFFFFFFFB2
S31500000050FFFFFFFFFFFFFFFFFFFFFFFFFFFFFFFFAA
S3150000006000700F000000000000000000FFFFFFFF0F
S31500000070FFFFFFFF1C000000000000000000000062
S3150000008000000000000000000BFC03200BFC032016
S3150000009048E10320BCC4020036A50200E8D70320CD
S311000000A0B40F002000001000000000005B
S3150000020048E103209DA20200C95B020081A2020010
S3150000021089A2020085A202008DA2020099A2020014
S3150000022099A2020099A2020099A2020099A20200D4
S3150000023091A2020099A2020099A2020001B6010051
S315000002403B340200D56E020069D8010099A2020073
S31500000250ED6A0200256F0200DB6E0200DD6E020011
S31500000260D76E02009D980200A3AD0100E3D1010004
S31500000270E7C1010099A2020099A202007FA0020034
S3150000028099A2020099A20200C1AD010099A2020042
S3150000029099A2020099A2020099A2020099A2020064
S315000002A099A2020099A2020099A2020099A2020054
S315000002B0276F0200D96E0200DF2E02005B6F02007C
S315000002C099A2020005A5020099A2020099A20200C5
S315000002D099A2020099A2020099A2020099A2020024
S315000002E099A2020099A2020099A2020099A2020014
S315000002F099A2020099A2020099A2020099A2020004
S3150000030099A2020099A2020099A202006F49704ABE
S3150000031001E021B1491E1369DB07FAD401B9B0E047
S31500000320506001201060106910F0060F05D04107DB
S3150000033000D5A9E0800700D5A9E000207047F0B5F8
S3150000034013460022002936D0604C614D8BB98B4292
S3150000035031D250F8046BEE605B1C08262E602646F0
S3150000036001E036B3761E2F69FF07FAD4002EEED1D0
S315000003701FE0EFF3108672B600230EE02F6907F038
S315000003801907102F08BF2F602F693F07F6D550F8C1
S31500000390047BEF605B1C10272F608B42F4D306B9F9
S315000003A062B6264601E026B1761E2869C007FAD451
S315000003B00EB96FF002021046F0BD2DE9F0479A46DD
S315000003C0444B454F1C681B683B688046002043F041
S315000003D001033B60950881460C4602E0B14404EBFC
S315000003E08604A94517D208EB89063046FFF78EFF2B
S315000003F0010014D1C6F30A00C0F500608608A5EB1B
S315000004000900B04238BF0646524631462046FFF73D
S3150000041096FF0100E2D03968490849003960BDE815
S31500000420F0872C49294A0B6809682B490B6843F069
S3150000043001030B608860012048604869400704D5C5
S3150000044008684008400008601EE04869800704D537
S31500000450086840084000086019E00220486001E092
S3150000046022B1521E4869C007FAD422B9086840086A
S315000004704000086005E00868400840000860002069
S3150000048070476FF0020070474FF0FF3070476FF013
S3150000049001007047002390E70F48016841F0010111
S315000004A0016046F21A31C1644FF4807141604169BE
S315000004B0C907FCD44FF4007141604169C907FCD4F7
S315000004C00021C1640020704700000000809698005B
S315000004D00C000E4004300E4008000E4010B50446D5
S315000004E000F0C8FD204601F0A2FD204602F0B6FA53
S315000004F02046BDE8104002F06BBC01F0E0BD10B52F
S31500000500044600F004FE204601F00BFE204602F0F1
S31500000510CDFA204602F0C1FC2046BDE8104002F0AC
S3150000052059BC10B500E010B5044600F060FE204648
S3150000053001F01EFF204602F0D5FA204602F017FD14
S315000005402046BDE8104002F054BF10B5044600F046
S315000005507BFE204601F03AFF204602F0F2FA09E05F
S3150000056010B5044600F095FE204601F071FF2046C6
S3150000057002F004FB204602F012FD204602F051FF75
S315000005802046BDE8104002F0BCBC80B503F0ACF9D3
S31500000590BDE8014002F0EAB910B5044602F0E8FDF4
S315000005A02046BDE8104002F0C0BC0198704703F039
S315000005B00ABA70472DE9F04701241028A4B00FF6B7
S315000005C02025DFF89479A2A3A3A60FF28829A3A178
S315000005D00FF28C280FF28C2A00F04C8118281CBFD1
S315000005E01D2820286FD0212800F0128122286AD0E9
S315000005F0282800F0B580292800F0D8802A2862D063
S315000006002B2800F064812D2800F082812E285AD0F4
S31500000610302826D0332800F08081342800F08081ED
S31500000620352800F0FC82362800F09F81372800F03C
S315000006302A82382800F0C481392800F058823A28E6
S3150000064000F0EA81422800F066824A2800F0C28063
S315000006504C2800F0EE825A2800F06F825B2832D0D8
S315000006605D2800F0E183632800F0B282642800F080
S31500000670BC826A2803D06F2800F02383712800F01B
S31500000680F082732818BF772800F0DC837A281AD006
S31500000690822800F06B82832800F0A183842818BF8B
S315000006A0852810D086281CBF872888280BD0892843
S315000006B000F09C838A281CBF8B288D2803D09028A5
S315000006C000F01984952800F09D83962800F09F82FB
S315000006D09A281CBFA128A428F5D0A62800F06E836E
S315000006E0A82800F00A83A92800F02383AF2800F089
S315000006F03D83B128E7D0B22800F0B283B92800F0D4
S31500000700CB83BA2800F0CD83BC2800F0CD83BD286A
S3150000071000F0D583C12800F08780C22800F0A780AA
S31500000720C32800F0A180CE2800F02D83D42800F045
S31500000730CD83D52800F0CF83D62800F0D183D728E3
S3150000074000F0D383D82800F0D383E828BBD0ED2867
S3150000075000F04183EE28B6D0FE2800F05182E9E38E
S3150000076001A9684601F016FC00F023FC3146002082
S3150000077003F012FB00F00DFCBDF80C0003F049F984
S315000007809DF80E0003F039F99DF80F0003F035F9D6
S315000007909DF8100003F031F9BDF8120003F039F9A5
S315000007A09DF8140003F029F9069804E308208DF853
S315000007B009000DF10A0103A801F012FC8DF80800EA
S315000007C003AB0DF10A00019002AA0DF10900009099
S315000007D0E2A142E200F0FAFB9DF8010001A901F056
S315000007E010FC00F0ECFB00F0D4FB9DF80C0003F0CD
S315000007F004F9BDF80E0003F00CF99DF8100003F0A3
S31500000800FCF89DF8110003F0F8F89DF812008EE34D
S3150000081001AB0DF10102D2A100F0C8FB01999DF8D0
S31500000820010001F0F0FB2CE30DF1060200F09AFB4B
S315000008309DF8060001AA02A901F05BFB8DF80500F0
S3150000084002AB01A800900DF10502C6A105E200BFAA
S315000008507600000075757000757500006200000076
S31500000860757000007500000001F045FB5FE301F0C4
S3150000087044FB5CE30DF1150004900DF11E030DF130
S315000008801600039006AA0DF1170002900DF11A004A
S31500000890019007A8009001200FF23C7103F07CFA4A
S315000008A09DF81500BDF81A30BDF81C20BDF81E10C5
S315000008B002909DF8160001909DF8170000909DF893
S315000008C0180003F047FB8DF8140005AADCE203F0DC
S315000008D07BF8054603F078F88DF8000003F074F80D
S315000008E08DF8010003F09CF8ADF8020003F06CF8F7
S315000008F08DF804000DF10501082003F06CF803F0F3
S3150000090063F88DF80D006946284602F06FFD0EE388
S3150000091003F05AF802F06BFD09E303F044FFB0E27E
S315000009200DF1120304AA90A100F040FB06A803F003
S31500000930C3F803A8019003AB05A800900DF10F02C0
S31500000940494600F015FB0DF10D00029006AA059828
S315000009509DF80F30BDF8121001909DF80C00009024
S315000009609DF8100001F00DFA23E00DF11202194670
S31500000970012003F011FA06A803F09EF803A80290DE
S315000009800DF10F0305A8019004AA03A800F0EEFAE2
S315000009900DF10D00029006A905989DF80F309DF8FF
S315000009A0102001909DF80C000090BDF8120001F097
S315000009B0F1F98DF80E000DF10D030DF10E0233E184
S315000009C007A803F079F804A8039005AB06A80290DF
S315000009D00DF1150204A801900DF1130000900120FD
S315000009E00FF2046103F0D8F90DF111000290069898
S315000009F09DF813309DF814209DF8151001909DF870
S31500000A001000009007A801F0D1F98DF812000DF141
S31500000A1011030DF1120207E10AA803F04DF806A82A
S31500000A2005900DF11D0309A804900DF11E0206A8FC
S31500000A3003900DF11B00029007A8019008A80090F2
S31500000A4001200FF2AC5103F0A7F90DF11900049043
S31500000A500998BDF820309DF81D209DF81E100390C2
S31500000A609DF8180002909DF81B0001909DF81C004F
S31500000A7000900AA801F0B5F98DF81A000DF11903D6
S31500000A800DF11A02D0E00DF1190000900DF11A03D4
S31500000A9007AAB5A100F06CFA09A803F00DF805A89D
S31500000AA002900DF1170308A8019006AA05A800F008
S31500000AB05DFA0DF11500049009AB08989DF8192010
S31500000AC0BDF81A1003909DF8140002909DF81700C7
S31500000AD001909DF818000090BDF81C0001F0A6F9E1
S31500000AE08DF816000DF115030DF116029CE00DF1BF
S31500000AF006021946012003F04FF903A802F0DCFFB5
S31500000B0000F039FA029B9DF80420BDF8060003A9FF
S31500000B1001F0C1F971E10DF1050000900DF1060338
S31500000B2002AADBA100F024FA9DF805209DF8061024
S31500000B30BDF8080003F06FFF11E100F02EFAD5A111
S31500000B4000F016FA039A9DF80810BDF80A0004F0A2
S31500000B50DDF88DF809000DF1090295E17562760060
S31500000B6075770000757675007576000008208DF89B
S31500000B7011008DF810000DF10E00029005A80190ED
S31500000B800DF11100009008AB0FF26C450DF10F024C
S31500000B9000F0EDF903A802900DF11200019006A8ED
S31500000BA000909DF80E30BDF814209DF80F0008A99E
S31500000BB001F0A5F98DF80D0006AB03A802900DF122
S31500000BC00D020DF112000190294604A8009044E0A0
S31500000BD000F0FCF99DF8010001A901F0B5F900F05B
S31500000BE0EEF901A802F07FFFA7E100F0EFF901A8F6
S31500000BF002F07EFF9DF8010001A901F0B8F940E17D
S31500000C0000F0E4F99DF8010004F0E0FF39E100F09E
S31500000C10B2F902999DF8040001F0D8F8EDE06846B3
S31500000C2005F002FD00F0C5F93146002003F0B4F8E6
S31500000C3083E186208DF806000DF1050200F092F999
S31500000C409DF8050002A901F0E1F98DF8040002AB58
S31500000C500DF10600009001AABAA1002003F09CF84D
S31500000C606BE16A4600F07EF938786A289DF8000044
S31500000C7001A902D105F0E2FC01E006F042F88DF888
S31500000C8001000DF1010200F09DF9BDF8040002F02B
S31500000C90C0FE9DF8060002F0B0FE0DF1070110201F
S31500000CA002F0D6FE069802F0C4FE079802F0C1FED6
S31500000CB09DF8200002F0A1FE0DF1210100F06AF975
S31500000CC03BE109A802F044FF00F067F9494600F04D
S31500000CD04FF904A80090039B9DF808209DF80A1080
S31500000CE009A801F091FE8DF809000DF1090200F046
S31500000CF069F904A802F023FF1FE108208DF80E0011
S31500000D008DF80D0007AB0DF10D00029004AA05A8A1
S31500000D1001908DA10DF10E00009000F029F9BDF8AB
S31500000D20100005AA07A906F0D2F98DF80C0003AA4F
S31500000D30AAE008208DF8050002AB0DF10500009031
S31500000D400DF1060281A100F013F904A9102002F0AA
S31500000D5042FEBDF8060004AA02A906F0F8F98DF8CD
S31500000D60040001AA90E000BF7676750000F00BF94A
S31500000D7000F01BF903A9102002F02DFE03A901A81B
S31500000D8001F05CFE7DE000F0FEF802208DF8000028
S31500000D9000F00BF903A901A801F058FE00F00FF9C5
S31500000DA003A900F0F7F805A9102002F051FE0998F2
S31500000DB002F03FFE0A9802F03CFEBEE000F0DBF8CF
S31500000DC002999DF8040002F007F88DF805000DF170
S31500000DD0050200F0F7F802F01AF802F00EFE02F033
S31500000DE0F3FD00B1012001F0BEFFA0E000F0C3F862
S31500000DF002999DF8040001F0BFFF8DF805000DF182
S31500000E00050241E03A780FF2F810002500E06D1C6B
S31500000E10EDB2415D9142FAD102F0D6FD0FF2F81122
S31500000E2051F82510884782E002F0CEFD054602F013
S31500000E30F7FD0146387830280CBF484A484A28460C
S31500000E4090477AE06946102002F0C5FD3878772889
S31500000E50684602D106F074FC69E006F06FF966E0B8
S31500000E6001A802F085FE0DF101030DF1020238A181
S31500000E7000F09CF89DF901209DF8021001A802F0EF
S31500000E806BF88DF800006A4600F09CF855E000BF4C
S31500000E90767575007675700002F096FD07F0AAF972
S31500000EA045E007F0B2F942E004A9684607F079F98F
S31500000EB0684602F08CFE04A802F0B7FE3DE06846E4
S31500000EC002F09BFE684607F074F936E002F07CFDFE
S31500000ED006F070FE31E002F077FD06F0E7FD2CE04B
S31500000EE002F09EFD07F0CAF927E006F047FC1EE077
S31500000EF006F058FE1BE008208DF8120006AB04A889
S31500000F0003900DF1110205A8029012A104A8019008
S31500000F100DF11200009000F02BF89DF8110000B1C1
S31500000F200120059B9DF8102006A901F017FB02F091
S31500000F3064FD02E007F0B6F90446204624B0BDE899
S31500000F40F08700007562000076626200766200003B
S31500000F507573000075627000E6FB03200B36000017
S31500000F60FFDA00005146012002F016BF0090294624
S31500000F70012002F011BF01A8009002AB01AA414670
S31500000F80012002F009BF08208DF801000DF10103D0
S31500000F90704701A9082002F05BBD02A8019002ABD0
S31500000FA003A800900DF10A02704701AA012002F081
S31500000FB0F3BE8DF801006B460DF1010270478DF806
S31500000FC000006A465146002002F0E6BE0DF101021D
S31500000FD05146012002F0E0BE75767676757575008D
S31500000FE075757570000000007575757570000000E8
S31500000FF075757675757570007562767500000000FA
S31500001000181D207A2A84858687888B8A8D959A2E44
S315000010105BB1A4A122E8EE0001C700003B7001000D
S3150000102009F80000B313010031390000115B01001B
S31500001030915B0100A75B0100BB5B0100D75B010070
S315000010405F5C0100495C01008D5C0100719000004D
S315000010501F640000C3650100C76501004B6F0000F7
S3150000106035A2010043A20100D9500000ED5C010049
S31500001070FB5C010038B504462078002846D1607034
S31500001080012020722070A078032832D0072834D09F
S31500001090112808D0152833D0302818D0312819D077
S315000010A032281AD030E00720DFF8645B207204F1A2
S315000010B00900298807F0C1FCA878E072E878207357
S315000010C0287960736879A073A879E07331BD07F059
S315000010D0DAFC17E007F0B6FD14E00420207207F0F2
S315000010E0D9FC04F10901BDE838400246012007F0A9
S315000010F0A8BCDFF8200B007804E007F077FE01E0DB
S3150000110008F035FD607231BD0020207031BD38B564
S3150000111004462078002869D101202070A078042890
S3150000112014D007281FD00E2825D0112859D01528ED
S3150000113041D0172844D018284CD019284DD0302833
S3150000114033D031281FD0322823D04DE0207A012811
S315000011502FD1607A00B10120DFF8BC1A0870002098
S3150000116009F03EF93BE0607A10B107F00DFE39E078
S3150000117007F01CFE36E0607A00B1012007F065FD3D
S3150000118000282FD015E0607A00B1012007F033FD6A
S315000011900EE0207A04280CD104F10901012007F0A1
S315000011A05EFC07F07AFCE8B103E0607A07F06DFCBC
S315000011B0C0B1362016E094F9090008F0A7FC0EE04D
S315000011C0657A04F10A0007F031FC0146284609F069
S315000011D0DCF904E009F0D4F901E009F0C4F90020D3
S315000011E000E03720607031BD0020207031BD10B5A1
S315000011F00446DFF8280A0079217856280CBF01201A
S31500001200002001BBA1706178072910D130B109F027
S31500001210DBF9012814BF632062200EE0E078622823
S315000012200CBF0120002009F0D2F9A07009E00429C2
S3150000123009D1DFF8EC1910B10878E07001E0E07828
S3150000124008700120207010BD017809BB8170012152
S315000012500170417801290ED00C2909D017290DD02B
S315000012602D2902D034290CD010E0DFF8B8190AE095
S31500001270DFF8B41907E0DFF8B41904E0DFF8B019B5
S3150000128001E0DFF8B019097881807047002101700C
S31500001290704738B50446207800285AD101202070BE
S315000012A00020A0706078012815D00C280FD01728D0
S315000012B03DD02D2802D0342844D048E0A188032907
S315000012C03DDAC9B2DFF85C0909F0F0FA38E0A08827
S315000012D0DFF8541939E0DFF86009008828BBA088D8
S315000012E018B3DFF85859287809F01CFD08F080FF7C
S315000012F080B1A188DFF83409C9B209F0D7FAA07025
S3150000130008F080FFDFF83809DFF838190068401D5B
S31500001310086001E03820A070012009F098FC2870D0
S315000013200020DFF82419088031BD382008E0A088A5
S3150000133007F0FEFD18B9A088DFF8F41805E036209E
S31500001340A07031BDA088DFF8EC18087031BD002010
S31500001350207031BD80B501208DF800006846FFF78A
S315000013601BF99DF8000002BD2DE9F04FA7B008F06B
S3150000137086FF08F0A1FFDFF8C8880446D8F8000009
S31500001380817800270225FF294FF003092DD1C17866
S315000013900679042511F03F004FF0050918BF4927CB
S315000013A023D108060AD509F0F9FF28B109F0FAFF9A
S315000013B0123C0746E4B218E0482716E009F0F5FFAC
S315000013C0002818BFCB2E0AD0CA2E18BFCC2E06D0A6
S315000013D0CD2E18BF002E02D0AA2E18BF482709F01E
S315000013E0DDFF00281CBFCC2E4A27D8F80000465D3A
S315000013F090F801A0DFF824580AF003018DF80810D0
S315000014002E71017869704844DFF840180860DFF8EB
S31500001410341808604FEA5A1000F0030068710AF0A9
S315000014208AF8380018BF582604D15FEA0A6002D548
S31500001430582632208AE2A87820B9287910B1582691
S31500001440302083E20AF058FB10B9582642207DE28C
S31500001450FFF780FF002800F07B822879A978DFF863
S31500001460F0B7020095A70FF2582A4FF6FF7975D00C
S31500001470012800F0FA81022800F0AD80032800F070
S31500001480FF80052834D0062800F04D81092818BFB2
S315000014900A2800F050810B2818BF0C2800F0528152
S315000014A00E2800F06681122800F0AB81132800F0A8
S315000014B0E181172800F0F181262800F0E181272834
S315000014C000F0E681472800F0D881492800F04181E4
S315000014D04E2800F07581522855D053286AD05528D9
S315000014E000F09180562800F0A58065282AD0812832
S315000014F000F00E818F2800F0FD81912800F0158202
S31500001500942800F004829D2800F0AA81AA2800F001
S31500001510AD80AB2800F0D680AC2800F0E880AD287E
S3150000152000F0E880AE2800F0E880CA2800F0BF810D
S31500001530CB2800F0C581CC2800F0D081CD2800F062
S31500001540D081F12800F07981F52800F0D980F628BD
S3150000155000F0DB80FC2800F0A781F2E102F034FA0B
S315000015600446062002F049FA022002F046FA46F244
S31500001570302002F04EFAA878002808BF062C01D1C8
S315000015800120A870E4E100F013FA02F01DFA8DF8CC
S3150000159001006846FEF7D9FF9DF8000028B93720FC
S315000015A08DF802000020ADF8040001AB0DF1020237
S315000015B0B6A157E0012918BF382023D100F0F8F969
S315000015C001AB0DF10102B1A1012002F0E5FB684675
S315000015D0FEF7C6FF25E03827012912D1611FC9B2DF
S315000015E0052008F055FE0446FF2C08BF352708D015
S315000015F00AF094FA002814BF00273627204609F07F
S3150000160091FB3846A2E1042200F0D3F90DF1030361
S315000016100DF101023946012002F0BEFB6846FEF7D5
S3150000162082FF9DF8000010B937208DF802009DF862
S3150000163002008BE1042200F0BCF902F0C5F98DF836
S3150000164001006846FEF76DFF9DF8000028B93720B7
S315000016508DF8020000208DF803000DF103030DF153
S3150000166002023946002002F097FB71E100F09BF977
S3150000167002F0AAF98DF80E0003A8FEF72FFF0BE083
S3150000168000F091F904AB0DF10E02C0A1012002F0A9
S3150000169083FB03A8FEF731FF9DF80C0028B937201D
S315000016A08DF80D0000208DF8140000F075F90DF18D
S315000016B00D025146002002F06FFB49E175750000EE
S315000016C07575620000F06FF900F066F90DF10E0213
S315000016D05146012002F060FB03A8FEF710FF9DF8BB
S315000016E00C0000280CBF37209DF80D002EE10AF0F3
S315000016F029FB2DE10AF027FB2AE10AF028FB27E166
S3150000170002F08EF90AF027FB22E10AF045FBC1E060
S31500001710062CF9DBDFF82C05DFF828150068001920
S31500001720401F086014E1012000F047F9002840F04E
S315000017302A8107260CE109280CBF0120002002F0AF
S315000017401BF905E10C280CBF0120002000F0E4F98C
S31500001750FEE00121684607F082FB28B1002002F076
S315000017604CF9BDF8000095E0362002F046F900205D
S3150000177090E002F029F9824602F052F9814602F021
S3150000178023F9074602F020F90446B9F5004FB4BF25
S31500001790042F702011DABAF1020F0FDA0BEBCA0A26
S315000017A03A46DAF8000049460AF018FBAAF804900F
S315000017B004B900278AF806700020C7E07020C5E04B
S315000017C002F002F9814600240020B9F1020FADF8BB
S315000017D002008DF800000BDA5BF839006A460DF15D
S315000017E002010AF00BFB0BEBC900807900B1012462
S315000017F0BDF8020002F00DF99DF8000002F0FDF8B8
S3150000180083E002F0E1F8040018BF012400200AF08A
S3150000181027FB07463A46FF2A08BF182029D0002C86
S3150000182014BF48460220BBA10AF068FB002002F064
S31500001830E4F8384609F076FA8AE04FF00009DFF856
S31500001840144434F8190002F0E4F809F10109B9F179
S31500001850280FF6DB287965287AD108F084FE77E030
S3150000186002F0DEF808F09FFD72E002F0ADF80AF033
S3150000187097FC6BE00AF04FF96AE00AF043F967E07B
S31500001880DFF8D413082002F0E3F861E07576000073
S315000018900AF020FE02F0BDF85AE0684602F061F94F
S315000018A0684603F039FD51E00AF0AFFF4EE000F064
S315000018B06FF802F0C5F8014603A80AF0C1FF45E03B
S315000018C002F082F8044607A900F063F803AA07A904
S315000018D020460AF0B7FF02F090F821E00AF0B4FFC4
S315000018E034E068460AF0B2FF02F087F8009802F08A
S315000018F0A0F82DE00AF0BBFF0124484505D002F010
S3150000190063F8DFF858130024087020461EE000F044
S315000019103FF807A900F03DF807A903A80BF003F864
S3150000192003A9102002F094F812E00AF0A0FF02F0DA
S3150000193070F8042002F061F8182002F05EF80F201B
S3150000194004E0FEF737FE18B95826312002F055F8A4
S31500001950D8F8001068780870D8F800008178002957
S3150000196002BF29780029867004D0FF218170D8F83B
S3150000197000000671072E0CBF012200229DF8080008
S31500001980012100F02AF827B0BDE8F08F7577000036
S3150000199003A9102002F01FB805A8019005AB0DF1B0
S315000019A01500009070478C22002103A80BF02FB879
S315000019B00622002168460BF02AB810B504469E4858
S315000019C0008848B108F083FC30B1A54800780122B0
S315000019D0214600F002F8012010BD2DE9F84F984F7E
S315000019E00446386888468178934602254FF00309F5
S315000019F0FF299449096804BF04254FF005090E1A0A
S31500001A0009F0CCFC0028B6B21EBF3868405DCC2871
S31500001A101CBF1236B6B25FEA0B0004D038684078B5
S31500001A20C0F3411A02E009F082FD82467D49097839
S31500001A308A4505D340F229410FF230200BF010F809
S31500001A404FEA4A1040F08000DD2E5FFA80FA05DB8F
S31500001A50DC2008F037FC4AF0020A02E0F0B208F097
S31500001A6031FC6E48C17819B100214AF0020AC170F2
S31500001A707C490A781AB100224AF0010A0A706E4EB1
S31500001A80318809B14AF0040ABBF1000F06D05FEABB
S31500001A90080114BF4AF0080A4AF0100A396881F8AA
S31500001AA001A03968897811B9012101700FE009F0A8
S31500001AB075FC00281EBF3868415DCC2904D0802102
S31500001AC0C17009F06DFC02E039680020C87009F0A9
S31500001AD06CFC48B13868415DCB2901BF10F809009C
S31500001AE00028022009F060FC012C30885C4A18BFEF
S31500001AF0022C05D108B9147004E00020107004E02F
S31500001B00147010B9002008F06BFC4046BDE8F24F97
S31500001B1008F0A6BB620000002DE9F04198B004462B
S31500001B2001F052FF0546062D12D1DCB9282001F03E
S31500001B3064FF4D4801880223224668460BF0A1F84F
S31500001B40BDF8000001F065FF641C142CF1DB5BE0BE
S31500001B50082D01D00B2D01D124B952E0200003D06D
S31500001B60092D01D170204DE000260FF2141000EB74
S31500001B70C6073878854230D197F80180200004BF27
S31500001B80404601F03AFF786801884346002201A8E2
S31500001B900BF077F8200027D001F016FF97F80180A8
S31500001BA0404501D002202DE0002000E0401CC1B2DB
S31500001BB0414501A905D2C0B2095CFF29F6D04620ED
S31500001BC020E0404601F007FF78680088424601A9F8
S31500001BD00BF033F9002001F010FF761CF6B20B2E45
S31500001BE0C3D374B1B1200DE0092D05D11522002112
S31500001BF00DF14A000AF00BFF787801A901F028FFE1
S31500001C0002E0002001F0F9FE18B0BDE8F081000006
S31500001C10D8BC0200BAE70320E9FB0320E2FB03205D
S31500001C20D5E70320C1E70320DFFB0320B9E7032044
S31500001C30E8FB0320C3E703201EF70320EBE703209E
S31500001C4004EA032014F203201CF7032010F20320F9
S31500001C50F8E6032060F5032058F50320EDE703209E
S31500001C60F6FB03201AF70320B8BF0200636F6D6D01
S31500001C70616E642D68616E646C6572732E6300001C
S31500001C8001100000B0BF020002100000B2BF020047
S31500001C9003020000B4BF020005100000C2BF02002C
S31500001CA007080000BEBF020000020000ACBF020031
S31500001CB004020000B6BF0200095C0000C4BF0200B7
S31500001CC00A140000C6BF02000D020000C0BF0200D9
S31500001CD00C080000AEBF02002DE9F84F80460D4605
S31500001CE0DFF8140C0A99067801247E2991469A4653
S31500001CF0A8BF742043DA080003D00B9809F095F8C2
S31500001D0001E000F0C5F883460C9FBBF1FF0F03D13D
S31500001D1000201824387031E0342E06D0362E0ED02E
S31500001D20382E13D0962E18D01AE05B464A4629461E
S31500001D30404602F073FA044602F09DFF10E05B464F
S31500001D4042464946284602F0C9FA08E05B46EAB22E
S31500001D504146484602F03DFB01E00BF03BFD0446E0
S31500001D60962E1CBF99F80A00387024B9DFF88C0B40
S31500001D70006800F80BA0584608F0D4FF2046BDE8DE
S31500001D80F28F10B584B0089C0294079C0194069CBF
S31500001D90009407E010B584B00446104600F00FF832
S31500001DA00A462146FFF798FF04B010BD10B5044659
S31500001DB084B00846114600F002F82246F2E7089A77
S31500001DC00292079A0192069A00927047E0B50022A5
S31500001DD0019100900292002300210020FFF77CFF72
S31500001DE00EBD2DE9F04683B00D460C990746080056
S31500001DF091469A4603D00D9809F017F801E000F0D5
S31500001E0047F804460E9EFF2C03D10020182530709B
S31500001E100BE00A980190CDF800A023464A462946D1
S31500001E20384602F0BBFA00F027F822E02DE9F0462A
S31500001E3083B089460C990546080092461F4603D092
S31500001E400D9808F0F2FF01E000F022F804460E9E1D
S31500001E50FF2C03D10020182530700AE00A98009064
S31500001E6001943B4652464946284602F059FA00F08C
S31500001E7003F82846BDE8FE860500B87A307004D11E
S31500001E80DFF8781A09680B980855204608F04ABF0B
S31500001E90002008F0A9BF38B5DFF8644A2080C8885A
S31500001EA0440606D5DFF85C4A2478202C03D10004CA
S31500001EB001D4702032BDDFF8504A1000216004D0F2
S31500001EC01146184608F0B1FF01E0FFF7E1FF0546AD
S31500001ED0FF2D08BF18240AD020684088294602F042
S31500001EE069FC044602F0C7FE284608F01BFF2046A0
S31500001EF032BD02F040BE0BF0ABBD0BF0A5BD2DE927
S31500001F00F041069F0D4604461646984639460BF0A4
S31500001F1022FE20460BF037FE0799088038460BF064
S31500001F2041FF08990870294620460BF0AAFD07468E
S31500001F3038B9314620460BF0E2FD414628460BF003
S31500001F404FFF3846BDE8F081DFF8C0391B7898426C
S31500001F5001D370207047DFF8B829126832F82030B4
S31500001F600B8002EB80008078887000207047DFF8D5
S31500001F709C391B78984201D370207047DFF890296E
S31500001F8012680B8822F8203002EB80008978817075
S31500001F900020704730B585B00C4604F062FA05465D
S31500001FA000202073102307226946012006F073FEE5
S31500001FB0082202A920460AF0E7FCBDF800002081AD
S31500001FC004F114019DF80200A0729DF80300E0726E
S31500001FD004F110000BF05DFFE08105B0284630BD2E
S31500001FE038B504460D460AF04BFB0146082220464A
S31500001FF00AF0CAFC0AF040FB2880DFF818090078CE
S3150000200032BD0CF015BBFF2203F004BA70B5A2B0C6
S315000020100D460446694604F00DFB060004D12A4627
S315000020206946204601F09DFE304622B070BD10B5CF
S3150000203004462078002841D1012020722070A07823
S31500002040401E0BD0401E07D0801F07D0401F05D072
S31500002050401F022802D903E002202072002060708F
S31500002060A07801280CD0022814D008280CD00D28FE
S315000020700DD0122817D0132817D0142818D01BE01B
S31500002080DFF89408007815E002F013FF12E00DF077
S315000020905EF80FE0DFF88408018804F10900BDE866
S315000020A0104006F0CABCFF2004E003F0ADF901E0E1
S315000020B00DF0D6F9607210BD0020207010BD10B56D
S315000020C0044682B0207858BB012020700020607042
S315000020D0A07818B1022819D00BD31FE061686A46B0
S315000020E0C9B209F081FD60700220207204F1090076
S315000020F007E00320207268460DF07DFB607204F154
S315000021000A00BDF8001006F098FC13BD01202072ED
S31500002110606880B202F03FFD607213BD002020703F
S3150000212013BDF0B5044687B02078002840F01A8128
S3150000213001202070A078010027D0012849D002286C
S315000021404ED0052818BF062852D0082800F0FB807C
S3150000215009285BD00A2800F07E800B2800F08080DA
S315000021600C2800F0C4800F2800F0C580232818BF73
S31500002170242800F0CD80252800F0DB80292800F0F7
S31500002180E480342800F0E380EAE0207A102860D169
S3150000219000F0EAF8ADF80400082294F90B008DF877
S315000021A0060004F11001207B8DF80700607B8DF896
S315000021B00800A07B8DF80900E07BADF80A0003A8B3
S315000021C00AF0E2FB1023072201A9002006F063FDB6
S315000021D0C3E0207A01283CD1607ADFF83C17BBE0E7
S315000021E0207A022835D100F0BFF8DFF830170BE06F
S315000021F0207A02282DD100F0B7F8A17805290CBF66
S31500002200DFF81C17DFF81C170880A6E0DFF81807B0
S315000022100568207A46080DB9DEB99EE0DFF80C079E
S315000022200078B04215DB002707E004EB47000930D1
S3150000223006F0FCFB25F817007F1CB742F5DB4FF4D0
S31500002240004725F8167028460DF015FD002801D028
S315000022502F80362082E000F087F80DF0F2FE7CE059
S3150000226000F082F8DFF8C8261268527B05464FF662
S31500002270F87122B9884202DA0AF030F96DE02A00D4
S315000022802FD088422DDA0AF025F9854229D0284632
S315000022900EF0A6FD28BB05A928460BF01DFD00BBC8
S315000022A028460FF014FBE0B928460FF035FCC0B9FC
S315000022B028460FF044FEA0B928460CF0FCF980B978
S315000022C0284610F01FFC60B928460AF007F9992342
S315000022D01322A1A1032010F07FFC992010F096FD97
S315000022E03BE00AF0F7F8854237D0382036E0607ACE
S315000022F0DFF8401630E0657A04F10A0006F096FB36
S31500002300ADF800006A462946012009F06DFC25E07B
S31500002310217A042912D123280CBF0325012504F1B3
S315000023200901012006F09BFB0146284610F0FCFD42
S3150000233014E0607A032818BF042801D002200DE0BB
S3150000234003F05AFF09E0372008E0702006E0607AC3
S3150000235000B10120DFF8E01508700020607001E090
S315000023600020207007B0F0BD04F1090006F05EBB46
S3150000237010B50446DFF880050078217856280CBF92
S315000023800120002009BBA170DFF8782561780329B8
S3150000239005D108B150780FE0E078507013E00229BB
S315000023A005D108B1107807E0E07810700BE0092934
S315000023B00BD118B104F0F9F8E07004E0E07800B150
S315000023C0012004F0E4F80120207010BD017801B16D
S315000023D0704730B58170012101704178052908D018
S315000023E0122915D018290CD01F2914D0382915D038
S315000023F018E0DFF84815DFF8482509781278891AB9
S3150000240024E0DFF840150A78511E8941C90F1DE006
S31500002410DFF8341504E0DFF8341501E0DFF8301595
S31500002420098813E000220FF2645300E0521CD2B276
S3150000243014461D5DFF2D02D10021017030BD8D4275
S31500002440F4D10FF2645151F824100978818030BD1F
S3150000245070B50446207800287BD10120207000202A
S315000024606278A070052A0AD0122A2CD0182A1FD00A
S31500002470192A04D01F2A22D0382A2FD033E0DFF8B9
S31500002480C0040578DFF8B40401784E1BA188052A3C
S315000024900CBF0E460D46A919C9B208F007FA002866
S315000024A0A07056D1E9B2F0B2BDE8704010F0A4BFFA
S315000024B0A188481E8041C00FDFF888143FE0A0883D
S315000024C0DFF888140DE0A18847F231508142A8BF99
S315000024D036203BDADFF87004018070BDA088DFF893
S315000024E07014088070BD0FF2A44100E0401CC0B219
S315000024F00346CD5CFF2D02D10020207070BD9542B1
S31500002500F4D1A188022B08DADFF8480450F823003A
S315000025100078884238BF362018D30FF28C4050F826
S315000025202300092B0DDAC9B208F0C0F9A070002803
S3150000253004BF607811280CD1A088DFF81C1408703D
S3150000254070BD342A04D1C9B208F0B0F9A07070BDCC
S31500002550017070BD0000000042420000F8B504465C
S315000025600D461146184608F060FC18260746FF2F50
S3150000257008D03A462946204611F092FA06463846D1
S3150000258008F0D0FB3046F2BD38B504460D4621882A
S31500002590284606F052FA6188A81C06F04EFA207901
S315000025A0287160796871A81DE18806F046FA2189CC
S315000025B005F1080006F041FAA07AA87231BD10B5FF
S315000025C086B004461B208DF80000A0788DF8010027
S315000025D00DF10200218806F030FA0822211D01A81B
S315000025E00AF0D2F9E1788DF80C10217B8DF80D10E8
S315000025F0607B8DF80E000DF10F0000F0BEF9112181
S3150000260000F01FF906B010BD80B51C228DF8010040
S315000026108DF802108DF80020D9E02DE9F04788B03A
S3150000262007460D46144611F0B1FA8246224629465F
S31500002630384609F065FA002863D10DF1090011F05A
S31500002640ADFA30B962208DF80800092102A810F011
S31500002650F8FAFF2C0FBF0026C04909680E5D452019
S315000026608DF808008DF809700DF10A012846FFF76C
S315000026708BFF0DF1150000F080F951460DF11700A2
S3150000268006F0DBF902F0BBF88DF819000027B44814
S31500002690DFF8AC820568DFF8A49201E07F1C0C35F8
S315000026A099F8000098F80010FFB2401A87420ADA3B
S315000026B028885045F2D108F062FFA97AC1F3420199
S315000026C08142EBD100E0FF278DF81A708DF81B6070
S315000026D0504602F060FA8DF8040000B10120009027
S315000026E001AB2246142102A810F0B3FA00281EBF3F
S315000026F084480078212804D19A48017841F00401E1
S31500002700017008B0BDE8F0872DE9F043074693480D
S3150000271000681D4687B0465D0E9C88469146214658
S31500002720384601F0F6FB3F208DF804008DF8057061
S3150000273041460DF1060006F080F902A94846FFF76A
S3150000274023FF6E480068405D8DF813008DF8144035
S3150000275085480078402804BF0026FF250020009009
S315000027608DF8156000232A46122101A810F071FA8F
S3150000277007B0BDE8F08330B589B00D46044604A91C
S315000027800BF056FF23208DF800008DF801408DF8E0
S3150000279002500DF10300BDF81A1006F04EF908229A
S315000027A004A90DF105000AF0EFF89DF818008DF860
S315000027B00D000E2100F045F809B030BD80B57C2132
S315000027C08DF8001001460DF1010006F036F90321DF
S315000027D0684610F036FA01BD70B586B004467D2015
S315000027E08DF800000D46164621460DF1010006F053
S315000027F024F9082229460DF103000AF0C5F88DF8E0
S315000028000B600C2100F01DF803A811F0C7F918B9E8
S3150000281003A9204610F0F6FD06B070BD38B5044693
S315000028200D4601F055FB80208DF800008DF8014023
S3150000283029460DF1020006F000F9042100F001F826
S3150000284031BD684610F0FDB910B584B00446462087
S315000028508DF8040001A821784170617881700DF12E
S31500002860070000F08AF83D48A1780068405C8DF8C2
S3150000287009000023002000900621A27801A810F08C
S31500002880E8F91FBD80B598208DF800008DF801107D
S31500002890684602219DE71FB50C4692218DF804106B
S315000028A0082201460DF105000AF06EF80DF10D0043
S315000028B000F063F829480068005D8DF80F000023DA
S315000028C00020009022460C21D8E7244A00B5126861
S315000028D083B0125C8DF8051093238DF80620002135
S315000028E08DF80430009102460023032101A810F060
S315000028F0B0F907BD00000000E6FB0320FCF603204C
S31500002900BEF70320DBE70320C0F70320BFE7032061
S31500002910FCE40320F8FB0320FFFB0320B2E70320BF
S31500002920AAE70320ACE70320E4F70320F8F6032028
S31500002930E4F60320B4FB0320F5E70320C7E70320F2
S3150000294061FB0320BBE7032098E7032094E70320FD
S31500002950A4E7032088E60320CCE70320CCE4032089
S3150000296030E50320BCF70320D5E7032080B50BF044
S315000029707BF8BDE8014011F02BB910B5044611F003
S31500002980FEF8601CBDE8104011F0FBB8110203060A
S3150000299007081A2B2C1910131B1C1D2021222A2E66
S315000029A033343537FF000000BCE70320C2E70320BD
S315000029B0C8E70320BFE70320BDE70320BEE70320E7
S315000029C0D8FB0320C0E70320F8F6032061FB0320B1
S315000029D0CDE70320CEE70320CFE70320C9E7032096
S315000029E0DAFB0320E9E60320D0E70320D1E7032042
S315000029F0DEFB0320E1FB0320F6E70320C3E7032009
S31500002A0007F70320F3E7032038B5044600291046EC
S31500002A1001461A46204602D012F0F2FC01E012F0FE
S31500002A20C0FC0546002C1EBF04980028A04203D017
S31500002A302146142212F050FD284632BD02460220DD
S31500002A4000291CBF104612F073BD704702460220D3
S31500002A5000291CBF104612F0FEBD70471CB5044687
S31500002A600020ADF800002078F8B902202072A07886
S31500002A700A280AD0102810D101A812F0D4FF6070DD
S31500002A80BDF80400ADF8000004E000206070684660
S31500002A900DF0F0FA0120207001E0207828B1BDF891
S31500002AA0001004F1090005F0C8FF13BD38B504464F
S31500002AB02078002804BFA078102812D104F109015B
S31500002AC0012005F0CCFF054604F10D0005F0AEFF30
S31500002AD0ADF800006946284612F07AFF60700120C2
S31500002AE0207031BD76490978027856290CBF01213C
S31500002AF000212ABB8270012202704278130006D19F
S31500002B00704A09B1117811E0C07810707047052A33
S31500002B1005D16D4A61B1117841F0500106E0062AEF
S31500002B200CD16A4A21B1117841F06001C170704739
S31500002B30C17801F00F01C17011707047002101705A
S31500002B40704710B504462078B8B900F045F806D0AD
S31500002B501E2807D0242807D0362808D00BE009F015
S31500002B6093FD06E05A4800E05A48007801E05A48CA
S31500002B700088A08010BD0020207010BD10B504464E
S31500002B80207840BB00F028F806D01E280AD024285A
S31500002B9012D0362819D01CE0A088BDE81040C0B27B
S31500002BA009F076BD4D48A188007888420AD3C9B29B
S31500002BB0474807F07BFE06E0A1880B2902DA454864
S31500002BC0017010BD3620A07010BDA0884249088053
S31500002BD010BD0020207010BD012020700020A070C4
S31500002BE060780D28704700002DE9F04F1646012E3B
S31500002BF089B0804689469A4612D10124002506A846
S31500002C000DF042FA022755EA0401DFF8B8B005D004
S31500002C1058B9BDF81800800707D535B1032715E068
S31500002C200024032EEAD10125E9E79BF800000528D8
S31500002C300AD8DFE800F0030605090841012705E088
S31500002C4085B1002702E02746022F0BD009F042FC8F
S31500002C50824507D0514640460AF0CDFE49464046D9
S31500002C6010F0D0FB019753469BF8000000903246C7
S31500002C7049464046FDF799FC044624208DF8080095
S31500002C8041460DF1090005F0D8FE082249460DF12E
S31500002C900B0009F079FE8DF813608DF8144051464B
S31500002CA00DF1150005F0C9FE0F2102A80FF0C9FFAE
S31500002CB0204609B0BDE8F08F002DC2D0AEE7000077
S31500002CC0E6FB0320D8E70320DCFB0320CAE703204A
S31500002CD0DBFB0320E0FB032096E70320CEBF0200C8
S31500002CE080B56E218DF800108DF80100022168462E
S31500002CF00FF0A7FF01BD10B584B00C469B218DF8DF
S31500002D000010082201460DF1010009F03DFE8DF884
S31500002D1009400A2168460FF094FF1FBDF0B583B045
S31500002D2010F8014B0E461746214608F07EF8054678
S31500002D30FF2D03D10E4901200870F7BD8E208DF8B6
S31500002D4004008DF80560002000908DF806708DF85F
S31500002D50074000232A46042101A80FF07AFF2846DF
S31500002D6007F0E0FFF7BD00B1024812F09DBE00007B
S31500002D701AF703201D2D000000B58028A1B0A8BFBA
S31500002D8002200ADA8DF8000002460DF1010009F072
S31500002D90FBFD0021684612F02BFF21B000BD10B5E7
S31500002DA004462078002804BFA07833280FD10120DC
S31500002DB0207009B1002004E0607A12F069FF00B1CA
S31500002DC0362060700120207212F072FF607210BD12
S31500002DD00121E4E70021E2E730B58BB004460D4659
S31500002DE02A22FF21684609F012FE2146284608F0ED
S31500002DF01CF80446FF2C08BF182505D012F06EFFFC
S31500002E000546204607F08EFF28460BB030BD10B5AC
S31500002E104E4C2178FF29A8B008BF702020D0002092
S31500002E2000904A2300220AA808F01BF80020009010
S31500002E30252321784A221DA808F013F800200090C7
S31500002E40242321786F2201A808F00BF8207807F0D8
S31500002E5069FFFF20207001AA0AA91DA812F04BFFE6
S31500002E6028B010BDF8B5394F04463878FF280D460E
S31500002E70164608D19321002007F0D7FFFF283870A7
S31500002E8001D13520F2BD01200090334639782A461B
S31500002E90204607F0E6FF0020F2BD10B50446A6B0B6
S31500002EA0207860BB01202070A0781A2804D024D393
S31500002EB01C2815D00AD320E04A2204F1090113A8E0
S31500002EC009F062FD4A22002113A812E0252204F12E
S31500002ED0090109A809F058FD25224A2109A808E098
S31500002EE0242204F10901684609F04EFD24226F21CF
S31500002EF06846FFF7B7FF607001E00020207026B03B
S31500002F0010BD0178002904BF417829290CD1104948
S31500002F100978522904D10F4909788180002100E0FF
S31500002F203821817001210170704710B5074C207857
S31500002F30FF281FBF06490978AB29ED2903D007F002
S31500002F40F1FEFF20207010BD00000000DAE703202C
S31500002F50E6FB0320DDFB032011B1012903D004E0C9
S31500002F60114604F071BC04F0C0BC0220704710B5D5
S31500002F7004462078002804BF607808280ED114483B
S31500002F800078562803D105F050F9E07002E0E078A9
S31500002F9005F04EF90020A0700120207010BD0178C8
S31500002FA0A1B941782F2908BF0A4902D030290DD18D
S31500002FB0094959B1064A1278522A07BF0978818011
S31500002FC082880A700021817001210170704700001B
S31500002FD0E6FB0320D3E70320D4E7032030B58FB008
S31500002FE005460C463B220021684609F010FDB62036
S31500002FF08DF800000DF10101284600F076F8DCB1ED
S3150000300000218DF82910082221460DF12A0009F029
S31500003010BBFC0DF12905207A68720DF13300618938
S3150000302005F00BFDA1890DF1350005F006FDA07B2D
S31500003030A873E07BE87302E001218DF829100DF1F9
S315000030403900FFF79AFC3B2100F00CF80FB030BDB9
S3150000305080B5B7218DF800108DF80100022100F02F
S3150000306001F801BD68460FF0ECBD10B586B0044608
S31500003070B8208DF800000DF10100218805F0DDFC77
S3150000308061880DF1030005F0D8FCA1880DF105005B
S3150000309005F0D3FCE1880DF1070005F0CEFC21898F
S315000030A00DF1090005F0C9FC61890DF10B0005F071
S315000030B0C4FCA1890DF10D0005F0BFFC0DF10F0058
S315000030C0FFF75BFC1121FFF7CDFF06B010BD00B581
S315000030D08BB0BB218DF800100DF1010100F005F851
S315000030E02921FFF7BFFF0BB000BD38B504460D46DA
S315000030F0A0782870681C218805F09FFC0822211DF5
S31500003100E81C09F041FCE078E87205F10E01207B2D
S315000031102873607B68730120226905F092FC62695E
S3150000312005F11201012005F08CFC218B05F116003A
S3150000313005F083FC082204F11C0105F1180009F0D2
S3150000314023FCA18C05F1200005F077FCE18C05F14C
S31500003150220005F072FC04F1280105F124000A782A
S3150000316002704A7842708A788270C978C17031BD1F
S31500003170F8B5BB4D0446286800792B38022801D9DA
S315000031800D382ED100F020FC06462868B549401DB2
S315000031900860002131200FF01CFE05464FF6FF7730
S315000031A00BE005F10D0080B20FF040FDB04213D0E8
S315000031B0294631200FF00DFE0546BD42F1D1002112
S315000031C000E0294632200FF004FE0546BD4208D035
S315000031D00FF02CFDB042F4D1A42000F00EFC00202C
S315000031E02070F1BD38B50446002100E029463F2095
S315000031F00FF0EFFD05464FF6FF7085420CD02846CE
S315000032000FF014FD0228F1D1681C80B20FF00EFDFC
S31500003210A042EBD1012032BD002032BD2DE9F8439A
S315000032208046002145200FF0D4FD4FF000090446EA
S315000032308D4D4FF6FF7609E0FF21B8B20FF0FBFC8B
S31500003240A1B245200FF0C5FDA1460446B44224D0E4
S3150000325004F11007B8B20FF0E9FC4045F0D1204662
S315000032600FF0E4FC022818BF0328E5D1A41FA0B282
S315000032700FF0DCFC01462888401A32187B482A8069
S315000032800919121B92B2007800924B1C9BB202469F
S31500003290A1B207F0DEFF4C46D2E7BDE8F183F0B5F8
S315000032A0734F3D788BB0064608F069F908F043F98C
S315000032B000F07BF806D012282FD17188707808F0BC
S315000032C0D6FC50B3707804A908F070FC88B1BDF83C
S315000032D0100040F20911884204BF7088B0F5006FF3
S315000032E007D1701D12F012FDB52802D0A8B900242E
S315000032F013E00124002500E06D1C3978E8B288420D
S315000033000BD206A900F099F99DF818000028F3D110
S315000033103146E8B200F09CF9044631208DF80000F1
S3150000332030788DF8010070788DF802000DF10300F9
S31500003330718805F082FB30798DF805000822711D31
S315000033400DF1060009F020FB8DF80E508DF80F40A8
S31500003350102168460FF075FC20460BB0F0BD38B55D
S31500003360054608F00CF908F0E6F800F01EF818BF5C
S3150000337012280DD12846FFF735FF08B1752407E05E
S31500003380284600F0B0F9040004BF2846FFF746FFC0
S3150000339032208DF800008DF801508DF8024003218F
S315000033A068460FF04EFC204632BD324800786C2449
S315000033B01128704738B504460D46FFF713FF08B1CC
S315000033C0752511E03DB108F0B2F86873294620462C
S315000033D000F03EF902E0204600F085F90546280097
S315000033E004BF2046FFF71AFF284632BDE2E7002158
S315000033F0E0E721490978027856290CBF012100210E
S31500003400002A04BF4278012A0AD11A4A002919BFA4
S315000034101178C170C178117000218170012101708D
S31500003420704710B504462078002804BF6078042849
S3150000343014D111490E480978522903D10078A08089
S31500003440002008E00D4AA18812788A4232BF362051
S31500003450C9B207F02BFAA0700120207010BD000041
S3150000346004EA032010F203201EF70320EBE70320F3
S31500003470D9FB0320D9E70320E6FB0320CCBF0200DB
S315000034801FB50C4602460D231521684609F0F9FBC7
S315000034900D226946204609F077FA207840096073C4
S315000034A0207800F01F0020701FBD30B585B004469F
S315000034B00D460D22684609F067FA9DF80000697B03
S315000034C040EA41108DF800000D236A46214615207A
S315000034D009F01AFC05B030BD2DE9FF41044600F0A5
S315000034E05FF814E03068EDB2A84630F81800A04244
S315000034F00CD16946284600F0A0F89DF80000022885
S3150000350004D031684FF6FD7021F818006D1CE8B242
S3150000351039788842E6D3BDE8FF812DE9F045884633
S315000035204FF6FF7AD04585B0044605D100F0D8F9AC
S3150000353010B908F0CFFF30E000F032F80CE0D045CB
S3150000354008D0306830F81510414504BF4FF6FD71BC
S3150000355020F815106D1CEDB2387885421CDA3068FB
S3150000356030F8150000F018F9F4DA69462846FFF736
S3150000357087FF082221460DF1050009F04FFA0028C1
S31500003580DDD13068D04502D130F8150005E020F8CD
S31500003590158012F0F6FBDDE7504605B0BDE8F08574
S315000035A00025DFF8C463DFF8C47370472DE9FF47D1
S315000035B0804689460026DFF8B873DFF8AC43DFF8AB
S315000035C0AC5316E02068F6B2B24630F81A0000F0A6
S315000035D0E3F80DDA69463046FFF752FF0822414606
S315000035E00DF1050009F01AFA10B9386800F80A90CA
S315000035F0761CF0B229788842E4D3BDE8FF87DFF86D
S315000036006813096831F8100070471FB5DFF85C23AE
S31500003610127890420C460FD2D349096831F810103F
S315000036204FF6FE72914207DA694600F006F8214627
S315000036300DF10500FFF771FF1FBD80B5CB4B1B7861
S31500003640984201D3692002BDFFF71AFF002002BD90
S3150000365070B504460D4623460022B4A103200FF0A0
S31500003660BBFA28780028204602D1BDE870403AE02F
S31500003670BE490978884201D3692070BD12F0A1FFC6
S3150000368008B1752070BD07F031FF6873681D0AF038
S3150000369089FB06464FF6FF71681DFFF73EFF02469F
S315000036A029783346204600F006F829462046FFF7DB
S315000036B0FCFE002070BD30B54FF6FF740D0008BF4C
S315000036C0224608D0032908BF4FF6FE7203D0A24255
S315000036D008BF4FF6FD72A449096821F81020A449D5
S315000036E009680B5430BD30B505462C4685B02346D7
S315000036F001228EA103200FF06FFA9C490978284613
S31500003700884228BF692019D212F05BFF08B17520E4
S3150000371014E069462846FFF7B3FE9DF8000030B175
S3150000372000208DF8000069462846FFF7BEFE8E4948
S3150000373009684FF6FF7021F81400002005B030BD6F
S31500003740F0B585B007460C46874D884E00E07F1CD5
S315000037503178F8B288421CD22868FFB230F81700D8
S3150000376000F01AF8F3D169463846FFF789FE9DF84E
S315000037700500E1B2884204BF9DF80610B1EB142F94
S31500003780E5D107F0B3FE9DF80D108142DFD1384632
S3150000379000E0FF2005B0F0BD4FF6FE71884270478D
S315000037A02DE9F14F84B00D460E9C6F4FDFF8BCA19A
S315000037B090469946002607E03868BDF8101030F8A4
S315000037C01B0088422CD0761C9AF80010F0B2884272
S315000037D028D23868F6B2B34630F81B00FFF7DCFF94
S315000037E0F1DA69463046FFF74BFE5FEA080007D17B
S315000037F09DF80100484504BF9DF80400A042E2D1AF
S3150000380007F074FE9DF80D108142DCD1002DD3D057
S3150000381008220DF10501284609F000F90028D2D149
S31500003820304600E0FF2005B0BDE8F08F10B5144625
S31500003830FFF726FE2046BDE8104008224D4909F054
S31500003840A3B82DE9FF470446084615461E4600F074
S3150000385047F808B1002040E00027DFF80C81DFF8C8
S315000038600C9100E07F1C99F80010F8B2884223D230
S31500003870D8F80000FFB2BA4630F81A004FF6FF71CA
S315000038808842EFD069463846FFF7FAFD0C220DF163
S315000038900101601C09F0C2F80028E3D1BAF1FF0F5C
S315000038A00CD10020307007F040FE307855B138B9A1
S315000038B02046FFF7F4FC09E0FF27F2E70120F1E7D5
S315000038C0012006E028B13846FFF749FD401E804139
S315000038D0C00F307007F0E6FD012004B0BDE8F087A8
S315000038E00822244909F09AB830B585B000241F4D46
S315000038F016E06946FFF7C4FD9DF80000042806DBC4
S3150000390000208DF800006946E0B2FFF7CEFD9DF875
S31500003910001000234FF6FF72E0B2FFF7CCFE641CE6
S315000039202978E0B28842E4D305B030BD42420000B7
S3150000393030B585B002220BA103200FF04DF900200F
S315000039408DF800000024094D03E06946FFF7ADFD40
S31500003950641C2978E0B28842F7D3FFF7C5FF002040
S3150000396005B030BD4200000024E50320D9FB03204A
S3150000397028E5032058F5032030B583B0044600F04F
S3150000398023F80546202D1ADA5CB16946082000F0B6
S3150000399022F808236A462946202009F0B5F90020B6
S315000039A00EE008232A462021684609F06AF900201D
S315000039B000F023F86946082000F04AF837BD702069
S315000039C000F01BF837BD70472A480168491C0160A2
S315000039D011F8010D704738B50446264D084629688A
S315000039E0224608F0D1FF28682044286031BD214ACC
S315000039F0116808441060084670471F491F4B0A6843
S31500003A001B68D31ADC2BB8BF10700868401C08600E
S31500003A10704710B50446C0B2FFF7EFFF200A48E032
S31500003A2010B5FFF7D1FF00F042F904EB002080B299
S31500003A3010BD10B5044680B2FFF7EBFF200CB7E0CF
S31500003A4010B5FFF7EDFF00F05EF804EB004010BD87
S31500003A5038B5094C094A2368126805469A1AAA1805
S31500003A60DD2A03DA0246184608F08EFF206828444D
S31500003A70206031BD10F2032014F2032004EA032073
S31500003A8010B500F042F8FFF7CBFF2081FFF79CFF4F
S31500003A90A072FFF799FFE072FFF796FF2073FFF71A
S31500003AA0BFFFE081FFF790FF2074FFF7C9FF606159
S31500003AB010BDBDE81040A0E710B500F024F8208046
S31500003AC0FFF7AEFF6080FFF77FFF2071FFF77CFFF7
S31500003AD06071FFF7A5FFE080FFF7A2FF2081FFF7E7
S31500003AE073FFA07210BD10B500F00AF8A078E0E7E9
S31500003AF010B500F008F82080FFF766FFA07010BD33
S31500003B000446208885E704468AE7044621460820BD
S31500003B1061E710B500F0CBF8A070FFF781FF2080B9
S31500003B20211D00F0C2F8FFF74FFF00B10120E07041
S31500003B30FFF74AFF2073FFF747FF607310BD10B50C
S31500003B400446214600F07FF82069BDE8104070E782
S31500003B5010B50446214600F078F8FFF771FF2061A2
S31500003B6010BD10B5FFF7CFFF208010BD207944E7C8
S31500003B7010B50446FFF7CDFF04F1100000F01BF866
S31500003B8004F11C0100F091F8FFF74AFF24F8240F16
S31500003B90FFF746FF6080FFF717FF2071FFF714FF5E
S31500003BA06071FFF711FFA071FFF70EFFE07110BD06
S31500003BB0BDE810402DE710B50446FFF741FF206031
S31500003BC0FFF73EFF6060FFF72BFF208110BD10B5A9
S31500003BD000F010F800F08CF8E088FFF71AFF208953
S31500003BE0FFF717FF6089FFF714FFA089FFF711FFA2
S31500003BF0A07B5EE7044620681BE710B50446FFF786
S31500003C001FFF2060FFF70CFFA080FFF709FFE08091
S31500003C10FFF706FF2081FFF703FF6081FFF700FF34
S31500003C20A081FFF7D1FEA07310BD10B5FFF7E2FF2C
S31500003C30FFF79CFF611D00F006F804F11501BDE8D1
S31500003C401040102004E7102002E71020C3E610B54C
S31500003C500446207AFFF7D1FE207A010006D12068BB
S31500003C60FFF7E7FE2068FFF7E4FE04E0022802D132
S31500003C70214600F002F8607A1BE70820E8E610B556
S31500003C8000F015F80100207206D1FFF7D9FE20607A
S31500003C90FFF7D6FE206004E0022802D1214600F09C
S31500003CA004F8FFF791FE607210BD082093E6044603
S31500003CB08AE638B5044602252078FFF79EFE20786E
S31500003CC0401E012806D96089FFF7A3FEA11CFFF755
S31500003CD0D4FF09E000F00CF800F00CF800F008F84A
S31500003CE000F008F800F004F80C346D1EE4D131BD84
S31500003CF0A0888EE660888CE610B504462078FFF72B
S31500003D007CFE6068FFF795FE04F10800FFF79FFF51
S31500003D10A08AFFF77EFEA07DFFF76FFEA069FFF782
S31500003D2088FE04F11C01FFF78EFF04F12C00FFF75B
S31500003D30C0FF14F8440FFFF760FE6078B9E610B5CF
S31500003D40FFF7DEFEFFF7D6FFA08831E710B5FFF7D5
S31500003D50DAFE2080FFF764FE6080FFF761FEA08038
S31500003D6010BD30B502F8010B002312E031F82340F4
S31500003D7002F8014B31F82340240A02F8014B01EB0B
S31500003D8083045B1C658802F8015B6488240A02F8D8
S31500003D90014B8342EADB30BD0CB4F8B505460C4650
S31500003DA006AE08E056F8040B290003D00078FFF7AA
S31500003DB01EFE3860641C2078010037D056F8047B5C
S31500003DC0622827D07028EDD0732818BF752804D034
S31500003DD076280CD0772814D0ECE7280003D0FFF71C
S31500003DE0F3FD3870E6E73878FFF707FEE2E72800CC
S31500003DF003D0FFF715FE3880DCE73888FFF709FEA9
S31500003E00D8E7280002D0FFF71BFED2E73868FFF795
S31500003E1010FECFE756F8040B00782900394602D089
S31500003E20FFF7D9FDC6E7FFF713FEC3E7F1BC5DF860
S31500003E300CFB000070B55D4D6E8A044605F1080066
S31500003E4012F02FFC012C08BFAE8A02D0022C08BF4C
S31500003E50022618B1FA217143884206D3310205F1D0
S31500003E600800BDE8704012F00FBC70BD7CB54F4C29
S31500003E700020E07020714FF6F972208A90421CBF34
S31500003E804FF6F872904202D00020207273BD61791D
S31500003E90474E4FF6FD7589B14FF6FC700190002331
S31500003EA0002000900022308800210AF038FF002010
S31500003EB0607135800120BDE87640BBE7A17810F03F
S31500003EC07FF83088A842F5D0012060710220F2E721
S31500003ED010B500F039F81CBF4FF6F874A34217D19D
S31500003EE0A92818BFAA2813D1D0781378401CD070FF
S31500003EF0C0B298420CD32E4803884FF6FD74A342F5
S31500003F0002D10180002050710020BDE8104091E7E9
S31500003F1010BD10B500F018F81CBF4FF6F874A34298
S31500003F2011D103001CBF012802280CD166290AD131
S31500003F3010795178401C1071C0B2884203D3BDE895
S31500003F401040002076E710BD184A138A4FF6F97420
S31500003F50A342704710B5154C218292000299217038
S31500003F609B0003996282A38261709BB20499A1703F
S31500003F7092B293420AD301001EBF218A4FF6F8720D
S31500003F8091421CBF4FF6F972914201D0702010BDCC
S31500003F90002161714FF6FD71054A118018B10120AB
S31500003FA0FFF748FF00E02072002010BD40F3032019
S31500003FB09CE703202DE9F54F8BB08B460C98169C99
S31500003FC01799ADF804B00026C0889A460746B04651
S31500003FD0B14649B9F90607D50C9A9DF82C0000940C
S31500003FE0594611F07DFE16E1790548BF4FF4805819
S31500003FF0390548BF48F40068B90548BF48F080084D
S3150000400003D4F90548BF48F040089DF82C100291EA
S315000040105D469DF82C1003910A2966D8DFE801F069
S31500004020082F1B3C65653C06083C18004FF002094A
S31500004030BDF80420CDF800A0334648F402712046AE
S315000040400BF064F98246BAF1FF0F50D11820E2E076
S315000040504FF00309ECE706A95FFA8BF0FFF7EDFADC
S3150000406008220DF11D0104A808F08EFCDFF888086F
S31500004070006830F8150004AEADF80400D8E704A9CE
S315000040805FFA8BF009F067FDDFF8700800680C2115
S31500004090694304AE405AEFE74FF6F8718D4224DBD0
S315000040A04FF40261084220D100F012F918BF9120A6
S315000040B01CD1FF2C0FD000F076FB029903290CBF10
S315000040C001210021401ADFF838180968095D884285
S315000040D0B8BF74200ADB029803280CBF4FF00C0906
S315000040E04FF0080928F4C078A2E7012093E0DFF832
S315000040F0145828884FF6FF71884218D0504612F09F
S31500004100F4FB0090001D298804F097FCDFF8F807FF
S3150000411000990078C8714FF6FF7028805FEAC840A2
S3150000412005D500980822291D083008F02DFC0C9AA8
S31500004130494650460BF0BEFA08B9182667E0DFF884
S31500004140CC070068C07E70B1B8060CD5F8074CBF26
S315000041502020002040F001033246002150460FF097
S315000041607DF8060053D1FF2C15D0504612F0B3FB54
S31500004170DFF898170968C97E01B11221DFF8802798
S315000041801268135D12F80A20D21874308918884212
S31500004190B8BF74263BDBB80407D5504612F0B5FB12
S315000041A040F48061504612F0B2FB0298082812BF14
S315000041B00928504612F0B8FB179848B1BDF804100C
S315000041C0504612F0CAFB179880F800A0002022E0A3
S315000041D00398C01E05D0C01E012884BFC01E01283A
S315000041E007D850460FF043FD00280CBFA126002635
S315000041F00DE0B80444BF4FF6BF7007409DF82C1081
S315000042003B465FFA8BF2504611F0BCFD064650461F
S3150000421006F088FD30460DB0BDE8F08F2DE9F0437D
S31500004220164685B00446F08804900D4670790FF264
S31500004230187103901F4630790290A8467088019045
S31500004240434630880090082200F099F800F040F8C4
S3150000425018BF91201AD1FF2F09D000F0A4FADFF879
S31500004260A0160968C95D884238BF74200ED32000A5
S315000042700FD14FF6F870804528DA0020019000979C
S31500004280FF23324629462046FFF794FE05B0BDE8D7
S31500004290F083022C4FF6FE790CD1DFF874160978FC
S315000042A08D4213D2DFF85006006830F818004845F2
S315000042B0E3DB0BE0012C09D1DFF8581609788D42B3
S315000042C004D2E8B209F05FFC4845D6DB0120DDE701
S315000042D0DFF838060068407B02287047F0B587B0E3
S315000042E00D461646044605961F46E8880FF260619D
S315000042F004902346687903900922287902906888F9
S3150000430001902888009000F03AF80020019000976C
S3150000431033462A4621460620FFF74CFE07B0F0BD7D
S315000043202DE9F04188B01E460E9C07948046F08821
S3150000433006901746707905900D4630790FF21C618C
S3150000434004904346708803900A22308802900197B1
S31500004350009500F014F8DFF8AC05A0F800802346BD
S31500004360DFF8A40507700020019032460F980090F0
S3150000437029460620FFF71EFE08B0BDE8F08103209F
S315000043800EF02ABC80B538B101460822DFF8880550
S3150000439008F0FAFA002002BD022002BD70B588B00E
S315000043A000F02EF80C98DFF85C15009608802B4676
S315000043B00D98DFF8541508702246DFF8600500787E
S315000043C0002814BF4FF6FF714FF6FD7100200190D3
S315000043D011E070B588B000F013F8DFF840050078FA
S315000043E00096002814BF4FF6FF714FF6FD710020AE
S315000043F001902B4622460320FFF7DCFD08B070BD76
S3150000440004460D46069205951E46E0880FF2585161
S3150000441004900622607903902079029060880190CA
S3150000442020880090032023890EF0D6BB10B5DFF854
S31500004430F00406F057FF0446FF2C0DD02146042059
S3150000444006F0D7F918B10121204600F006F82046FB
S31500004450BDE8104006F066BC10BD2DE9F04F89B0EE
S3150000446082468B4612F041FA0646B01C04F0DEFA8C
S31500004470DFF8B044DFF8B054074650460AF0F7FFBD
S315000044800146504606F0F5FD8046504612F047FAC2
S3150000449006F0D6FF301D04F0C9FA2080009708F018
S315000044A019F8009989B2814208F0030912D04FF633
S315000044B0F87087420EDA7078C0070BD438460AF0D7
S315000044C0EAF8002805D0208801235246394600F034
S315000044D09EF97AE005A950460BF058F805A8286021
S315000044E030460AF0E1FFDFF8441408600321504625
S315000044F012F0EBF9DFF8381408700421504612F078
S31500004500E4F9DFF8301408705FEA0B002BD09DF851
S315000045101A00800627D507F0DDFFDFF8F06340B10B
S315000045203068007D800704D4B9F1010F08BF182355
S3150000453000D008230022002150460EF08FFE90B1D5
S3150000454008F00300012802BF3068407B112805D11E
S3150000455002F05DFA10B9AF2000F035FC06F0A2FFBC
S315000045600020286048E018F0030003D0022806D097
S315000045700AD32AE05946504600F041F825E0514654
S31500004580404611F02EFC20E007F0A4FF218881426E
S315000045901BD05146052006F02CF9B0B12968887960
S315000045A040060DD50C2202A808F0EEF90020019075
S315000045B0FF23FF20009002AA21880A20FFF7FAFCB9
S315000045C021885A4650460BF09FFD07F083FF21884D
S315000045D081420DD150460AF04AFF0146504606F088
S315000045E048FD0C21084203D10021504611F030FE4F
S315000045F00020286006F056FF09B0BDE8F08F2DE9CF
S31500004600FE4F814612F071F9064648460AF02FFF22
S315000046100146484606F02DFD05467078DFF808434A
S31500004620DFF8007300F001000290B01C04F0FEF900
S315000046304FF6F8718842ACBF4FF0010A4FF0000AFE
S3150000464007F048FF3988814220684088ADF80200AB
S315000046500CBF4FF001084FF00008B01C04F0E6F95B
S315000046600146029840EA0A008DF804009DF804000D
S31500004670002814BF06200820002207F0E5F820686D
S315000046800188BDF80260002904BF407900281ED1C8
S31500004690694648460AF084FA23689DF80010421ECF
S315000046A0D2B2042012F025FA2068408848F20201AE
S315000046B0884203D13888494602F079FA3888B6F537
S315000046C0004F10DBBDF8022049460AF07DFA20684B
S315000046D0029919B905F00C010C2935D1008909F0A8
S315000046E090FB30BB51E0DFF850B202218BF800108E
S315000046F05346002249460AF0CFF8206880794006E2
S3150000470004D5BDF80200FF2100F054F8132EDED0C8
S315000047102068C0884004DAD4884909789BF80000EC
S31500004720CA0701D50228D2D089072ED50128CED0B6
S315000047302BE020680189B8F1000F14BF032502257C
S315000047400020FEF7FDFF12E0017900910022437977
S3150000475038880021FFF724F805F00C01082905D157
S31500004760B8F1000F0CBF0425052500E000257449AB
S3150000477008709DF8040008B9382E01D1012200E026
S315000047800022294648460FF0A1F9BDE8F78F10B57B
S31500004790044600F008F8610548BF0838210548BFFF
S315000047A00838C0B210BD59490968C97E642001B1F4
S315000047B05220704770B55C4E0C4686B0054631688F
S315000047C00C2202A808F0E0F8306801798DF80D1087
S315000047D0FF2341798DF80C10ADF80A504FF6BF71E2
S315000047E0C08800940840ADF80E0002AA002001908F
S315000047F04C4801880720FFF7DDFB06B070BD514825
S31500004800007808B9FF2070474D48007870472DE9B9
S31500004810FB47914685B01C4648460AF028FE0146ED
S31500004820484606F026FC032108428DF800005ED1BA
S315000048303D4805683B48068801A948460AF0A6FE99
S31500004840394901A808604FF0000ABDF8140035493F
S3150000485008809DF80900002804BFBDF80400002860
S315000048603FD1484612F041F8801C04F0DFF84FF6BD
S31500004870F8718842ACBF4FF00108D046002C14BF37
S3150000488002240124012729E0BDF8140043463A46D4
S3150000489049460AF001F85FEA000A1ED0022C08BF5A
S315000048A0012F1AD1BDF8180016490880174800686C
S315000048B0417E491C4176A1F18000134908700C2104
S315000048C09DF80000084208D19DF80A00400604D56C
S315000048D0BDF80600FF21FFF76DFF7F1CFFB2BC424B
S315000048E0D2DA114805600F480680504600E00020E5
S315000048F008B0BDE8F087000024E5032030E503207A
S31500004900CCE40320C0E60320EEFB0320E4F60320FC
S31500004910D9FB0320C7E70320C4E60320E1FB0320FD
S31500004920F4E60320BEF70320C0F70320C4F70320F4
S3150000493085F8032086F80320EDFB0320DEFB032029
S31500004940FAFB0320BCF70320425757574242570051
S3150000495042575757424257420000000042575742BB
S315000049605757424257420000425757424242574227
S315000049704200000010B5044606F0DDFD10F0A6F872
S31500004980010018BF00F014F80C21304811FB04F1A7
S315000049900844827981880068BDE8104007F01EBA95
S315000049A00020E7E70120E5E70220E3E70320E1E74F
S315000049B010B582B0044606F0E2FD0C2148432349B7
S315000049C00844210017BF312C0021017A491C0172CD
S315000049D0C279017A91420AD30021017243208DF8EF
S315000049E000008DF80140022168460EF02AF913BD39
S315000049F017490978312900D0704780B544218DF8D0
S31500004A00001001460DF1010004F017F80321684675
S31500004A100EF017F901BD38B50E4C0C4B24780C2559
S31500004A206C43B0F5004FB8BF0429234401DB702066
S31500004A3032BDDA71988099719A799988186807F069
S31500004A40CDF9BDE8314010F041B8000090E60320F2
S31500004A50DCE70320E7FB032070B5160004460D468D
S31500004A6002D108F0C8FF02E0FF2108F073FF3246CA
S31500004A7029462046BDE87040A0E02DE9F04782B007
S31500004A8005468A46174698460EF0BCFCC0480A9C66
S31500004A900078B0B10C2F14DAFF21284608F05AFF2F
S31500004AA0814600260AE004EB4601C9B2404606F0FC
S31500004AB09BFB494608F04EFF8146761CF0B2B84291
S31500004AC0F1D3009443463A465146284600F08EF804
S31500004AD0BDE8F3872DE9F04704468A4600F0D5F88D
S31500004AE0012846D1204608F01FFFAA4A126812F88C
S31500004AF00A700025FF281CD081464C46DFF89882B4
S31500004B0000E06D1CD8F8000000EB84008478FF2CD0
S31500004B10F7D1E8B268B1EDB20C2D0ADA6800861C4E
S31500004B20BAF1FF0F24D0F119C9B2504606F05AFA6D
S31500004B3008B100201DE02A463946504606F09EFA86
S31500004B407C1C6A1ED2B2E1B2504606F097FA671C88
S31500004B504C4606E030F82420F9B2504606F050FBE9
S31500004B60BF1CD8F8000000EB84018C78FF2CF1D133
S31500004B70F0B2BDE8F08710B5FF280AD0864B1B6857
S31500004B8033F820400C8003EB800080781070002002
S31500004B9010BD032010BD10B508F0C6FE0024FF2886
S31500004BA00AD0022401E0A41CE4B27B49096801EBA7
S31500004BB080008078FF28F6D1204610BD30B583B03E
S31500004BC00C46C4218DF80010154601460DF1010072
S31500004BD003F033FF21460DF1030003F02EFF8DF89D
S31500004BE00550062168460EF02CF837BD2DE9F04138
S31500004BF086B0074688461D460DF1050014460EF0A0
S31500004C00BEFF01A80EF0BDFF59208DF808003946F9
S31500004C100DF1090003F011FF082241460DF10B00CA
S31500004C2007F0B2FE9DF805000C9B8DF81300660098
S31500004C309DF804008DF81400F6B28DF81540009624
S31500004C402A460021284606F004FB3146284606F08F
S31500004C50C9F90020009000232A460E2102A80DF073
S31500004C60F8FF06B0BDE8F08110B5044600F003F881
S31500004C704A48047010BD10B5484C2078FF2803D070
S31500004C8006F050F8FF20207010BD2DE9F041DFF846
S31500004C900C81074698F80000FF2882B00C4619D010
S31500004CA03C4D2A68115C8E1EF6B2314606F09CFA1F
S31500004CB0B8420FD12868075DF5052D0EFF2C02D1ED
S31500004CC0A81CC0B220E0F019811CC9B2204606F02B
S31500004CD089F908B1012017E02A463946204606F030
S31500004CE0CDF96A1E791CD2B2C9B2204606F0C6F9C1
S31500004CF098F800200096B91C002389B2204606F0D9
S31500004D00A8FAFFF7B8FF0020BDE8F6812DE9F041CB
S31500004D1080461F480078002688420F46154638BF51
S31500004D20742032D3012005F092FF0446380010D0DB
S31500004D307900C9B2204606F055F950B907E035F8B2
S31500004D4016207100C9B2204606F05AFA761CBE42F9
S31500004D50F5DB2046FF2811D00E4909680D5CA91C19
S31500004D60C9B206F03FF928B942462946204606F060
S31500004D7047FA03E0204605F0D5FFFF242046FFF75B
S31500004D8073FFFF2C0CBF18200020BDE8F081000047
S31500004D90D8FB0320CCE4032020E50320DDE7032035
S31500004DA0DFF8E42C1268127882420AD019B1012A7F
S31500004DB003D1022805D000207047022A08BF012827
S31500004DC0F9D101207047DFF8C41C8875704710B50B
S31500004DD0DFF8B44C2068407B112805D040F207115B
S31500004DE00FF20C0007F03CFE21684120487310BD0D
S31500004DF06173736F63696174696F6E2E630000007F
S31500004E0080B5022006F0F8FC06F01AFB00F04CFC18
S31500004E10042805D1DFF8740C417D491D417505E074
S31500004E204FF47A71DFF8680C11F02EFCBDE80140F2
S31500004E3006F038BB10B5DFF8544C0020E07420783B
S31500004E40FF2803D005F06EFFFF20207010BD70B55F
S31500004E5082B004460D4605F0EFFE0646B01D03F08F
S31500004E60E5FD00F44040B0F5404F0CBF06200020A1
S31500004E703118097C4A00490802F00E0201F0380197
S31500004E808918401800F11106DFF80C0D0068005D66
S31500004E90F6B286420BDA831BDBB20F2BA8BF0F23B9
S31500004EA00020009032462146284605F0DAFF3046BB
S31500004EB076BDDFF8D40B0068407B33281CBF43283F
S31500004EC0532801D101207047002070471FB50120EB
S31500004ED011F018FE11F01BFE0EF0BCFEF0B1DFF86B
S31500004EE0AC4BA07910B104F10A0005E020786946C0
S31500004EF0FFF7ADFF0DF10300DFF8942B00211170D1
S31500004F00617901F0E1F9FFF795FF00F008F809F083
S31500004F108BFF11F04DFE012001F003FB1FBD10B504
S31500004F2000F048FE017B032918BF042905D14088FB
S31500004F3001F0CEFA08BF032008D007F09DFB044617
S31500004F4007F09EFB2146FEF7E8FA022007F0A4FBD5
S31500004F5008F096FF00F022FEBDE8104009F090BF71
S31500004F6038B5DFF8284BDFF8205BA075FFF762FF46
S31500004F7000214FF6FF7001F09DFA2868417B032956
S31500004F8018BF00291ED0332918BF432914D101F0B8
S31500004F9040FA2868017B032918BF042906D103219A
S31500004FA04173A07DBDE8324006F039BCA07D06F015
S31500004FB036FCBDE83140B2E721214173BDE83140FE
S31500004FC00AF07BBC31BD10B5DFF8BC1ADFF8BC4A6D
S31500004FD00968002048734FF6FE7007F07FFA4FF617
S31500004FE0FF7007F083FA01F014FAA07DBDE81040C7
S31500004FF006F015BC70B5044684B0E07A0FF2D00115
S31500005000DFF8845A0290234694F90A00019015228B
S31500005010208901F0B7F82868407B60B9208901F043
S3150000502057FA08D000F04EF905D106F0B9FB10B9D1
S3150000503006F0CAFB10B1702004B070BD2868007D70
S3150000504080070AD507F046FA4FF6FE7188420246F7
S3150000505004D10CF03EFE024600E000222146104636
S3150000506001F0F2F806000DD12868007D80074CBFDC
S315000050700220012001F0C0F8002101200BF023F8E6
S31500005080060001D03046D7E7DFF8000A007F08B1F6
S3150000509009F0C6FB00220821204607F07FFB30B14D
S315000050A00421204603F0DBFE08B9A520C4E7DFF89B
S315000050B00C0B00782074DFF8080B60610020E0819B
S315000050C0204600F004F9064606F0EAFADAE70000A0
S315000050D0423870574242000010B504462346182253
S315000050E001F099F9DFF8DC0A0021017114B1FF2CF7
S315000050F002D10121017007E0012100F8041BA10083
S31500005100491C090211F0C0FA00F048FD002010BD4C
S31500005110DFF8B01A00200871DEE730B50D4689B019
S31500005120044668690FF2901107902346287C069082
S315000051301622E8890590287B0490E87A039095F971
S315000051400A00029028890190009501F01CF8287B3E
S3150000515000280CBF4FF6FE7007F0BCF92B4622461E
S3150000516009B0BDE83040014601202DE9F041DFF8E5
S31500005170184980462068407B00280F4616461D4683
S3150000518049D1300047D0052E45DA00F09BF842D1D0
S3150000519006F006FB00283ED106F016FB08B1042EE9
S315000051A039DB287B032816D14FF6FE70874214D1CF
S315000051B0012E08BF002710D0022E2CD107F08AF945
S315000051C04FF6FC71884202DA07F084F901E00CF030
S315000051D080FD074601E0012E1DD0B8F1000F0CD06E
S315000051E0287B03280CBF01210021012E0CBF0120C2
S315000051F000200AF068FF01005CD12946384601F01C
S3150000520023F8010056D106F071F906F082FA20B1B2
S3150000521006F0DAFA08B170204CE02068DFF86C7806
S31500005220407B33281EBF53280020F875304600F017
S31500005230E3FF387F20B106F0C7FA08B909F0F0FAA3
S31500005240287B032803D12846BDE8F0413FE0082229
S31500005250294607F10A0007F097FB287B0328A8BF19
S315000052600020B874FFF7E6FD9420B875B87C216875
S3150000527000280CBF01203120487301230020387517
S315000052802068817B4809020003D1BA7F03FA01F145
S3150000529008E001F01F0140F0180003FA01F10522B1
S315000052A041EAC061052011F020FE010002D022680B
S315000052B000215173BDE8F0814242387057424242A4
S315000052C057424400DFF8940C00780B28704710B55D
S315000052D004460022082107F061FA08B1012010BD3A
S315000052E007F0F8F800224FF6FF7100F0D3FF217C9B
S315000052F0204600F0E9FF6269E189207C08F0F3FDB1
S31500005300DFF884070068007B012808BF0BF065FC06
S31500005310FFF705FE002010BD38B5DFF86C470146E3
S315000053202068407B002802BFDFF8300C00780B288D
S3150000533001D0702032BDDFF8585721B1022205F1A5
S31500005340080007F021FB684601F08BF808B19320AE
S3150000535032BD9DF80030142201F05DF800F0FEFF2A
S31500005360010050D19DF8000000F046FF2068007B48
S31500005370012818BF022807D0032818BF042825D102
S31500005380002001F0A9F808B300F0FFFF2068007BB9
S31500005390032814BF042812F087F9FFF7C0FD012087
S315000053A012F0ACF901002ED12068007B032818BF4B
S315000053B0042827D1287A800724D50522DFF800188B
S315000053C0012000F027F801001CD032BD216813200F
S315000053D048730020DFF8B416087501222068817B27
S315000053E04809030008BF02FA01F107D001F01F01C6
S315000053F040F0180002FA01F141EAC06105220720D7
S3150000540011F073FD002032BDDFF88006C07D7047C5
S31500005410FF22FFE72DE9FC41804600F0CBFB0D465D
S31500005420017B0129164627D0407B022818BF032896
S3150000543022D1332007F030F92806DFF85076400FE6
S3150000544014BF0522BA7F2946052011F04EFD0446F9
S3150000545098B9FFF7EFFC07F045F838815FEA0800D6
S3150000546014BF02200120B87407F10A0001F011F8F8
S3150000547000203875FE7500E07024019400954346BF
S315000054802C220FF2100100F07EFE2046BDE8F681C8
S3150000549000000000424244420000000038B50446C5
S315000054A005F0CAFB0546204611F015FA2C182046D1
S315000054B003F0BCFA4FF6FF5101402046BDE83440E8
S315000054C003F0BBBA70B588B00C4616461D4630B917
S315000054D0204612F015F903A909F0AAF803A8072136
S315000054E08DF808100190310A8DF80A1001200C99E8
S315000054F08DF80B1000908DF80960042302AA012193
S31500005500204609F08EFF0646FF2E18D0214611F0E0
S3150000551024FA15B93046FFF7C1FF0D9808B9304691
S315000055200DE0204609F0B7F818B1304612F016F92A
S3150000553001E000F022FE304605F0F4FBFF2008B043
S3150000554070BD2DE9F24F84B0044616469B460027EF
S315000055504FF6FF7556B1304609F0A6FF80467078C3
S3150000556040084FF0010A00F0010905E0084611F075
S315000055705CFABA46B946804600F096F8032818BF8A
S31500005580042800F08E800BF101019DF81000C9B2CD
S3150000559005F06FFD8346400800F001008DF8080015
S315000055A05FEA0B6000F0D4FC58BF4BF0800B02287A
S315000055B004D1DFF810060078204301D1022722E04B
S315000055C0404606F036FFADF8000003219DF81000B6
S315000055D011F07BF9050008BF0125BAF1000F03D0D1
S315000055E0301D03F023FA01E0BDF8000001460095E6
S315000055F001235A46404608F042FF05464FF6FF7023
S31500005600854208BF0127E6B1200003D14FF6FF709F
S31500005610854204D1301D03F009FA014600E029460F
S315000056200120019000974B462A464046FFF74AFF65
S315000056309DF8080050B94FF6FF7140460BF01AFD71
S3150000564004E03A46294640460EF0E0F94FBB9DF885
S31500005650080088B1414628460BF02DFDDFF82814D6
