S00E00006E63702D7370692E7333372C
S3150000000058E50020ADAE02008141000091AE02002D
S31500000010A70A0A010002000004180FAC3062CC00E7
S3150000002000000000000000000000000000000000CA
S31500000030000000004CC402000000000000000000A8
S315000000400000000000000000FFFFFFFFFFFFFFFFB2
S31500000050FFFFFFFF00700700000000000000000027
S31500000060FFFFFFFFFFFFFFFF28000000000000006A
S31500000070000000000000000000000000000000007A
S31500000080000000000000000081FF002081FF00202A
S3150000009058E5002000D40200FEB10200F8DB002083
S311000000A090120020000008000000000084
S3150000020058E50020ADAE02008141000091AE02002B
S3150000021099AE020095AE02009DAE0200A9AE0200A4
S31500000220A9AE0200A9AE0200A9AE0200A9AE020064
S31500000230A1AE0200A9AE0200A9AE02004D2A00003E
S31500000240739A0000553701001D1C0000A9AE02007C
S315000002506D330100A53701005B3701005D370100F2
S31500000260573701001D16020067180200E1780000EA
S31500000270875A0000A9AE0200A9AE020023050000BD
S31500000280A9AE0200A9AE020085180200A9AE0200BE
S31500000290A9AE0200A9AE0200A9AE0200A9AE0200F4
S315000002A0A9AE0200A9AE0200A9AE0200A9AE0200E4
S315000002B0A737010059370100C9B10200137E0000BB
S315000002C0DB370100A9AE0200B9B10200A9AE0200F7
S315000002D0A9AE0200A9AE0200A9AE0200A9AE0200B4
S315000002E0A9AE0200A9AE0200A9AE0200A9AE0200A4
S315000002F0A9AE0200A9AE0200A9AE02006C496D4A81
S3150000030001E021B1491E1369DB07FAD401B9B0E057
S31500000310506001201060106910F0060F05D04107EB
S3150000032000D5A9E0800700D5A9E000207047F0B508
S3150000033013460022002936D05D4C5E4D8BB98B42A8
S3150000034031D250F8046BEE605B1C08262E60264600
S3150000035001E036B3761E2F69FF07FAD4002EEED1E0
S315000003601FE0EFF3108672B600230EE02F6907F048
S315000003701907102F08BF2F602F693F07F6D550F8D1
S31500000380047BEF605B1C10272F608B42F4D306B909
S3150000039062B6264601E026B1761E2869C007FAD461
S315000003A00EB96FF002021046F0BD2DE9F0479A46ED
S315000003B0414B424F1C681B683B688046002043F057
S315000003C001033B60950881460C4602E0B14404EB0C
S315000003D08604A94517D208EB89063046FFF78EFF3B
S315000003E0010014D1C6F30A00C0F500608608A5EB2B
S315000003F00900B04238BF0646524631462046FFF74E
S3150000040096FF0100E2D03968490849003960BDE825
S31500000410F0872949264A0B68096828490B6843F082
S3150000042001030B608860012048604869400704D5D5
S3150000043008684008400008601EE04869800704D547
S31500000440086840084000086019E00220486001E0A2
S3150000045022B1521E4869C007FAD422B9086840087A
S315000004604000086005E00868400840000860002079
S3150000047070476FF0020070474FF0FF3070476FF023
S3150000048001007047002390E70C48016841F0010124
S31500000490016046F21A31C1644FF4807141604169CE
S315000004A0C907FCD40021C164002070470000000089
S315000004B0809698000C000E4004300E4008000E4056
S315000004C0072802D23549085C7047FF207047072885
S315000004D002D23349085C7047FF20704738B504469E
S315000004E0304800EB8105A8780009FFF7E9FF207185
S315000004F0A87800F00F00FFF7EAFF6071FF2814BF2D
S3150000050001200020E8702146E878A0712878607004
S315000005106878254DA070284600F0A3F80120A86051
S3150000052031BD10B5214984B01CC968461CC020489D
S31500000530204A0178D36814682340DB072DD50329A8
S315000005402BD2184C12691C4B04EB8104E4781CB1C5
S3150000055014B2002C48BF002223F811200123174AA9
S31500000560147803FA01F121431170154A117891B1FB
S3150000057000211478CC40E40708D501708B40107830
S31500000580584010706846FFF7A9FF1FBD491CC9B245
S315000005900329EED31FBD032101701FBD28C402002D
S315000005A030C40200E4ED0020002000401CC402001C
S315000005B03DFF00203820004008EE00203EFF0020CE
S315000005C03CFF0020890001EB401000F184400260EE
S315000005D0704730B5002A446BDFF834511ABF102239
S315000005E0DFF83031DFF8303123400024A84237D11C
S315000005F0DFF8280151B101290CD002291ED00329A8
S315000006000CD0062915D0812918D023E0016804688A
S31500000610006816E001680468006802E04168446802
S315000006204068090C01F4FE41C4F303442143000C65
S315000006300CE08168806801F00F0107E041684468BA
S31500000640406801F4FE4104F00F04214300F0F0007D
S3150000065040EA010404FA02F0DFF8C4101843086007
S3150000066030BD38B504460D460220A0600022A978A8
S315000006702046FFF7AEFF287969786B79020242EAD5
S31500000680016242EA0342EB7842EAC302EB790BB11C
S3150000069042F000522B7A0BB142F00402AB790BB157
S315000006A042F002026B7A0BB142F00102AB78F328FA
S315000006B006D1180004D10429BCBF042060F31B62D4
S315000006C018064CBF42F0E00042EA4310206115498B
S315000006D060690840A9780A0644BF21F080010843F2
S315000006E0297840EA4140E97A09B140F480406061E6
S315000006F00221AA7A2046FFF765FF2879F32804F13C
S315000007003000BDE838400CBF01220022102159E715
S3150000071000200040FFFF00800080FFFF1082E00FF6
S3150000072034200040F8BFE1FF42DE704738B504468A
S315000007300D4600F005FC01F08CFA01F0ABFA2946F3
S31500000740204601F0D0FA2B4622466949012001F0E5
S315000007506CFC29462046BDE83440E5E765482DE9AE
S31500000760F047654D01682E1D4FF420687165016ADA
S31500000770B16562490A68F26549683166416A71661F
S31500000780816AB166C16AF166016B3167806B706719
S3150000079096F8340040074CBFF46BB46B01F0D1FC03
S315000007A00022F2648442564A014624BFA2F1200A7E
S315000007B0A2452746316505F19003DFF848C1DFF809
S315000007C048E118D3A0693064E4697464746DC4F3B5
S315000007D00804062C13D1704511D360450FD200884A
S315000007E04DF64264A0420AD13068586040F2017862
S315000007F07068986003E000273764776407464348CB
S31500000800814202D2014600E0091D0846904203D209
S315000008100C68B4F1CD3FF7D03D49081AB064002109
S31500000820002005EB8004401C0628E167F9D3002070
S3150000083003E0C0B205EB8004E167974223D252F889
S31500000840041D7145F9D36145F7D2CC07F5D50024CF
S3150000085005EB8409D9F87C90894502D0641C062CE6
S31500000860F6D3062CE9D1002814BF401E0520E0E788
S31500000870B16F002405EB8402641CD2F88070D76740
S31500000880052CF7D319600146481EC9B20029EFD1DD
S31500000890706DC0F30800032810D0042811D0052875
S315000008A012D0062813D00C2817D0122818D11948B0
S315000008B00068800719D540F2025816E040F6012874
S315000008C013E040F6022810E040F603280DE0B8F5E4
S315000008D0206F0AD140F6042807E040F6052804E018
S315000008E018B13F2838BF40F607284046BDE8F087D4
S315000008F038C4020004ED00E00000002000E300E040
S3150000090058E50020FEB10200C00400009C00002053
S3150000091058E500201C20054080B5002300931346AF
S31500000920012201F06BFC01BD00F092BE00F090BE0A
S31500000930DFF8242B10705170704710B54C0001463B
S3150000094000F027FD224601F038FCA04201D000202D
S3150000095010BD012010BD80B500F01BFD01F0BBFCF1
S3150000096000B10120C0B202BDDFF8280B407D00B106
S3150000097001207047DFF81C2B117B01B9704780B549
S315000009800146106A01F0FDFC20B1BDE8044040F2CA
S315000009907111C7E201BD80B500F0FBFC01F006FC59
S315000009A000F00300032801D1012002BD002002BD92
S315000009B080B5B0F5004F07D100F013FEDFF8D80A76
S315000009C000F0D0FCBDF80000DFF8941BC8830020BF
S315000009D002BD2DE9F04F440900F01F050027DFF89E
S315000009E0848B00E07F1C98F80660F8B2B04236D2DD
S315000009F0D8F80800FFB250F827004FF0000C01E0CD
S31500000A000CF1010CC67E5FFA8CFEB645EAD2D0F830
S31500000A101CE05FFA8CFC142616FB0CF6B6449EF816
S31500000A20086006F00706A642EAD19EF80960B542BC
S31500000A30E6DB9EF801B09EF8009006EB0B0AAAEBE7
S31500000A40090AAA45DCDB11B1AC1B4C440C7012B18F
S31500000A509EF8081011701BB1C3F800E000E00020FA
S31500000A60BDE8F08F400918BF40F01800704710B578
S31500000A70DFF8104B206A01F02EFC0246206ABDE822
S31500000A801040002101F043BC0B38102834BFDFF8BA
S31500000A90D80ADFF8F40A006870473EB568460021B8
S31500000AA0002200230EC0DFF8B00901788DF800108F
S31500000AB0817A0A0018BF022914D10079DFF8C45AD6
S31500000AC000F0BBF8044600F00EF858B1286A01227F
S31500000AD0002101F06DFB00F006F818B140F25B2131
S31500000AE000F06EFB37BD286A6A46214601F0A7BBB7
S31500000AF02DE9F041044604F01F001B2886B034D2CD
S31500000B00002000906B46002200212046FFF761FF7F
S31500000B1007002AD02046FFF7B7FF5FEA000824D077
S31500000B20DFF87069DFF8385AF06B804515D001A8F8
S31500000B304146062201F09CFC306AC6F83C8001A9B9
S31500000B4001F081FC88B9306A03A901F08AFCB5F985
S31500000B501C10306A01F052FC38B90098B062776216
S31500000B600098002818BFC06801E08A200EE0F062F5
S31500000B7029798C421CBF2C71FFF78FFF96F90D0067
S31500000B80C101306A09B201F063FE002006B0BDE87B
S31500000B90F081DFF8CC0900797047DFF8C409B0F9B5
S31500000BA01C00002854BF05216FF0040108180A2113
S31500000BB090FBF1F040B270470A2110FB01F0FFE70D
S31500000BC0F8B500F5D77240F277239A4201D38B200D
S31500000BD0F2BDDFF8C048DFF88859A26A0A23002A66
S31500000BE01EBFAE7F06F0C006802E12D0A67B86B949
S31500000BF092F9026016FB03F7B842B8BF16FB03F082
S31500000C0007DB92F9032012FB03F68642B8BF12FBFC
S31500000C1003F0217B61B10146206A01F0EFFB18B1B8
S31500000C2040F2B92100F0CCFA206A01F0FAFB01E0AB
S31500000C3010FB03F0A8830020F2BD38B50446FFF789
S31500000C4023FF90B10023002200212046FFF7C1FEBA
S31500000C5058B104F01F051B2D07D22046FFF702FFEF
S31500000C6018B90B2D01DB284632BDFF2032BD0FF22D
S31500000C700C014008085C704700000000504030003E
S31500000C807047C0B2704710F1630F01DA0020704759
S31500000C9010F1240F01DBFF20704764300002411180
S31500000CA000EB91608004000E704770B5DFF8E447F2
S31500000CB0DFF8C05A00202064687828B101F0CCFD26
S31500000CC0012818BF032801D1002070BDE16ADFF8B2
S31500000CD0A83ADFF88C2800291FBFA66A3669002EBD
S31500000CE0022817D12364906900F5FA709061E07CC0
S31500000CF018B100200021642203E0E87829794FF436
S31500000D00A0722070A2806170A878A0708020E08018
S31500000D10002030E0DFF8645A9069AE4213D1DFF864
S31500000D20603A236400F57A709061E07C88B90879AE
S31500000D30207001228B7808799A40101891F90320C7
S31500000D401018401E0CE0236400F5FA709061E07CF8
S31500000D5018B100202080642005E04878207088784B
S31500000D60607008780001A0804879A07008890001A9
S31500000D70E080C8880001A06000F039FCE07094F9BA
S31500000D800200010048BF4042C0B270BD70B50446C3
S31500000D90DFF80067257896F9140008B18C2070BD3D
S31500000DA0FFF783FFB075DFF8CC29DFF8B407417889
S31500000DB00174690101F5807181619379716C002B71
S31500000DC0B37B1DBFAD1EEDB221F0020141F0020161
S31500000DD073B9127862B16278920609D56FF0010292
S31500000DE0327541F00101826902F50872826104E000
S31500000DF049084FF0FF30490030757164032000F058
S31500000E0007F96A1C306A4FF4807392B2214601F0EA
S31500000E104CFD691C884203DA40F21B4100F0D0F910
S31500000E20002070BD00000000F8B5DFF8685695F99F
S31500000E3014100024091D04290FD8DFE801F0080E5C
S31500000E4010100300FFF7A2FF040008D0F2BD2C75B6
S31500000E50286A01F0B1F98D20F2BD8C20F2BD01F0B7
S31500000E6040FDE8B1286CDFF81019884218D1A87D3A
S31500000E70B0B1DFF8A00A0068002811D5DFF8D00A63
S31500000E80C168C1600122006800F00F0002FA00F09C
S31500000E90401E014204D100F0F1FB642001F025FD63
S31500000EA001F068FD064695F9140010F1010F1CBF0C
S31500000EB095F9140010F1020F29D195F91400DFF805
S31500000EC0A0764042287501F05BFD7862296C38797E
S31500000ED049B9FFF7B2FE01466A6C286A07F11003AA
S31500000EE001F09CF90BE0FFF7A8FE07F11001009155
S31500000EF001466A6C286AD5F840C02B46E04760B1C7
S31500000F00002028758C244FF0FF30786202E0002024
S31500000F1028758D24286A01F04FF9304601F0A1FDAD
S31500000F202046F2BDDFF8700AFFF700BC2046BDE898
S31500000F30104001F096BDDFF82806C08B7047000010
S31500000F40F8B501F017FDDFF810550446A87A012818
S31500000F5003D1204601F085FDF1BDDFF8401ADFF828
S31500000F603465DFF8347A402008600122306A0121B6
S31500000F7001F01EF9DFF8281A4FF4001008606946E0
S31500000F800FF2880000680090306A01F055FC20B12D
S31500000F9040F2C7413846FFF7C9FB02208DF8000032
S31500000FA06946306A01F025FC20B140F2C941384655
S31500000FB0FFF7BCFB306A01F01DF90021002001F0AB
S31500000FC053FD00F045FB0120A87296F91400001DA0
S31500000FD0072810D8DFE800F0140F0707040B0B0BE7
S31500000FE001F0FFFE0CE06FF00300307508E0892089
S31500000FF000F079FB04E040F2ED413846FFF796FB3E
S31500001000204601F02EFD01F08CFFF1BD0401000029
S315000010102DE9F04DDFF840540446A87AA04282B08C
S3150000102063D00FF2CC01DFF87C690968DFF86889C4
S31500001030DFF86074DFF868A9009103284FF4001BFD
S315000010404FD8DFE800F047023E2B01F073FF386A05
S31500001050694601F0F1FB18B140F20A5100F04AF876
S3150000106002208DF800006946386A01F0C2FB18B10B
S3150000107040F20C5100F03EF86879002814BF0022B7
S315000010800222386A022101F08BFF18B140F2115199
S3150000109000F030F80320032CA87218D0CAF800B06C
S315000010A00220A8722879FFF7C8FD0146386A002297
S315000010B001F0C5F818B140F2215100F01BF8022CDE
S315000010C013D0002C18BF032C0FD10020A872C6F82D
S315000010D000B00AE0022C08D1CAF800B00220A872BB
S315000010E003E040F2375100F005F8BDE8F38D00004B
S315000010F0040200004046FFF719BB002088E7DFF82E
S31500001100AC0A807A70470000032805D8DFE800F0B3
S315000011100302030314E77BE740F2555102E780B56B
S3150000112000F00FF804D500210175006A01F044F8BB
S31500001130DFF8780A407A012802D1BDE80140FFE6CF
S3150000114001BDDFF86C0A90F9141000297047DFF82A
S315000011505C0A407A704780B5032801DB012002BD96
S31500001160DFF8481A4872897A884218BFFFF7CCFF21
S31500001170002002BD2DE97C4FDFF8346A03EA010B3B
S31500001180D6E9068929EA010528EA000402EA000AE6
S3150000119045EA0B0544EA0A044D4508BF44450DD00F
S315000011A0CDE900230246306A0B4601F047FB18B131
S315000011B040F27D5100F004F8C6E90645BDE8738F9C
S315000011C00FF62420FFF7B2BA38B5B24D0446287B95
S315000011D0E8B1200018BFDFF8DC2904D1A87C08B1EB
S315000011E0402200E000220023DFF8C8090021FFF7B3
S315000011F0C1FF002C14BF00220822286A082101F032
S31500001200CFFE20B1BDE8344040F2B9518AE631BD87
S31500001210F8B50446022C0FF6D01503DB40F2E25176
S3150000122000F0A5F89B4E307B002840F097808A4F4F
S31500001230B87A012803D04FF4BD6100F098F8002178
S3150000124007F1280000F0A2FF306218B940F2EB5116
S3150000125000F08DF8306A052101F089F918B140F2E5
S31500001260EE5100F084F8306A0FF6901101F0AAFEF4
S3150000127018B140F2EF5100F07AF8306A01F0D6FE6C
S3150000128018B14FF4BE6100F072F84FF0FF30DFF88E
S31500001290282906230146FFF76DFF306A4FF001113A
S315000012A001F047F818B140F2056100F060F8306AC5
S315000012B04FF48032002101F02AF8306A09224FF0FB
S315000012C0FF3101F06DFE18B140F20C6100F04FF8ED
S315000012D0012030730223DFF8E40800F043F8BDF87C
S315000012E00000C0054CBF0020BDF80000707301F07F
S315000012F0F8FAFFF769FFF88BFFF75AFB01F016FFC4
S3150000130000F085F83879FFF7F3FB18B140F21F615A
S3150000131000F02DF8F87900F040F8387A00F058F827
S31500001320307C00F086F8787900F0CCF800F05FF9B0
S3150000133000F02CF9B07C00F01BFBB7F91C00FFF79E
S315000013403FFC388C00F08AF8788C00F0A7F8B87962
S3150000135000F00DF9601E8041C00FB8722046FFF7FD
S31500001360D3FEF1BD01887F22684601F02DBF2846D5
S31500001370FFF7DCB980B500F00CF8012100F062FF40
S3150000138010F5007F02D16FF07F0002BD80050016C8
S3150000139002BDDFF81C08006A704710B504463D48D8
S315000013A0017B51B1611E8941006AC90F01F090FEAF
S315000013B018B140F25A61FFF703FF2000DFF8EC177F
S315000013C018BF0120C87110BDDFF8E007C07970476B
S315000013D0F8B5044601F0CEFA05461F482D4E0472B4
S315000013E0377BFFF7C1FA00F0010080F001000742E9
S315000013F004D0306A84F0010101F0A9FF2846BDE857
S31500001400F24001F02EBBDFF8A407007A70472148AE
S31500001410017B01B9704780B5006ADFF8A417002286
S3150000142001F043FE20B1BDE8044040F2856179E554
S3150000143001BDDFF87C27117B107401B9704780B5B8
S315000014400146106A01F038FE20B1BDE804404FF4B1
S31500001450D26167E501BD000048E900204049DFF898
S3150000146050370884197B01B9704780B50146186A60
S31500001470002201F013FE20B1BDE8044040F2A16154
S3150000148050E501BDDFF82407008C7047DFF81C0724
S31500001490408C704748ED0020D8CE02003049DFF876
S315000014A010374884197B01B9704780B50146186A20
S315000014B0002201F0ECFD20B1BDE8044040F2B76126
S315000014C030E501BDDFF8E4164A79824200D1704763
S315000014D010B58C7A4871012C05D0FFF731FD2046F6
S315000014E0BDE8104094E510BD10B500F032F800F0EC
S315000014F02BF80146206A012200F099FE20B1BDE8D2
S31500001500104040F2D9610DE510BD80B5FFF741FFEF
S3150000151000F090FE18B140F2DE61FFF751FEBDE823
S315000015200140FFF7BABA10B500F013F800F00CF856
S315000015300146206A002200F07AFE20B1BDE8104084
S3150000154040F2E961EEE410BDDFF860060079FFF7CE
S3150000155074BBDFF85C46206A0122012100F028BE38
S3150000156048E90020F0CB0200C8E80020CDE710B51E
S315000015700446FFF70EFF214601F0EFFEDFF82C06CA
S31500001580847110BD48ED0020CCE8002038B5044633
S315000015907F2C0CD100F025F8DFF82806FFF7E2FED5
S315000015A0BDF800007E24C00558BFBDF8004001F01C
S315000015B0E1F90546FFF7D8F960B960B27E2805D192
S315000015C0DFF8EC15896A09B191F904007E28B8BFE5
S315000015D0FFF7D0F9DFF8D4050473284601F041FA85
S315000015E031BD4FF6FF70ADF8000002237047DFF8FB
S315000015F0BC0590F90C007E2807D1DFF8B405806A97
S3150000160008B97F20704790F90400704710B501F0C3
S31500001610A7FE80041AD500F02BF801F0A1FEC00445
S315000016204CBF03200120002101F09CFE01F098FE32
S3150000163000F0FF004FF47A7111FB00F104F148004D
S31500001640BDE81040DFF88025FFF766B9BDE8104019
S3150000165010B500F00DF804F1480000F0D8FDFFF7D2
S315000016609AF920B9BDE81040002101F07BBE10BDFB
S31500001670DFF83C4504F1600000F0C9BD80B501F01B
S315000016806FFE4005BDE804404CBF03200120002149
S3150000169001F0EAB910B5DFF8184594F914000328EB
S315000016A00DD100F02DF9DFF804154FF0FF30486238
S315000016B00022216BBDE81040402001F005BA10BDA4
S315000016C038B50446FFF7C4FFDFF8E45401F069F9C2
S315000016D0686314B101F0D9F801E000206874BDE830
S315000016E0314001F07EBB38B50446DFF8C014DFF8A0
S315000016F0C0544FF0FF30486201F053F9686395F922
S315000017001400012802DABDE831407FE7A87D08B160
S31500001710686BA86300F062FAA87B10B10120E87339
S3150000172031BD2046BDE838400022002101F0CCB989
S3150000173010B501F0D6F8DFF8784498B1FFF72BF929
S3150000174080B104F1480000F062FD01F00DFE0021B9
S3150000175001F008FEDFF8742442F2107104F1600013
S31500001760FFF7DAF8A07C18B1BDE8104000F055BAD2
S3150000177010BD0000F4EA002023220000181C00001F
S31500001780292200002DE9F043DFF824440FF25849DE
S31500001790206A89B005AA022101F08AF8050003D162
S315000017A040F6E70100F0A9F89DF81400DFF8FC63A5
S315000017B0BDF8168007281CBF7079002819D1B8F12A
S315000017C0060F16DB08F108008B2812D200200090C5
S315000017D04346DFF8FC73206A3A46294601F070F862
S315000017E0404503D04FF4106100F087F838780006C2
S315000017F002D5FFF70BFF7DE001208DF80800CDF83C
S3150000180004806A46206A294601F056F818B140F667
S31500001810171100F072F8787800F0070002281ED140
S31500001820FFF716FF94F91400032808BFB8F1060F56
S3150000183011D19DF80D0070B17878000900F001050E
S3150000184000F05EF84FF0FF3070622A4600218F20CC
S3150000185001F03AF94EE0F07900284BD105E09DF809
S315000018600D0010B10020FFF715FFF0799DF80D105F
S31500001870084203D040F63F1100F03FF8F07958B126
S315000018807878800608D5307A30B1206A01F062FD9A
S3150000189030B1FFF7BBFE03E0FFF7DAFE002060740D
S315000018A03878401C404503D040F65F1100F025F81B
S315000018B007EB08053079287001F05FFE68709DF827
S315000018C00E00A87095F90200FFF7DDF9E87008F13F
S315000018D00801FF202871C9B20098000C68710098B1
S315000018E0000AA8710098E8713846627C01F034FA63
S315000018F00020607409B0BDE8F0834846FEF716BFC5
S3150000190000202075206A00F057BC0FF2E420FEF795
S315000019100DBF00000440084010B5A448446A002CDE
S3150000192014D401F02DF8001B40F2E93180B2884250
S315000019300CD39F4890F91400032803D1BDE810404A
S315000019400020A7E6BDE810408920CCE610BD0000C7
S315000019504C50084010B540B900F098FF01F00AF865
S315000019600446FFF7D9FFFFF7E1BABDE81040D3E719
S3150000197038B58F4D0446287B60B1200002D100F0B7
S31500001980B0FF08B1402200E00022002340200021E1
S31500001990FFF7F0FBAC7431BDE81B000008400840BF
S315000019A018600846186008442DE9F0478146144639
S315000019B0600688B0984648BF002002D4200602D5AB
S315000019C00120FFF7B5FEA003794D25D500206874E8
S315000019D06946484601F091FBF0B99DF808000228D7
S315000019E00ED1BDF8000002F065F8FF280ED0794947
S315000019F0096831F810004FF4E661084206D10BE0A1
S31500001A00032809D1684602F0C8F828B1286A01F00F
S31500001A1071FB08B901206874600410D500F061FFFD
S31500001A2068B1FEF7B8FF50B102F050FB064601F070
S31500001A309BFC864203D00021304601F093FC200730
S31500001A4044BF4846FFF79EFEE00548BFFFF7DEFDB0
S31500001A504FF41850044218BFFFF7FAFDE00244BFE6
S31500001A600120FFF72DFE600244BF0120FFF728FE8C
S31500001A70E00144BF0020FFF723FE95F914000FF2A2
S31500001A80681A012864DB286A484E21034FF0FF37A5
S31500001A9030D595F9141001295ADB95F9141003294C
S31500001AA056DA00218DF8181001218DF8141003A9BB
S31500001AB000F0DAFC0398286300F073FF6863A87DE2
S31500001AC008B1686BA86395F91400012804D00228B0
S31500001AD00AD1032028753BE000F080F87762A87BE6
S31500001AE0A8B9296B002218E04FF401615046FEF7B1
S31500001AF01DFE2DE014F0845F12D00021297500F040
S31500001B005BFB042000F0C3FE7762A87B10B10120C6
S31500001B10E8731DE0002200218D2000F0D5FF17E0BC
S31500001B20A00248BF892002D4A00103D58820FFF770
S31500001B30DAFD0DE0600048BFFFF7A0FDA00007D565
S31500001B4025480068400403D40021002000F08CFFE3
S31500001B50A00744BF4846FFF79DFD002C04D5FFF7BC
S31500001B6077FD4846FFF796FD08F0020100239942EB
S31500001B7012D0484600F018FB022802D0032802D0F3
S31500001B8005E0892000E08D20FFF7ADFD04E040F67A
S31500001B907B015046FEF7CAFD08F004010023994276
S31500001BA018BF02F0EBFA08B0BDE8F08748E900205C
S31500001BB048ED0020406700600A00FA93DCCE020080
S31500001BC0F0F80020DECE0200290900002D090000F1
S31500001BD0F8F500206CE80020044008400020287535
S31500001BE0286A00F0E9BA00007068792E63000000E8
S31500001BF06C69627261696C2E610000000000000071
S31500001C0001006003010101016400B6006400C00028
S31500001C10000000000B0000000000704702F0B0BAA0
S31500001C2080B50121154802F077FB0421072002F058
S31500001C30F1FF13481349144A01600421116002217F
S31500001C4041620421114A1160816A41F002018162F8
S31500001C5001BD0B4803F020B8A52800D0704780B519
S31500001C6000F005F810B10A490020086001BD0448DB
S31500001C70006810F0010018BF012070470025080019
S31500001C80002005400108030080E200E000E100E0DA
S31500001C900000A442602080F31188704770B503F0FD
S31500001CA0F0F8AE4C204603F0C9FCD8B9204603F044
S31500001CB07BFCFF28044615D0A9490968085C851EE7
S31500001CC0E9B2204603F0F2FB0646E9B2204603F0ED
S31500001CD0EBFA2146304600F0EDF82046BDE87040AC
S31500001CE003F082B970BD03460A469AA10420FFE7B5
S31500001CF00CB480B502AA00F032F801BC5DF80CFB0A
S31500001D000A0003D0034694A11120F1E7704700B5FD
S31500001D1087B001F015F900210591024630210491A2
S31500001D2000236221039101200021029101918D4936
S31500001D3000910FF24021FFF7DBFF8B488179C378D2
S31500001D40827803910188029141790191017900918C
S31500001D5042200FF22C21FFF7CBFF07B000BD2DE983
S31500001D60F04F85B005460C46904603F0C6FC0026AB
S31500001D70F8B903F00FF8E0B1012003F0CAF8824683
S31500001D80BAF1FF0F15D0002103F0BEF8294601A8CD
S31500001D9003F006F805469CB900F087F830B95046BE
S31500001DA003F066F810B1042003F098FC504603F0E7
S31500001DB01BF905B0BDE8F08F8DF804200125641CE1
S31500001DC020780100E8D0A0F130010A2905D20A21C5
S31500001DD001FB0600A0F13006F1E700F066F80028E6
S31500001DE0E4D122780025422A01A80ED0442A1AD02E
S31500001DF0462A25D0572A0DD0622A3AD0662A2AD0FA
S31500001E006C2A25D0702A26D0D6E758F8040B8DF810
S31500001E100400D3E758F8041B8DF8041002250904C2
S31500001E20090E4170CBE758F8041B8DF804100A0A16
S31500001E30427004250A0C8270080E8DF80700BEE772
S31500001E4058F8041B504603F0E1F90028B7D0ADE777
S31500001E5058F8046BB3E7012358F8041B662A08BF39
S31500001E600223F2B2504603F0B0F9002808BF00265C
S31500001E70ECE73B4858F8047B006810F80A90FFB27C
S31500001E80FF2F9CD010F807B00BEB0901C9B25046E2
S31500001E9003F00AFA002889D1CDF800B000233A46AB
S31500001EA04946504603F037FB89E72A4601A95046C2
S31500001EB003F0AAB92DE9F043122885B080460D46F5
S31500001EC009D03A281FD04FF6FE71884204BF284633
S31500001ED002F0FFF836E02248244F0068465D0BE02A
S31500001EE0284603F00BF801462246002003F008FEC0
S31500001EF03868455D203EF6B2FF2D23D0212EACBFBB
S31500001F0020243446ECE703F0CFFF8146FFF7BEFA04
S31500001F100646FEF742FE0746FEF73BFE0446FFF77F
S31500001F20B1FA02460F480FF260010390CDF8109007
S31500001F3023460F48006840880290019600973B2090
S31500001F40FFF7D6FE2946404605B0BDE8F04303F04C
S31500001F50F5BB0000574600006C70000094EA0020B4
S31500001F6058E80020F0F8002000CC020060E80020CD
S31500001F70DCF8002042423870424242425742420058
S31500001F804242424257420000574242575738704237
S31500001F90000000002DE9F04104460125200094B020
S31500001FA00F4690461E4606D001281DD0102802D0A6
S31500001FB0202819D028E0002103F0D0FD0546012C89
S31500001FC018BF202C08D0022C18BF212C04D0032CBB
S31500001FD01CBF222C232C24D1012E0197ADF80C8096
S31500001FE014D14FF4805015E00AA81649242200F0B7
S31500001FF04FFA68460AA9242200F04AFA1020ADF8E2
S315000020002400ADF82600DAE701200BE0022E03D10A
S315000020104FF44050ADF80A006946204603F09EFD95
S315000020200546E8B214B0BDE8F0810CB480B50A46A6
S31500002030014602AB044804F03AF802BC00205DF801
S315000020400CFB000060C70200E55C00007047000062
S3150000205010B50446FFF71EFE200A00283E4808BFBA
S3150000206024024FF20F0104804180BFF35F8FBFF35C
S315000020704F8F3A483A4A016801F4E0611143016022
S31500002080BFF34F8F00BFFDE780B5002000F009F8D1
S3150000209030B9BDE80440E3210FF2DC00FEF746BB91
S315000020A001BD2DE9F0422F4C216842428D1815F0F2
S315000020B01F0108D0002802D44842054403E04842E4
S315000020C0284400F120052848A5F12006A84224BF8F
S315000020D02648864203D3EFF30880854201D30020C9
S315000020E02DE000F047FC81462148006810F001070A
S315000020F018BF04F006F9206801468D4206D2A842B0
S3150000210024BFCD2100F80119F9D206E020380022BB
S3150000211001E000F8012B8842FBD32560304604F02D
S31500002120F7F8E22001E006F8010BAE42FBD30FB14F
S3150000213004F0C4F8484600F094FC20682038BDE856
S31500002140F0820848006870470648006820387047E3
S315000021500848704700000000000000200CED00E079
S315000021600400FA0598EA0020F8DB0020901200200F
S3150000217094ED00E0000000206D6963726F2D696EBA
S315000021807465726E616C2E630000000038B50446FB
S31500002190214804600D46204600F0DCF92946204619
S315000021A0BDE8344000F0A2B90120704704F00DBB31
S315000021B00846114600F0EFB970470846114605F08B
S315000021C0CAB90220704700207047002070470120DE
S315000021D070470020704710B50C4611461A46034654
S315000021E020460D4C64682468A04710BD0A48406824
S315000021F040680047084840688068004710B582B0CC
S31500002200049C0094044C64686469A04716BD0249A6
S31500002210496889690847000034EB00200C3000F05B
S31500002220A1B80C3000F0B0B80C3000F0BFB80C30DC
S3150000223000F0C9B880B504F0B9FD002002BD0C302D
S3150000224000F0B1BE0C3005F0EDB90000996B00004E
S315000022500B6C0000176C00003B6C00004F6C00001C
S31500002260C3210000C7210000CB210000CF210000C0
S31500002270D32100000120704738B500F01BF800217B
S315000022802561E160BDE8324005F0CFB938B500F010
S3150000229011F82169E26829400D0018BF0125114394
S315000022A0E16005F0C2F915B10020042134BD00201B
S315000022B0002134BD04460D4605F0BAB938B5FFF71E
S315000022C0F9FF2269E1682A4021EA0205E56005F086
S315000022D0ACF9284632BD8069704770B582B00546B4
S315000022E00C0006BF0FF25C000068206816460090DE
S315000022F006B9EE6831462846FFF7E0FF32466946E2
S31500002300284604F0A7FC0CB10098206073BDF8B510
S3150000231000F10C070C4615463846FFF7ABFF0226C0
S3150000232028B12A4621463846FFF7D7FF0026304611
S31500002330F2BD80B50C3001F00111FFF79DFF0020C2
S3150000234002BD0000FFFFFFFF38B504460D4604F04E
S3150000235071FA08B9022032BDA9B22046BDE8344060
S3150000236000F03FB938B50446154689B2FFF7ECFFD1
S31500002370010005D129462046BDE8344004F07DBA67
S3150000238032BD0C3004F055BB70B500F00AF8010000
S3150000239006D1324629462046BDE8704004F0B5BA5B
S315000023A070BD044615461E4689B2CDE770B5FFF7E7
S315000023B0F8FF010006D1324629462046BDE87040A6
S315000023C004F064BA70BD70B5D4B2250018BF012CF4
S315000023D001D0012070BD89B200F003F906000BD1CF
S315000023E00121012000F0D7F814B904F0E6FC03E05F
S315000023F0012C08BF04F0E8FC304670BD7CB50D46E4
S315000024006946044600F02DF89DF800102A4620463D
S3150000241005F012F904F10C060146304604F08EFC74
S3150000242076BD30B583B06946044600F01AF804F16B
S315000024300C05284604F0B8FC02469DF8001020461C
S3150000244005F062F93EBD38B50C4600F10C050021D9
S31500002450284604F073FC21462846BDE8344004F0C3
S3150000246060BC0C3004F09ABC0C3004F050B800008C
S3150000247062B38B0708D0521E11F8013B00F8013BEE
S3150000248000F024808B07F6D1830740F0208000BF40
S31500002490103A07D330B4B1E83810103AA0E8381033
S315000024A0F9D230BC530724BFB1E80810A0E80810E1
S315000024B044BF51F8043B40F8043BD20724BF31F82F
S315000024C0022B20F8022B44BF0B7803707047083AA2
S315000024D007D3B1E80810083A40F8043B40F804CBAB
S315000024E0F7D25307E4E700000120704710B5044611
S315000024F004F044F808B1002010BD204610BD70B5A8
S315000025000D00044614BF012600261F21304605F0A3
S315000025104FF90020606225621F21304605F048F918
S315000025204FF6FF76002001E0401CC0B2E968884201
S3150000253009D2A968182212FB00F21144C989B142D6
S31500002540F2DA0E00F0D13146204600F04AF8304665
S3150000255070BD704710B5044604F0BBF8A06A0100D0
S31500002560DFF8301208BFDFF83002886010BD38B5DA
S3150000257000F10C050C462846FFF7B6FF28B104F01B
S3150000258024F9012801D0022032BD21462846BDE8A3
S31500002590344004F0F0B810B50C4604F001F91CB153
S315000025A004F013F90128FBD110BDF0B504467B48B1
S315000025B0066883B00D466946204604F0EFFBB5F980
S315000025C01220012747F6FF702479824207D09DF832
S315000025D00010304605F030F8A04238BF00273846D4
S315000025E0FEBD2DE9F04F85B04FF000098DF8019042
S315000025F00446684F8DF800900D463868D7F804A059
S315000026000290CDF804A0204600F0C1F88046266A64
S31500002610D4F824B000F0EBF8002818BFD34505D154
S31500002620BBF1000F02D0A8B240454BD0002E1CBF14
S31500002630B068002801D0F06808B903209CE0CA46BB
S3150000264001E00AF1010AF068824518D2B068182143
S3150000265001FB0AF10144A8B2CA89904222BF088A46
S31500002660AAB29042EDD301208DF800008B46204699
S31500002670FFF79BFF0028E4D001208DF8010003A995
S31500002680204604F08BFB204604F08EFB82469DF824
S315000026900100C0B1217900F073F8386860B3B04228
S315000026A023D17A680AB35A451FD1A9B2884506D004
S315000026B00023204604F08FFB5FEA000912D1C4F81C
S315000026C024B0658057E09DF8000048B1BBF91220A0
S315000026D09DF80C10A4F10C0004F0AEFF0146DAE7F9
S315000026E0012049E000F04BF83FE0016821B1326873
S315000026F0914208BF416800D0316800F045F8814634
S315000027005FEA090004D1DBF8001000F03DF88146CD
S315000027105FEA09000FD100F06AF810B13E60C7F811
S3150000272004B0C4F824B0658001235A46A9B22046F5
S3150000273004F051FB81465FEA090005D1BA685946A3
S31500002740A4F10C00904716E000F051F898B10298F9
S31500002750386001987860386808B100F014F800F025
S315000027600EF8786838B100F00EF87A680023414612
S31500002770204604F030FB484605B0BDE8F08F5146D0
S31500002780204604F0FBBA0168204604F0B9BD408833
S31500002790704700003CEB00205325000034EB00207E
S315000027A001281CBF0428022801D1012070470020FF
S315000027B0704738B500F03CF840B16878FFF7F0FF95
S315000027C020B1287869780843400701D5012032BD39
S315000027D000F00DF828B103F0F8FF400701D50220FC
S315000027E032BD29462046BDE8344004F061BA204691
S315000027F07AE60C30DDE738B500F01AF838B16878BB
S31500002800FFF7CEFF00281CBF6878042801D10120FD
S3150000281032BDFFF7ECFF28B103F0D7FF800701D5E3
S31500002820022032BD29462046BDE8344004F068BA8D
S315000028300D4604462878B3E70C30DCE730B583B0A4
S315000028400C30DDE90645CDE9004503F010FF3EBD3D
S315000028500C3004F021BD00000020704738B5144646
S31500002860FEF7E2FA05466CB128000BD00A4800785C
S3150000287018B10A490120087004E000220021284608
S3150000288000F022F9284632BD704770477047044968
S31500002890087070470000000056ED002057ED00203C
S315000028A06DFF00207047012070470C3004F089BC92
S315000028B00846114604F0F4BB0846114604F00EBC67
S315000028C070B50C4615461E460C30FFF7ECFF38B1C6
S315000028D0049B324629462046BDE8704003F002BFFD
S315000028E070BD002070470000704704F0CFBF10B5E0
S315000028F004460521112001F081FE0022002102205C
S3150000290002F03EF81848194A01686FF3D3210160B6
S3150000291002EAC4220168114301600122012102205A
S3150000292002F02EF8BDE810400421112001F066BE29
S315000029300D4800680003C00D704738B50C480C46BA
S3150000294001884FF6FF75ADF8005002237F226846D6
S3150000295005F027F8BDF80000A84202D0208001202B
S3150000296032BD002032BD000030400E4000F80F009E
S31500002970E2CE0200EFF31180602181F311887047E7
S3150000298080B505F027FA05F032FA80B202BD80B5AF
S3150000299005F020FA05F02BFAFA21B0FBF1F080B22F
S315000029A002BD80B505F016FABDE8044005F01FBA71
S315000029B080B504F012FF184800214160001D05F0A3
S315000029C06FF820B139210FF28800FDF7AFFE002025
S315000029D002BD114901200870704770B5044682B0E7
S315000029E02268002502B91BE000F00DF801201BE06B
S315000029F070B50C4682B02268002502B910E000F0DE
S31500002A0002F8022010E0044E044B357000950021B8
S31500002A10706805F0C8B8000084F60020D3290000CD
S31500002A2005F0FEFA002076BD05F08EFB307828B959
S31500002A307068214605F088F9852501E02560357026
S31500002A40284676BD014600220020D1E700F008B8EE
S31500002A5073797374656D2D74696D65722E630000EC
S31500002A60704780F31188704701207047DFF8FC0338
S31500002A70002120F8801B0022FF2101704170417166
S31500002A80C270027182716421FF20FDF751BF38B513
S31500002A900446402C154606D100F062FC00F080206A
S31500002AA0B0F1004F03D000210020FFF7DDFFDFF873
S31500002AB0C003290018BF01210470417000F08DF990
S31500002AC0BDE8314001F059BB70B504460D461646C7
S31500002AD08D2C08BFFFF7D8FE324629462046BDE8B2
S31500002AE07040D4E7F8B5DFF88443FFF743FF04F1FD
S31500002AF080056E79FF2E68D0FF216971FFF7B1FF5F
S31500002B0030001CBF402E8F2E1BD103F06CFA4009FB
S31500002B1017D0E01C05F019FB00F44060B0F5406FDB
S31500002B2005D104F10801002005F036FC05E004F1AA
S31500002B30080005F00AFB00F0BDFFA1780D3105F095
S31500002B4094FE002E207816BF8F2E0127002702281C
S31500002B5002D0DA2100F0A7F8380011D0A01C00F04E
S31500002B60D5F868B1A87938B1012020702921BDE8CF
S31500002B70F440C04805F094BEFEF7D1FA312021E0BA
S31500002B80FEF7CDFA402E10D105F095FF6078411E74
S31500002B906170A0B1287806F047F8014600220420AB
S31500002BA000F030FEBDE8F1403BE08D2E07D12878DD
S31500002BB006F03AF801460022202000F023FE07B175
S31500002BC000263046BDE8F240B3E0FFF74AFF207822
S31500002BD0032804BF002000F0ACF804F1810002F0E5
S31500002BE0E3FCFF280AD0E978491EE97006F01EFBCF
S31500002BF0207818B9BDE8F14006F0CFB9F1BD71E70C
S31500002C0080B500F0ADFB40054CBF0320012000213C
S31500002C10FFF72AFFBDE8084001224FF47A71964873
S31500002C201BE180B5012006F0CDFD06F06BFD934952
S31500002C30C0B9487830B100F093FB00280BD5FFF7F8
S31500002C4050FE40B100F08CFB40054CBF0320012034
S31500002C500021FFF709FF01224FF47A71864800F040
S31500002C60FCF81BE001280DD10020487000F078FB2D
S31500002C7040054CBF02200020814940F01100FFF7BB
S31500002C80F3FE0BE0022805D1002200218D20FFF77C
S31500002C90FEFE03E040F2811100F005F8BDE80240B7
S31500002CA0002006F08FBD0FF2F010FDF73FBD38B5DE
S31500002CB0044600208DF800006C4D287818B14FF4BA
S31500002CC0C671FFF7F0FF0220287085F880406A463B
S31500002CD0A91C204606F038F868494870694800780B
S31500002CE06870FFF79EFF31BD06F089BC010080B514
S31500002CF008BF012002016449002006F079FD00208A
S31500002D0002BD6149002006F0B2BD704710B5441CF3
S31500002D10204605F01AFA00F00700032807D12046DE
S31500002D2005F042FF205C042801D1012010BD0020DF
S31500002D3010BD38B504464D4D7E220021A81C06F074
S31500002D400EFE0020287006F028F995F8801020461F
S31500002D50BDE8344006F022B970B504460D46164665
S31500002D60FEF751FB60B13EB12046FFF7CFFF18B129
S31500002D70607840F0200002E0607800F0DF006070CC
S31500002D802946204602F0B3F90146FF2924D0374DE3
S31500002D903E4E05F18104204602F0F1FB15F8830F43
S31500002DA0401C2870C0B2318881420BD26878401C22
S31500002DB0687007E0204602F0F7FB02F015F9287864
S31500002DC0401E2870308829788842F3D300F005F831
S31500002DD0BDE8704001F0D1B970BD2D48007805F00E
S31500002DE04FBE10B5214C2078012806D1214900207C
S31500002DF00870FEF794F90320207010BD10B51D4928
S31500002E00002008700024FFF7B5FD18490A78012A4A
S31500002E1002D1032201240A70FFF723FE2CB1FEF72C
S31500002E207EF9BDE81040312083E710BD0F480178D8
S31500002E30481E8041C00F7047FEF78DB9FEF787B96F
S31500002E400A4890F88310002904BF813002F0F6BBCF
S31500002E50002070470F4802F0F8BBFFF7FFBC03489D
S31500002E600078012818BF00207047000004F90020F0
S31500002E7089F900208CF9002006F90020F4EA0020E8
S31500002E80012C0000F0EB0020E92C0000B0EB002044
S31500002E9061FF002085F900206C6F7765722D6D61EA
S31500002EA0632D65667233322E6300000010B5354817
S31500002EB086B0016841F4807101604FF416713248A2
S31500002EC0016002AC31494160314901674FF4F0714C
S31500002ED0816001202F49086006F068FD04F013FEAA
S31500002EE006F049FE2C48D0E90023CDE90023012055
S31500002EF08DF80300684606F0D0FF05F095F8FFF759
S31500002F0057FD26480FC884E80F0008208DF81400E6
S31500002F1002A807F04FFA06B010BD07F059BA07F03D
S31500002F2058BA80B50021002000F01CFABDE8014027
S31500002F3007F050BA07F04FBA032004F099BD00001D
S31500002F4010B507F08AFA044607F08BFAC0B208B942
S31500002F50012C07D1072C11D8DFE804F0041006086D
S31500002F60080A0C0E002010BD092010BD022010BD5D
S31500002F70032010BD0B2010BD062010BD44F08000BC
S31500002F8010BD000000000E408C420E404A5D050058
S31500002F9028E2160010300E402CC60200E4C60200DD
S31500002FA00C3003F0A3BD38B50D46044689B2FFF7D1
S31500002FB018FB010005D1A9B22046BDE8344003F054
S31500002FC043BD32BD70B50C4684B000F10C05237EBE
S31500002FD0627EA17E284607F0D6FA684604F10C0107
S31500002FE00C22FFF745FA6946284604F0B6FA211D79
S31500002FF0284600F066F9060003D1284607F0FAFADB
S315000030000646300005D10FF21C11284604F04FFA8F
S315000030100646300003D1284607F03CFA06462168EA
S31500003020284600F006F8304604B070BD0C3007F0B4
S315000030302ABA70B58AB004460D4668460FF2C0013A
S315000030402422FFF725FA05B96D46002601E00100A6
S3150000305005D135F81610F2B2204607F04EFA0100F7
S3150000306006D105EB4600F2B2C188204607F04EFABB
S31500003070010007D105EBC60000F10C01F2B22046B3
S3150000308007F05DFA761C032EE1DB0AB070BD032A59
S31500003090BCBF0C3007F031BA01207047032ABCBF11
S315000030A00C3007F033BA01207047032ABCBF0C303E
S315000030B007F045BA0120704738B500F015F828B179
S315000030C021462846BDE8344007F050BA022032BDFA
S315000030D038B500F009F828B121462846BDE8344045
S315000030E007F03ABA022032BD00F10C050C4628461C
S315000030F007F0C6B90C3007F055BA084603F0D2B946
S31500003100FFFFFFFFFFFFFFFFFFFFFFFF00000000C5
S3150000311000000000000000000000000000000000A9
S3150000312000000000000002080000000003480188BB
S31500003130034808237F2200F047B800BFECCE020008
S31500003140F0F8002038B50C4611461A467F2908BF0C
S31500003150002141F2F0139C4218D154490B6849688A
S315000031600024D5B27DB30355641C1B0A521EE4B27B
S31500003170042CF6D3E4B2082C25D2D3B2002B1FBF01
S315000031800155090A521E641CF4D131BD04F4704580
S31500003190C4F30B03B5F5805F11FB02F108BF43F0E2
S315000031A07E630BD0B5F5005F1CBF04F47044B4F524
S315000031B0405F08D143F07C6343F40113C918BDE8AE
S315000031C0384006F089BB31BD70B51E000446154671
S315000031D01BD04BF23460814211D1092E28BF08263C
S315000031E033467F2241F202012046FFF7ABFF32460B
S315000031F02F49204606F0BAFB38B941F2F0113346A2
S315000032002A462046BDE870409CE770BD2DE9F8438C
S3150000321007460024F807884615466FF00F06DFF8C4
S31500003220949002D5652100F049F8E80702D5662199
S3150000323000F044F807F47041B1F5805FC7F30B0066
S315000032400CD140F07E64B4F17E6F264604D3281973
S31500003250401E1949884210D36B210CE0B1F5005F7E
S3150000326018BFB1F5405F05D140F07C6444F4011409
S31500003270264602E0722100F021F8002706E0F05D04
S31500003280FF2802D07C2100F019F87F1CAF42F6D34C
S315000032906A084146204607F00DFA28B14846BDE8BF
S315000032A0F4438521FDF742BABDE8F183F081E00FD2
S315000032B024C6020018C602000008E00F4846FDF7C3
S315000032C035BA70B50D4682B00446287858B9002143
S315000032D0204603F0CAFD0021204603F01DFE002112
S315000032E0204603F021FE2878002814BF0420287900
S315000032F000F027F814BF287968798DF80100204678
S31500003300FFF779FA06001AD12878002814BF0220A0
S31500003310A87900F016F814BFA879E8798DF80100AD
S315000033202046FFF746FA060009D1287838B16988A1
S31500003330204603F0A6FD0121204603F096FD304607
S3150000334076BD8DF8000069462878002870470C3055
S3150000335003F0E2BD0C3003F0F1BD084604F02DB9D0
S315000033600020704701207047002070472DE9F84F74
S31500003370DFF8F446DFF8F4562068DFF8F4B6DFF835
S31500003380F496DFF8F4A6E861286200264FF6FF7887
S3150000339028E02068F6B2482111FB06F147184822BA
S315000033A00021384606F0DBFA99F800003870A7F8D5
S315000033B00280002038737873761C0B20B8731420B3
S315000033C0F8734FF6FE703882A7F8128007F0B0F94E
S315000033D0387607F0ADF9787607F0AAF9B8769BF853
S315000033E00000F876F0B29AF800108842D1D3281D72
S315000033F0BDE8F84F0222FF2106F0B1BA2DE9F041EF
S31500003400DFF878560FF29468044695F9000010F13B
S31500003410010F03DA5C214046FDF788F9DFF858769C
S3150000342039788C42264605D3FE2E03D05E214046CF
S31500003430FDF77CF92878DFF83416401C287040B276
S315000034400844047438788442DFF81C06006828BFF4
S315000034500E78482212FB06F21044C861BDE8F081DE
S3150000346010B5DFF8184694F90000002802D56F2140
S3150000347000F0A6F82078DFF8F415401E207040B260
S31500003480DFF8F4450A78247800284EBF104608185D
S31500003490007CA04238BF0246DFF8CC05006848230E
S315000034A05A431044C86110BD10B50020DFF8BC15A2
S315000034B000E0401C00F07EF808D2DFF8AC35C0B260
S315000034C01B68CA6900F070F8F3D110BD8A2167E065
S315000034D0DFF8A80590F9000010F1010F01D10120D5
S315000034E0704700207047FE2088E7DFF880050078E7
S315000034F0704738B50446FFF7EBFFDFF8705550B953
S31500003500DFF8780590F900002844007CFE2802D0F8
S31500003510A62100F055F8DFF8601509788C4201D332
S31500003520B12032BDDFF840052C704821006811FB40
S3150000353004F10844E861002032BD38B5DFF83C05E7
S31500003540DFF8285590F900402819007CFE2807D09E
S31500003550FFF7BEFF20B9C32100F032F8FF2032BDCD
S31500003560611E00E0491E49B2080004D46818007CB8
S31500003570FE28F7D032BD287832BD10B50020DFF81E
S31500003580EC1400E0401C00F015F808D2DFF8D8343F
S31500003590C0B21B680A6A00F007F8F3D110BDE22139
S315000035A000F00EF8FF2010BD482414FB00F423445D
S315000035B09A427047DFF8C0341B78C2B29A4270470D
S315000035C00FF2D840FDF7B2B810B5FDF7E2FADFF812
S315000035D09C44216A897B884203D00846FDF788FA15
S315000035E050B9FDF7DAFA0146206A90F90F008142D8
S315000035F004D0FDF7E1FA08B1012010BD206A008A67
S31500003600FDF72CFF206A408AFDF748FF206A007B01
S31500003610012818BF0020FDF70CFF002010BDDFF8C1
S31500003620581410B509788842044603D34FF48371C1
S31500003630FFF7C6FFDFF84804007808B9702010BD10
S31500003640DFF8240400F06BF8DFF820140862BDE808
S315000036501040B9E7DFF828140870704710B5DFF896
S3150000366024440020207006F00CF820B92046BDE85E
S31500003670104005F00BB900F058F8DFF8FC13097894
S31500003680884206D3FFF710FF044600F010F818B181
S315000036902046BDE81040C2E710BDDFF8D003006A3F
S315000036A0008A7047DFF8C403006A408A7047DFF873
S315000036B0B8130968482250430844407B02281CBFBF
S315000036C01128432801D10120704700207047DFF8F8
S315000036D098130968482250430844007B01281CBF00
S315000036E00228032801D1012070470020704710B539
S315000036F0002400E0641C00F02CF80ED2FFF7D7FF80
S315000037000028F7D0D848E4B200F009F8007B012879
S3150000371018BF0228EED1204610BDFF2010BD00685C
S31500003720482111FB04F10844704710B5002400E05D
S31500003730641C00F00EF80AD2FFF7C9FF0028F7D084
S31500003740E0B2FFF7B4FF0028F2D0E0B210BDFF20D0
S3150000375010BDC9490978E0B28842704770B50024A7
S315000037600025C54E08E0FFF749FE02F021FC00B136
S315000037700124FFF775FE6D1C3178E8B28842F2D35A
S31500003780204670BD80B5FFF7D0FFFF2801D001208D
S3150000379002BD002002BD38B5BB4C0546206803219A
S315000037A0A94088432060FFF77FFE2168A8400843B0
S315000037B0206031BDB4490968C14001F0030070477B
S315000037C038B504460D46FE20FFF718FE294620466A
S315000037D007F037F9BDE8314042E610B50446FE2051
S315000037E0FFF70CFE204607F051FABDE8104037E619
S315000037F082B08DF80010DDE9002311461A4602B0AA
S3150000380007F0A6BA32B586B004468DF8042002F059
S31500003810EBFA0546204602F0F5FA80F001010D426A
S315000038200DD0BDF8180002F0E4FB8DF80000FF286B
S3150000383004BF00208DF80000CDF808D01AE0294317
S3150000384008BF06A815D0054214D0BDF8180002F02E
S31500003850D0FB8DF80000FF2804BF00208DF8000083
S315000038609DF800008DF80C00BDF81800ADF80E00AC
S3150000387003A80290FE20FFF7C1FDDDE901010A461B
S315000038800146204607F064FAFFF7EAFD07B030BDAF
S31500003890F8B5794E754D04463078687000270DE00E
S315000038A0FFF7ACFDE8694169FFB244F8371004EB55
S315000038B0C701C07E08717F1CFFF7D2FD3178F8B2D0
S315000038C08842EDD3F1BDF8B504460025674E0DE0FC
S315000038D02846FFF793FDF06954F8371041616D1CD7
S315000038E004EBC7010979C176FFF7BAFD6249707822
S315000038F009788142EDB238BF08462F468742E7DB9A
S31500003900F1BD38B5FFF7D0FD5B4A584B1278002160
S3150000391000E0491CCCB294420ED29C78C9B20C1974
S3150000392094FBF2F502FB1544E4B21C44257985426A
S3150000393002D0FF2DEDD1207131BD70B54B4C4E4EEE
S31500003940A0783178204405798D4203D340F22921AD
S31500003950FFF736FEA0782218FF211171401C31783E
S3150000396090FBF1F201FB1200A070284670BD3F48A3
S31500003970817808440079FF2801D001207047002093
S31500003980704710B5FFF7FEFE70B1384CE069007B5A
S31500003990042809D11420FFF7FEFE04F10800BDE853
S315000039A01040642104F07CBFBDE8104005F028BC3F
S315000039B080B52E49002008721420FFF7FBFEFFF7A2
S315000039C01DFD05F01DFCBDE8014049E52DE9F84364
S315000039D08146FFF769FDB9F1040F0FF2C0082B4CC1
S315000039E0224F2B4D2B4E35D8DFE809F0030A0A1B70
S315000039F01B00F86900F1280100200860886030E0AB
S31500003A00FFF7C0FE20B14FF418714046FCF78EFE5A
S31500003A10F869316840F8281F2168816029780171AA
S31500003A201FE02A783568F9690E2313FB02F6354440
S31500003A3013FB00F32B4441F8283F236803EB820273
S31500003A40154B1B7802EB830202EB80008860012095
S31500003A50087106E04046BDE8F44340F27121FCF7E8
S31500003A6065BEBDE8F183000090E80020C0F80020A4
S31500003A70CCEB00204AFF0020C0EB0020EFEB00203B
S31500003A80EEEB0020E4F80020ECF8002098E8002097
S31500003A90C1EB002094E80020BBEB0020656D626559
S31500003AA0722D6D756C74692D6E6574776F726B2EE1
S31500003AB063000000F8B50F4D2E68040001D1FF2009
S31500003AC0F2BDFEF757FF0C4F29683A7821F81240ED
S31500003AD036F8021BA142FBD1FEF7C3FF29683A78EC
S31500003AE0B01E401A4010C1B2914208BFFF20C0B2BA
S31500003AF0F2BD00BF68E80020BBEB0020DFF8A01590
S31500003B0000200870FF21DFF89C05017001717047E5
S31500003B10F8B50446FEF734FF0546DFF88C05DFF8F6
S31500003B2084750688204605F05BF8B0F5006F16D15F
S31500003B30204605F079F8FFF7BDFFFF280DD000F00D
S31500003B4038FA2146381D01F01AFDDFF854050178D0
S31500003B5081B10089A9190E1A10E09320F2BDFF2148
S31500003B60384601F037FD052802DA21463846EAE7ED
S31500003B703920F2BD0581314604F092FEB2B203212E
S31500003B80204604F0A4FF03220521204604F0AAFFE4
S31500003B90204601F01BFA0020F2BDF8B50446DFF816
S31500003BA004050078FF2813D0DFF8005529680E5C5D
S31500003BB03746384605F029F801460822204605F022
S31500003BC0D5FE08B90120F2BD2868C75DB742F0D11D
S31500003BD00020F2BD2DE9F843044604F0AAFF000BCD
S31500003BE000F00106204605F034F80546204605F0AB
S31500003BF01FF8B0F5404F14D1002E62D029460020A0
S31500003C0000F092F90446FF2C5BD0002105F004FA7F
S31500003C10002856D000F0AEF940F08002052120467B
S31500003C2046E0284604F091FA0546FFF743FF0446AE
S31500003C30FF2C08BF002045D001200021224607F0B6
S31500003C405BF9DFF86C24D2E9008948EA000349EA07
S31500003C500107C2E90037A6B3DFF85864336833F8C2
S31500003C6014704FF4E6631F422BD0BB0623D5280AF7
S31500003C708DF801008DF800506946012000F054F9D6
S31500003C800546FF2D08D1306830F814104FF6DF7264
S31500003C90114020F8141014E0002105F0BDF980B1A0
S31500003CA00521284604F025FF40F08002052128461C
S31500003CB004F018FF05E0D2E9024520432943C2E992
S31500003CC002010120BDE8F28338B5044604F088FFFE
S31500003CD0B0F5006F0CBF01250025204604F095FFC6
S31500003CE004462146284600F01FF9FF2810D18DB161
S31500003CF0204604F02AFAFFF7DDFEFF280AD0DFF897
S31500003D00B413096831F810004FF4E261084201D09B
S31500003D10012032BD002032BD2DE9F04107460C4698
S31500003D2004F05EFFDFF87C53B0F5006F0CBF281D72
S31500003D3028460078FF2846D0DFF870130968085C2B
S31500003D400646B7423CD1FEF715FE804605213046B1
S31500003D5004F0CFFE00F07F00471EFAB20521304680
S31500003D6004F0C0FE200018BF312C01D0FFB207BB03
S31500003D70FEF700FE0746304604F032FFB0F5006F4E
S31500003D80314605D1281D01F025FC00F0F7F802E0C8
S31500003D90284601F01FFC3846FEF763FE4046FEF754
S31500003DA060FE2146304608F061F8304601F01CF905
S31500003DB004E000F0E3F84046FEF753FE012003E07E
S31500003DC08E5D8642BDD10020BDE8F08110B5FEF7BC
S31500003DD0D7FDB34C21892081411A88B200F0F2F850
S31500003DE04FF6FF71884202D10020207010BD0146B7
S31500003DF02046BDE8104004F053BD4FF6FF70E1E0E9
S31500003E002DE9F84F00F08AF808BF904200F0848050
S31500003E100127934600249046FEF7ACFD8246A4484F
S31500003E200025D0E900010BEA010207EA0006AA42D2
S31500003E3008BFAE421DD0FE436FEA0B099C4A3040D4
S31500003E4001EA0901C2E900010125D2E902010BEAF2
S31500003E50010307EA0002434508BF424509D09448DA
S31500003E60934AD0E90201304001EA0901C2E90201A0
S31500003E70A8465046FEF7F5FD002D3FD08D48006858
S31500003E8030F81400810739D58B49096831F8145088
S31500003E90B8F1000F06D000F49870102808BF4FF054
S31500003EA0010A01D04FF0000A84480078C0070AD5FD
S31500003EB083490968002041F8240082480068015DB2
S31500003EC041F0F00101558AF0010018EA000F09D00F
S31500003ED07848006830F8141041F4006120F8141096
S31500003EE005F0ECF8002000902B461A226BA1032067
S31500003EF001F0FBFB5146284608F01EFC4FEA4B003A
S31500003F0040EAD77B7F00641C402C05DA00F006F8F7
S31500003F1008BF90427FF47FAFBDE8F18F644800226E
S31500003F20D0E90001914270472DE9F04188465D498C
S31500003F3000281ABF091D022508250878FF2816D073
S31500003F405A4E31680F5C3C4600F014F800060AD45D
S31500003F50204604F05AFE01462A46404605F006FD74
S31500003F6008B9204604E03068045DBC42ECD1FF206D
S31500003F70BDE8F0810521204604F0BBBD70B50021E7
S31500003F80202004F0A5F947480079FF2810D0474CB7
S31500003F9021680D5C2E46304604F046FEFFF78AFD8A
S31500003FA0FF2801D000F005F82068865DAE42F2D108
S31500003FB070BD4049096831F8102042F0200221F80E
S31500003FC0102070472DE9F84F80460FF2FC00354E61
S31500003FD00068364F00904FF6FF7A344600E0341DF5
S31500003FE0FEF7C8FC814606E0204601F0DDFA2946C8
S31500003FF0684601F0C4FA204601F020FB40B9386853
S315000040002178455C0321284604F058FD8045EBD213
S31500004010301D844208BFFFF7B1FF4846FEF721FD79
S315000040202078FF2819D0396811F800904D460321F1
S31500004030284604F043FDA0EB080B1FFA8BF2032180
S31500004040284604F044FD3868455D51461FFA8BFA50
S315000040508A4588BF8A464D45E9D1301D8442BED186
S31500004060684601F0EBFAA8B9684601F09DFA0446E5
S3150000407004F069FDFFF7C2F9FFF77CFF000603D4E1
S315000040804221204607F0F2FE204600F0ADFFFFF782
S31500004090E7F9E5E71FFA8AF0BDE8F28F42574200DA
S315000040A0F8F8002048EB002094EB002064E800209C
S315000040B0C0ED00206CE8002068E800209CFA002093
S315000040C070E80020B8E80020FF00000000207047DC
S315000040D0704770470198704770477047702008F026
S315000040E078BB70B5044643381E4D08D0401E0128E3
S315000040F009D9801E01280ED9C01F32D02AE0BDE89A
S31500004100704009F099BE09F0C8FE20B109F094FE8E
S315000041100028FBD170BD144E307810BB01203070E2
S31500004120002009F0F5FE442C11D00CD3462C05D006
S315000041300DD3472C07D140F6010001E040F60200FE
S31500004140FDF786FF03E0EE212846FCF7EFFA002094
S31500004150307070BD2846BDE870404FF48071FCF7A2
S31500004160E5BA70BDF4C602004DFF0020704700207E
S31500004170704770477047002070477047FCF777BC60
S3150000418009F018BF890001EB401000F1844002607D
S315000041907047890001EB401000F1844000687047C9
S315000041A010B5DFF8884712212046FFF7F2FF0028F6
S315000041B0F9D12068000C00F0030010BD0122DFF8E1
S315000041C0401610B5884232BF0022DFF83816884202
S315000041D001D2144600E002241021DFF82C06FFF776
S315000041E0D1FFDFF86007016821F0807141EA0461C0
S315000041F0016010BD70B5DFF81426DFF84C47136870
S31500004200002304EBC305CEB22D79B54203D154F891
S315000042103350854202D25B1C052BF2D3052B0EBF11
S31500004220032004EBC3004079116821F0407141EA94
S315000042300060106070BD38B500F013F841F67130BB
S31500004240206009F0FCFE002105E038B500F009F811
S3150000425041F671322260FFF7CDFF0DB100202060DC
S3150000426031BDDFF8E846256805B101257047C01C59
S315000042700F2801D2000770474FF0704070470000CA
S3150000428038B50446002500F05FF9DFF8A426DFF80C
S315000042902416944208D0DFF89C26944206D0DFF814
S315000042A09826944204D006E0086802E0486800E0D8
S315000042B0886800F00700401E04281CD8DFE800F0DC
S315000042C009030D06090009F0F1FE04E009F0EBFE12
S315000042D001E009F0E5FE05460DE009F0A3FEDFF872
S315000042E064160968090E01F001010122491C02FA4F
S315000042F001F1B0FBF1F5284632BDDFF854164A68E5
S31500004300D20702D40A680242FCD1704780B500F099
S31500004310D5F8401C02BD000070B5020A0C4602F03A
S315000043200F020021521E092ADFF8285814D8DFE8A8
S3150000433002F005141313071619131C20DFF8C854CE
S31500004340C0F3043611B10846FFF7D7FF22463146BF
S315000043502846BDE8704015E770BD1035F0E73035EA
S315000043600121EDE738351021EAE740354FF4803179
S31500004370E6E7DFF84C58E3E770B5DFF8D815DFF865
S31500004380B0250E68DFF8AC15DFF8B845012510F446
S31500004390781075D0B0F5003F30D0B0F5802F27D01B
S315000043A0B0F5002F6CD0B0F5202F2DD0B0F5402FF2
S315000043B05ED0B0F5602F3FD0B0F5901F53D0B0F56A
S315000043C0A01F2AD0B0F5B01F39D0B0F5D01F22D02B
S315000043D0B0F5E01F31D0B0F5001F44D0B0F5281F6E
S315000043E022D0B0F5301F31D0B0F5381F4BD061E088
S315000043F009F027FEE168C1F308210AE009F021FE71
S31500004400A168C1F3082104E009F01BFE6169C1F34C
S315000044100421491C24E0104627E01046FFF730FF30
S31500004420216A01F00F0119E01046FFF729FF064641
S31500004430206AC0F30110C6403DE0084615E0084674
S31500004440FFF71EFFA16AC1F3011107E00846FFF757
S3150000445017FFA16A090A01F00301091D05FA01F116
S31500004460B0FBF1F627E0DFF8D004FFF709FF1FE005
S31500004470DFF8500700F068F807281CD0092819D182
S3150000448009F0DFFD14E0DFF8400700F05DF80428CE
S315000044900CD007280FD008280CD109F0D2FD2168CE
S315000044A0C1F30421491C01FB00F604E009F0E4FD18
S315000044B0064600E00026304670BD0000030903F002
S315000044C00F0301215B1E072BDFF878243AD8DFE8BB
S315000044D003F004060A0E10142339106800E0506930
S315000044E0C0F3042070471068C0F300607047D068BE
S315000044F000E09068C0F308207047DFF8D036984295
S3150000450004D0DFF8CC36984204D01BE0106A00F0E5
S315000045100F0013E0106A09E0DFF8B836984204D0BD
S31500004520DFF8B436984204D00CE0906AC0F301106C
S3150000453004E0906A000A00F00300001D01FA00F092
S31500004540401E704700207047014601F00F01012010
S31500004550491E0729DFF888264ED8DFE801F0040F48
S31500004560134D21334D3B506A00F0070002283FD01F
S3150000457002D3042804D01FD305207047116910E028
S3150000458002207047516901F00701491E042934D8F9
S31500004590DFE801F0120304141600F1E70620704765
S315000045A0916901F00701012906D00229E8D0042902
S315000045B004D0052904D07047032070470A207047AD
S315000045C00B207047116811F001010FD0012914D199
S315000045D009207047DFF80C16096801F03001102930
S315000045E004D0202904D0302904D070470720704712
S315000045F00420704708207047002070472DE9F843D3
S31500004600804600260324B8F1110F0F46A14612D1A9
S31500004610042F02D109F030FD08E0052F0BD1DFF899
S31500004620C805DFF8C8150068884204D306001CBF19
S31500004630002105F0E8FB08F00F00401E0728DFF810
S31500004640A0550ED8DFE800F0043D439440789482EC
S31500004650022F6B4806D0032F29D0042F2AD0052F0E
S315000046602DD085E004244FF000090122012148469F
S3150000467000F086F9FFF7DFFD36B11221DFF8AC0254
S31500004680FFF787FD0028F8D16C6000F083F8FFF78C
S3150000469095FD09F0C7FC0446FFF782FD014620465A
S315000046A0FFF7D3FD002E63D1BDE8F443FDE04FF0E4
S315000046B00109DAE70224A146FFF780FDD5E70124C8
S315000046C0FAE705F1100404E005F1180401E005F12C
S315000046D01404012F0AD0022F0BD0032F10D0062F5F
S315000046E015D00A2F1FD00B2F1FD041E000202060CD
S315000046F03EE001220121002000F042F90220F6E707
S3150000470001220121012000F03BF90120EFE709F029
S3150000471089FCFFF753FD01220221DFF83804FFF779
S3150000472031FD0320E3E70420E1E701220121062011
S3150000473000F026F90520DAE7072F02D0092F02D06C
S3150000474016E0002000E00120286011E0012F06D0CD
S31500004750042F16D0072F0DD0082F19D008E00020FF
S31500004760DFF880140A6822F0300242EA001008607E
S31500004770BDE8F18301220121042000F001F90120A6
S31500004780EEE701220121022000F0FAF80220E7E715
S315000047900320E5E7DFF84404EEE56F4ADFF8581436
S315000047A090421FBF6D4A90426D4A904215D06D4AA5
S315000047B0904214D06C4A904213D06C4A904212D068
S315000047C06B4A904211D06B4A904210D06A4A90428E
S315000047D00FD06A4A90420ED00FE008687047C8684A
S315000047E0704788697047C8697047086A7047886A61
S315000047F07047C86A7047086B704700207047000012
S315000048000148E8010190D00300400E4004000E402C
S3150000481070B50446FFF7C1FF0646DFF8CC0305680E
S31500004820046000F08CF8052808BFFFF704FD182186
S315000048304748FFF7AEFC0028F9D147498C4208D01B
S3150000484046498C4207D046498C4208BF26F0C066CE
S3150000485004E0022000E0012060F35A6600F06FF8E1
S31500004860052804BF2046FFF7A9FCA54203D2012173
S31500004870204605F0C8FADFF87803066000F05FF816
S31500004880052808D109F0CEFB0646FFF789FC01464C
S315000048903046FFF7DAFCFFF77DFFFFF78FFCA542F6
S315000048A002D3BDE8704000E070BD0121002005F094
S315000048B0AABA000080400E4070B500F03FF8012211
S315000048C00021022000F05CF8217CDFF83053002044
S315000048D00229296808BF0120490840EA41002860EA
S315000048E0082122782846FFF74DFCA088617A41EA24
S315000048F0C020A860EE68207AFFF7B9FCE28806F0CF
S315000049007F6141EAC221A27A1143227A41EAC211A9
S315000049100843E860A17B607B090141EA0030E17B46
S315000049200843217B40EA0140286170BD04300E40F7
S3150000493002001A0003001C00050020000446112096
S3150000494002E6000000410E40F4C4020040000E40A2
S3150000495040410E4050E8002040420F0080841E0077
S3150000496000093D00C0CF6A00405DC6000024F40087
S31500004970C0EA210180BA8C010048E80180D54302D3
S315000049802DE9F84F06288246904634D8DFE800F035
S315000049904F4A4004457A560001260220012700248A
S315000049A00029DFF81892954D67D0BAF1020F02BFC1
S315000049B02868C0F3011000284FF0000B0CD1904876
S315000049C000682868C0074FF0010B05D5286820F05D
S315000049D0300040F010002860EE6300F055F8002823
S315000049E0FBD0B8F1000F4DD0394600F04EF8002844
S315000049F0FAD0BAF1020F45D1BBF1000F42D02868B8
S31500004A00C00722D501222021022000F0C6F820E0AE
S31500004A100426082003270224C2E7102620200527A3
S31500004A200424BDE74026802007270624B8E74FF474
S31500004A3080764FF4007009270824B1E74FF48046CA
S31500004A404FF400400F270E24AAE70021022000F0B1
S31500004A5083F8022000F01CF80446012200210220FF
S31500004A60FFF78EFF2146022000F02CF8EE63394650
S31500004A7000F00BF80028FAD004E0E86300F004F830
S31500004A800028FBD1BDE8F18F21464846FFF781BBE0
S31500004A90401E0328564912D8DFE800F0020C06082B
S31500004AA00869C0F308007047086800E0886800F0ED
S31500004AB07F00704753480068C0F30A007047002023
S31500004AC07047000070B5401E0D46032805F07F01B3
S31500004AD0474C484E3DD8DFE800F0022A101DC5F3CA
S31500004AE008051A213046FFF754FB0028F9D1206942
S31500004AF0400A45EA4020206170BD0D461821304627
S31500004B00FFF747FB0028F9D12068C00945EAC01025
S31500004B10206070BD0D4619213046FFF73AFB00288C
S31500004B20F9D1A068C00945EAC010A06070BD23484D
S31500004B300068606920F0300040F010006061C5F345
S31500004B40C310FFF794FB216A2F4A114029430843FB
S31500004B50206270BDB0400E4028480268C2F30112C0
S31500004B60002A18BF002907D0202902D0302903D0F7
S31500004B7005E04FF4000103E04FF4400100E0234953
S31500004B80C26E0A408A42FBD1490204D5C06F800A30
S31500004B9000F0010070470120704710B502280AD1C5
S31500004BA00B0004D01A4B4FF480645C64196012B198
S31500004BB0BDE81040D0E7012010BD000090400E4037
S31500004BC050410E4006000C0098002E0060061400AE
S31500004BD060162A007017160070272C0000250800A2
S31500004BE070400E405C410E4044E90020012D310129
S31500004BF010400E4040410E403082E00F24400E40EF
S31500004C003C300E409C400E4000F8FF0FFFF3E17F62
S31500004C1064400E4010B51B4B1C6890FAA0F2B2FA25
S31500004C2082F224EA000091400843186010BD16493C
S31500004C3001200860704770B51448154B01680020C4
S31500004C40002203EBC20453F832506468114E3668F2
S31500004C5076070DD4B5F5007F18BFB5F5806F05D082
S31500004C60B5F5006F18BFB5F5803F01D144F48074E7
S31500004C70294202D0214208BF2843521C092AE0D308
S31500004C8070BD000000500E4008500E4004500E400B
S31500004C901CC50200E841E00F0168C90707D5816815
S31500004CA0890704D48168C907FCD401214160704793
S31500004CB080B501217E48FFF72FFB7E490120086061
S31500004CC0002009F029FA012304220221052009F017
S31500004CD070FA012000F0CCFC00F00EF800F0F9FCB0
S31500004CE009F05AFB012340227349744809F022FB5C
S31500004CF073490860C00F02BD10B5012201210420CE
S31500004D00FFF73EFE6F48704C016841F001010160FB
S31500004D100022C16841F08071C16000236B496C4874
S31500004D2008606C4802606C4A1360022323601523F6
S31500004D306A4C236000230364694B0B656949116063
S31500004D404FF48071684A1160016841F48071016016
S31500004D5010BD80B560480168C9070ED563490A6869
S31500004D6022F440620A60016849084900016001684E
S31500004D700902FCD46420FDF7B8FD002200210420BE
S31500004D80FFF7FEFD504900200860574908604D496D
S31500004D90086001BD4B48006800B10120C0B27047F1
S31500004DA0D12202704170090A817051490A78C27095
S31500004DB0501C0870042070472DE9F84FDFF834A125
S31500004DC0DFF834810446DAF80000005D461DFDF781
S31500004DD0D7FDF6B2002500904FF6FF7B18E0A91E1E
S31500004DE0C9B2204600F0A7FA0746594609F0E0FA8C
S31500004DF083464D4638480068C00709D535480068DF
S31500004E00C00505D5D8F800000028FBD088F800704A
S31500004E10FFF7C0FFEDB228B3B54223DAFDF7B0FDC8
S31500004E200099401A80B2B0F5FA7F1BDC15B95B27F2
S31500004E300125DFE7012D05F1010903D1DAF80000AC
S31500004E40075DD6E7F01E854208BF5F46D1D0B01E8B
S31500004E50854208BF4FEA1B27CBD0701E8542BED1C4
S31500004E605D27C6E7B5420CBF00200120BDE8F28FE2
S31500004E7020490968095C0429A8BFFFF79DBF0120E6
S31500004E80704710B50E48006890B04022694609F098
S31500004E903CFA58B1C1B2684600F029F904462146E9
S31500004EA01220FDF707F8204600F09EF810B010BD5E
S31500004EB0003508001088144268F00020B0C40200D3
S31500004EC04CE80020F0ED00E0F00004E0B00F00E058
S31500004ED055CEACC5000E00E0800E00E0100004E0E8
S31500004EE0FF0300400D000100040304E0001000E091
S31500004EF03FFF002058E80020200000E0DFF81C17E4
S31500004F00096801EB40107047DFF814271268115446
S31500004F1070472DE9F041040035D0FDF72BFDDFF891
S31500004F200417DFF804370E78FF228046FE2EDFF8DE
S31500004F30FC061BD100260E70DFF8F4C6DFF8F46617
S31500004F4037781F70002708E007F1010E05F807E023
S31500004F50DCF80050EA555FFA8EF796F800E005682F
S31500004F607745F1DB05EB0E0606F8012C1E78A64206
S31500004F700BD24046FDF775FD052000F0AFFB002182
S31500004F801B20FEF735FCFF201EE0361B1E70DFF8E7
S31500004F90A8360E780F78D3F800E001250EF80750F2
S31500004FA0641E056815F807E081F800E05FFA84FEE4
S31500004FB0BEF1000FEED1EA5500213046FFF7A4FFFF
S31500004FC04046FDF74EFD3046BDE8F08110B504467B
S31500004FD0FDF7D0FCDFF8601609680A5D521C0A5519
S31500004FE0BDE81040FDF73DBD2DE9F041054600F056
S31500004FF031F80446FDF7BEFCDFF82826DFF8283630
S31500005000DFF82866DFF83086FF2D1FD0D8F80010AD
S315000050104F5D7F1E4F557F27D8F800E01EF805101C
S31500005020394213D13168495D00270EF805701F78A3
S315000050307F1C1F70FF29376892F800E007F805E02B
S31500005040157006BF2546FF240D46DDE7BDE8F04195
S31500005050FDF707BD80B5DFF8E0150968095C0906AC
S3150000506003D5FFF74BFF007802BDFF2002BDB0B5A8
S3150000507004460D46FFF7EEFFFF2818BFFFF7B4FF03
S31500005080FF2DDFF8B47504D13868015D01F07F01AA
S3150000509006E02846FFF79AFF3868015D41F0800177
S315000050A001552046FFF72AFF0570B0BD0EB478B54E
S315000050B004460120FFF72DFF0546FFF71FFF0646B2
S315000050C0FF2D08BFFF200FD0E1B22846FFF71CFFD7
S315000050D005A8002104E050F8042B06F8012B491C12
S315000050E0C9B2A142F7D3284672BC5DF810FB70B571
S315000050F004460D4605F11F000004400D82B0C0B203
S31500005100FFF707FF0646FF2E0CD02946FFF7FCFEE9
S315000051103CB1012000902B4600223146204600F08B
S3150000512002F8304676BD73B500F0D0F8405C1546FF
S315000051301E467119884203DA40F2651100F0EBF859
S3150000514030000CD0294601A800F0E9F8024606987E
S315000051509DF8041000903346204600F001F873BD18
S315000051602DE9F843089CDFF8C484054689461646AF
S315000051701F460BE06A5C4254491CB142FADBD8F880
S315000051800000BF1BAD1910F809900026F8B2D0B187
S315000051904846FFF7B3FE801956FA87F12029B9BFB2
S315000051A0FFB23E46C6F12006F6B22100324604D1D1
S315000051B00146284604F090FBE1E7012C08BF29468A
S315000051C0F8D00021D9E7BDE8F1832DE9F04100F0E0
S315000051D07DF882B0055D884616467119C9B2A942A6
S315000051E01F4605DB30000CD0204600F05DF808B104
S315000051F0182007E0009733462A4621464046FFF727
S3150000520092FF0020BDE8F6810123DEE70A4600E0B2
S31500005210521C1378002BFBD1521A0223D2B2D4E7C8
S315000052202DE9F041054601F11F00C70402F11F00F8
S31500005230C0043F0E000E07B9012700B901208742BE
S315000052402CD0DFF8E8431BDAC01BC0B2FFF761FEC3
S315000052508046B8F1FF0F08BF002020D07F1E00F067
S3150000526020F82668305CFF2804D000F01AF8305C7D
S31500005270FFF7BAFE00F015F8216801F800800DE08E
S315000052808A420BD2411EC9B200F00CF805462068CE
S31500005290405DFFF7A9FE2168FF2048550120BDE8C3
S315000052A0F081F9B2284616E038B500F00FF80D4641
S315000052B0015D2A462046FFF7B3FF28B1294620465E
S315000052C0FFF722FE002032BD182032BD0446DFF86B
S315000052D050030068704704E0DFF850231268105C42
S315000052E0491ECAB2002AF7D1704711B50C46DFF83D
S315000052F03013096881B0095C8C4203D340F2012166
S3150000530000F009F8214601A800F009F8044600F06B
S3150000531033F9204416BD0FF24830FBF707BA38B50B
S3150000532004460D46E9042078090EFFF7D4FF2070E5
S3150000533005F01F0032BD80B5FFF7D7FF007802BD2C
S3150000534010B51446FFF7D1FF047010BDB0B5FFF7D6
S31500005350BDFF82B0055DFF2C03D140F22121FFF78E
S31500005360DAFF05F11F000004400DC0B2FFF7D1FDC2
S315000053700746FF2F0AD02946FFF7C6FD00950023F2
S3150000538022460021384600F0C6F83846B6BDF8B5C4
S3150000539004460D4616460120FFF7BBFD0746FFF7FC
S315000053A0ADFDFF2F01D1FF20F2BD33462A46202155
S315000053B0204400F020F82118C9B23846FFF7A4FDB2
S315000053C03846F2BD10B582B004AC009400F001F886
S315000053D016BD10B514461A46029B2044091BBDE8AB
S315000053E01040C9B207E00CB480B502AAFFF7CFFFA0
S315000053F002BC5DF80CFB2DE9F047814614469A463F
S315000054004F46002588460AE03246384604F064FADC
S315000054107019BF19451EEDB26D1C641CEDB24545F1
S315000054203BDA2078010038D0312818BF32280ED157
S315000054305AF8041B07F8011B3228EDD16D1CEDB29A
S31500005440A845A4BF081207F8010BE5DA25E03428C1
S315000054500ED1291D5AF8040B88451EDB3870010A47
S315000054607970ED1C010C000EB970F8703F1DD2E783
S31500005470A0F133025AF8041B072A38BFA0F1300600
S3150000548007D3A0F14102072A34BFA0F137065AF824
S31500005490046BF6B270194045B6DBA7EB0900C0B243
S315000054A0BDE8F0875F49FE200870704770B500F0D0
S315000054B027F800F003F8301880B270BD06022946BE
S315000054C0204638E700B583B002238DF80420120A7F
S315000054D08DF805200122009217E0F8B500F010F8CB
S315000054E0FFF7ECFF8619E91CC9B2FFF7E9FF0702CF
S315000054F0A91CC9B2FFF7E4FFC01906EB0040F2BDD4
S315000055000D46691C0446C9B215E70A46014601A8BC
S31500005510FFF709FE07BD2DE9FC4405B40A9C2000EF
S315000055201F4627D089B26846FFF7F9FE0646B9B28C
S3150000553001A8FFF7F4FE0746BE42A8BF3046A4B254
S31500005540C0F120002546C0B2A842B8BF054600F00B
S3150000555013F882469DF80000FFF7D0FC2A460AEBB6
S315000055600701304404F0B8F9641BA919EF19A0B279
S315000055700028D7D1BDE8FF849DF80400BEE470B5CD
S3150000558004460D46FDF7F6F9294B21781B68FF29DD
S3150000559008BF5D5503D019440E785E550D70257011
S315000055A0BDE87040FDF75DBA38B50446FDF7E2F98F
S315000055B02178FF22FF2908BFFF2507D01C4B1B6857
S315000055C05D5C8D420EBF22705A5D5A54FDF749FA52
S315000055D0284632BDF8B504460D46FDF7CBF92178CD
S315000055E00026FF2915D0124B1B680A46012602E049
S315000055F0761C3A46F6B29F5CAF4208D1DF5D9F54F7
S31500005600A94206D18A4208BFFF22227001E08F42DA
S31500005610EED1FDF726FA3046F2BD000054E8002030
S3150000562058E80020D6EB0020B9EB002060E8002007
S3150000563064E80020B8EB00205CE800200078FF2832
S3150000564001D1012070470020704710B5044602E0E2
S31500005650FFF7CAFC2046FFF7A7FFFF28F8D110BDC9
