S0100000656D3236302D7370692E73333701
S3150800400000720020E962020861620208656202081D
S31508004010A70A0A0100410008041403AC3062CC0068
S315080040200000000000000000000000000000000082
S315080040300000000000000000000000000000000072
S315080040400000000000000000FFFFFFFFFFFFFFFF6A
S31508004050FFFFFFFF007003080000000000000000DB
S31508004060FFFFFFFFFFFFFFFFFF000000000000004B
S315080040700000000000000000000000000000000032
S31508004080F07F002000000000EA7F0020EA7F002081
S3150800409000720020C46D02081C670208A068002090
S311080040A0B40F0020000004080080002077
S3150800410000720020E962020861620208656202081C
S315080041106D6202086962020871620208E8620208B2
S31508004120E8620208E8620208E8620208E862020831
S3150800413075620208E8620208E862020803F10108EB
S31508004140E8620208E86202089F000208E8620208BC
S315080041507B470208E862020877050208E862020857
S31508004160F50E020891D1000801FC0008D15E02088C
S31508004170E86202081306020821060208F9CB0008BD
S315080041802B110208E8620208E8620208E8620208DF
S3150800419010B58C0801EB5474E408A1EBC40103685C
S315080041A0012409E010B54C0801EB9474A408A1EBAE
S315080041B08401036889000F2400F062F8016010BDCD
S315080041C070B500F0E7F8044600F0E4F8054600F09C
S315080041D0E1F800F00106182C05F00F0528BF362077
S315080041E03CD200F0A9F845F20F41084218BF382022
S315080041F034D1E00803D0022809D004D30CE03246B3
S315080042002146554806E032462146544802E03246E1
S3150800421021465348FFF7BCFFA00805281DD8DFE84C
S3150800422000F003070B0F13172A4621464D4812E0E4
S315080042302A4621464C480EE02A4621464B480AE0C3
S315080042402A4621464A4806E02A462146494802E0C7
S315080042502A4621464848FFF7A5FF0020BDE87040DA
S3150800426000F0B1B84B0810B501EB93739B08A1EBAE
S315080042708301890003880F2400F002F8018010BD2D
S315080042808C40A34302FA01F1194370478B0810B515
S3150800429001EB5373DB08A1EBC30103780124FFF795
S315080042A0EFFF017010BD2DE9F84300F073F80446DE
S315080042B000F070F8054600F06DF8064600F06AF85A
S315080042C0074600F067F805F00F0806F0010500F04C
S315080042D00109182C07F00F0628BF362024D200F053
S315080042E02BF845F20F41084218BF38201CD1600848
S315080042F004EB907087082148424600F019F82048D8
S31508004300324600F015F8A00804EB5070C6081D48A0
S315080043102A4621463044FFF7B9FF1B484A4621463C
S315080043203044FFF7B3FF0020BDE8F24300F04BB876
S31508004330214600EB470095E701200021224600F0C0
S315080043405FBA80B500F062F81049114A08400021AA
S31508004350C2E9000101BD00000CB000400CB20040EB
S315080043600CB4004000B0004004B0004000B2004069
S3150800437004B2004000B4004004B4004010720020AB
S31508004380247200200072002008720020F0ABFF00A3
S31508004390387200202A480168491C016011F8010D8D
S315080043A0704738B50446264D08462968224600F067
S315080043B038FA28682044286031BD214A1168084423
S315080043C01060084670471F491F4B0A681B68D31AB6
S315080043D0DC2BB8BF10700868401C0860704710B521
S315080043E00446C0B2FFF7EFFF200A48E010B5FFF712
S315080043F0D1FF00F042F904EB002080B210BD10B5E1
S31508004400044680B2FFF7EBFF200CB7E010B5FFF7C4
S31508004410EDFF00F05EF804EB004010BD38B5094C1E
S31508004420094A2368126805469A1AAA18DD2A03DA81
S315080044300246184600F0F5F920682844206031BD88
S315080044405078002054780020B07A002010B500F08B
S3150800445042F8FFF7CBFF2081FFF79CFFA072FFF71A
S3150800446099FFE072FFF796FF2073FFF7BFFFE08121
S31508004470FFF790FF2074FFF7C9FF606110BDBDE824
S315080044801040A0E710B500F024F82080FFF7AEFF33
S315080044906080FFF77FFF2071FFF77CFF6071FFF7F1
S315080044A0A5FFE080FFF7A2FF2081FFF773FFA07248
S315080044B010BD10B500F00AF8A078E0E710B500F0D6
S315080044C008F82080FFF766FFA07010BD0446208814
S315080044D085E704468AE704462146082061E710B5C1
S315080044E000F0CBF8A070FFF781FF2080211D00F0B7
S315080044F0C2F8FFF74FFF00B10120E070FFF74AFF4F
S315080045002073FFF747FF607310BD10B504462146B8
S3150800451000F07FF82069BDE8104070E710B5044642
S31508004520214600F078F8FFF771FF206110BD10B53D
S31508004530FFF7CFFF208010BD207944E710B5044669
S31508004540FFF7CDFF04F1100000F01BF804F11C0181
S3150800455000F091F8FFF74AFF24F8240FFFF746FF0B
S315080045606080FFF717FF2071FFF714FF6071FFF7F0
S3150800457011FFA071FFF70EFFE07110BDBDE81040F6
S315080045802DE710B50446FFF741FF2060FFF73EFF11
S315080045906060FFF72BFF208110BD10B500F010F802
S315080045A000F08CF8E088FFF71AFF2089FFF717FF5D
S315080045B06089FFF714FFA089FFF711FFA07B5EE76C
S315080045C0044620681BE710B50446FFF71FFF206066
S315080045D0FFF70CFFA080FFF709FFE080FFF706FF53
S315080045E02081FFF703FF6081FFF700FFA081FFF737
S315080045F0D1FEA07310BD10B5FFF7E2FFFFF79CFFD1
S31508004600611D00F006F804F11501BDE81040102000
S3150800461004E7102002E71020C3E610B50446207A06
S31508004620FFF7D1FE207A010006D12068FFF7E7FEE2
S315080046302068FFF7E4FE04E0022802D1214600F0D4
S3150800464002F8607A1BE70820E8E610B500F015F8CE
S315080046500100207206D1FFF7D9FE2060FFF7D6FECB
S31508004660206004E0022802D1214600F004F8FFF792
S3150800467091FE607210BD082093E604468AE638B5B6
S31508004680044602252078FFF79EFE2078401E012862
S3150800469006D96089FFF7A3FEA11CFFF7D4FF09E03E
S315080046A000F00CF800F00CF800F008F800F008F834
S315080046B000F004F80C346D1EE4D131BDA0888EE6F6
S315080046C060888CE610B504462078FFF77CFE6068A3
S315080046D0FFF795FE04F10800FFF79FFFA08AFFF792
S315080046E07EFEA07DFFF76FFEA069FFF788FE04F146
S315080046F01C01FFF78EFF04F12C00FFF7C0FF14F82A
S31508004700440FFFF760FE6078B9E610B5FFF7DEFEE6
S31508004710FFF7D6FFA08831E710B5FFF7DAFE20804D
S31508004720FFF764FE6080FFF761FEA08010BD30B51C
S3150800473002F8010B002312E031F8234002F8014B7E
S3150800474031F82340240A02F8014B01EB83045B1C71
S31508004750658802F8015B6488240A02F8014B8342E3
S31508004760EADB30BD0CB4F8B505460C4606AE08E0E3
S3150800477056F8040B290003D00078FFF71EFE3860B0
S31508004780641C2078010037D056F8047B622827D0AD
S315080047907028EDD0732818BF752804D076280CD059
S315080047A0772814D0ECE7280003D0FFF7F3FD38701C
S315080047B0E6E73878FFF707FEE2E7280003D0FFF7B9
S315080047C015FE3880DCE73888FFF709FED8E72800A9
S315080047D002D0FFF71BFED2E73868FFF710FECFE7D7
S315080047E056F8040B00782900394602D0FFF7D9FDA0
S315080047F0C6E7FFF713FEC3E7F1BC5DF80CFB000044
S31508004800D2B2203A22BF00FA02F100207047524283
S31508004810D041D2F1200291404140D04090404140E1
S315080048207047814233D210441144401E491E10E09D
S3150800483011F8013900F80139121F11F8013900F889
S31508004840013911F8013900F8013911F8013900F870
S31508004850013992B2042AEBDA93B2002B1EBF11F883
S31508004860013900F80139521EF6D1704711F8013B9B
S3150800487000F8013B121F11F8013B00F8013B11F843
S31508004880013B00F8013B11F8013B00F8013B92B2ED
S31508004890042AEBDA93B2002B1EBF11F8013B00F88D
S315080048A0013B521EF6D17047130003D00A4619463B
S315080048B000F020B8704710B500E0521E93B223B13D
S315080048C000F012F8F9D0181B10BD002010BD10B565
S315080048D000E0521E93B22BB100F006F8F9D0181B6F
S315080048E040B210BD002010BD10F8013B11F8014B75
S315080048F0A342704762F30F2262F31F42401810F07A
S31508004900030308D0C91A1FD3DB0748BF00F8012DD7
S3150800491028BF20F8022D130030B414461546103966
S3150800492028BF20E93C00FAD8490728BF20E90C002F
S3150800493048BF40F8042D890028BF20F8022D48BF3B
S3150800494000F8012D30BC7047C91818BF00F8012DB2
S31508004950CB0728BF00F8012D7047000010B50446A4
S3150800496000F0C8FD204601F09EFD204602F0B2FA8E
S315080049702046BDE8104002F067BC01F0DCBD10B56A
S31508004980044600F004FE204601F007FE204602F029
S31508004990C9FA204602F0BDFC2046BDE8104002F0E8
S315080049A055BC10B500E010B5044600F059FE204687
S315080049B001F01AFF204602F0D1FA204602F013FD54
S315080049C02046BDE8104002F050BF10B5044600F07E
S315080049D074FE204601F036FF204602F0EEFA09E0A2
S315080049E010B5044600F08EFE204601F06DFF204605
S315080049F002F000FB204602F00EFD204602F04DFFB5
S31508004A002046BDE8104002F0B8BC80B503F0A8F90E
S31508004A10BDE8014002F0E6B910B5044602F0E4FD2F
S31508004A202046BDE8104002F0BCBC0198704703F070
S31508004A3006BA70472DE9F04701241028A4B00FF6EE
S31508004A402025DFF89479A2A3A3A60FF28829A3A1AB
S31508004A500FF28C280FF28C2A00F04C8118281CBF04
S31508004A601D2820286FD0212800F0128122286AD01C
S31508004A70282800F0B580292800F0D8802A2862D096
S31508004A802B2800F064812D2800F082812E285AD028
S31508004A90302826D0332800F08081342800F0808121
S31508004AA0352800F0FC82362800F09F81372800F070
S31508004AB02A82382800F0C481392800F058823A281A
S31508004AC000F0EA81422800F066824A2800F0C28097
S31508004AD04C2800F0EE825A2800F06F825B2832D00C
S31508004AE05D2800F0E183632800F0B282642800F0B4
S31508004AF0BC826A2803D06F2800F02383712800F04F
S31508004B00F082732818BF772800F0DC837A281AD039
S31508004B10822800F06B82832800F0A183842818BFBE
S31508004B20852810D086281CBF872888280BD0892876
S31508004B3000F09C838A281CBF8B288D2803D09028D8
S31508004B4000F01984952800F09D83962800F09F822E
S31508004B509A281CBFA128A428F5D0A62800F06E83A1
S31508004B60A82800F00A83A92800F02383AF2800F0BC
S31508004B703D83B128E7D0B22800F0B283B92800F007
S31508004B80CB83BA2800F0CD83BC2800F0CD83BD289E
S31508004B9000F0D583C12800F08780C22800F0A780DE
S31508004BA0C32800F0A180CE2800F02D83D42800F079
S31508004BB0CD83D52800F0CF83D62800F0D183D72817
S31508004BC000F0D383D82800F0D383E828BBD0ED289B
S31508004BD000F04183EE28B6D0FE2800F05182E9E3C2
S31508004BE001A9684601F012FC00F023FC31460020BA
S31508004BF0FFF7B8FD00F00DFCBDF80C00FFF7EFFB62
S31508004C009DF80E00FFF7DFFB9DF80F00FFF7DBFBB3
S31508004C109DF81000FFF7D7FBBDF81200FFF7DFFB82
S31508004C209DF81400FFF7CFFB069804E308208DF8DB
S31508004C3009000DF10A0103A801F00EFC8DF8080021
S31508004C4003AB0DF10A00019002AA0DF109000090CC
S31508004C50E2A142E200F0FAFB9DF8010001A901F089
S31508004C600CFC00F0ECFB00F0D4FB9DF80C00FFF701
S31508004C70AAFBBDF80E00FFF7B2FB9DF81000FFF780
S31508004C80A2FB9DF81100FFF79EFB9DF812008EE32C
S31508004C9001AB0DF10102D2A100F0C8FB01999DF804
S31508004CA0010001F0ECFB2CE30DF1060200F09AFB83
S31508004CB09DF8060001AA02A901F057FB8DF8050028
S31508004CC002AB01A800900DF10502C6A105E200BFDE
S31508004CD076000000757570007575000062000000AA
S31508004CE0757000007500000001F041FB5FE301F0FC
S31508004CF040FB5CE30DF1150004900DF11E030DF168
S31508004D001600039006AA0DF1170002900DF11A007D
S31508004D10019007A8009001200FF23C71FFF722FDD1
S31508004D209DF81500BDF81A30BDF81C20BDF81E10F8
S31508004D3002909DF8160001909DF8170000909DF8C6
S31508004D40180003F00DF98DF8140005AADCE2FFF748
S31508004D5021FB0546FFF71EFB8DF80000FFF71AFB3F
S31508004D608DF80100FFF742FBADF80200FFF712FBD2
S31508004D708DF804000DF105010820FFF712FBFFF777
S31508004D8009FB8DF80D006946284602F06BFD0EE317
S31508004D90FFF700FB02F067FD09E303F00AFDB0E246
S31508004DA00DF1120304AA90A100F040FB06A8FFF734
S31508004DB069FB03A8019003AB05A800900DF10F024B
S31508004DC0494600F015FB0DF10D00029006AA05985C
S31508004DD09DF80F30BDF8121001909DF80C00009058
S31508004DE09DF8100001F009FA23E00DF112021946A8
S31508004DF00120FFF7B7FC06A8FFF744FB03A80290BB
S31508004E000DF10F0305A8019004AA03A800F0EEFA15
S31508004E100DF10D00029006A905989DF80F309DF832
S31508004E20102001909DF80C000090BDF8120001F0CA
S31508004E30EDF98DF80E000DF10D030DF10E0233E1BB
S31508004E4007A8FFF71FFB04A8039005AB06A8029066
S31508004E500DF1150204A801900DF113000090012030
S31508004E600FF20461FFF77EFC0DF11100029006981F
S31508004E709DF813309DF814209DF8151001909DF8A3
S31508004E801000009007A801F0CDF98DF812000DF179
S31508004E9011030DF1120207E10AA8FFF7F3FA06A8B3
S31508004EA005900DF11D0309A804900DF11E0206A830
S31508004EB003900DF11B00029007A8019008A8009026
S31508004EC001200FF2AC51FFF74DFC0DF119000490CB
S31508004ED00998BDF820309DF81D209DF81E100390F6
S31508004EE09DF8180002909DF81B0001909DF81C0083
S31508004EF000900AA801F0B1F98DF81A000DF119030E
S31508004F000DF11A02D0E00DF1190000900DF11A0307
S31508004F1007AAB5A100F06CFA09A8FFF7B3FA05A825
S31508004F2002900DF1170308A8019006AA05A800F03B
S31508004F305DFA0DF11500049009AB08989DF8192043
S31508004F40BDF81A1003909DF8140002909DF81700FA
S31508004F5001909DF818000090BDF81C0001F0A2F918
S31508004F608DF816000DF115030DF116029CE00DF1F2
S31508004F70060219460120FFF7F5FB03A8FFF782FA98
S31508004F8000F039FA029B9DF80420BDF8060003A933
S31508004F9001F0BDF971E10DF1050000900DF1060370
S31508004FA002AADBA100F024FA9DF805209DF8061058
S31508004FB0BDF8080003F034FD11E100F02EFAD5A182
S31508004FC000F016FA039A9DF80810BDF80A0003F0D7
S31508004FD0A1FE8DF809000DF1090295E175627600CA
S31508004FE075770000757675007576000008208DF8CF
S31508004FF011008DF810000DF10E00029005A8019021
S315080050000DF11100009008AB0FF26C450DF10F027F
S3150800501000F0EDF903A802900DF11200019006A820
S3150800502000909DF80E30BDF814209DF80F0008A9D1
S3150800503001F0A1F98DF80D0006AB03A802900DF159
S315080050400D020DF112000190294604A8009044E0D3
S3150800505000F0FCF99DF8010001A901F0B1F900F092
S31508005060EEF901A8FFF725FAA7E100F0EFF901A884
S31508005070FFF724FA9DF8010001A901F0B4F940E10F
S3150800508000F0E4F99DF8010004F08CFD39E100F028
S31508005090B2F902999DF8040001F0D4F8EDE06846EB
S315080050A005F0AAFA00F0C5F931460020FFF75AFBC9
S315080050B083E186208DF806000DF1050200F092F9CD
S315080050C09DF8050002A901F0DDF98DF8040002AB90
S315080050D00DF10600009001AABAA10020FFF742FBD5
S315080050E06BE16A4600F07EF938786A289DF8000078
S315080050F001A902D105F08AFA01E005F0EAFD8DF86A
S3150800510001000DF1010200F09DF9BDF80400FFF75A
S3150800511066F99DF80600FFF756F90DF1070110200C
S31508005120FFF77CF90698FFF76AF90798FFF767F91A
S315080051309DF82000FFF747F90DF1210100F06AF903
S315080051403BE109A8FFF7EAF900F067F9494600F0DC
S315080051504FF904A80090039B9DF808209DF80A10B3
S3150800516009A801F08DFE8DF809000DF1090200F07D
S3150800517069F904A8FFF7C9F91FE108208DF80E00A0
S315080051808DF80D0007AB0DF10D00029004AA05A8D5
S3150800519001908DA10DF10E00009000F029F9BDF8DF
S315080051A0100005AA07A905F079FF8DF80C0003AAD7
S315080051B0AAE008208DF8050002AB0DF10500009065
S315080051C00DF1060281A100F013F904A91020FFF7DA
S315080051D0E8F8BDF8060004AA02A905F09FFF8DF8B5
S315080051E0040001AA90E000BF7676750000F00BF97E
S315080051F000F01BF903A91020FFF7D3F803A901A8AB
S3150800520001F058FE7DE000F0FEF802208DF800005F
S3150800521000F00BF903A901A801F054FE00F00FF9FC
S3150800522003A900F0F7F805A91020FFF7F7F8099881
S31508005230FFF7E5F80A98FFF7E2F8BEE000F0DBF8BA
S3150800524002999DF8040002F003F88DF805000DF1A7
S31508005250050200F0F7F802F016F8FFF7B4F8FFF7C2
S3150800526099F800B1012001F0BAFFA0E000F0C3F8F8
S3150800527002999DF8040001F0BBFF8DF805000DF1B9
S31508005280050241E03A780FF2F810002500E06D1C9F
S31508005290EDB2415D9142FAD1FFF77CF80FF2F811B1
S315080052A051F82510884782E0FFF774F80546FFF79E
S315080052B09DF80146387830280CBF484A484A28469F
S315080052C090477AE069461020FFF76BF83878772818
S315080052D0684602D106F01AFA69E005F016FF66E09C
S315080052E001A8FFF72BF90DF101030DF1020238A110
S315080052F000F09CF89DF901209DF8021001A802F023
S3150800530067F88DF800006A4600F09CF855E000BF83
S315080053107675750076757000FFF73CF806F058FF4D
S3150800532045E006F060FF42E004A9684606F027FF5C
S315080053306846FFF732F904A8FFF75DF93DE06846CD
S31508005340FFF741F9684606F022FF36E0FFF722F834
S3150800535006F01FFC31E0FFF71DF806F096FB2CE07F
S31508005360FFF744F806F078FF27E006F0EDF91EE0AF
S3150800537006F007FC1BE008208DF8120006AB04A80F
S3150800538003900DF1110205A8029012A104A801903C
S315080053900DF11200009000F02BF89DF8110000B1F5
S315080053A00120059B9DF8102006A901F013FBFFF7C5
S315080053B00AF802E006F064FF0446204624B0BDE879
S315080053C0F08700007562000076626200766200006F
S315080053D07573000075627000AA7F0020837A000842
S315080053E0051D010851460120FFF7BCB90090294662
S315080053F00120FFF7B7B901A8009002AB01AA414600
S315080054000120FFF7AFB908208DF801000DF101035F
S31508005410704701A90820FFF701B802A8019002AB5E
S3150800542003A800900DF10A02704701AA0120FFF7B0
S3150800543099B98DF801006B460DF1010270478DF898
S3150800544000006A4651460020FFF78CB90DF10102AB
S3150800545051460120FFF786B975767676757575001B
S31508005460757575700000000075757575700000001B
S31508005470757576757575700075627675000000002D
S31508005480181D207A2A84858687888B8A8D959A2E78
S315080054905BB1A4A122E8EE00690A010805B2010879
S315080054A00D3A0108B1550108A97D0008059D0108B6
S315080054B0859D01089B9D0108AF9D0108CB9D0108AC
S315080054C0639E01084D9E0108919E0108E9EC0008BB
S315080054D0F3A30008CBA70108CFA701081BAF000854
S315080054E059EA010867EA0108E1900008FD9E0108EB
S315080054F00B9F010838B504462078002846D160700D
S31508005500012020722070A078032832D0072834D0D2
S31508005510112808D0152833D0302818D0312819D0AA
S3150800552032281AD030E00720DFF8685B207204F1D1
S315080055300900298807F06FFAA878E072E8782073DE
S31508005540287960736879A073A879E07331BD07F08C
S3150800555088FA17E007F048FB14E00420207207F0E9
S3150800556090FA04F10901BDE838400246012007F027
S3150800557056BADFF8240B007804E007F0E7FC01E0F0
S3150800558008F018F9607231BD0020207031BD38B5B9
S3150800559004462078002862D101202070A0780428CB
S315080055A014D0072818D00E281ED0112852D0152836
S315080055B03AD017283DD0182845D0192846D0302883
S315080055C02CD0312818D032281CD046E0207A012861
S315080055D014BF362000203EE0607A10B107F084FC44
S315080055E039E007F093FC36E0607A00B1012007F055
S315080055F011FB00282FD015E0607A00B1012007F0D2
S31508005600DBFA0EE0207A04280CD104F10901012006
S3150800561007F013FA07F039FAE8B103E0607A07F001
S3150800562022FAC0B1362016E094F9090008F09AF873
S315080056300EE0657A04F10A0007F0E6F90146284605
S3150800564008F0CBF904E008F0C3F901E008F0B3F973
S31508005650002000E03720607031BD0020207031BD89
S3150800566010B50446DFF8340A0079217856280CBFAD
S315080056700120002001BBA1706178072910D130B143
S3150800568008F0CAF9012814BF632062200EE0E0780A
S3150800569062280CBF0120002008F0C1F9A07009E0BB
S315080056A0042909D1DFF8F81910B10878E07001E08B
S315080056B0E07808700120207010BD017809BB817060
S315080056C001210170417801290ED00C2909D017292A
S315080056D00DD02D2902D034290CD010E0DFF8C419DA
S315080056E00AE0DFF8C41907E0DFF8C01904E0DFF8BC
S315080056F0C01901E0DFF8BC190978818070470021DC
S315080057000170704738B50446207800285AD1012020
S3150800571020700020A0706078012815D00C280FD0C2
S3150800572017283DD02D2802D0342844D048E0A18837
S3150800573003293DDAC9B2DFF86C0908F0DFFA38E068
S31508005740A088DFF8641939E0DFF86C09008828BBFF
S31508005750A08818B3DFF86459287808F0F9FC09F02E
S3150800576046F880B1A188DFF84409C9B208F0C6FA3C
S31508005770A07009F046F8DFF84809DFF8481900680C
S31508005780401D086001E03820A070012008F075FC73
S3150800579028700020DFF83019088031BD382008E06D
S315080057A0A08809F0EEF818B9A088DFF8041905E012
S315080057B03620A07031BDA088DFF8F818087031BD12
S315080057C00020207031BD80B501208DF800006846A4
S315080057D0FFF722F99DF8000002BD00002DE9F04F01
S315080057E0A7B009F033F809F041F8DFF8D488044681
S315080057F0D8F80000817800270225FF294FF0030911
S315080058002DD1C1780679042511F03F004FF005091E
S3150800581018BF492723D108060AD509F05DFB28B128
S3150800582009F05EFB123C0746E4B218E0482716E08A
S3150800583009F059FB002818BFCB2E0AD0CA2E18BF6C
S31508005840CC2E06D0CD2E18BF002E02D0AA2E18BFF9
S31508005850482709F041FB00281CBFCC2E4A27D8F858
S315080058600000465D90F801A0DFF830580AF0030101
S315080058708DF808102E71017869704844DFF84C18C5
S315080058800860DFF8401808604FEA5A1000F0030075
S31508005890687109F0EEFB380018BF582604D15FEA94
S315080058A00A6002D5582632207AE2A87820B92879E3
S315080058B010B15826302073E209F0B4FE10B9582604
S315080058C042206DE2FFF77FFF002800F06B822879FF
S315080058D0A978DFF8FCB7020093A70FF2502A4FF613
S315080058E0FF7971D0012800F0E981022800F0A9802B
S315080058F0032800F0FB80052834D0062800F04181F3
S31508005900092818BF0A2800F044810B2818BF0C285C
S3150800591000F046810E2800F05A81122800F09F8177
S31508005920132800F0D081172800F0E181262800F01E
S31508005930D081272800F0D681472800F0C78149285A
S3150800594000F035814E2800F06981522851D053283D
S3150800595066D0552800F08D80562800F0A18065286D
S3150800596027D0812800F002818F2800F0ED81912848
S3150800597000F00582942800F0F481AA2800F0AC8093
S31508005980AB2800F0D580AC2800F0E780AD2800F001
S31508005990E780AE2800F0E780CA2800F0B281CB285D
S315080059A000F0B881CC2800F0C381CD2800F0C3816F
S315080059B0F12800F07081F5281AD0F62800F0058144
S315080059C0FC2800F09B81E6E1FEF7E4FC044606208D
S315080059D0FEF7F9FC0220FEF7F6FC46F23020FEF749
S315080059E0FEFCA878002808BF062C01D10120A87063
S315080059F0D8E100F005FAFEF7CDFC8DF801006846FF
S31508005A00FEF7E3FF9DF8000028B937208DF802005D
S31508005A100020ADF8040001AB0DF10202B0A157E079
S31508005A20012918BF382023D100F0EAF901AB0DF19E
S31508005A300102ABA10120FEF795FE6846FEF7D0FFEE
S31508005A4025E03827012912D1611FC9B2052008F0BF
S31508005A5008FF0446FF2C08BF352708D009F0F4FDD7
S31508005A60002814BF00273627204608F071FB384661
S31508005A7096E1042200F0C5F90DF103030DF10102C8
S31508005A8039460120FEF76EFE6846FEF78CFF9DF844
S31508005A90000010B937208DF802009DF802007FE15A
S31508005AA0042200F0AEF9FEF775FC8DF80100684691
S31508005AB0FEF777FF9DF8000028B937208DF8020019
S31508005AC000208DF803000DF103030DF1020239469B
S31508005AD00020FEF747FE65E100F08DF9FEF75AFC57
S31508005AE08DF80E0003A8FEF739FF0BE000F083F9E6
S31508005AF004AB0DF10E02D0A10120FEF733FE03A878
S31508005B00FEF73BFF9DF80C0028B937208DF80D00ED
S31508005B1000208DF8140000F067F90DF10D025146CA
S31508005B200020FEF71FFE3DE17575000075756200E1
S31508005B3000F061F900F058F90DF10E025146012006
S31508005B40FEF710FE03A8FEF71AFF9DF80C000028C2
S31508005B500CBF37209DF80D0022E1FEF731FB21E14D
S31508005B60FEF7A1FB1EE1FEF7ECFB1BE1062CFCDBB6
S31508005B70DFF85005DFF84C1500680019401F08606B
S31508005B8010E1012000F041F9002840F0268107269F
S31508005B9008E109280CBF0120002002F029F901E1DB
S31508005BA00C280CBF0120002000F0DAF9FAE00121E8
S31508005BB068460AF0B2F928B10020FEF704FCBDF8E1
S31508005BC0000091E03620FEF7FEFB00208CE0FEF791
S31508005BD0E1FB8246FEF70AFC8146FEF7DBFB074639
S31508005BE0FEF7D8FB0446B9F5004FB4BF042F702062
S31508005BF011DABAF1020F0FDA0BEBCA0A3A46DAF8EB
S31508005C00000049460AF034FAAAF8049004B90027B5
S31508005C108AF806700020C3E07020C1E0FEF7BAFBE0
S31508005C20814600240020B9F1020FADF802008DF874
S31508005C3000000BDA5BF839006A460DF102010AF03A
S31508005C4027FA0BEBC900807900B10124BDF80200E0
S31508005C50FEF7C5FB9DF80000FEF7B5FB7FE0FEF7F3
S31508005C6099FB040018BF012400200AF043FA0746EE
S31508005C703A46FF2A08BF182024D0002C14BF4846ED
S31508005C800220B6A10AF084FA0020FEF79CFB3846EB
S31508005C9008F05EFA86E04FF00009DFF8384434F879
S31508005CA01900FEF79CFB09F10109B9F1280FF6DB8B
S31508005CB02879652876D107F07EFE73E0FEF76AFB41
S31508005CC00AF0B8FB6CE009F0BCFC6BE009F0B0FC2C
S31508005CD068E0DFF804140820FEF7A0FB62E000BFC6
S31508005CE0757600000AF09CFDFEF779FB5AE06846D7
S31508005CF0FEF71DFC684603F00BFB51E00AF062FF55
S31508005D004EE000F06DF8FEF781FB014603A80AF0A5
S31508005D1065FF45E0FEF73EFB044607A900F061F87B
S31508005D2003AA07A920460AF05BFFFEF74CFB21E011
S31508005D300AF058FF34E068460AF056FFFEF743FBC0
S31508005D400098FEF75CFB2DE00AF07CFF012448452D
S31508005D5005D0FEF71FFBDFF88413002408702046E1
S31508005D601EE000F03DF807A900F03BF807A903A8D4
S31508005D700AF0AEFF03A91020FEF750FB12E00AF066
S31508005D8061FFFEF72CFB0420FEF71DFB1420FEF72F
S31508005D901AFB032004E0FEF74DFE18B958263120F9
S31508005DA0FEF711FBD8F8001068780870D8F80000DC
S31508005DB08178002902BF29780029867004D0FF213E
S31508005DC08170D8F800000671072E0CBF0122002248
S31508005DD09DF80800012100F031F827B0BDE8F08FE2
S31508005DE003A91020FEF7DDBA05A8019005AB0DF151
S31508005DF01500009070478C22002103A8FEF754BDB9
S31508005E00062200216846FEF74FBD38B5AA4D04465E
S31508005E10288810B108F032FD08B9002032BD28885C
S31508005E2008B908F01CFDAE4800780122214600F0AA
S31508005E3005F8012032BD0000757700002DE9F84FFE
S31508005E409F4F0446386888468178934602254FF066
S31508005E500309FF299B49096804BF04254FF0050972
S31508005E600E1A09F039F80028B6B21EBF3868405D28
S31508005E70CC281CBF1236B6B25FEA0B0004D03868CD
S31508005E804078C0F3411A02E009F0EFF882468549E6
S31508005E9009788A4505D340F229410FF250200AF0C5
S31508005EA023FF4FEA4A1040F08000DD2E5FFA80FAA1
S31508005EB005DBDC2008F0DEFC4AF0020A02E0F0B25C
S31508005EC008F0D8FC7549C87818B100204AF0020ACB
S31508005ED0C870844802781AB100224AF0010A027092
S31508005EE0754E308808B14AF0040A38681BEA080F6C
S31508005EF018BF4AF0080A80F801A03868807810B9F7
S31508005F00012008700FE008F0E7FF00281EBF386878
S31508005F10415DCC2904D08021C17008F0DFFF02E082
S31508005F2039680020C87008F0DEFF48B13868415D5E
S31508005F30CB2901BF10F809000028022008F0D2FF7B
S31508005F40012C18BF022C02D1308800B10024644805
S31508005F5004704046BDE8F24F08F06FBC62000000CE
S31508005F602DE9F0419AB00446FEF714FA0546062DC7
S31508005F7013D1002C39D12820FEF725FA5A48018872
S31508005F800223224601A80AF0E3FFBDF80400FEF743
S31508005F9026FA641C142CF1DB79E0082D1DD124BBEC
S31508005FA04020FEF710FA042322460D2168460AF01F
S31508005FB0CFFF9DF80000FEF706FA9DF80100FEF7F0
S31508005FC002FA9DF80200FEF7FEF99DF80300FEF7B7
S31508005FD0FAF9641C102CE6DB59E00B2D01D124B923
S31508005FE052E0200003D0092D01D170204DE0002693
S31508005FF00FF20C1000EBC6073878854230D197F8B7
S315080060000180200004BF4046FEF7DDF97868018864
S315080060104346002202A80AF09BFF200027D0FEF77D
S31508006020B9F997F80180404501D002202DE00020FB
S3150800603000E0401CC1B2414502A905D2C0B2095CC4
S31508006040FF29F6D0462020E04046FEF7AAF97868F0
S315080060500088424602A90BF00CF80020FEF7B3F9B7
S31508006060761CF6B20A2EC3D374B1B1200DE0092D01
S3150800607005D1152200210DF14E00FEF715FC7878A2
S3150800608002A9FEF7CBF902E00020FEF79CF91AB048
S31508006090BDE8F081386B0208F7730020A67F002060
S315080060A013740020FE730020A07F0020F6730020E2
S315080060B0AC7F002000740020C67800202E740020D3
S315080060C0B07A002054780020C47800205078002048
S315080060D078730020C87A0020B47A00202D74002036
S315080060E0CD7F0020C27800206A6B0208636F6D6D51
S315080060F0616E642D68616E646C6572732E63000050
S31508006100011000005E6B020802100000606B0208B6
S3150800611003020000626B020805100000666B0208A5
S3150800612007080000686B0208000200005A6B0208A4
S3150800613004020000646B0208095C00006C6B02082C
S315080061400A1400006E6B02080C0800005C6B02085B
S315080061502DE9F84F80460D46DFF8140C0A990678A3
S3150800616001247E2991469A46A8BF742043DA08007E
S3150800617003D00B9808F06FF801E000F0C5F88346E5
S315080061800C9FBBF1FF0F03D100201824387031E0B3
S31508006190342E06D0362E0ED0382E13D0962E18D082
S315080061A01AE05B464A462946404602F03DF8044650
S315080061B002F065FD10E05B4642464946284602F075
S315080061C093F808E05B46EAB24146484602F007F90A
S315080061D001E00BF003FC0446962E1CBF99F80A0052
S315080061E0387024B9DFF88C0B006800F80BA0584605
S315080061F007F0AEFF2046BDE8F28F10B584B0089CC4
S315080062000294079C0194069C009407E010B584B09C
S315080062100446104600F00FF80A462146FFF798FF95
S3150800622004B010BD10B5044684B00846114600F007
S3150800623002F82246F2E7089A0292079A0192069A0B
S3150800624000927047E0B50022019100900292002367
S3150800625000210020FFF77CFF0EBD2DE9F04683B034
S315080062600D460C990746080091469A4603D00D98A4
S3150800627007F0F1FF01E000F047F804460E9EFF2CF8
S3150800628003D10020182530700BE00A980190CDF84C
S3150800629000A023464A462946384602F085F800F00B
S315080062A027F822E02DE9F04683B089460C99054681
S315080062B0080092461F4603D00D9807F0CCFF01E070
S315080062C000F022F804460E9EFF2C03D10020182564
S315080062D030700AE00A98009001943B4652464946B7
S315080062E0284602F023F800F003F82846BDE8FE86A3
S315080062F00500B87A307004D1DFF8781A09680B9867
S315080063000855204607F024BF002007F083BF38B59C
S31508006310DFF8644A2080C888440606D5DFF85C4A58
S315080063202478202C03D1000401D4702032BDDFF874
S31508006330504A1000216004D01146184607F08BFF1A
S3150800634001E0FFF7E1FF0546FF2D08BF18240AD034
S3150800635020684088294602F033FA044602F08FFC8A
S31508006360284607F0F5FE204632BD02F008BC0BF0C1
S3150800637073BC0BF06DBC2DE9F041069F0D46044633
S315080063801646984639460BF0E9FC20460BF0FEFC0B
S315080063900799088038460BF008FE089908702946C0
S315080063A020460BF071FC074638B9314620460BF0FB
S315080063B0A9FC414628460BF016FE3846BDE8F08192
S315080063C0DFF8C0391B78984201D370207047DFF890
S315080063D0B829126832F820300B8002EB80008078EA
S315080063E0887000207047DFF89C391B78984201D3E3
S315080063F070207047DFF8902912680B8822F8203041
S3150800640002EB8000897881700020704730B585B02E
S315080064100C4604F010F805460020207310230722C6
S315080064206946012006F0E7FC082202A92046FEF785
S31508006430F8F9BDF80000208104F114019DF8020066
S31508006440A0729DF80300E07204F110000BF023FE21
S31508006450E08105B0284630BD38B504460D460AF039
S31508006460C3FA014608222046FEF7DBF90AF0B8FA15
S315080064702880DFF81809007832BD0CF0DBB9FF2256
S3150800648002F0B8BF70B5A2B00D460446694604F0DE
S31508006490B9F8060004D12A4669462046FEF747F9A8
S315080064A0304622B070BD10B504462078002841D188
S315080064B0012020722070A078401E0BD0401E07D005
S315080064C0801F07D0401F05D0401F022802D903E0CD
S315080064D00220207200206070A07801280CD00228C3
S315080064E014D008280CD00D280DD0122817D0132840
S315080064F017D0142818D01BE0DFF89408007815E0A8
S3150800650002F0DBFC12E00CF024FF0FE0DFF8840851
S31508006510018804F10900BDE8104006F07CBAFF20A6
S3150800652004E002F061FF01E00DF09CF8607210BD16
S315080065300020207010BD10B5044682B0207858BBE4
S315080065400120207000206070A07818B1022819D0A8
S315080065500BD31FE061686A46C9B209F0DBF86070C0
S315080065600220207204F1090007E003202072684621
S315080065700DF043FA607204F10A00BDF8001006F047
S315080065804AFA13BD01202072606880B202F007FB48
S31508006590607213BD0020207013BDF0B5044687B0A5
S315080065A02078002840F01A8101202070A078010088
S315080065B027D0012849D002284ED0052818BF06281A
S315080065C052D0082800F0FB8009285BD00A2800F082
S315080065D07E800B2800F080800C2800F0C4800F28ED
S315080065E000F0C580232818BF242800F0CD80252870
S315080065F000F0DB80292800F0E480342800F0E380EE
S31508006600EAE0207A102860D100F0EAF8ADF8040034
S31508006610082294F90B008DF8060004F11001207B7E
S315080066208DF80700607B8DF80800A07B8DF80900BF
S31508006630E07BADF80A0003A8FEF7F3F8102307225B
S3150800664001A9002006F0D7FBC3E0207A01283CD137
S31508006650607ADFF83C17BBE0207A022835D100F0D3
S31508006660BFF8DFF830170BE0207A02282DD100F0AA
S31508006670B7F8A17805290CBFDFF81C17DFF81C1737
S315080066800880A6E0DFF818070568207A46080DB9DD
S31508006690DEB99EE0DFF80C070078B04215DB00276C
S315080066A007E004EB4700093006F0AEF925F81700B5
S315080066B07F1CB742F5DB4FF4004725F816702846CD
S315080066C00DF0DBFB002801D02F80362082E000F099
S315080066D087F80DF0B8FD7CE000F082F8DFF8C826F0
S315080066E01268527B05464FF6F87122B9884202DADB
S315080066F00AF09AF86DE02A002FD088422DDA0AF0BF
S315080067008FF8854229D028460EF06CFC28BB05A9CF
S3150800671028460BF0E4FB00BB28460FF0D3F9E0B996
S3150800672028460FF0F5FAC0B928460FF004FDA0B9BF
S3150800673028460CF0C2F880B9284610F0DEFA60B98F
S3150800674028460AF071F899231322A1A1032010F014
S315080067503DFB992010F054FC3BE00AF061F88542B5
S3150800676037D0382036E0607ADFF8401630E0657AB0
S3150800677004F10A0006F048F9ADF800006A46294611
S31508006780012008F0C7FF25E0217A042912D1232821
S315080067900CBF0325012504F10901012006F04DF976
S315080067A00146284610F0BAFC14E0607A032818BFA0
S315080067B0042801D002200DE003F008FD09E0372087
S315080067C008E0702006E0607A00B10120DFF8E015E5
S315080067D008700020607001E00020207007B0F0BD4E
S315080067E004F1090006F010B910B50446DFF8800573
S315080067F00078217856280CBF0120002009BBA1701B
S31508006800DFF878256178032905D108B150780FE0BB
S31508006810E078507013E0022905D108B1107807E036
S31508006820E07810700BE009290BD118B103F0A5FE2A
S31508006830E07004E0E07800B1012003F092FE012048
S31508006840207010BD017801B1704730B58170012103
S3150800685001704178052908D0122915D018290CD0BD
S315080068601F2914D0382915D018E0DFF84815DFF8A5
S31508006870482509781278891A24E0DFF840150A783D
S31508006880511E8941C90F1DE0DFF8341504E0DFF811
S31508006890341501E0DFF83015098813E000220FF2FD
S315080068A0645300E0521CD2B214461D5DFF2D02D17E
S315080068B00021017030BD8D42F4D10FF2645151F8B8
S315080068C024100978818030BD70B5044620780028E8
S315080068D07BD10120207000206278A070052A0AD09A
S315080068E0122A2CD0182A1FD0192A04D01F2A22D0DF
S315080068F0382A2FD033E0DFF8C0040578DFF8B4046F
S3150800690001784E1BA188052A0CBF0E460D46A9190B
S31508006910C9B207F0F3F90028A07056D1E9B2F0B26F
S31508006920BDE8704010F062BEA188481E8041C00FC5
S31508006930DFF888143FE0A088DFF888140DE0A18806
S3150800694047F231508142A8BF36203BDADFF870049F
S31508006950018070BDA088DFF87014088070BD0FF242
S31508006960A44100E0401CC0B20346CD5CFF2D02D115
S315080069700020207070BD9542F4D1A188022B08DA58
S31508006980DFF8480450F823000078884238BF3620DC
S3150800699018D30FF28C4050F82300092B0DDAC9B230
S315080069A007F0ACF9A070002804BF607811280CD154
S315080069B0A088DFF81C14087070BD342A04D1C9B247
S315080069C007F09CF9A07070BD017070BD0000000052
S315080069D042420000F8B504460D461146184607F02F
S315080069E03AFC18260746FF2F08D03A46294620467D
S315080069F011F050F90646384607F0AAFB3046F2BDB4
S31508006A0038B504460D462188284606F004F86188FC
S31508006A10A81C06F000F82079287160796871A81D0D
S31508006A20E18805F0F8FF218905F1080005F0F3FF74
S31508006A30A07AA87231BD10B586B004461B208DF821
S31508006A400000A0788DF801000DF10200218805F0FC
S31508006A50E2FF0822211D01A8FDF7E3FEE1788DF883
S31508006A600C10217B8DF80D10607B8DF80E000DF152
S31508006A700F0000F0BEF9112100F01FF906B010BD95
S31508006A8080B51C228DF801008DF802108DF80020C3
S31508006A90D9E02DE9F04788B007460D46144611F0AF
S31508006AA06FF9824622462946384608F0BFFD002877
S31508006AB063D10DF1090011F06BF930B962208DF838
S31508006AC00800092102A810F0B6F9FF2C0FBF00260E
S31508006AD0C04909680E5D45208DF808008DF80970D3
S31508006AE00DF10A012846FFF78BFF0DF1150000F09E
S31508006AF080F951460DF1170005F08DFF01F085FE6E
S31508006B008DF819000027B448DFF8AC820568DFF86D
S31508006B10A49201E07F1C0C3599F8000098F8001043
S31508006B20FFB2401A87420ADA28885045F2D108F09F
S31508006B30C3FAA97AC1F342018142EBD100E0FF27EB
S31508006B408DF81A708DF81B60504602F028F88DF8FB
S31508006B50040000B10120009001AB2246142102A8CE
S31508006B6010F071F900281EBF84480078212804D146
S31508006B709A48017841F00401017008B0BDE8F08731
S31508006B802DE9F0430746934800681D4687B0465DE1
S31508006B900E9C884691462146384601F0C0F93F20AA
S31508006BA08DF804008DF8057041460DF1060005F0D4
S31508006BB032FF02A94846FFF723FF6E480068405D8A
S31508006BC08DF813008DF8144085480078402804BFD6
S31508006BD00026FF25002000908DF8156000232A4620
S31508006BE0122101A810F02FF907B0BDE8F08330B5DF
S31508006BF089B00D46044604A90BF01CFE23208DF827
S31508006C0000008DF801408DF802500DF10300BDF823
S31508006C101A1005F000FF082204A90DF10500FDF77A
S31508006C2000FE9DF818008DF80D000E2100F045F8BD
S31508006C3009B030BD80B57C218DF8001001460DF1F4
S31508006C40010005F0E8FE0321684610F0F4F801BDDE
S31508006C5070B586B004467D208DF800000D461646B0
S31508006C6021460DF1010005F0D6FE082229460DF150
S31508006C700300FDF7D6FD8DF80B600C2100F01DF81A
S31508006C8003A811F085F818B903A9204610F0B4FC3A
S31508006C9006B070BD38B504460D4601F01FF98020D0
S31508006CA08DF800008DF8014029460DF1020005F027
S31508006CB0B2FE042100F001F831BD684610F0BBB8F9
S31508006CC010B584B0044646208DF8040001A8217842
S31508006CD04170617881700DF1070000F08AF83D482F
S31508006CE0A1780068405C8DF8090000230020009018
S31508006CF00621A27801A810F0A6F81FBD80B5982035
S31508006D008DF800008DF80110684602219DE71FB531
S31508006D100C4692218DF80410082201460DF1050053
S31508006D20FDF77FFD0DF10D0000F063F829480068B6
S31508006D30005D8DF80F0000230020009022460C21EC
S31508006D40D8E7244A00B5126883B0125C8DF805109E
S31508006D5093238DF8062000218DF804300091024611
S31508006D600023032101A810F06EF807BD00000000FB
S31508006D70AA7F0020647C00207E7C00201B740020F3
S31508006D80807C0020FC73002074720020D37F0020D2
S31508006D90DF7F0020EE730020D2730020D47300201A
S31508006DA0B47C0020607C00204C7C0020747E00208F
S31508006DB03B74002004740020DB7F0020F873002059
S31508006DC0C0730020BC730020CC7300200873002019
S31508006DD00974002044720020A87200207C7C0020E0
S31508006DE01374002080B50AF043FFBDE8014010F097
S31508006DF0E9BF10B5044610F0BCFF601CBDE81040A2
S31508006E0010F0B9BF1102030607081A2B2C19101324
S31508006E101B1C1D2021222A2E33343537FF00000083
S31508006E20F9730020FF73002005740020FC7300200E
S31508006E30FA730020FB730020997F0020FD73002061
S31508006E40607C0020DB7F00200A7400200B74002081
S31508006E500C740020067400209B7F002069730020B4
S31508006E600D7400200E7400209F7F0020A27F002052
S31508006E7036740020007400206F7C002035740020D2
S31508006E8038B504460029104601461A46204602D05F
S31508006E9012F0B0FB01E012F07EFB0546002C1EBF87
S31508006EA004980028A04203D02146142212F00EFCB2
S31508006EB0284632BD0246022000291CBF104612F0A1
S31508006EC031BC70470246022000291CBF104612F04A
S31508006ED0BABC70471CB504460020ADF800002078FF
S31508006EE0F8B902202072A0780A280AD0102810D1F2
S31508006EF001A812F090FE6070BDF80400ADF800001D
S31508006F0004E00020607068460DF0B6F90120207094
S31508006F1001E0207828B1BDF8001004F1090005F059
S31508006F207AFD13BD38B504462078002804BFA0783A
S31508006F30102812D104F10901012005F07EFD05464D
S31508006F4004F10D0005F060FDADF80000694628461D
S31508006F5012F036FE60700120207031BD764909783E
S31508006F60027856290CBF012100212ABB8270012212
S31508006F7002704278130006D1704A09B1117811E0FF
S31508006F80C07810707047052A05D16D4A61B111782D
S31508006F9041F0500106E0062A0CD16A4A21B111785F
S31508006FA041F06001C1707047C17801F00F01C170EE
S31508006FB01170704700210170704710B5044620789B
S31508006FC0B8B900F045F806D01E2807D0242807D0FF
S31508006FD0362808D00BE009F00BFD06E05A4800E019
S31508006FE05A48007801E05A480088A08010BD002061
S31508006FF0207010BD10B50446207840BB00F028F874
S3150800700006D01E280AD0242812D0362819D01CE00B
S31508007010A088BDE81040C0B209F0EEBC4D48A18872
S31508007020007888420AD3C9B2474806F067FE06E0E8
S31508007030A1880B2902DA4548017010BD3620A070D8
S3150800704010BDA0884249088010BD0020207010BDE0
S31508007050012020700020A07060780D28704700007D
S315080070602DE9F04F1646012E89B0804689469A4684
S3150800707012D10124002506A80DF008F9022755EAC1
S315080070800401DFF8B8B005D058B9BDF81800800774
S3150800709007D535B1032715E00024032EEAD10125CB
S315080070A0E9E79BF8000005280AD8DFE800F00306A0
S315080070B005090841012705E085B1002702E02746B2
S315080070C0022F0BD009F0ACFB824507D0514640464B
S315080070D00AF095FD4946404610F08EFA0197534648
S315080070E09BF800000090324649464046FDF79DFC55
S315080070F0044624208DF8080041460DF1090005F0E4
S315080071008AFC082249460DF10B00FDF78AFB8DF82B
S3150800711013608DF8144051460DF1150005F07BFCFF
S315080071200F2102A80FF087FE204609B0BDE8F08FB0
S31508007130002DC2D0AEE70000AA7F002018740020F8
S315080071409D7F0020077400209C7F0020A17F0020DF
S31508007150BE7300207E6B020880B56E218DF8001084
S315080071608DF80100022168460FF065FE01BD10B5D5
S3150800717084B00C469B218DF80010082201460DF1BB
S315080071800100FDF74EFB8DF809400A2168460FF00D
S3150800719052FE1FBDF0B583B010F8014B0E461746D8
S315080071A0214607F058F80546FF2D03D10E49012060
S315080071B00870F7BD8E208DF804008DF80560002054
S315080071C000908DF806708DF8074000232A460421A2
S315080071D001A80FF038FE284606F0BAFFF7BD00B141
S315080071E0024812F059BD0000C278002095710008C7
S315080071F000B58028A1B0A8BF02200ADA8DF80000E1
S3150800720002460DF10100FDF70CFB0021684612F05D
S31508007210E9FD21B000BD10B504462078002804BF5A
S31508007220A07833280FD10120207009B1002004E08E
S31508007230607A12F02FFE00B13620607001202072AD
S3150800724012F038FE607210BD0121E4E70021E2E782
S3150800725030B58BB004460D462A22FF216846FDF755
S3150800726023FB2146284606F0F6FF0446FF2C08BFF6
S31508007270182505D012F03AFE0546204606F068FFA6
S3150800728028460BB030BD10B54E4C2178FF29A8B062
S3150800729008BF702020D0002000904A2300220AA8A8
S315080072A006F0F5FF00200090252321784A221DA824
S315080072B006F0EDFF00200090242321786F2201A814
S315080072C006F0E5FF207806F043FFFF20207001AAAC
S315080072D00AA91DA812F017FE28B010BDF8B5394F37
S315080072E004463878FF280D46164608D19321002013
S315080072F006F0B1FFFF28387001D13520F2BD012014
S315080073000090334639782A46204606F0C0FF00200A
S31508007310F2BD10B50446A6B0207860BB01202070E7
S31508007320A0781A2804D024D31C2815D00AD320E024
S315080073304A2204F1090113A8FDF773FA4A2200212B
S3150800734013A812E0252204F1090109A8FDF769FA34
S3150800735025224A2109A808E0242204F109016846E1
S31508007360FDF75FFA24226F216846FFF7B7FF6070C2
S3150800737001E00020207026B010BD0178002904BF66
S31508007380417829290CD110490978522904D10F4985
S3150800739009788180002100E038218170012101707F
S315080073A0704710B5074C2078FF281FBF0649097893
S315080073B0AB29ED2903D006F0CBFEFF20207010BDC7
S315080073C0000000001A740020AA7F00209E7F00207B
S315080073D011B1012903D004E0114604F024BA04F0DF
S315080073E073BA0220704710B504462078002804BFF7
S315080073F0607808280ED114480078562803D104F07E
S3150800740002FFE07002E0E07804F000FF0020A070C0
S315080074100120207010BD0178A1B941782F2908BF35
S315080074200A4902D030290DD1094959B1064A1278BC
S31508007430522A07BF0978818082880A7000218170E4
S315080074400121017070470000AA7F002010740020F7
S315080074501174002030B58FB005460C463B2200213A
S315080074606846FDF721FAB6208DF800000DF10101F6
S31508007470284600F076F8DCB100218DF8291008229C
S3150800748021460DF12A00FDF7CCF90DF12905207AE0
S3150800749068720DF13300618905F0BDFAA1890DF115
S315080074A0350005F0B8FAA07BA873E07BE87302E024
S315080074B001218DF829100DF13900FFF79AFC3B21BF
S315080074C000F00CF80FB030BD80B5B7218DF800106C
S315080074D08DF80100022100F001F801BD68460FF0A1
S315080074E0AABC10B586B00446B8208DF800000DF188
S315080074F00100218805F08FFA61880DF1030005F077
S315080075008AFAA1880DF1050005F085FAE1880DF1E2
S31508007510070005F080FA21890DF1090005F07BFACC
S3150800752061890DF10B0005F076FAA1890DF10D00C0
S3150800753005F071FA0DF10F00FFF75BFC1121FFF75B
S31508007540CDFF06B010BD00B58BB0BB218DF800107D
S315080075500DF1010100F005F82921FFF7BFFF0BB077
S3150800756000BD38B504460D46A0782870681C2188E9
S3150800757005F051FA0822211DE81CFDF752F9E078BA
S31508007580E87205F10E01207B2873607B6873012081
S31508007590226905F044FA626905F11201012005F035
S315080075A03EFA218B05F1160005F035FA082204F19A
S315080075B01C0105F11800FDF734F9A18C05F120002E
S315080075C005F029FAE18C05F1220005F024FA04F108
S315080075D0280105F124000A7802704A7842708A78F0
S315080075E08270C978C17031BDF8B5BB4D04462868AC
S315080075F000792B38022801D90D382ED1FCF7CAFE9E
S3150800760006462868B549401D0860002131200FF05C
S31508007610DAFC05464FF6FF770BE005F10D0080B260
S315080076200FF0FEFBB04213D0294631200FF0CBFCF9
S315080076300546BD42F1D1002100E0294632200FF06F
S31508007640C2FC0546BD4208D00FF0EAFBB042F4D1B1
S31508007650A420FCF7B8FE00202070F1BD38B504461A
S31508007660002100E029463F200FF0ADFC05464FF605
S31508007670FF7085420CD028460FF0D2FB0228F1D1C4
S31508007680681C80B20FF0CCFBA042EBD1012032BDC2
S31508007690002032BD2DE9F8438046002145200FF031
S315080076A092FC4FF0000904468D4D4FF6FF7609E02F
S315080076B0FF21B8B20FF0B9FBA1B245200FF083FC49
S315080076C0A1460446B44224D004F11007B8B20FF01C
S315080076D0A7FB4045F0D120460FF0A2FB022818BFB1
S315080076E00328E5D1A41FA0B20FF09AFB014628880B
S315080076F0401A32187B482A800919121B92B2007860
S3150800770000924B1C9BB20246A1B206F0B9FF4C464A
S31508007710D2E7BDE8F183F0B5734F3D788BB00646E6
S3150800772007F0CAFC07F0A5FC00F07BF806D0122883
S315080077302FD17188707808F030F850B3707804A9A2
S3150800774007F0CAFF88B1BDF8100040F20911884257
S3150800775004BF7088B0F5006F07D1701D12F0DEFB0C
S31508007760B52802D0A8B9002413E00124002500E0BA
S315080077706D1C3978E8B288420BD206A900F099F94F
S315080077809DF818000028F3D13146E8B200F09CF9BC
S31508007790044631208DF8000030788DF801007078A5
S315080077A08DF802000DF10300718805F034F930797F
S315080077B08DF805000822711D0DF10600FDF731F858
S315080077C08DF80E508DF80F40102168460FF033FBE8
S315080077D020460BB0F0BD38B5054607F06DFC07F03E
S315080077E048FC00F01EF818BF12280DD12846FFF7EE
S315080077F035FF08B1752407E0284600F0B0F9040003
S3150800780004BF2846FFF746FF32208DF800008DF8A2
S3150800781001508DF80240032168460FF00CFB204604
S3150800782032BD324800786C241128704738B50446B2
S315080078300D46FFF713FF08B1752511E03DB107F0B6
S3150800784014FC68732946204600F03EF902E02046FB
S3150800785000F085F90546280004BF2046FFF71AFF01
S31508007860284632BDE2E70021E0E721490978027897
S3150800787056290CBF01210021002A04BF4278012A9B
S315080078800AD11A4A002919BF1178C170C178117036
S315080078900021817001210170704710B504462078D7
S315080078A0002804BF6078042814D111490E480978C5
S315080078B0522903D10078A080002008E00D4AA1884B
S315080078C012788A4232BF3620C9B206F017FAA0707B
S315080078D00120207010BD0000B07A002050780020EA
S315080078E0C67800202E7400209A7F00201974002084
S315080078F0AA7F00207C6B02081FB50C4602460D23A2
S315080079001621684609F024FB0D2269462046FCF735
S3150800791088FF207840096073207800F01F002070E7
S315080079201FBD30B585B004460D460D226846FCF7E6
S3150800793078FF9DF80000697B40EA41108DF8000049
S315080079400D236A462146162009F029FB05B030BDED
S315080079502DE9FF41044600F05FF814E03068EDB207
S31508007960A84630F81800A0420CD16946284600F00F
S31508007970A0F89DF80000022804D031684FF6FD7083
S3150800798021F818006D1CE8B239788842E6D3BDE8BC
S31508007990FF812DE9F04588464FF6FF7AD04585B038
S315080079A0044605D100F0D8F910B908F039FF30E0DF
S315080079B000F032F80CE0D04508D0306830F81510E1
S315080079C0414504BF4FF6FD7120F815106D1CEDB248
S315080079D0387885421CDA306830F8150000F018F956
S315080079E0F4DA69462846FFF787FF082221460DF193
S315080079F00500FCF760FF0028DDD13068D04502D1CC
S31508007A0030F8150005E020F8158012F0C1FADDE718
S31508007A10504605B0BDE8F0850025DFF8C463DFF8F9
S31508007A20C47370472DE9FF47804689460026DFF86C
S31508007A30B873DFF8AC43DFF8AC5316E02068F6B24B
S31508007A40B24630F81A0000F0E3F80DDA6946304617
S31508007A50FFF752FF082241460DF10500FCF72BFF00
S31508007A6010B9386800F80A90761CF0B2297888426E
S31508007A70E4D3BDE8FF87DFF86813096831F810001A
S31508007A8070471FB5DFF85C23127890420C460FD278
S31508007A90D349096831F810104FF6FE72914207DA99
S31508007AA0694600F006F821460DF10500FFF771FF5B
S31508007AB01FBD80B5CB4B1B78984201D3692002BD08
S31508007AC0FFF71AFF002002BD70B504460D4623468F
S31508007AD00022B4A103200FF079F92878002820465F
S31508007AE002D1BDE870403AE0BE490978884201D320
S31508007AF0692070BD12F069FE08B1752070BD07F0E7
S31508007B0091FA6873681D0AF050FA06464FF6FF7137
S31508007B10681DFFF73EFF024629783346204600F0E7
S31508007B2006F829462046FFF7FCFE002070BD30B552
S31508007B304FF6FF740D0008BF224608D0032908BF78
S31508007B404FF6FE7203D0A24208BF4FF6FD72A44953
S31508007B50096821F81020A44909680B5430BD30B5CE
S31508007B6005462C4685B0234601228EA103200FF038
S31508007B702DF99C4909782846884228BF692019D2D8
S31508007B8012F023FE08B1752014E069462846FFF76F
S31508007B90B3FE9DF8000030B100208DF8000069465C
S31508007BA02846FFF7BEFE8E4909684FF6FF7021F892
S31508007BB01400002005B030BDF0B585B007460C4668
S31508007BC0874D884E00E07F1C3178F8B288421CD277
S31508007BD02868FFB230F8170000F01AF8F3D16946A2
S31508007BE03846FFF789FE9DF80500E1B2884204BFD2
S31508007BF09DF80610B1EB142FE5D107F013FA9DF89E
S31508007C000D108142DFD1384600E0FF2005B0F0BDF7
S31508007C104FF6FE71884270472DE9F14F84B00D4644
S31508007C200E9C6F4FDFF8BCA190469946002607E0E8
S31508007C303868BDF8101030F81B0088422CD0761C26
S31508007C409AF80010F0B2884228D23868F6B2B346DD
S31508007C5030F81B00FFF7DCFFF1DA69463046FFF71C
S31508007C604BFE5FEA080007D19DF80100484504BFAE
S31508007C709DF80400A042E2D107F0D4F99DF80D1052
S31508007C808142DCD1002DD3D008220DF1050128460A
S31508007C90FCF711FE0028D2D1304600E0FF2005B0DF
S31508007CA0BDE8F08F10B51446FFF726FE2046BDE85E
S31508007CB0104008224D49FCF7B4BD2DE9FF4704469C
S31508007CC0084615461E4600F047F808B1002040E071
S31508007CD00027DFF80C81DFF80C9100E07F1C99F88B
S31508007CE00010F8B2884223D2D8F80000FFB2BA468C
S31508007CF030F81A004FF6FF718842EFD069463846C9
S31508007D00FFF7FAFD0C220DF10101601CFCF7D3FD0B
S31508007D100028E3D1BAF1FF0F0CD10020307007F02C
S31508007D20A2F9307855B138B92046FFF7F4FC09E0D6
S31508007D30FF27F2E70120F1E7012006E028B13846DF
S31508007D40FFF749FD401E8041C00F307007F046F925
S31508007D50012004B0BDE8F08708222449FCF7ABBD32
S31508007D6030B585B000241F4D16E06946FFF7C4FDFF
S31508007D709DF80000042806DB00208DF800006946FF
S31508007D80E0B2FFF7CEFD9DF8001000234FF6FF7214
S31508007D90E0B2FFF7CCFE641C2978E0B28842E4D34F
S31508007DA005B030BD4242000030B585B002220BA1B5
S31508007DB003200FF00BF800208DF800000024094D71
S31508007DC003E06946FFF7ADFD641C2978E0B28842F6
S31508007DD0F7D3FFF7C5FF002005B030BD420000000D
S31508007DE09C7200209A7F0020A0720020B47A00209E
S31508007DF030B583B00446FCF7CDFA0546202D1ADACD
S31508007E005CB169460820FCF7CCFA08236A4629467D
S31508007E10212009F0C4F800200EE008232A46212173
S31508007E20684609F095F80020FCF7CDFA694608205F
S31508007E30FCF7F4FA37BD7020FCF7C5FA37BD704772
S31508007E4070B55D4D6E8A044605F1080012F02DFDE9
S31508007E50012C08BFAE8A02D0022C08BF022618B130
S31508007E60FA217143884206D3310205F10800BDE8BC
S31508007E70704012F00DBD70BD7CB54F4C0020E0700F
S31508007E8020714FF6F972208A90421CBF4FF6F8729D
S31508007E90904202D00020207273BD6179474E4FF69A
S31508007EA0FD7589B14FF6FC70019000230020009003
S31508007EB00022308800210BF034F8002060713580EC
S31508007EC00120BDE87640BBE7A17810F073F9308849
S31508007ED0A842F5D0012060710220F2E710B500F043
S31508007EE039F81CBF4FF6F874A34217D1A92818BF52
S31508007EF0AA2813D1D0781378401CD070C0B2984203
S31508007F000CD32E4803884FF6FD74A34202D1018094
S31508007F10002050710020BDE8104091E710BD10B553
S31508007F2000F018F81CBF4FF6F874A34211D10300ED
S31508007F301CBF012802280CD166290AD1107951786C
S31508007F40401C1071C0B2884203D3BDE8104000201F
S31508007F5076E710BD184A138A4FF6F974A34270479C
S31508007F6010B5154C21829200029921709B00039945
S31508007F706282A38261709BB20499A17092B2934205
S31508007F800AD301001EBF218A4FF6F87291421CBF20
S31508007F904FF6F972914201D0702010BD002161712F
S31508007FA04FF6FD71054A118018B10120FFF748FF09
S31508007FB000E02072002010BDAC780020C4730020B9
S31508007FC02DE9F54F8BB08B460C98169C1799ADF892
S31508007FD004B00026C0889A460746B046B14649B955
S31508007FE0F90607D50C9A9DF82C000094594611F00D
S31508007FF07FFF16E1790548BF4FF48058390548BF19
S3150800800048F40068B90548BF48F0800803D4F90564
S3150800801048BF48F040089DF82C1002915D469DF82F
S315080080202C1003910A2966D8DFE801F0082F1B3CBB
S3150800803065653C06083C18004FF00209BDF80420A7
S31508008040CDF800A0334648F4027120460BF060FADA
S315080080508246BAF1FF0F50D11820E2E04FF003092B
S31508008060ECE706A95FFA8BF0FFF723FD08220DF16E
S315080080701D0104A8FCF7D5FBDFF88808006830F86E
S31508008080150004AEADF80400D8E704A95FFA8BF032
S3150800809009F064FEDFF8700800680C21694304AE35
S315080080A0405AEFE74FF6F8718D4224DB4FF4026130
S315080080B0084220D100F012F918BF91201CD1FF2CDC
S315080080C00FD000F076FB029903290CBF012100218D
S315080080D0401ADFF838180968095D8842B8BF742065
S315080080E00ADB029803280CBF4FF00C094FF0080969
S315080080F028F4C078A2E7012093E0DFF8145828880E
S315080081004FF6FF71884218D0504612F0F0FC0090E6
S31508008110001D298804F07FFCDFF8F807009900782D
S31508008120C8714FF6FF7028805FEAC84005D50098E9
S315080081300822291D0830FCF774FB0C9A494650465C
S315080081400BF0BAFB08B9182667E0DFF8CC07006819
S31508008150C07E70B1B8060CD5F8074CBF20200020A9
S3150800816040F001033246002150460FF071F906002F
S3150800817053D1FF2C15D0504612F0AFFCDFF89817F4
S315080081800968C97E01B11221DFF880271268135DDC
S3150800819012F80A20D218743089188842B8BF742693
S315080081A03BDBB80407D5504612F0B1FC40F48061B9
S315080081B0504612F0AEFC0298082812BF092850460D
S315080081C012F0B4FC179848B1BDF80410504612F0E6
S315080081D0C6FC179880F800A0002022E00398C01E6D
S315080081E005D0C01E012884BFC01E012807D85046E6
S315080081F00FF037FE00280CBFA12600260DE0B804B4
S3150800820044BF4FF6BF7007409DF82C103B465FFAF7
S315080082108BF2504611F0BDFE0646504605F098FF13
S3150800822030460DB0BDE8F08F2DE9F043164685B00F
S315080082300446F08804900D4670790FF21871039081
S315080082401F4630790290A8467088019043463088C8
S315080082500090082200F099F800F040F818BF912025
S315080082601AD1FF2F09D000F0A4FADFF8A016096882
S31508008270C95D884238BF74200ED320000FD14FF64F
S31508008280F870804528DA002001900097FF233246CF
S3150800829029462046FFF794FE05B0BDE8F083022C78
S315080082A04FF6FE790CD1DFF8741609788D4213D291
S315080082B0DFF85006006830F818004845E3DB0BE0A5
S315080082C0012C09D1DFF8581609788D4204D2E8B294
S315080082D009F05CFD4845D6DB0120DDE7DFF8380606
S315080082E00068407B02287047F0B587B00D461646F1
S315080082F0044605961F46E8880FF2606104902346F7
S31508008300687903900922287902906888019028885C
S31508008310009000F03AF800200190009733462A466C
S3150800832021460620FFF74CFE07B0F0BD2DE9F041C7
S3150800833088B01E460E9C07948046F088069017461D
S31508008340707905900D4630790FF21C61049043460A
S31508008350708803900A22308802900197009500F0F1
S3150800836014F8DFF8AC05A0F800802346DFF8A4056A
S3150800837007700020019032460F9800902946062083
S31508008380FFF71EFE08B0BDE8F08103200EF01EBD03
S3150800839080B538B101460822DFF88805FCF741FAAE
S315080083A0002002BD022002BD70B588B000F02EF88C
S315080083B00C98DFF85C15009608802B460D98DFF8B8
S315080083C0541508702246DFF860050078002814BFA7
S315080083D04FF6FF714FF6FD710020019011E070B560
S315080083E088B000F013F8DFF84005007800960028FA
S315080083F014BF4FF6FF714FF6FD71002001902B4612
S3150800840022460320FFF7DCFD08B070BD04460D4682
S31508008410069205951E46E0880FF2585104900622EA
S3150800842060790390207902906088019020880090F6
S31508008430032023890EF0CABC10B5DFF8F00406F055
S3150800844068F90446FF2C0DD02146042005F0F9FBF7
S3150800845018B10121204600F006F82046BDE8104074
S3150800846005F076BE10BD2DE9F04F89B082468B46E1
S3150800847012F03DFB0646B01C04F0C6FADFF8B0441D
S31508008480DFF8B054074650460BF0F3F8014650465D
S3150800849006F004F88046504612F043FB06F06DFDE0
S315080084A0301D04F0B1FA2080009708F0B9F9009958
S315080084B089B2814208F0030912D04FF6F870874254
S315080084C00EDA7078C0070BD438460AF0E6F90028A9
S315080084D005D0208801235246394600F09EF97AE0F5
S315080084E005A950460BF054F905A8286030460BF04C
S315080084F0DDF8DFF8441408600321504612F0E7FA65
S31508008500DFF8381408700421504612F0E0FADFF854
S31508008510301408705FEA0B002BD09DF81A0080060D
S3150800852027D508F07DF9DFF8F06340B13068007DA3
S31508008530800704D4B9F1010F08BF182300D0082317
S315080085400022002150460EF083FF90B108F0030088
S31508008550012802BF3068407B112805D102F03FFA96
S3150800856010B9AF2000F033FC06F038FD0020286073
S3150800857048E018F0030003D0022806D00AD32AE000
S315080085805946504600F041F825E05146404611F05C
S315080085902EFD20E008F044F9218881421BD051467F
S315080085A0052005F04EFBB0B12968887940060DD53F
S315080085B00C2202A8FCF735F900200190FF23FF20C2
S315080085C0009002AA21880A20FFF7FAFC21885A4659
S315080085D050460BF09BFE08F023F9218881420DD105
S315080085E050460BF046F80146504605F057FF0C2159
S315080085F0084203D10021504611F030FF00202860C0
S3150800860006F0ECFC09B0BDE8F08F2DE9FE4F814677
S3150800861012F06DFA064648460BF02BF80146484616
S3150800862005F03CFF05467078DFF80843DFF800736D
S3150800863000F001000290B01C04F0E6F94FF6F8715C
S315080086408842ACBF4FF0010A4FF0000A08F0E8F87C
S315080086503988814220684088ADF802000CBF4FF087
S3150800866001084FF00008B01C04F0CEF90146029844
S3150800867040EA0A008DF804009DF80400002814BF9B
S3150800868006200820002206F076FE20680188BDF83C
S315080086900260002904BF407900281ED16946484671
S315080086A00AF080FB23689DF80010421ED2B204200F
S315080086B012F021FB2068408848F20201884203D163
S315080086C03888494602F05BFA3888B6F5004F10DB61
S315080086D0BDF8022049460AF079FB2068029919B9C3
S315080086E005F00C010C2935D1008909F08DFC30BB49
S315080086F051E0DFF850B202218BF8001053460022F1
S3150800870049460AF0CBF920688079400604D5BDF8B9
S315080087100200FF2100F054F8132EDED02068C0882E
S315080087204004DAD4884909789BF80000CA0701D5BD
S315080087300228D2D089072ED50128CED02BE0206872
S315080087400189B8F1000F14BF032502250020FFF7A1
S3150800875033FA12E001790091002243793888002122
S31508008760FFF75AFA05F00C01082905D1B8F1000FF0
S315080087700CBF0425052500E00025744908709DF8FE
S31508008780040008B9382E01D1012200E0002229464A
S3150800879048460FF095FABDE8F78F10B5044600F085
S315080087A008F8610548BF0838210548BF0838C0B22F
S315080087B010BD59490968C97E642001B15220704725
S315080087C070B55C4E0C4686B0054631680C2202A888
S315080087D0FCF727F8306801798DF80D10FF234179E9
S315080087E08DF80C10ADF80A504FF6BF71C08800948A
S315080087F00840ADF80E0002AA002001904C480188F6
S315080088000720FFF7DDFB06B070BD5148007808B9B0
S31508008810FF2070474D48007870472DE9FB47914681
S3150800882085B01C4648460AF024FF0146484605F02E
S3150800883035FE032108428DF800005ED13D480568E3
S315080088403B48068801A948460AF0A2FF394901A80B
S3150800885008604FF0000ABDF81400354908809DF8F5
S315080088600900002804BFBDF8040000283FD1484687
S3150800887012F03DF9801C04F0C7F84FF6F8718842EB
S31508008880ACBF4FF00108D046002C14BF02240124C7
S31508008890012729E0BDF8140043463A4649460AF03E
S315080088A0FDF85FEA000A1ED0022C08BF012F1AD174
S315080088B0BDF818001649088017480068417E491C0B
S315080088C04176A1F18000134908700C219DF800003B
S315080088D0084208D19DF80A00400604D5BDF80600EE
S315080088E0FF21FFF76DFF7F1CFFB2BC42D2DA1148A9
S315080088F005600F480680504600E0002008B0BDE835
S31508008900F08700009C720020A872002044720020A4
S3150800891040730020B47F00204C7C00209A7F002002
S315080089200474002044730020A27F00207473002082
S315080089307E7C0020807C0020847C0020E57D002051
S31508008940E67D0020B37F00209F7F0020D77F002090
S315080089507C7C002042575757424257004257575788
S315080089604242574200000000425757425757424278
S3150800897057420000425757424242574242000000BF
S3150800898010B5044606F075FB10F09BF9010018BFF8
S3150800899000F013F80C212F48614308448279818836
S315080089A00068BDE8104007F063BB0020E8E7012037
S315080089B0E6E70220E4E70320E2E710B582B00446C2
S315080089C006F07AFB0C21484322490844210017BFC8
S315080089D0312C0021017A491C0172C279017A91422F
S315080089E00AD30021017243208DF800008DF801405A
S315080089F0022168460EF01FFA13BD17490978312976
S31508008A0000D0704780B544218DF8001001460DF15D
S31508008A10010004F000F8032168460EF00CFA01BDC7
S31508008A2038B50E4C0B4B24780C256C43B0F5004F2B
S31508008A30B8BF0429234401DB702032BDDA7198805F
S31508008A4099719A799988186807F012FBBDE8314040
S31508008A5010F037B9107300201C740020AB7F00207B
S31508008A6070B5160004460D4602D109F0C8F802E0B2
S31508008A70FF2109F073F8324629462046BDE87040C2
S31508008A80A0E02DE9F04782B005468A461746984683
S31508008A900EF0B2FDC0480A9C0078B0B10C2F14DA6B
S31508008AA0FF21284609F05AF8814600260AE004EB19
S31508008AB04601C9B2404605F0ACFD494609F04EF8F4
S31508008AC08146761CF0B2B842F1D3009443463A4642
S31508008AD05146284600F08EF8BDE8F3872DE9F047A1
S31508008AE004468A4600F0D5F8012846D1204609F002
S31508008AF01FF8AA4A126812F80A700025FF281CD027
S31508008B0081464C46DFF8988200E06D1CD8F80000D4
S31508008B1000EB84008478FF2CF7D1E8B268B1EDB297
S31508008B200C2D0ADA6800861CBAF1FF0F24D0F11959
S31508008B30C9B2504605F06BFC08B100201DE02A4674
S31508008B403946504605F0AFFC7C1C6A1ED2B2E1B22B
S31508008B50504605F0A8FC671C4C4606E030F8242071
S31508008B60F9B2504605F062FDBF1CD8F8000000EBCC
S31508008B7084018C78FF2CF1D1F0B2BDE8F08710B5EE
S31508008B80FF280AD0864B1B6833F820400C8003EB7D
S31508008B90800080781070002010BD032010BD10B52D
S31508008BA008F0C6FF0024FF280AD0022401E0A41C0E
S31508008BB0E4B27B49096801EB80008078FF28F6D18A
S31508008BC0204610BD30B583B00C46C4218DF8001080
S31508008BD0154601460DF1010003F01DFF21460DF172
S31508008BE0030003F018FF8DF80550062168460EF0BD
S31508008BF022F937BD2DE9F04186B0074688461D465D
S31508008C000DF1050014460FF0B4F801A80FF0B3F8FB
S31508008C1059208DF8080039460DF1090003F0FBFECE
S31508008C20082241460DF10B00FBF7FBFD9DF80500F8
S31508008C300C9B8DF8130066009DF804008DF814004F
S31508008C40F6B28DF8154000962A460021284605F00A
S31508008C5017FD3146284605F0DAFB00200090002370
S31508008C602A460E2102A80EF0EEF806B0BDE8F081FD
S31508008C7010B5044600F003F84A48047010BD10B554
S31508008C80484C2078FF2803D005F062FAFF202070B0
S31508008C9010BD2DE9F041DFF80C81074698F8000071
S31508008CA0FF2882B00C4619D03C4D2A68115C8E1EEE
S31508008CB0F6B2314605F0ADFCB8420FD12868075D1B
S31508008CC0F5052D0EFF2C02D1A81CC0B220E0F01924
S31508008CD0811CC9B2204605F09AFB08B1012017E0AD
S31508008CE02A463946204605F0DEFB6A1E791CD2B2B2
S31508008CF0C9B2204605F0D7FB98F800200096B91CA3
S31508008D00002389B2204605F0BBFCFFF7B8FF002018
S31508008D10BDE8F6812DE9F04180461F480078002617
S31508008D2088420F46154638BF742032D3012005F015
S31508008D30A4F90446380010D07900C9B2204605F0D7
S31508008D4066FB50B907E035F816207100C9B220460F
S31508008D5005F06CFC761CBE42F5DB2046FF2811D0D8
S31508008D600E4909680D5CA91CC9B205F050FB28B963
S31508008D7042462946204605F059FC03E0204605F000
S31508008D80E7F9FF242046FFF773FFFF2C0CBF1820D6
S31508008D900020BDE8F0810000997F00204472002081
S31508008DA0987200201D740020DFF8B42C126812781F
S31508008DB082420AD019B1012A03D1022805D000201F
S31508008DC07047022A08BF0128F9D101207047DFF849
S31508008DD0941C8875704710B5DFF8844C2068407B72
S31508008DE0112805D040F207110FF20C0007F07CFF9E
S31508008DF021684120487310BD6173736F636961749C
S31508008E00696F6E2E6300000080B5022006F08BFAAB
S31508008E1006F0B3F800F033FC042805D1DFF8440C5B
S31508008E20417D491D417505E04FF47A71DFF8F80C6C
S31508008E3011F02EFDBDE8014006F0D0B810B5DFF8F8
S31508008E40244C0020E0742078FF2803D005F080F930
S31508008E50FF20207010BD70B582B004460D4605F09F
S31508008E6001F90646B01D03F0CFFD00F44040B0F509
S31508008E70404F0CBF062000203118097C4A004908DB
S31508008E8002F00E0201F038018918401800F11106A7
S31508008E90DFF8F40C0068005DF6B286420BDA831B35
S31508008EA0DBB20F2BA8BF0F230020009032462146C5
S31508008EB0284605F0ECF9304676BDDFF8D80C006890
S31508008EC0407B33281CBF4328532801D10120704713
S31508008ED0002070471FB5012011F016FF11F018FF8A
S31508008EE00EF0B2FFF0B1DFF87C4BA07910B104F1B7
S31508008EF00A0005E020786946FFF7ADFF0DF103008B
S31508008F00DFF8242C00211170617901F0C7F9FFF709
S31508008F1095FF00F008F80AF089F811F04AFF0120D9
S31508008F2001F0E9FA1FBD10B500F030FE017B0329F8
S31508008F3018BF042905D1408801F0B4FA08BF0320F8
S31508008F4008D007F04DFD044607F04EFD2146FEF712
S31508008F5020FD022007F054FD09F094F800F007FE02
S31508008F60BDE810400AF08EB838B5DFF8F84ADFF8E1
S31508008F70F05AA075FFF762FF00214FF6FF7001F067
S31508008F8083FA2868417B032918BF00291ED0332994
S31508008F9018BF432914D101F026FA2868017B032952
S31508008FA018BF042906D103214173A07DBDE83240CC
S31508008FB006F0CCB9A07D06F0C9F9BDE83140B2E7A4
S31508008FC021214173BDE831400AF079BD31BD10B5A4
S31508008FD0DFF88C1ADFF88C4A0968002048734FF6C8
S31508008FE0FE7007F021FC4FF6FF7007F025FC01F034
S31508008FF0FAF9A07DBDE8104006F0A8B970B5044698
S3150800900084B0E07A0FF2D001DFF8545A0290234672
S3150800901094F90A0001901522208901F09DF8286824
S31508009020407B60B9208901F03DFA08D000F046F986
S3150800903005D106F04CF910B906F05DF910B17020AB
S3150800904004B070BD2868007D80070AD507F0E8FBE4
S315080090504FF6FE718842024604D10CF036FF0246EE
S3150800906000E000222146104601F0D8F806000DD18E
S315080090702868007D80074CBF0220012001F0A6F871
S31508009080002101200BF021F9060001D03046D7E770
S31508009090DFF8D009007F08B109F0C4FC00220821D6
S315080090A0204607F048FD30B10421204606F035FF7A
S315080090B008B9A520C4E7DFF8E00A00782074DFF8CD
S315080090C0DC0A60610020E081204600F0FCF80646D4
S315080090D006F081F8DAE7000042387057424200008D
S315080090E010B504462346182201F07FF9DFF8B00AC6
S315080090F00021017114B1FF2C02D10121017007E092
S31508009100012100F8041BA100491C090211F0C0FB4B
S3150800911000F02DFD002010BDDFF8840A00787047A6
S31508009120DFF87C1A00200871DAE730B50D4689B0F9
S31508009130044668690FF2781107902346287C069042
S315080091401622E8890590287B0490E87A039095F919
S315080091500A00029028890190009500F0FEFF287BFE
S3150800916000280CBF4FF6FE7007F05AFB2B46224626
S3150800917009B0BDE83040014601202DE9F041DFF88D
S31508009180E06880463068407B00280F4614461D4636
S3150800919049D1200047D0052C45DA00F08FF842D196
S315080091A006F095F800283ED106F0A5F808B1042C7B
S315080091B039DB287B032816D14FF6FE70874214D177
S315080091C0012C08BF002710D0022C2CD107F028FB51
S315080091D04FF6FC71884202DA07F022FB01E00CF038
S315080091E074FE074601E0012C1DD0B8F1000F0CD023
S315080091F0287B03280CBF01210021012C0CBF01206C
S3150800920000200BF062F801004FD12946384601F0DC
S3150800921005F8010049D105F005FF06F015F820B15B
S3150800922006F069F808B170203FE03068DFF8347856
S31508009230407B33281EBF53280020F875204600F0CF
S31508009240C5FF387F20B106F056F808B909F0EAFBE1
S31508009250287B032803D12846BDE8F04133E00822DD
S31508009260294607F10A00FBF7DCFA287B0328A8BF82
S315080092700020B874FFF7E2FD9420B875B87C316811
S3150800928000280CBF012031204873002038750120C2
S315080092903168897BBA7F00FA01F1052011F021FFB8
S315080092A0010002D0326800215173BDE8F081000048
S315080092B0424238705742424257424400DFF8740C23
S315080092C000780B28704710B504460022082107F0DD
S315080092D032FC08B1012010BD07F0A2FA00224FF6B1
S315080092E0FF7100F0C1FF217C204600F0D7FF6269BC
S315080092F0E189207C08F0F9FEDFF864070068007B46
S31508009300012808BF0BF06BFDFFF70DFE002010BD0E
S3150800931038B5DFF84C4701462068407B002802BF75
S31508009320DFF8100C00780B2801D0702032BDDFF86A
S31508009330F85721B1022205F10800FBF772FA6846D0
S3150800934001F079F808B1932032BD9DF80030142257
S3150800935001F04BF800F0ECFF010044D19DF8000045
S3150800936000F034FF2068007B012818BF022807D0C8
S31508009370032818BF042825D1002001F097F808B360
S3150800938000F0EDFF2068007B032814BF042812F0C4
S3150800939053FAFFF7C8FD012012F078FA010022D12E
S315080093A02068007B032818BF04281BD1287A800769
S315080093B018D50522DFF8E417012000F01BF8010094
S315080093C010D032BD2168132048730020DFF89416A8
S315080093D0087501202168897B00FA01F1052207201A
S315080093E011F07FFE002032BDDFF87806C07D704799
S315080093F0FF22FFE72DE9FC41804600F0C7FB0D463A
S31508009400017B0129164623D0407B022818BF032872
S315080094101ED1332007F0F4FADFF84876BA7F2946DA
S31508009420052011F05EFE044698B9FFF707FD07F020
S31508009430FFF938815FEA080014BF02200120B874DA
S3150800944007F10A0001F00FF800203875FE7500E0F4
S3150800945070240194009543462C220FF2100100F067
S315080094607CFE2046BDE8F6810000000042424442E8
S315080094700000000038B5044604F0F4FD0546204611
S3150800948011F02BFB2C18204603F0BEFA4FF6FF51BD
S3150800949001402046BDE8344003F0BDBA70B588B037
S315080094A00C4616461D4630B9204612F0F1F903A9B6
S315080094B009F0C0F903A807218DF808100190310AB0
S315080094C08DF80A1001200C998DF80B1000908DF874
S315080094D00960042302AA012120460AF0A4F80646D8
S315080094E0FF2E18D0214611F03AFB15B93046FFF782
S315080094F0C1FF0D9808B930460DE0204609F0CDF9B0
S3150800950018B1304612F0F2F901E000F020FE3046BC
S3150800951004F01EFEFF2008B070BD2DE9F24F84B09E
S31508009520044616469B4600274FF6FF7556B1304649
S315080095300AF0BCF88046707840084FF0010A00F03F
S31508009540010905E0084611F072FBBA46B94680469D
S3150800955000F095F8032818BF042800F08D800BF159
