S027000044796E616D69634D756C746970726F746F636F6C44656D6F4C69676874536F632E733337E9
S31500000000E8550320F9F6040071C7010065D0040025
S31500000010A70A02020002000004180FAC2062B80012
S3150000002000000000000000000000000000000000CA
S31500000030000000000026050000000000000000008F
S315000000400000000000000000FFFFFFFFFFFFFFFFB2
S31500000050FFFFFFFFFFFFFFFFFFFFFFFFFFFFFFFFAA
S3150000006000D00F000000000000000000FFFFFFFFAF
S31500000070FFFFFFFF1C000000000000000000000062
S315000000800000000000000000ADEC0320ADEC0320F2
S31500000090E8550320D8FB0500ACF90400E85303201B
S311000000A0A011002000F00F00000000007E
S31500000200E8550320F9F6040071C7010065D0040023
S315000002106DD0040069D0040071D004007DD00400C4
S315000002207DD004007DD004007DD004007DD0040084
S3150000023075D004007DD0040051D501008509010068
S31500000240DF810200E5690300999300007DD0040078
S31500000250ED6503002D6A0300EB690300ED690300F9
S31500000260E7690300C59303000F960300314D0200B2
S31500000270EF7102007DD004007DD0040073DD040020
S315000002807DD004007DD004002D9603007DD00400AF
S315000002907DD004007DD004007DD004007DD0040014
S315000002A07DD004007DD004007DD004007DD0040004
S315000002B02F6A0300E96903000D4A0200636A03001E
S315000002C07DD004007DF804007DD004007DD00400BC
S315000002D07DD004007DD004007DD004007DD00400D4
S315000002E07DD004007DD004007DD004007DD00400C4
S315000002F07DD004007DD004007DD004007DD00400B4
S315000003007DD004007DD004007DD004006F49704A82
S3150000031001E021B1491E1369DB07FAD401B9B0E047
S31500000320506001201060106910F0060F05D04107DB
S3150000033000D5A9E0800700D5A9E000207047F0B5F8
S3150000034013460022002936D0604C614D8BB98B4292
S3150000035031D250F8046BEE605B1C08262E602646F0
S3150000036001E036B3761E2F69FF07FAD4002EEED1D0
S315000003701FE0EFF3108672B600230EE02F6907F038
S315000003801907102F08BF2F602F693F07F6D550F8C1
S31500000390047BEF605B1C10272F608B42F4D306B9F9
S315000003A062B6264601E026B1761E2869C007FAD451
S315000003B00EB96FF002021046F0BD2DE9F0479A46DD
S315000003C0444B454F1C681B683B688046002043F041
S315000003D001033B60950881460C4602E0B14404EBFC
S315000003E08604A94517D208EB89063046FFF78EFF2B
S315000003F0010014D1C6F30A00C0F500608608A5EB1B
S315000004000900B04238BF0646524631462046FFF73D
S3150000041096FF0100E2D03968490849003960BDE815
S31500000420F0872C49294A0B6809682B490B6843F069
S3150000043001030B608860012048604869400704D5C5
S3150000044008684008400008601EE04869800704D537
S31500000450086840084000086019E00220486001E092
S3150000046022B1521E4869C007FAD422B9086840086A
S315000004704000086005E00868400840000860002069
S3150000048070476FF0020070474FF0FF3070476FF013
S3150000049001007047002390E70F48016841F0010111
S315000004A0016046F21A31C1644FF4807141604169BE
S315000004B0C907FCD44FF4007141604169C907FCD4F7
S315000004C00021C1640020704700000000809698005B
S315000004D00C000E4004300E4008000E405C06000082
S315000004E01C0000000E0000001005000004000000C3
S315000004F02C0500000A000000AC070000C007000041
S3150000050000000000C107000000000000FFFFFFFF21
S315000005100028012803280A18292A242A252A262AF7
S315000005200018002A012A0118052A0229C91B803D44
S3150000053061500C978D45197D965BE5BAD92A49E637
S3150000054078E24C9CD7495FB1AC37E17615AEDB1F3C
S3150000055014A5D4859745FD0B52EE162F1B9AAB8B2F
S31500000560F73434BA9C4C213954CBA18222090000BD
S31500000570000000001300221B001B9AAB8BF73434DB
S31500000580BA9C4C213954CBA1820000002A080000F5
S315000005900000000013002A180015AEDB1F14A5D4B6
S315000005A0859745FD0B52EE162F0000002A07000026
S315000005B00000000013002A1500D92A49E678E24C0B
S315000005C09CD7495FB1AC37E1760000001000C91B2B
S315000005D0803D61500C978D45197D965BE5BA00000C
S315000005E002060200FEEB03200500021200012A00AB
S315000005F002050800686003200500021000002A00BA
S315000006000200001802040500746003200500020DB4
S3150000061000262A00020303007C6003200500020B6B
S3150000062000252A0002020800806003200500020956
S3150000063000242A0002010C0088600320050002073E
S3150000064000292A0002000A1820000400BCD6032054
S315000006500500200300052A00020001180000010819
S31500000660FFFF00005806000002000108FFFF00001F
S31500000670500600000C000008FFFF000148060000BD
S315000006800D000708FFFF000302000000000001083C
S31500000690FFFF00004406000002000108FFFF000003
S315000006A03C06000004000108FFFF000234060000BB
S315000006B002000108FFFF00002C06000005000108EB
S315000006C0FFFF00012406000002000108FFFF0000F2
S315000006D01C06000006000108FFFF000114060000CA
S315000006E002000108FFFF00000C06000007000108D9
S315000006F0FFFF00010406000000000108FFFF0000E4
S315000007000006000002000108FFFF0000F8050000D7
S3150000071009000108FFFF0002F005000002000108C1
S31500000720FFFF0000E80500000A000108FFFF0001C6
S31500000730E005000000000108FFFF0000CC050000F6
S3150000074002000108FFFF0000B40500000180030855
S31500000750FFFF0007AC0500000D000708FFFF0003C0
S315000007600207010002000108FFFF000094050000D7
S3150000077002800308FFFF00078C0500000D00070834
S31500000780FFFF00030208020002000108FFFF00004D
S315000007907405000003800108FFFF00076C050000D8
S315000007A00D000708FFFF000302090300030007000E
S315000007B009000B000D0010001200150018001B00A8
S315000007C00000000080B54748474A0188002000F035
S315000007D0B3FB5328A8BF522002BD2DE9F04300F019
S315000007E074F883B000684579284600F051FD00F0A2
S315000007F061F8412200F064F800F06CF8FFF7E2FFC0
S31500000800814611E06A462146284600F03FFD50B178
S31500000810BDF8000000F086FD9DF8020000F073FDB3
S315000008203078401C3070641CE4B2444503DA3888E2
S31500000830C01C8145E6DA38E02DE9FE4300F045F8B4
S3150000084000684579284600F01FFD00F033F8422283
S3150000085000F036F800F03EF8FFF7B4FF81461DE0E1
S315000008606A462146284600F00DFDB0B1BDF80000ED
S3150000087000F058FD9DF8020000F045FDBDF80400AB
S3150000088000F050FDBDF8060000F04CFD9DF8080094
S3150000089000F039FD3078401C3070641CE4B24445E9
S315000008A003DA388808308145DADA00F0DFFA012009
S315000008B0BDE8FE8380460194CDF8008008A370470A
S315000008C04FF48051092000F07BBE04460748084FCC
S315000008D000687047398807484618002000F013BDA5
S315000008E07575000000EC0320C0D6032058D70320FE
S315000008F002EC0320CCD6032080B501F02CFAFF28A9
S3150000090005D0022803D2DFF8D017085C02BD00200C
S3150000091002BD00B583B00221009101AB0022032184
S3150000092001F0FCFB20B9BDF8040010B1012000E085
S315000009300020C0B20EBDF0B5059D00260027092D8A
S31500000940044602D300200021F0BDB4460FE05FFA52
S315000009508CFCA5EB0C0020443F0210F8010C47EA82
S315000009601667002110EB06264F410CF1010C5FFAC9
S315000009708CF0A842EBD39F4206D828BF964203D2FA
S31500000980901B63EB0701F0BDB01A67EB0301F0BDE6
S3150000099010B50168DFF844270B8813804B88538015
S315000009A0497911710168097951714FF48251D180E9
S315000009B001688979890644BF4FF48351D180DFF8F5
S315000009C0201783690A783BB9C088DFF81837188082
S315000009D002F0FD00087010BD42F002020A701622F5
S315000009E08169DFF80447204601F064FE002020708C
S315000009F010BD80B5002001F0CCFEFF2001F004FA06
S31500000A0001F0D5FE00F0A3FE02460121DFF8C8067C
S31500000A1001F093FEDFF8C436DFF8D026DFF8D00603
S31500000A20522100F0B9FD01F0FAFE01F0AFFF01F02E
S31500000A30F1FF02F083F802F035F902F09FF903F0B6
S31500000A4005F903F032F903F071F903F03BFEBDE856
S31500000A50014000F04EBF01F09ABF80B504F0E1F806
S31500000A6020B905F0F5FC08B903F0C5FB00F024FC3D
S31500000A70BDE8014000F02CBC10B500224FF6FF7116
S31500000A80DFF8703600E0521C92B233F832408C42E6
S31500000A9003D08442F7D1104610BD084610BD38B5C4
S31500000AA00446FFF7E9FFDFF8505601464FF6FF729E
S31500000AB02888914203D12246DFF8401606E0DFF887
S31500000AC0342602EBC1014A68DFF8341605F0ACFDA6
S31500000AD02888BDE8324005F097BD10B50446DFF81A
S31500000AE024060078002882B03BD005F075FE024649
S31500000AF0DFF81416022005F097FD20684188009162
S31500000B004379A289DFF80416022005F08DFD022044
S31500000B1005F03EFD18B120684088FFF7C0FFE07B76
S31500000B2028B1228ADFF8E815022005F07DFDE07C79
S31500000B30DFF8E0150090A0680278A37C022005F09B
S31500000B4073FD207DA1890A1AA1680144012392B28E
S31500000B50022005F063FEBDE81C40A5A1022005F0B9
S31500000B605DBD13BD10B504462068407901F0F3F869
S31500000B70FF281DD0DFF8A015227F01EB0010017BB6
S31500000B80914215D1226840881188884206D04FF6D6
S31500000B90FF7399420CD1B0F5004F09DA207902288B
S31500000BA018BF032806D11189507906F09BF808B9B9
S31500000BB0002010BDA07B0028204603D0BDE81040D1
S31500000BC006F0DEB8BDE8104006F00AB930B51446A6
S31500000BD083B01A4623785B074CBF052303239A424A
S31500000BE00AD200931346DFF83425DFF834150220C5
S31500000BF005F014FD00203EBD089D28602971069869
S31500000C00E880AC60AA81207800F00100A873207803
S31500000C10800800F00100E8732078C00800F00100A9
S31500000C20687501202875E87B30B10121204600F067
S31500000C30D8FB297D891C29752882287D411C2975A8
S31500000C40205CA874481C2875C9B2605CE8740798D3
S31500000C50A86106F0FCFB287701203EBD2DE9FE4386
S31500000C600F46DFF8C014DFF8C054DFF8C08491ECFB
S31500000C70080B85EC080B0B9E0295019600240A9939
S31500000C8000913946FFF7A2FF002866D0C8F8005049
S31500000C90A87CDFF89C1408702846FFF71EFF28463C
S31500000CA0FFF776FE284606F0AAFC20BB2EBB042FD3
S31500000CB018BF052F03D0022F18BF032F01D1012221
S31500000CC000E00022E988286801914188009101210D
S31500000CD00388E87C00F013F990B1286880798006D3
S31500000CE00ED4DFF85044012020700121284600F080
S31500000CF004F90020207001242FE0307D80072CD5D8
S31500000D0028684079FF2824D10027DFF8D06300F057
S31500000D101EFDF9B2814220D2F8B201F020F88146D8
S31500000D20F8B200F018FD90B128684188484600F0F6
S31500000D306BFF60B12846FFF72BFE286880F8059008
S31500000D4086F804902846FFF70DFF00B101247F1CAA
S31500000D50DDE72846FFF706FF044600F0BDFA162237
S31500000D600021DFF8840301F0E8FC0020C8F8000049
S31500000D702046BDE8FE83DFF8C0030178491C0170F8
S31500000D8001F07F007047DFF858130A78002814BF77
S31500000D9042F0010002F0FE0008707047DFF89C1375
S31500000DA00870704778B1DFF894130978012903D1E8
S31500000DB0018841F0400105E0022904D101884FF67F
S31500000DC0BF7211400180704778B1DFF874130A785A
S31500000DD0012A04D1DFF86C2312780A7001E0022A96
S31500000DE003D1017841F01001017070470000000046
S31500000DF05D000000F0B5BA4D04462878C00783B000
S31500000E0001D50020FEBDBA4EB44F3046FFF7DCFFD9
S31500000E10B81DFFF7C7FFC6483178007849074CBFB1
S31500000E20F0707070B14801882878800708D532467E
S31500000E30AD4806F021FE297801F0FD012970FEBDBE
S31500000E40A84800884FF6FC72904208DA0B46014625
S31500000E50019400963A46002006F0E8FFFEBD0A46D9
S31500000E6000943346394606F0BBFFFEBD0020C1E7BD
S31500000E700A460146AD48006801E00021F8E770B572
S31500000E8004460E462079010018BF012815460BD1ED
S31500000E90A0680078C00601D5300005D0A07B0028E8
S31500000EA004BFE07C0B2801D1002070BD8F490020D3
S31500000EB00880607DE17B00280CBF0820002011B966
S31500000EC000F021FA06E040F0040000F01CFA208A47
S31500000ED000F028FAA07C00F016FA0B2000F013FAB6
S31500000EE0E07C00F010FA304600F00DFA2046FFF7DD
S31500000EF04FFD2846BDE870407CE70022BFE770B58D
S31500000F0004461846904B8B4D1B78012B01D02E784A
S31500000F1016B10020287070BD82F001020A4301D18B
S31500000F20002070BD2BB10A460499234600F070F9E3
S31500000F3000B1012070BD000038B5D2885224950654
S31500000F4048BF4924550544BF083CE4B2150544BFD3
S31500000F50083CE4B2120444BFA41EE4B203284FF6D0
S31500000F60FD7310D8DFE800F00204080D0B460AE016
S31500000F70C8B207F030FB02E0C8B207F068FD0346CE
S31500000F8001E0641EE4B2184601F060FD201AC0B20A
S31500000F9032BD42540844120A427070470844110A8E
S31500000FA041700270110C8170110EC1707047B0B59E
S31500000FB004460D000EBF00202878FF28174601D1F1
S31500000FC02070B0BD284600F031FA874288BF074638
S31500000FD03A46691C601C01F06DFB2770B0BDB0B5C8
S31500000FE00D000446174603D1002060702070B0BD86
S31500000FF02878FF2802BF6878FF2820700CD0284682
S3150000100000F019FA874288BF07463A46A91CA01C79
S3150000101001F050FB2770380A6070B0BDF0B5541E61
S31500001020002B37D0052A48DA0025002600230CE0DD
S31500001030571EFF1AFF000CFA07FC4CEA050511F8CB
S315000010400EC00CFA07F73E435B1CDFB2974209D28B
S31500001050DBB2A4EB030E00280CBF4FF0000C10F817
S315000010600EC0E5E7042A0FDAD0000121D200401EA7
S315000010709140494245FA00F2D20748BF0D4346FA6D
S3150000108000F2D00748BF0E43AE420FDBB54214DA7A
S3150000109010E05B1CDDB295420FD2DBB2E51A0028E8
S315000010A00CBF0026465D4D5DB54201DA0120F0BD5C
S315000010B0AE42EEDA4FF0FF30F0BD0020F0BD002169
S315000010C0224A01E0891CC9B2535C8342FAD3501804
S315000010D0407870470000000008EC0320C0D60320CB
S315000010E081EC032000EC03205CD7032002EC0320F4
S315000010F0CCD60320F8DE050006EC032060DE0500F2
S3150000110078DE0500B563032080DE050088DE050075
S31500001110A8DE0500B4DE050084D50320F0DE050058
S31500001120D4DE050038DF050038D7032058D7032062
S31500001130D96303207DEC0320DA6303207EEC0320D1
S315000011407FEC032080EC0320D863032058DF0500E2
S31500001150283808288041C00F704710B500F009F8FC
S31500001160FF2801D1A32010BD002104F83010002073
S3150000117010BD0446084600F0EEBD38B500F00BF889
S31500001180FF2801D1A32032BD294604EBC000BDE8EB
S31500001190344001F075BB04460846154600F0DBBD39
S315000011A040B11C280CD01D280DD01E2818BF1F28A2
S315000011B006D00AE0A1F10B00102806D200207047E5
S315000011C01B29FBDB01E00929F8DB8A20704710F0B8
S315000011D0E00011D0802806D0A02806D0C02806D06E
S315000011E0E02806D007E01C2070471D2070471E200F
S315000011F070471F207047FF20704700F01F007047A0
S3150000120070470120704701207047012070477047E2
S31500001210002070470020704700207047002070476C
S31500001220002070470020704701207047012070475A
S31500001230002070470020704700207047002070474C
S315000012407047002070477047B52070477047704759
S3150000125070477047002070477047704701207047FD
S31500001260704707F0AFBD00207047012181814FF61E
S31500001270FE71C181012101610021017001207047C9
S3150000128001207047002070470020704700207047FB
S3150000129000207047704770470120704770477047BD
S315000012A07047002070477047002070470020704745
S315000012B000207047002070477047B5207047002017
S315000012C0704700207047704700207047704770478E
S315000012D0704700207047704780B54E49002008705F
S315000012E007F01AFE4C490880522200214B4801F0B3
S315000012F024FA4B49002008800C22BDE80840002152
S31500001300484801F01ABA10B545490A88522A07DA40
S31500001310424CA054501C088080B22044401E10BD90
S31500001320002010BD38B500F023F80546200AFFF767
S31500001330EAFF002D18BF002801D0284632BD002044
S3150000134032BDF8B500F014F800F019F800F013F803
S315000013500746200EFFF7D7FF002D18BF002E05D039
S31500001360002F18BF002801D02846F2BD0020F2BD8C
S315000013700446C0B2C7E706462002000EC3E705468C
S315000013802004000EBFE7B0B5254D2B880C46E118AA
S3150000139052290CDA214F01462246F81801F08AF943
S315000013A028882018288080B2001B3844B0BD002051
S315000013B0B0BD30B50024CD18AA4209DA002030BDF0
S315000013C0220251FA83F404445B1E14F8014C1419EA
S315000013D0DAB2002AF4D1204630BD0423E9E703231C
S315000013E0E7E780B50223FFF7E4FF80B202BDF8B558
S315000013F091420C4615460C4E07D20719384600F0A6
S3150000140015F82018401C854201DA3046F2BD3846F0
S31500001410F2BD000081EC032000EC0320CCD60320B3
S3150000142002EC0320C0D6032004EC03200078FF283A
S3150000143008BF0020704780B502220021FFF7D1FFC8
S315000014404FF6FF71884208BF002002BD2DE9F74F15
S31500001450032904461D4602DB280006D00529C0F2F2
S31500001460968042F004008DF8080002A8FFF7ACFC55
S315000014709DF8080020700126280003D0280A657010
S31500001480A0700326FFF777FCA055711C0C9889B253
S315000014904D1C60540026DDF838A006E04246494659
S315000014A0601901F007F94544761C0D98F6B2805D87
S315000014B001006ED0002774284FF0000BB9463ADAC7
S315000014C04C285AF8049B1CBF5328622815D15AF899
S315000014D0048B4C2808D11FFA88F8C3464FF6FF70D4
S315000014E083453AD0022738E0532836D15FFA88FB85
S315000014F0BBF1FF0F31D001272FE06C2805D14846FC
S31500001500FFF799FF00F1020827E0732805D1484646
S31500001510FFF78CFF00F101081FE0A0F130010A2956
S3150000152038BFA0F1300818D3A0F1410107292ED207
S31500001530A0F1370811E07528C84608BF01270AD070
S31500001540762808BF022706D0782808BF032702D0CE
S3150000155077281CD104275AF804BB1FFA88F8BDF86F
S31500001560040018FA85F1C919884206DA0FE004F872
S3150000157005B06D1C4FEA1B2B7F1EF9B20029ADB2D8
S31500001580F5D1B8F1000F8FD0B9F1000F86D1002048
S3150000159000E0A8B2BDE8FE8F10B5454C2060454876
S315000015A00180454802604548036010BD3EB50C46C3
S315000015B007A902910093134606990191024607E096
S315000015C03EB500920C4606A90246029101930023FD
S315000015D03848018836480068FFF738FF0546364820
S315000015E0006805804FF48251344800684480C18009
S315000015F0801DFFF7D7FB28463EBD03462C480268F0
S315000016002D48006801882D48006806F03BBC002084
S31500001610F3E7E0B500F003F806F07EFB0EBD00919F
S315000016200293019222490B68234909680A882349D3
S31500001630096870470023ECE71D4802681E480068E9
S3150000164001881E48006806F092BB00B583B001927F
S31500001650174A12680092184A12681388174A1268C5
S3150000166006F0E4FB0EBD0022EFE7E0B5FFF7D7FF7B
S3150000167006F0C5FB0EBD0023F7E71FB50C4C24682A
S3150000168003940D4C246824880294069C01940B4C08
S3150000169024686488009406F029FC04B010BD07484D
S315000016A000687047054A13681871106841717047E1
S315000016B000D60320FCEB032004D6032008D6032023
S315000016C0DFF84809DFF8481900880A68DFF8441986
S315000016D084B0ADF8060003A8026002A80A68DFF825
S315000016E038190260DFF834090088ADF80400DFF825
S315000016F030090088ADF802000020ADF80000022095
S3150000170008700020DFF81C190DF10603DFF8182910
S315000017101B5C02EB0012137003AB33F810305380DE
S3150000172002AB33F81030938001AB1B5C93710DF163
S3150000173002031B5C01EBC30393601DF800301373B7
S31500001740401C012302285373DEDB04B07047DFF828
S31500001750C80800787047DFF8D01801EB0010407B0E
S3150000176000F001007047412818BF422803D04328E3
S3150000177018BF442801D10120704700207047412836
S3150000178018BF422801D10120704700207047432826
S3150000179018BF442801D10120704700207047F8B5D2
S315000017A01546069A04461E4600F03BFA60B104212F
S315000017B000F0CBFB070007D0204600F0EFFF3246D3
S315000017C029462046B84790E0F1BD2DE9F04383B0A5
S315000017D00446160098461EBF0A9F002F5FEA0800BF
S315000017E00D461DD038787188000730794CBF4022ED
S315000017F0802200F016FA98B1082100F0A6FB814677
S3150000180070B1307900F0CAFF0B98019000974346FB
S31500001810324629462046C847BDE8F74300F0C7BF11
S31500001820BDE8F783F8B5164605461A4600F0F9F9FD
S31500001830D8B1069C21000BD1022100F086FB0400E2
S3150000184013D0284600F0AAFF31462846A0470BE0F1
S31500001850102100F07AFB070007D0284600F09EFF13
S31500001860224631462846B8473FE0F1BDF8B5154651
S3150000187004461A4600F0D5F908B98620F2BD069945
S31500001880002689B9202100F060FB07000CD0204615
S3150000189000F084FF0998089B079A00902946204685
S315000018A0B847064600F083FF3046F2BDF8B5044659
S315000018B0A568207800F072FF002612E02868F6B2CC
S315000018C0142111FB06F1471820783988FFF79FFC91
S315000018D00121384600F039FB01001CBF20788847FB
S315000018E0761C2979F0B28842E8D3BDE8F14000F0D1
S315000018F05EBF70B50024DFF83057DFF81C6708E0DC
S31500001900FFF729FF20B1E4B205EB0410FFF7CEFF85
S31500001910641C3178E0B28842F2D370BD10B586B04F
S3150000192000248DF80800ADF80A108DF80C30ADF8DB
S315000019300E200194009400230898ADF810000022B0
S3150000194001A902A800F057F8019806B010BD10B51D
S31500001950002301E0001D5B1C9CB28C4204D204886B
S315000019609442F7D1408810BD002010BD0288B2F520
S315000019707C4FA8BF00F00BB8DFF8B006081A0C21A0
S3150000198090FBF1F082B20021DFF8A406DFE7DFF872
S31500001990A416401A142190FBF1F082B20021DFF860
S315000019A09806D4E710B50C460188638899420DD194
S315000019B0027B23791A4209D0B1F57C4F04DBFFF78D
S315000019C0E6FF2189884201D1012010BD002010BD0B
S315000019D010B514460A88E3889A420AD10288B2F5FD
S315000019E07C4F04DAFFF7C2FF2189884201D101202A
S315000019F010BD002010BD2DE9F74F04469B4600257B
S31500001A00002603E0C0884519ADB2761CDFF808163B
S31500001A100978F0B2884280F0D080F6B23101DFF862
S31500001A200806DFF804260844515C22788068914253
S31500001A30E8D100903046FFF78EFE0028E5D04FF043
S31500001A40000A05E0B8F80A004519ADB20AF1010A24
S31500001A50009909795FFA8AF08842D6D200985FFA2F
S31500001A608AFA0068142111FB0AF100EB01082146ED
S31500001A704046FFF797FF0028E4D04FF0000908E042
S31500001A8038793021084202D1F8782D18ADB209F123
S31500001A900109B8F808101FFA89F08842D6D2D8F89A
S31500001AA004001FFA89F90C2101FB09F147182246A7
S31500001AB039464046FFF78CFF0028E1D0019800B177
S31500001AC007603879800611D5DFF86005002106E049
S31500001AD00279920602D5C278891889B20C30B842CA
S31500001AE0F6D3DFF8580500EB010A03E0DFF85005EE
S31500001AF000EB050A0C9D280018D0029E00F060F845
S31500001B0002463B8861882078DFF83895FFF77DFB31
S31500001B10E8B13879C0061CD500F052F803460298A1
S31500001B2000903A4661882078C84747E00298002826
S31500001B3044D05646824600F043F802463B88618808
S31500001B402078DFF80495FFF75EFB0028E1D17E20C0
S31500001B5034E097F80280BBF1000F0CBFFC785C46BE
S31500001B604046FFF70CFE30B1621ED2B231465046F7
S31500001B70FFF71DFA1FE04046FFF709FE30B1A21E2F
S31500001B8092B231465046FFF72AFA14E03DB9BBF14E
S31500001B90000F04D0F878834538BF89200ED3002E75
S31500001BA0224604D10021504600F0C7FD03E031462D
S31500001BB0504600F07FFD002000E08620BDE8FE8F45
S31500001BC039464046D2E660B5002503E01E7B360660
S31500001BD016D46D1C0679EBB2B34213D20368EDB28C
S31500001BE0142616FB05F633441E888E42F1D11600E4
S31500001BF006D0802AEAD0402AEBD11E7B7606E8D5AD
S31500001C00184660BD002060BD80B5002201E080B5A9
S31500001C10402200F006F800B1012002BD80B5802206
S31500001C20F7E738B50C46154600F095F8FF2801D1C0
S31500001C30002032BD04E038B50C46154600F08DF89C
S31500001C40DFF8E43303EB00102A4680682146BDE83E
S31500001C503840B8E74022FFE72DE9F047804689463D
S31500001C609246FFF7DEFF002508B9FF2019E000269F
S31500001C70DFF8B473DFF8A04300E0761C2178F0B2F9
S31500001C8088420DD2F6B23001385C404508D0524643
S31500001C904946FFF7D0FF0028EFD06D1CEDB2ECE708
S31500001CA02846BDE8F08730B50022DFF87C3300E037
S31500001CB0521CDFF864532D78D4B2AC420CD2D2B2A7
S31500001CC014011D5D8542F3D10D0003D01C44647BD5
S31500001CD0E407EDD5104630BDFF2030BD80B50021AC
S31500001CE0FFF7E1FFFF2801D1002002BDBDE8024059
S31500001CF031E570B50E4604460021FFF7D4FFFF28F4
S31500001D0001D1002070BDDFF8201301EB0015320071
S31500001D10687B00F0010114BF40F001000020B142D1
S31500001D20687316D086B12846FFF7C0FD11E000683B
S31500001D30F6B2142111FB06F10844761C017BCA0990
S31500001D400188204600F0F0FDA8680279F1B29142C0
S31500001D50EDD3012070BD0121A5E70021A3E7DFF83F
S31500001D60C8120001085C704738B50C46FFF7F3FF50
S31500001D7001460020FF291FBFDFF8AC2202EB01114C
S31500001D808968002916D0002203E01B0648BF2846B2
S31500001D90521C0D79D3B2AB420BD20B68D2B21425CA
S31500001DA015FB02F52B44451C1B7B002CEDD05B0676
S31500001DB0ECE7C0B232BDF8B50C461546FFF7CBFFCF
S31500001DC001460022FF291DD0002301E0521C5B1CA6
S31500001DD0954800EB0110DEB280680779BE4211D249
S31500001DE00068DBB2142616FB03F630442F00067B90
S31500001DF002D0760602D4EAE73606E8D5D6B2A6427F
S31500001E00E4D1F2BD0020F2BD002109E010B5044680
S31500001E10012100F005F82046BDE8104005F0EEBBB4
S31500001E202DE9F34F87B005F012FB069000247A489F
S31500001E30DFF8F481007805909DF81C00019000E021
S31500001E40641C0599E4B28C427BDA0199FF2907D01C
S31500001E509DF81C00FFF77FFF0446FF2C06D170E0BB
S31500001E6008EB04100699007B8842E9D14FF0000A7E
S31500001E704FEA041901E00AF1010A08EB09005FFACA
S31500001E808AF180680279914257D200685FFA8AFA2D
S31500001E90142111FB0AF145182889B0F5967FC8BFB1
S31500001EA007F095FA002613E00120009000235A4619
S31500001EB0002102A8FFF79FFD9DF8200038B1BDF86C
S31500001EC00A2018F809103B46584600F03DF8761CE3
S31500001ED02989B0B28842CED26868B6B20C21714365
S31500001EE047183879C006F2D418F809008DF80800AA
S31500001EF039462888ADF80A00387940064CBF80205C
S31500001F0040208DF80C003888ADF80E002846FFF703
S31500001F102DFDADF810003979F878490706D5D7F8C0
S31500001F2008B00328C0DBDBF800B0BDE70328B4BF68
S31500001F3007F1080BD7F808B0B6E70198FF283FF479
S31500001F407FAF09B0BDE8F08F704730B5047B012242
S31500001F5000230C4205D1002030BD144218BF5B1C83
S31500001F605200D5B28D42F8D30069DBB250F8230097
S31500001F7030BD2DE9F04F0C4601210028607D4FF061
S31500001F80000C08D0050008BF4FF0020E09D001284A
S31500001F9005D18E4605E010B94FF0080E01E04FF06E
S31500001FA0040E09980A9DDDF82C90DDF830A0E04675
S31500001FB0264F07EB8806378897421FD1F77817EA2E
S31500001FC00E0F1BD0B7784F4518D396F803B0E77BB2
S31500001FD05FEACB6B01D50FB910E07FB9E24501D0BE
S31500001FE0844501DB00210EE0B77803F80C700CF194
S31500001FF001062F887F1C2F801FFA86FC08F1010836
S31500002000B8F13C0FD4DB0846BDE8F08F52EF05006F
S31500002010BC500500C05005006CEC032054EF0500D1
S3150000202056EF05003454050084D503206852050098
S31500002030485405009453050044540500D8D50320A0
S31500002040A4D503202D1200002912000078510500A6
S315000020502DE9F04786B00F9F109D0E9C02950197C3
S3150000206006468A46904699460094FFF7CAF818B184
S31500002070022803D002D310E001200EE00CBF01209D
S3150000208000200021049103900295019700944B468D
S3150000209042465146304600F0EAF906B0BDE8F08700
S315000020A010B586B00024049401240394099C02947C
S315000020B0089C01940024009415E010B586B000F049
S315000020C008F880230FE010B586B000F002F8402330
S315000020D009E0002404940193012403940023089C3E
S315000020E000930294704700F0C2F906B010BD10B517
S315000020F086B001240494002403940A9C0294099C4B
S315000021000194089C0094EEE71FB5089C0394079C75
S315000021100294069C0194002400940CE01FB500F084
S3150000212002F8402307E00024019303940023069C51
S3150000213000930294704700F064FA04B010BD2DE9D4
S31500002140FE4F92461D46064688462A46FFF769FD1B
S31500002150002407000C988DF80060A346D946ADF818
S3150000216002808DF80450ADF806A0ADF8080047D0FF
S3150000217069463846FFF716FC002841D0DDF838805E
S31500002180002505E0FFF7BFF8641C09F101096D1C85
S315000021903989A8B288422BD27868ADB20C2169433E
S315000021A046183888B0F57C4F09DA3088ADF8060055
S315000021B06A4631463846FFF70BFC0028E7D03088E0
S315000021C0504538BF0BF1010BDFD39DF83420A1B287
S315000021D09142DAD2FFF7A6F8B078FFF794F85FEAF3
S315000021E00800D1D03079C0074CBF07200520C9E7C9
S315000021F01FFA8BF111FA84F01FFA89F1884201D196
S31500002200012000E00020BDE8FE8F2DE9F04F8DB0E3
S315000022100025DFF83C8400E06D1CFFF798FAE9B270
S31500002220814280F0AD80EDB24FEA0519DFF8241443
S3150000223018F8092000F0D5F9DFF81C1400F0CEF9E3
S315000022404FF0000A01E00AF1010A08EB09005FFA03
S315000022508AF1806802799142DED200685FFA8AFAD2
S31500002260142111FB0AF14418002617E0FA7801231D
S3150000227092B204A9042004F0D1FA2088FEF7FCFBF0
S315000022804FF6FF71884208D0DFF8D01301EBC0008B
S31500002290DFF8CC13426800F0A4F9761C2189B0B2AD
S315000022A08842D0D26068B6B20C217143471807F055
S315000022B08EF83879DFF8AC134006388800904CBFAA
S315000022C0DFF8A433DFF8A4332288042004F0ACF945
S315000022D039462046FFF74AFB834628B9DFF89013B4
S315000022E0042004F0A1F904E05A465CA1042004F09D
S315000022F09BF93879810748BFDFF8781305D4C10602
S315000023004CBFDFF87413DFF87413C00754BF54A032
S3150000231054A001910090FB78BA78DFF8641304208A
S3150000232004F082F93879CDF800B040064CBF80231E
S315000023304023002003902120029004A801903A88AF
S31500002340218818F8090000F05CF9862804D1DFF826
S31500002350341300F043F9A0E7B878FFF710FA20B17C
S3150000236004A8FFF763F8421C81E7B878FFF70FFA75
S3150000237000283FF47BAF04A8FFF75DF8821C76E7E0
S315000023800DB0BDE8F08F2DE9F0438FB08146179C64
S31500002390052C884617461E4651DB169DDFF8E812C7
S315000023A002950196009743464A4600F05DF804A858
S315000023B00390009521200290334605A801903A46E5
S315000023C04146484600F01DF905003BD19DF8100036
S315000023D0412818BF422804D105A8FFF727F8451C55
S315000023E00BE0432818BF442804D105A8FFF723F8BB
S315000023F0851C02E007F00CF80546EDB2281D844264
S315000024001DDB3846FEF78EFF0020FEF77CFF9DF8A9
S3150000241010009E4CFEF777FF20882918522908DA0B
S315000024209B4B2A4605A9184400F044F92088281831
S31500002430208000953B464246964900F015F80FB0BD
S31500002440BDE8F0833846FEF76DFF2846FEF75BFFD2
S3150000245000953B4642469049EFE70000253278005A
S31500002460524F000052570000042004F0D7B82DE95F
S31500002470F04F89B081460020049000900E46129CD1
S31500002480174698468DF81490ADF816608DF81880AA
S31500002490ADF81A70ADF81C400023002204A905A867
S315000024A0FFF7A9FA04987D4A38B9019700964B467A
S315000024B07B49FFF7D9FF86208DE0159898B90499D6
S315000024C09DF850008978884204D0764900F089F852
S315000024D08D2080E004980079C00704D4724900F08A
S315000024E080F8882077E004980079139D400726D568
S315000024F0049880684068029004988068806801901B
S3150000250004988078FEF724FE82460498C0788DF8F9
S31500002510000003285346024629462ADA02A8FEF797
S315000025207DFD83469DF800205346294601A8FEF707
S3150000253075FDBBF1010F18BF10F1010F28D01698D9
S31500002540002844D100F050F8FEF7AEFE010042D15B
S3150000255000F04AF8FFF78AF901003CD1012000900B
S3150000256000232A46002105A8FFF745FA010011D0ED
S3150000257031E00298FEF752FD012809D09DF80020AF
S31500002580019853462946FEF749FD10F1010FD6D1B1
S31500002590872020E0049B324649462846FFF7D4FCB4
S315000025A00295009443469DF8500001903A46314604
S315000025B0484601F038FE00F017F8FEF774FE009466
S315000025C043463A4631464846FFF72CF902E037497A
S315000025D000F004F8002009B0BDE8F08F042004F0F4
S315000025E01DB8042004F01AB8039543460498C07831
S315000025F0029000943A469DF85000019031464846B4
S31500002600704710B586B000248DF808008DF80C30A0
S31500002610ADF80E20ADF80A100194009401A90898AF
S315000026200A9B099AADF8100002A8FFF7E4F9040026
S3150000263005D10B9840B101998978017004E0892C85
S3150000264002D11B49FFF7CAFF204606B010BD0000A5
S3150000265084D503205454050060540500F8DE0500B7
S315000026604C540500A0540500B4540500BC540500A4
S31500002670C4540500E4540500EC540500F454050068
S31500002680CC540500FC5405000855050002EC032057
S31500002690CCD60320605505003C550500B455050011
S315000026A08C550500C0550500D4550500E8550500B4
S315000026B008560500814233D210441144401E491E7B
S315000026C010E011F8013900F80139121F11F801392B
S315000026D000F8013911F8013900F8013911F801390A
S315000026E000F8013992B2042AEBDA93B2002B1EBF2E
S315000026F011F8013900F80139521EF6D1704711F868
S31500002700013B00F8013B121F11F8013B00F8013BA9
S3150000271011F8013B00F8013B11F8013B00F8013BC1
S3150000272092B2042AEBDA93B2002B1EBF11F8013BDA
S3150000273000F8013B521EF6D17047130003D00A463B
S31500002740194606F075BE704710B500E0521E93B2EA
S3150000275023B100F012F8F9D0181B10BD002010BDEF
S3150000276010B500E0521E93B22BB100F006F8F9D076
S31500002770181B40B210BD002010BD10F8013B11F827
S31500002780014BA342704770470C490D480860002072
S31500002790704700B1702070470020704780B500F088
S315000027A013F8FF2801D1A32002BD002002BD00209E
S315000027B07047704700BF03480078704720D7032052
S315000027C058EF050084D5032080B5FFF7C4FAFF282B
S315000027D018BF002002BD00210170704700F05EB8EE
S315000027E070B5044616460D463046FFF7D7FF002063
S315000027F020703046A847BDE87040FFF7D8BF0122D9
S315000028003E493F48ECE701223E493F48E8E70122BE
S315000028103E493F48E4E7F2223C493E48E0E780B5BE
S31500002820012006F04AFF3C4806F0DFFE3B490870EF
S3150000283001BD80B506F052FF012805D03748007863
S31500002840BDE8024006F0B9BE01BD30B5002400E087
S31500002850641C334D2D88E3B2AB420FD2E4B20C2593
S31500002860304B15FB04F52B441D78854201BF5D886E
S315000028708D421D799542EBD1184630BD002030BD02
S3150000288080B519B906F018FE002002BDB1F1004F5F
S3150000289002D206F01BFEF7E7022002BDB1F5000FDB
S315000028A03CBF0902FFF7ECBF0220704770B5044633
S315000028B01D46FFF7CAFF06000ED02046FFF70EFAA8
S315000028C050B1B0682946FFF7DBFF28B9049870714C
S315000028D00598B071002070BD022070BD1CB5009334
S315000028E01346049C01940022FFF7E0FF16BD80B555
S315000028F000230093FFF7F2FF02BD0000D37602002B
S3150000290014D503207F7A02001CD503201D7802000F
S3150000291024D503202CD50320A84C05006AEC0320FF
S315000029206C630320685F032080B5FFF78EFF20B13C
S31500002930806800210170002002BD022002BD002235
S31500002940F2E70268531C03601170704710B51E4C05
S31500002950204607F0F9FC052020721C48E06041F68D
S315000029605C302082204610BDE0B502A8019048F2F6
S3150000297008030020009000221021154807F050FEA1
S315000029809DF80810481E8041C00F0EBD704710B557
S3150000299084B002A801900020009048F208130C4C65
S315000029A000221021204607F03BFE9DF8080048B99A
S315000029B00848006807F08CF902AB00222021204667
S315000029C007F01EFF1FBD0000CC5E03208CAD032068
S315000029D05CD40320E8C8032010B5282401284F4AF8
S315000029E005D1F0242102104606F070FD0DE0022804
S315000029F0506808BF02240028F4D0FA2111FB04F124
S31500002A008842EFD2840808BF0124204610BD00BFCB
S31500002A100020E1E708F05CB8404800210170416001
S31500002A2001203F4903F0FABD01001CBF012802281E
S31500002A300BD1662B09D13B480178491C0170C9B2FC
S31500002A4000291CBF0020FFF7C7BF704708F0DAB89F
S31500002A507CB53549354E364D002008704FF6FD746D
S31500002A6030490870307878B14FF6FC70009000233A
S31500002A7028880022002108F032FB002030702C80CC
S31500002A800120FFF7A9FF73BD2A480078012808D066
S31500002A9001A806F0EFFB002804BF9DF804000128FA
S31500002AA0EED100214FF6F87008F069FF0028E7D153
S31500002AB0FEF7CDFB2888A042E2D00120307002202C
S31500002AC0DFE7A92818BFAA2811D117480278521C97
S31500002AD00270D2B2032A0ADB154802884FF6FD734C
S31500002AE09A4203D1018000201049087090E7704790
S31500002AF080B591280AD102F094F868B90E490120F0
S31500002B0003F08CFDBDE8014007F05ABF902803D1C1
S31500002B10BDE8024001205FE701BD000084AD03204F
S31500002B20E84005005DEC03205CEC03205EEC03202E
S31500002B306A630320B16303201041050080B500F0ED
S31500002B4095F8BDE8014096E0FEB5044603F024FC86
S31500002B500646204603F02EFC00229DF80010064291
S31500002B6003D186F00103184301D10198027820466B
S31500002B704FF6FF7506B321281EDA4223022A424E7B
S31500002B8009DA5A43324432F81030AB4214D05B1C97
S31500002B9022F8103010E00FD1002206EB400703FBAD
S31500002BA002FC37F80CE0AE451CBF0EF1010E27F80B
S31500002BB00CE0521C022AF2DB344F354B37F810205A
S31500002BC033F810C09445B641F643F60FAC451CBF2A
S31500002BD00CF1010C23F810C00928B7F814C018BF6F
S31500002BE00B2807D19F8A01EB070EE64510DAC919B3
S31500002BF099820FE01D280DD1B3F83AE07F8F8E44FD
S31500002C00BE4505DA33F81070C91923F8101001E033
S31500002C10A3F814C033F81000904203D316B9204627
S31500002C20FEF716FB00261B48815DA14204D0761CE8
S31500002C30F6B2112EF8DBF7BD112E16DA04F009FCF8
S31500002C40044615480078844203DBCE2113480AF077
S31500002C5043F82221124811FB04F1084430F81610FB
S31500002C60A9421CBF491C20F81610F7BD50220021AE
S31500002C700748FFF762BD5022FF210448FFF75DBDFC
S31500002C80024A22F81010704700AD03208CAC0320D6
S31500002C903CAC0320043F0500C1630320F43E05005D
S31500002CA0DCAC032015E02F480078704710B52E4C99
S31500002CB0207860B900F00DF80AF023F9012121709F
S31500002CC028B10188B1F5817F24BF007D207020786E
S31500002CD010BD10B5234C207840BB0AF0F3F802462D
S31500002CE02249012003F09AFC01202070204C207814
S31500002CF0FF281BD10AF005F9B8B140880006400E3E
S31500002D0000F0010020701022FF211A48FFF715FD80
S31500002D10207801280AD1FFF7C9FF032806DBBDE8A2
S31500002D201040B621144809F0D7BF207010BD80B5F9
S31500002D30FFF7CFFFBDE801400AF0E3B870B50446DF
S31500002D400D461646FFF7C5FF324629462046BDE822
S31500002D5070400AF008B980B5FFF7BBFFBDE8014037
S31500002D600AF010B955EC032056EC0320E8370500AD
S31500002D70AE630320C0AB0320DC3705001CB5DFF8CB
S31500002D80984C0A2200212046FFF7D7FC602200213A
S31500002D90DFF8880CFFF7D1FCA020608001AB05208E
S31500002DA08DF804001022202000902121F220FFF748
S31500002DB084F913BD10B504460800217201D12260C2
S31500002DC010BD022905D10822194600F04FFA0298D3
S31500002DD0607210BDDFF8401C002008700AF01DB9B3
S31500002DE010B5DFF8344C207AC00788B00BD5002028
S31500002DF004908DF818000AF09AFF0020207200F067
S31500002E0061F90AF023FCDFF8301C0020087008B0D6
S31500002E1010BD80B5FFF7DEFFDFF8201C002008702C
S31500002E2001BD2DE9F04700F00109C0F342070C4649
S31500002E300109400900F0010ADFF8F80B0068006894
S31500002E404079F228154601F0010827D1DFF8C86B52
S31500002E50307820B10BF080FAF18888421ED1B9F1A2
S31500002E60000F19D00BF078FAF08001203070A02006
S31500002E7070807770F90786F805A046BF4FF47A711F
S31500002E806143DFF8BC1BDFF8B40B06F01FFBB8F19B
S31500002E90000F03D0357101E0FFF79CFF0120BDE86C
S31500002EA0F087002070472DE9F04F0446600A00F0D5
S31500002EB00308E00ADFF87C9B00F0070BD9F8000056
S31500002EC08FB0007900250428C4F3411A08BF0125F4
S31500002ED002B909AA189E06B909AE1D9F07B909AF1E
S31500002EE0009306A813460A4604F00701FFF762FF9F
S31500002EF0DFF8501B012003F097FBD9F800000068AB
S31500002F004079F2284DD1B8F1010F4AD09DF8200042
S31500002F10010018D0022844D10022082106A803F097
S31500002F20E5FA00283DD104F01800182839D0ABF195
S31500002F300500022835D35FEA0A000DD1E0060BD45E
S31500002F407DBB85202BE0069858B310F1070FEAD316
S31500002F5010F1010F25D1E6E71F98059052461C98FF
S31500002F6004900397029606A91E98199B01901A9839
S31500002F70009020460BF067FD38B1DFF89C1A4978BF
S31500002F80890702D5FFF726FF0BE0210709D540B9CF
S31500002F900BF098FAFF2808BF002D02D18920FDF713
S31500002FA06CFF01200FB0BDE8F08FF0B50E46DFF8DC
S31500002FB0841A09688BB009684979F229174615D130
S31500002FC0129C1099119A139DF02C46D0F32C5AD1CD
S31500002FD00020002B8DF82400079039D10BF030FF2C
S31500002FE0864237D1DFF8504A2078002867D105F0AD
S31500002FF099FF0B3840F010008DF81000F3230020E5
S315000030000390029007AA04A80190002101200090D5
S315000030100AF01CFBDFF8005A0120287205F082FF37
S3150000302007F10B0188420AD0012000FA01F10022C3
S3150000303003200AF0D4FD287A40F0FD0002E0287A49
S3150000304040F00200287241F28831204606F03EFA2E
S31500003050012035E0FFF7C4FE31E010F003008DF8E3
S31500003060180008BF049301D000F034F80BF0E8FE16
S31500003070864204D1002003900290F02316E000203F
S3150000308000F020F819E0F72C03DAA4F1B006102EB0
S3150000309015D210F003008DF8180008BF049301D074
S315000030A000F018F80020039002902346681C019057
S315000030B02878009004AA002101200AF0C7FA00200F
S315000030C00BB0F0BD0390029001900090002304AA7B
S315000030D00021704702208DF818008DF8192004A8E9
S315000030E00822FFF7E7BA002070472DE9F84F80461F
S315000030F008F104068946326892B200214846FDF777
S3150000310048FF307B010009F1020404D1726800F027
S31500003110A1F8241D07E0022805D1082208F10801BC
S3150000312000F0A4F80834307B022804BF707B04F852
S31500003130010B3068800403D5328A00F09AF8A41C8B
S315000031403068410410D5B07C04F8010B0021726987
S3150000315000F081F8251D102208F11C012846FFF712
S31500003160A9FA05F1100405E0800603D5726900F09E
S3150000317071F8241D307840064FF00C0A18D500254A
S31500003180274604F8015B00F069F803280DD10822F0
S315000031900BF1020100F06AF80834BBF80A2000F0CF
S315000031A068F83878401CA41C38706D1C022DEADBC8
S315000031B03068C00517D50025274604F8015B00F0E6
S315000031C04DF802280CD1BBF8022000F052F8A41CDE
S315000031D0BBF8042000F04DF83878401CA41C387069
S315000031E06D1C022DEBDB08F14400017804F8011B8D
S315000031F0317801F0180118291CBF407804F8010B3A
S315000032003068010403D5020C00F033F8A41C3068C2
S31500003210C0031AD50026254604F8016B1AFB06F0F2
S31500003220404400F12C07387803280BD10822B91C3A
S3150000323000F01CF808347A8900F01BF828780A3068
S31500003240A41C2870761C022EE8DBA4EB090080B2D1
S31500003250BDE8F28F00212046FDF7A0BE1AFB05F05F
S31500003260404400F12C0B9BF8000070472046FFF706
S3150000327021BA00212046FDF78CBE2DE9FE4FC0F392
S31500003280C10AA8B000F00701DFF8A80700688DF8AA
S31500003290041000260179002700294AD100684079E8
S315000032A0F2285ED100F091F800285AD19DF854001A
S315000032B0FF2818BF761C7F1CFFB2052FF2DB349C5B
S315000032C0DFF83859DFF83889DFF83899BAF1000F96
S315000032D0F6B22CD19DF8A800299B289A9DF80410D7
S315000032E0009006A8FFF766FD06A80BF0C9F807468A
S315000032F0FF2F21D000200590049001960120039015
S315000033004B46FF2002900B22002000902121012035
S31500003310FEF756F900F059F818BB288808EB0001AB
S3150000332015A8FFF7E2FE29884018288047E0BAF181
S31500003330010F46D1B44204D3002000F04AF88B2096
S315000033403BE00020059004900294FF200390019634
S31500003350002000F044F80026B246002700F035F8B9
S3150000336008B100202EE09DF85400FF2817D0761CE7
S31500003370F1B28C4213D2694615A8FFF7B6FE834612
S31500003380288800EB0B0152290DD25A466946404463
S31500003390FFF790F92888584428800AF1010A7F1C13
S315000033A0FFB2052FDADB88F806A0FDF75FFD74286B
S315000033B007D10020F6B200F00CF800F010F8FDF787
S315000033C055FD01202BB0BDE8F08F15A938460BF04E
S315000033D001B80590049003900294019670470090FE
S315000033E04B460B2221210120FEF7EAB82DE9F04FCA
S315000033F004460020F22C08BF2129A7B04FF000098F
S315000034004CD1112A02BF802B3099002946D1319C1C
S31500003410062C43DB1120FDF785FFDFF8E067DFF8B8
S31500003420E0A73088071DBFB2B84600256946284682
S315000034300AF0D0FF08B1002030E09DF80000FF2818
S3150000344013D012A96846FFF750FE834607EB0B0020
S31500003450844202DA4FF089090BE05A4612A90AEBB8
S315000034600700FFF727F95F44BFB26D1CEDB2052DCB
S31500003470DCDB5FEA0900A7EB080409D10020FDF7B1
S3150000348042FF4320FDF73FFFA0B2FDF74BFF01E0EF
S31500003490FDF739FF308820183080012027B0BDE8BD
S315000034A0F08F2DE9F041DFF8707538788AB015464F
S315000034B01E4670B196F80880B8F1000F04BF306858
S315000034C0002806D0159CE02C18BFE22C01D01398DA
S315000034D018B101200AB0BDE8F0810BF0B1FC169AD4
S315000034E0089201460691FF221999109805910792B4
S315000034F0039448EA00141899049101900095324605
S3150000350014991198029144EA8010737A316840F454
S3150000351000600BF08DFDFEF7C2F80446F220207124
S315000035206071052008F09DF8787910B100F00FF869
S315000035300AE0E08840F00200E0800C3DA5723046CB
S315000035400BF0F9FD00F007F800F018F9C1E7F9886B
S315000035500020FEF788B80146EAB24FF6FD70FEF786
S315000035608AB8400900F00600C0F103004007000ECB
S3150000357070472DE9F04F1F468BB08946397A904641
S315000035800A0004BF3A68002A69D00A0006D13A68E0
S3150000359012F1070F02D312F1010F60D1022908D1EF
S315000035A000217A5C1AB9491CC9B20829F9DB082935
S315000035B055D01699002952D1179C3A7A210018BF86
S315000035C042F0080215997E2806D142F4007001B136
S315000035D0042140EA811001E042EA8110149DDFF8DF
S315000035E038A41C9EDDF874B0290141F4006108433B
S315000035F0ADF824009AF80500A8B10BF021FC00F004
S315000036002FF800F03DF8002C14BF2020052008F00C
S3150000361028F8FEF744F800F00AF90020BAF8061078
S31500003620FEF721F819E00BF00BFC00F019F8A8F1F1
S315000036300C0500F025F8FEF732F800F0F1F92CB190
S315000036404846FFF78EFF203080B200E0052008F0E4
S3150000365008F800F07AF8FFF77EFF00F08FF870E0C8
S315000036600690CDF81C90CDF814B004960195CDF8CF
S3150000367000803A469DF864001A99039008917047B5
S31500003680189802907B7A3968BDF824000BF0D0BCFC
S3150000369010B58AB0159C0994149C0894139C079441
S315000036A0129C0694119C0594109C04940F9C039400
S315000036B00E9C02940D9C01940C9C0094FFF759FFFC
S315000036C00AB010BD2DE9F04F8BB091461698002830
S315000036D01F4636D1387ADFF84083199CDDF868A09A
S315000036E01C9DDDF874B0ADF82400189E98F805000E
S315000036F080B10BF0A5FB00F02BF8052007F0B1FF19
S31500003700FDF7CDFF00F093F80020B8F80610FDF79E
S31500003710AAFF14E00BF094FB00F01AF8FDF7BFFFC8
S3150000372000F085F8A9F10C0400F07BF8052007F0FD
S3150000373098FF00F00AF80146E2B2FFF70EFF00F02C
S315000037401DF801200BB0BDE8F08F38460BF0F3BC36
S31500003750FF21CDF820A007910690CDF814B004956E
S3150000376003940296CDF800903A469DF850000190D9
S315000037707B7A3968BDF824000BF05ABC002007F0AC
S3150000378070BF2DE9FA4FA44F89B0397800299046C9
S3150000379046D0397ACA0702D5FD22114240D1082106
S315000037A07E281598149C199DDDF868A01C9EDDF8EE
S315000037B074B008BF4FF40271800140EA041040F46F
S315000037C0006040EA0109787968B10BF039FB00F036
S315000037D032F8FDF764FF00F02AF8202007F041FFD9
S315000037E0FFF7B5FE1AE00BF02BFB00F024F8FDF70F
S315000037F056FF00F01CF8A8F10C0400F012F89DF832
S315000038002400FFF7AEFE203080B207F02AFF0A98A8
S315000038100BF091FC0146E2B2FFF79FFEFFF7AEFF09
S315000038208FE7C188847241F00201C1807047F2219E
S315000038300171417170470690FF2118980791029017
S31500003840CDF820A0CDF814B0049603950194CDF8D8
S31500003850008000230022002148460BF0E9BB2DE939
S31500003860F04F99B08A4629980146FF2993461F468C
S3150000387000F0CD80DFF890231268482359431144A5
S315000038804A6842F400724A6042F480624A6006A9BD
S315000038900AF0A0FD002840F0BA80397A4FF00C08F3
S315000038A006AA08FB00F31A4492F82C20130014BF52
S315000038B0032A41F0080103D0022A08BF41F0200183
S315000038C0401C0228ECDB9DF81C00279CDDF8949038
S315000038D00006229844BF41F0100189B241EA8012E5
S315000038E0239942EA0121E02C41F4A04518BFE12CBE
S315000038F0ADB202D14849097821B15FEA090118BF82
S3150000390045F40065269E00B95E460BF099FA0490D0
S31500003910FF212B98039005913A462A98029001942C
S3150000392000967B7A396828460BF046FB0024ABF1FB
S31500003930090506A808FB04F1084400F12C063078B6
S31500003940010018BF03280ED1FDF7A9FEFFF76FFF90
S315000039505FEA090014BF2020052007F082FE718966
S31500003960FFF7F6FD20E0022820D1FDF798FE00F0D3
S3150000397057F89DF85C10C1725FEA090005D0504601
S31500003980FFF7EFFD203080B200E0052007F069FE6A
S31500003990B1884FF6FF70814202D1FFF7D6FE01468D
S315000039A07088EAB2FDF746FEFFF7E8FE641C022CBB
S315000039B0BFDB9DF81C00000629D5FDF770FEFFF75A
S315000039C036FF80F80AB0B9F1000FC18841F0020154
S315000039D0C1809DF85C10C17205D05046FFF7C1FD4D
S315000039E0203080B200E0052007F03BFE07988004F7
S315000039F048BFBDF82C9002D4FFF7A7FE8146FFF71B
S31500003A00A4FE5A464946FDF715FEFFF7B7FE01200C
S31500003A1019B0BDE8F08F000018A8032024A80320E1
S31500003A20F221017141718572C18841F00201C180A4
S31500003A307047000058D703208CA8032084A80320D1
S31500003A4000710200101F0500012070472DE9F74F95
S31500003A5094B098469DF8940000906C48007AC00790
S31500003A6002D50098E32814D1209C200002BF6748A5
S31500003A70007800280ED140460AF002FDFF2809D042
S31500003A8001A90AF0A7FC0298400479D49DF81A000F
S31500003A90002875D19DF850000A909DF85000002826
S31500003AA01CBF0A987C2805D07F2869D15748007822
S31500003AB0002865D055480078229DDDF89090DDF805
S31500003AC098A0279E289FDDF8A4B0002851D0280092
S31500003AD003D000F06BF8FFF7E4FC9DF89400E028B3
S31500003AE026D01BD3E2280BD002D3E3280FD015E053
S31500003AF0E12000F048F800F06DF8FFF7C9FD3FE05F
S31500003B0000F041F800F066F8FFF7DCFD38E000F061
S31500003B103AF800F05FF8FFF734FE31E00A997C29A5
S31500003B2009D1A0F1E4010C2924BFB038102823D212
S31500003B3000F03CF81AE07F291ED19DF894009DF80C
S31500003B4058209DF854100590CDF824B00897079694
S31500003B50CDF818A0CDF810900295009443469DF834
S31500003B608C0003909DF8840001907E20FFF701FDF4
S31500003B7006E00098E22803D000F018F8FFF76FFE81
S31500003B8017B0BDE8F08F0590CDF824B008970796DA
S31500003B90CDF818A0CDF810900295009443469DF8F4
S31500003BA08C009DF858209DF8541070479DF894009D
S31500003BB09DF858209DF854100590CDF824B008972C
S31500003BC00796CDF818A0CDF81090029500944346BC
S31500003BD09DF88C0003909DF8840001909DF850009C
S31500003BE0704700B1704710B5084C207AC00703D55E
S31500003BF00AF09DF80020207210BD000002EC0320A0
S31500003C00CCD60320281F05004860032018A80320EF
S31500003C1038B50BF0A8FA0BF0AEFA78B1FDF71EFB3B
S31500003C2060B1094C207805F002FD0546207805F0C4
S31500003C303DFD3DB1BDE83140FDF70FBBBDE831406C
S31500003C400BF0ECBA31BD00006AEC032070478268C5
S31500003C50521C8260426832B10268531C03601170C4
S31500003C604168491E4160704700B5A1B080787D2249
S31500003C70694605F04DFA01001CBF694603F0DBFDFD
S31500003C8021B000BD38B50A46014610460BF0C3FB0D
S31500003C900446FF2C01D1182032BD0CF0D9FA054696
S31500003CA020460BF035FB284632BD80B503F0C6FC36
S31500003CB0BDE80240012010B5040014BF08480020EA
S31500003CC00CF0C7FB50B1002CBDE8104014BF054AEC
S31500003CD0054A03460549022002F0A0BC10BD0000BB
S31500003CE0C81B0500B01B0500BC1B0500841B050096
S31500003CF010B582B0059C1CB1049C009404F0BAF87F
S31500003D0013BD10B502460C462046BDE810401423EC
S31500003D1020210CF02EBD0A460146142320200CF06B
S31500003D206ABD902808BF0CF099BD704730B585B0C4
S31500003D300024DFF82C586946E0B2FFF7E2FF9DF851
S31500003D40010038B19DF8000020B9182161432944CB
S31500003D5001200874641C062CEDDB00F003FB05B0A3
S31500003D6030BD2DE9F04F002497B0A246A046A146EB
S31500003D70002705A9F8B2FFF7C4FF0CF0BCFD182216
S31500003D80DFF8DC177A438D182968411A9DF815006B
S31500003D9002000FD09DF81420002A25D1BDF820205E
S31500003DA04FF47A735A4391420AD32A7C52B9BDF82A
S31500003DB02220130000F0A5804FF47A735A439142F3
S31500003DC0C0F09F8004A90391212102910EA90191BF
S31500003DD0BDF81C109DF81A30BDF818200091BDF8EA
S31500003DE01610FEF70EFC002840F08B809DF81000A0
S31500003DF0FDF7B9FC20B10EA8FDF718FB401C03E047
S31500003E009DF8100005F004FB5FFA80FB0BF103023E
S31500003E10DCB120799DF815306188834204BFBDF876
S31500003E2016308B420FD19DF81A30DB09434504BF8B
S31500003E30BDF81C30534506D1DFF828371B88D2B2AF
S31500003E40D218914540DA00F06AF8FDF728FC0446DE
S31500003E509DF81A00BDF81C208BA100915FEAD018CE
S31500003E6014BF00200820BDF816100A23FDF79EFB9C
S31500003E709DF8150020714FF0FF094FF48250E08045
S31500003E800026BDF81CA00AA9304604F0E6FD00286D
S31500003E9002BF9DF829009DF81510884202BFBDF8A3
S31500003EA02A00BDF8161088420BD19DF835109DF8F2
S31500003EB028002246FDF740F84A468146914588BFCC
S31500003EC09146761C032EDEDBBDF81800FDF72AFAB4
S31500003ED09DF81000FDF717FA59460EA8FDF753FA9C
S31500003EE0002028740CF007FDBBF1090F286008D2EA
S31500003EF00020C5E902005A460EA905F10800FEF7A2
S31500003F00D9FB7F1C062FFFF634AF1CB161882079E0
S31500003F1000F005F800F026FA17B0BDE8F08F10B5EE
S31500003F200C46FCF7E9FC08B9032C0BD1DFF8380680
S31500003F30FDF763FBB42808BFFDF769FBBDE8104039
S31500003F40FDF77ABB10BD2DE9F04F044687B0607DC2
S31500003F50267D0027002807BF082040210020802159
S31500003F608DF80410072348A100912168228A498808
S31500003F70FDF71CFBA289B6B2F01C90427ADAA06863
S31500003F80815D8DF80610761CB1B2FDF72AFA8046DF
S31500003F909DF80600B61C10B101285ED068E0A06846
S31500003FA0B6B20025815D8DF80510761CA289B1B2E6
S31500003FB0FDF717FA8146B61C00F068F882469DF8B0
S31500003FC00500FDF77CF8B61C60B99DF8050005F004
S31500003FD01FFA8346A289A0685B46B1B2FDF7E9F9EC
S31500003FE005465E442068218A9DF8043000914246C9
S31500003FF041884079FDF792FC00281FBF80789DF824
S31500004000051088428D251AD1206840798DF809005F
S3150000401020684088ADF80A00ADF80C809DF80400D1
S315000040208DF80E00208AADF81000ADF81490ADF8AA
S3150000403016A0069502A800F0F1F905009AD02846C8
S31500004040FDF761F99DF80600FDF75DF94046FDF7BD
S3150000405069F90127852D8DD110E000F017F8034688
S315000040609DF804204146204600F082FAB61CE4E79B
S315000040708525E4E717B90020FDF745F9FCF7F6FEBC
S31500004080012007B0BDE8F08F00000000A289A068FB
S31500004090B1B2FDF7A6B92DE9F047044686B0267DF4
S315000040A0607D8AA10028009107BF08204FF04008D4
S315000040B000204FF080082168228A49880923FDF7ED
S315000040C075FA13E02068218A0091434641884079B9
S315000040D04A46FDF723FC07001FD18620FDF713F99A
S315000040E00020FDF710F94846FDF71CF9A289B6B283
S315000040F0F01C82427BDBA068855D761CB1B200278E
S31500004100FDF76FF9B61C002D8146DBD0012D04D0DA
S315000041108520FDF7F8F82846E3E74FF0000A01A9E5
S315000041205046FFF7EEFD9DF80400A84201BF206847
S315000041309DF80510427991424DD1BDF8061042888E
S31500004140914204BFBDF80810494544D19DF80A10B4
S31500004150414502BFBDF80C10228A91423BD19DF821
S31500004160041049B1BDF81010E288914202BF9DF8D3
S315000041701210007981422ED10020FDF7C4F828469E
S31500004180FDF7C1F84846FDF7CDF815B1012D2BD046
S31500004190ACE7002FAAD0B878FDF7B5F8BDF8100047
S315000041A0FDF7C0F8BDF81200FDF7BCF8B878FCF7CB
S315000041B086FF00289AD1B87805F02AF9059D814630
S315000041C05FFA89F0002891D0E8B2FDF79CF82D0A35
S315000041D0A9F10109F4E70AF101005FFA80FABAF1E0
S315000041E0060F9CDB8B2094E7BDF814007CE7FCF7F8
S315000041F03DFE0120F7E010B50024204600F0F6F859
S31500004200641C062CF9DBDFF864130020087010BD6F
S315000042100146B120062900DB704780B5084600F04C
S31500004220F7F8002002BD2DE9F04387B081460E9CC9
S315000042300E4617469846002501A92846FFF761FD58
S315000042409DF80400002804BF9DF80500484536D1B6
S31500004250BDF80600B04204BFBDF80800B8422ED132
S315000042609DF80A00404504BFBDF80C00A04226D1C7
S315000042700F9F384605F0CCF81822B949009012FB7A
S3150000428005F28E18D6E902231098FCF754FB044673
S315000042900D463846FCF713FF012804D1002295424B
S315000042A008BF944206D168B9002105988D4201D80D
S315000042B0844207D30120307400F054F802E000F085
S315000042C04DF8B9DB07B0BDE8F08300000000000040
S315000042D010B542784B789A4202BF42884B889A4280
S315000042E01AD182888B889A4202BF82798B799A4248
S315000042F012D102890B899A4202BF02780C78A24237
S315000043000AD13AB182898B899A4202BF807B897B26
S31500004310884201D1012010BD002010BD30B585B006
S315000043200446002500F0A5F921466846FFF7D0FFB0
S3150000433040B900F013F8F5DB002500F09AF99DF876
S31500004340010028B921462846FFF7E5FC284603E088
S3150000435000F004F8F1DBFF2005B030BD6D1CEDB2B6
S31500004360062D70472DE9F0474FF0FF3A86B0D1464B
S3150000437000267B4F4FF47A7869463046FFF7C1FC3A
S315000043809DF8010010B39DF80000F8B9BDF80C00C7
S3150000439008FB00F4BDF80E0008FB00F50CF0ABFAC4
S315000043A0182111FB06F17A583944801A097C5246C5
S315000043B019B1844204D3221A05E025B1854201D2FF
S315000043C0002200E02A1A4A4598BF9146761C062E1E
S315000043D0D2DB19F1010F654803D04946FEF750FAC2
S315000043E001E00021017006B0BDE8F08710B586B087
S315000043F004466946FFF785FC00208DF801006946F2
S315000044002046FFF788FC6846FCF72DFF06B010BD76
S3150000441080B5FFF7EBFFBDE80140A3E72DE9F041CA
S31500004420044686B020890090A379A28861886078C6
S31500004430FDF774FAFF25012708B986208CE0E0898C
S31500004440010004D0A189884238BF8720F6D3002610
S3150000445001A93046FFF755FC9DF804109DF80500AC
S31500004460002904BF6278904216D1BDF80610628812
S31500004470914202BFBDF80810A28891420CD19DF866
S315000044800A10A279914202BFBDF80C10228991420E
S3150000449002D10027354607E0002804BFFF2D354628
S315000044A0761CF6B2062ED3DBE0894FF6FF71884202
S315000044B005D117B92846FFF7ABFF00204CE00026D0
S315000044C0002804BFA08988420AD11422214601A8E7
S315000044D0FEF7F0F801A80CF0CDF908B10127012686
S315000044E0FF2D08BF892037D00FB300218DF80410A7
S315000044F0062D61788DF805106188ADF80610A18843
S31500004500ADF80810A1798DF80A102189ADF80C10C4
S315000045100DDA182101FB05F7DFF844800CF0EBF902
S3150000452048F8070008EB07020020C2E902003EB97E
S31500004530A089ADF81000E089ADF812002069059059
S3150000454001A8FCF790FE040005D101A92846FFF753
S31500004550E2FBFFF707FF204606B0BDE8F08100004A
S315000045603869032002EC0320F13C00002C7603207E
S315000045702DE9F04786B00446884691469A46FF25BF
S315000045800126002769463846FFF7BBFB9DF8000069
S31500004590012801BF20689DF80110427991421ED181
S315000045A0BDF802104288914204BFBDF8041041458F
S315000045B015D19DF80610494502BFBDF80810228A9C
S315000045C091420CD1BDF80C10E288914202BF9DF8D1
S315000045D00E100079814202D100263D4609E09DF881
S315000045E00100002804BFFF2D3D467F1CFFB2062FA9
S315000045F0C8DBFF2D08BF892025D0C6B101208DF864
S315000046000000206840798DF8010020684088ADF8E8
S315000046100200ADF804808DF80690208AADF80800F7
S31500004620E088ADF80C00206800798DF80E00ADF832
S3150000463010A06846FCF717FE040003D16946284619
S31500004640FFF769FB2046CEE630B585B00446002567
S3150000465000F00FF821466846FFF73AFE38B9FFF733
S315000046607DFEF5DB2046FFF759FE05B030BD002084
S31500004670FBE769462846FFF744BB000080B500F01B
S315000046803DFAF0B1DFF81014022001F0C7FFDFF8A1
S315000046900C040CF06FFA0B200CF098FDDFF8000408
S315000046A000680078012808BF02200CF05FFA03209A
S315000046B001F040FF00F0B1F8BDE8024000200CF028
S315000046C0C3BD01BD80B500200CF09AFDBDE80140D8
S315000046D0D4E7F8B504460D46E0894CF25E018842FF
S315000046E004BF208AB0F5805F164601D00020F2BDD7
S315000046F02078002840D1207D80073DD5072D3BDB63
S315000047003078B77840B1112802D1032F04D133E0B5
S31500004710192808BF032F2FD12A4603213046FCF75C
S315000047205CFE022F04D0062F0AD0072F1BD023E0F1
S31500004730082D21DBF2790146601C00F047F91BE0E9
S31500004740092D19DB2A4607213046FCF74AFE0446A6
S315000047500CF053FD022802D100F0D0F960B12046DA
S31500004760FCF798FD08E000F081F8012804D000F07D
S31500004770C5F908B900F0F1F80120F2BD50B5C94EEF
S31500004780C9493388044687B02246012001F046FF16
S3150000479030888F21084230D0902C1AD100203080EA
S315000047A001A9684604F05CFDC04C9DF80F00A0709E
S315000047B00822BDF80C00208001A9201DFDF77AFF14
S315000047C09DF814006073002200212046FCF767FD67
S315000047D01DE004F0A5FB012819D000F022FAB0B9BB
S315000047E03088B34BB34AB44902900194B34800F001
S315000047F010F8022000F0ACF809E0800504D5912CF1
S3150000480005D100F0BCF802E020460CF0EAFD07B046
S3150000481050BD0090022001F001BF70B590B005A810
S31500004820A74928220CF044FE04F07AFB08B10020C8
S315000048301AE001A801F069FE0400A24D9D4E03D0C6
S3150000484000943246A04B0BE005A8FCF724FD05A911
S3150000485001A80CF058F9040005D0009432469B4B91
S315000048602946FFF7D7FF204610B070BD80B56846D1
S3150000487004F000FD932809D18948006800788DF876
S315000048800000012804BF02208DF800009DF80000FA
S3150000489002BD70B58CB004460D4616462C2200218A
S315000048A06846FDF74AFF8DF80240ADF8006001A8A2
S315000048B00CF05FFD8020ADF82600FFF7D7FF8DF8DE
S315000048C02800FFF7AAFF294668460CF0CBF80446F5
S315000048D023467F4A7F49012001F0A0FE20460CB006
S315000048E070BD80B56F490B887B490246012001F0F7
S315000048F095FE702002BD0120F3E70220F1E70420B7
S31500004900EFE70820EDE702200CF07ABC01200CF05E
S3150000491077BC00200CF074BC10B5624C20788F2157
S31500004920084282B013D06D48614B624A6C49FFF76A
S3150000493070FF2088410603D5BDE81640002007E039
S3150000494040F020002080BDE8134009F0F0B913BD07
S31500004950544A00211180FCF7A3BC80B55148018858
S3150000496041F4007101800CF0E6FD38B102465D4964
S31500004970022001F053FEBDE8014000E001BD80B514
S31500004980FF20FDF743FAFF2002F0ADF9FF200DF0FE
S315000049907DFAFFF773FEFCF781FC42490020088090
S315000049A001BD704700BF4A4A4F49012001F036BE9B
S315000049B080B501462C223D48FDF77CFE3949802012
S315000049C0088001BD49490020087070472DE9F04F65
S315000049D085B080460F461546FCF7B9FE0646029599
S315000049E0019600972BA303224FF480511920FCF760
S315000049F0E7FD03A804F030FC3D493E480988084419
S31500004A0000904CF25E070020FCF77DFC1DE00821BB
S31500004A1003A8FCF7B8FC5046FCF775FC5846FCF7B3
S31500004A2081FCA088FCF77EFC4846FCF76CFC5046EF
S31500004A30FCF72EFCFCF767FC2846FCF764FC0098A4
S31500004A4000990078401C08706D1CEDB2B542BEBFDF
S31500004A5000990978042911DA274901EB051428463B
S31500004A6094F80690FDF77BF98246104890F82600E8
S31500004A7000064CBFB4F802B0BB46C8E74FF6FF725B
S31500004A800097002341461046FCF7F7FD05B0BDE848
S31500004A90F08F000077757500A4100500E093040000
S31500004AA020D70320BEDC0320D81005000C690320A4
S31500004AB02C11050024110500041105004411050000
S31500004AC0541105007C11050090110500A811050080
S31500004AD070120500C0110500E4110500141205004E
S31500004AE00C1205002C1205005C120500546B032005
S31500004AF002EC0320CCD6032084D5032000B585B074
S31500004B0068460CF038FB009800F0010005B000BDC7
S31500004B10DFF8042D1268127882420AD019B1012AF0
S31500004B2003D1022805D000207047022A08BF0128B9
S31500004B30F9D101207047DFF8E41C8875704710B57D
S31500004B40DFF8D44C2068407B112805D040F20311D1
S31500004B500FF20C0008F0C0F821684120487310BD20
S31500004B606173736F63696174696F6E2E6300000011
S31500004B7080B5022002F073FC02F07AFC00F05CFCC7
S31500004B80042805D1DFF8940C417D491D417505E0E7
S31500004B904FF47A71DFF8880C04F098FCBDE8014008
S31500004BA002F067BC10B5DFF8744C0020E074207882
S31500004BB0FF2803D00AF0ACFBFF20207010BD70B5B3
S31500004BC082B004460D460AF02DFB0646B01D0DF0D8
S31500004BD025FB00F44040B0F5404F0CBF06200020F6
S31500004BE03118097C4A00490802F00E0201F038012A
S31500004BF08918401800F11106DFF82C0D0068005DD9
S31500004C00F6B286420BDA831BDBB20F2BA8BF0F234B
S31500004C10002000903246214628460AF018FC30460D
S31500004C2076BDDFF8F40B0068407B33281CBF4328B1
S31500004C30532801D101207047002070471FB501207D
S31500004C400DF01AFB0DF01DFB06F0EAFCF0B1DFF8E3
S31500004C50CC4BA07910B104F10A0005E02078694632
S31500004C60FFF7ADFF0DF10300DFF8B42B0021117043
S31500004C70617901F0E3F9FFF795FF00F008F806F017
S31500004C80B8FA0DF04FFB012001F005FB1FBD10B572
S31500004C9000F058FE017B032918BF042905D140887E
S31500004CA001F0D0FA08BF032008D001F091FB0446BA
S31500004CB001F092FB214603F058FE022001F094FB1E
S31500004CC00DF0B8FC00F032FEBDE8104006F0BDBAAB
S31500004CD038B5DFF8484BDFF8405BA075FFF762FF99
S31500004CE000214FF6FF7001F09FFA2868417B0329E7
S31500004CF018BF00291ED0332918BF432914D101F04B
S31500004D0042FA2868017B032918BF042906D103212A
S31500004D104173A07DBDE8324002F005BCA07D02F0E3
S31500004D2002FCBDE83140B2E721214173BDE83140C4
S31500004D300CF05ABC31BD10B5DFF8DC1ADFF8DC4ADE
S31500004D400968002048734FF6FE700AF07DF84FF6AA
S31500004D50FF700AF081F801F016FAA07DBDE8104058
S31500004D6002F0E1BB70B5044684B0E07A0FF2D001E0
S31500004D70DFF8A45A0290234694F90A0001901522FE
S31500004D80208901F0C3F82868407B60B9208901F0CA
S31500004D9059FA08D000F052F905D102F06BFB10B9B0
S31500004DA002F06AFB10B1702004B070BD2868007D67
S31500004DB080070AD50AF044F84FF6FE71884202468B
S31500004DC004D10DF016FE024600E0002221461046F0
S31500004DD001F0F4F806000DD12868007D80074CBF6D
S31500004DE00220012001F0CCF8002101200EF035F858
S31500004DF0060001D03046D7E7DFF8200A007F08B169
S31500004E000FF058F900220821204601F06FFB30B15F
S31500004E10042120460FF096F908B9A520C4E7DFF86B
S31500004E202C0B00782074DFF8280B60610020E081ED
S31500004E30204600F008F9064602F0D7FADAE7000045
S31500004E40423870574242000010B5044623461822E5
S31500004E5001F09BF9DFF8FC0A0021017114B1FF2C67
S31500004E6002D10121017007E0012100F8041BA10015
S31500004E70491C090204F02AFB00F058FD002010BD71
S31500004E80DFF8D00A00787047DFF8C81A00200871EA
S31500004E90DAE730B50D4689B0044668690FF290111D
S31500004EA007902346287C06901622E8890590287BE1
S31500004EB00490E87A039095F90A00029028890190F7
S31500004EC0009501F024F8287B00280CBF4FF6FE70F1
S31500004ED009F0B6FF2B46224609B0BDE83040014630
S31500004EE001202DE9F041DFF8304980462068407BFB
S31500004EF000280F4616461D4649D1300047D0052EDC
S31500004F0045DA00F09BF842D102F0B4FA00283ED10F
S31500004F1002F0B2FA08B1042E39DB287B032816D139
S31500004F204FF6FE70874214D1012E08BF002710D01D
S31500004F30022E2CD109F084FF4FF6FC71884202DA6A
S31500004F4009F07EFF01E00DF054FD074601E0012E59
S31500004F501DD0B8F1000F0CD0287B03280CBF01210F
S31500004F600021012E0CBF012000200DF076FF01006C
S31500004F705CD12946384601F021F8010056D102F0ED
S31500004F8073FA02F058FA20B102F076FA08B17020EE
S31500004F904CE02068DFF88478407B33281EBF532816
S31500004FA00020F875304600F0EBFF387F20B102F0A4
S31500004FB063FA08B90FF07EF8287B032803D1284648
S31500004FC0BDE8F0413FE00822294607F10A00FDF757
S31500004FD071FB287B0328A8BF0020B874FFF7E2FD09
S31500004FE09420B875B87C216800280CBF01203120B8
S31500004FF048730123002038752068817B4809020028
S3150000500003D1BA7F03FA01F108E001F01F0140F075
S31500005010180003FA01F1052241EAC061052008F0F3
S31500005020DEFD010002D0226800215173BDE8F08147
S31500005030424238705742424257424400DFF8A40CBD
S3150000504000780B28704710B504460022082101F0AD
S315000050504DFA08B1012010BD09F0F2FE00224FF60C
S31500005060FF7100F0CFFF217C204600F0E7FF626968
S31500005070E189207C0DF011FBDFF89C070068007BBE
S31500005080012808BF0EF073FCFFF701FE002010BDDB
S3150000509038B5DFF8844701462068407B002802BF08
S315000050A0DFF8400C00780B2801D0702032BDDFF805
S315000050B0705721B1022205F10800FDF7FBFA684698
S315000050C001F089F808B1932032BD9DF80030142212
S315000050D001F05BF800F0FCFF010050D19DF80000E4
S315000050E000F04EFF2068007B012818BF022807D079
S315000050F0032818BF042825D1002001F0A7F808B31B
S3150000510000F0FDFF2068007B032814BF042810F080
S31500005110F5F9FFF7BCFD012010F016FA01002ED1BB
S315000051202068007B032818BF042827D1287A800727
S3150000513024D50522DFF81818012000F034F8010004
S315000051401CD032BD2168132048730020DFF8CC162E
S31500005150087501222068817B4809030008BF02FA0E
S3150000516001F107D001F01F0140F0180002FA01F129
S3150000517041EAC0610522072008F031FD002032BD5A
S31500005180FF2210E038B504461046032818BF04284D
S315000051900D4601D0022032BD00F0F2FE294620461F
S315000051A0BDE83440ECE72DE9FC41804600F0CAFB3F
S315000051B00D46017B0129164627D0407B022818BFE1
S315000051C0032822D1332001F00FF92806DFF84C76A8
S315000051D0400F14BF0522BA7F2946052008F0FFFCC0
S315000051E0044698B9FFF7DEFC09F032FE38815FEA23
S315000051F0080014BF02200120B87407F10A0001F06C
S3150000520002F800203875FE7500E0702401940095C0
S3150000521043462C220FF20C0100F079FE2046BDE831
S31500005220F6810000424244420000000038B50446C0
S3150000523009F0F8FF0546204610F0A9F92C1820467B
S315000052400CF0ECFF4FF6FF5101402046BDE834401C
S315000052500CF0EBBF70B588B00C4616461D4630B94B
S31500005260204610F09FFA03A90EF02CFE03A8072192
S315000052708DF808100190310A8DF80A1001200C995A
S315000052808DF80B1000908DF80960042302AA012105
S31500005290204610F0D0FB0646FF2E18D0214610F00F
S315000052A0B8F915B93046FFF7C1FF0D9808B9304671
S315000052B00DE020460EF039FE18B1304610F092FD92
S315000052C001E000F01EFE30460AF022F8FF2008B08A
S315000052D070BD2DE9F24F84B0044616469B46002762
S315000052E04FF6FF7556B1304610F0E1FB80467078F8
S315000052F040084FF0010A00F0010905E0084610F0E9
S31500005300F0F9BA46B946804600F096F8032818BF69
S31500005310042800F08E800BF101019DF81000C9B23F
S315000053200AF09DF98346400800F001008DF8080058
S315000053305FEA0B6000F0CFFC58BF4BF0800B0228F1
S3150000534004D1DFF810060078204301D1022722E0BD
S31500005350404609F024FDADF8000003219DF8100039
S3150000536010F00FF9050008BF0125BAF1000F03D0B0
S31500005370301D0CF053FF01E0BDF80000014600951A
S3150000538001235A4640460EF0C4FC05464FF6FF7010
S31500005390854208BF0127E6B1200003D14FF6FF7012
S315000053A0854204D1301D0CF039FF014600E0294644
S315000053B00120019000974B462A464046FFF74AFFD8
S315000053C09DF8080050B94FF6FF71404611F0B0F94C
S315000053D004E03A462946404611F06CFE4FBB9DF864
S315000053E0080088B14146284611F0C3F9DFF82814B1
S315000053F00968896A0E2212FB00F211444A7942F0CA
S3150000540040024A7111F003FA9EB109F019FDB9F193
S31500005410000F18BF002403D1002C14BF032401245D
S31500005420014643462A46204605B0BDE8F04F11F036
S315000054309FBE05B0BDE8F08FDFF81C050068007B55
S3150000544070472DE9FC478046894601A80021016086
S315000054501646484610F0A5F805465FEA0800DFF84C
S31500005460347C08D0284610F022FB8246284610F0ED
S3150000547013FB044604E0484610F033F982463C46E6
S315000054800020009004233246494601A809F0DFFFB8
S315000054900DF105000CF0C2FE81469DF807605FEA3B
S315000054A0080006D0082239462046FDF74DF90028A7
S315000054B06FD1D94F3868C17E11B16978890713D584
S315000054C05FEA080110D0407B022808BF002E0BD1EE
S315000054D0484609F0B9FC05F08CFE992300F054FE0D
S315000054E0992002F020F854E001F018F8002818BFBF
S315000054F0002E03D09420FFF7EBFB4AE001F00EF8F4
S31500005500002846D0504610F0A7FFFF2818BF5FEAD4
S31500005510080104D138684088514611F02AF911F083
S3150000552076F93868BE4E41885246484600F06AFD14
S315000055303868BA4C417B012916BF31291121432114
S315000055404173022001F08AFF40F6B831304603F07D
S31500005550BDFF0FF0D3FF002060753868C17E19B912
S31500005560304603F0A9FF11E0B8F1000F05D06978C5
S31500005570890702D5FFF762FB08E0007B042805D106
S315000055800521304603F0A2FF09206075AD20FFF724
S31500005590D2FA01F02AFFBDE8F3872DE9F04F8DB06E
S315000055A082460FF0FEFF814610F046F80390504603
S315000055B010F097F8804602AB052205A9504612F076
S315000055C0D9F802288DF80000019021D050460FF03E
S315000055D0DEFF0399914D904E08189DF808100F189C
S315000055E05046FFB239460AF03AF8FC1C01284FF63D
S315000055F0FF7B0ED0022813D0042800F0E98006288D
S315000056001AD007286CD0082827D07C2800F0AD8057
S31500005610FEE03B46002251460020FFF75AFEF7E027
S315000056203068407B012804BFA87C002803D13A4695
S315000056305146FFF706FFEBE040460EF029FC014617
S3150000564059451CBF404611F001FD3068407B0228D9
