S0110000656D3236302D756172742E73333790
S31500004000785A002089EE02003DCF02006DEE0200D4
S31500004010A70A0A010042000004180CAC3062CC006A
S31500004020000000000000000000000000000000008A
S3150000403000000000A4FF02000000000000000000D5
S315000040400000000000000000FFFFFFFFFFFFFFFF72
S31500004050FFFFFFFF007003000000000000000000EB
S31500004060FFFFFFFFFFFFFFFF100000000000000042
S31500004070000000000000000000000000000000003A
S315000040800000000000000000DA7F0020DA7F002038
S31500004090785A00207412030016F10200185100200D
S311000040A0B40F0020000004000000000027
S31500004200785A002089EE02003DCF02006DEE0200D2
S3150000421075EE020071EE020079EE020085EE0200F4
S3150000422085EE020085EE020085EE020085EE0200B4
S315000042307DEE020085EE020085EE020035C3010028
S31500004240B1C3020041320200095C0200C131020022
S31500004250953202004332020093320200BF3102005F
S31500004260FDE60200D7E10100832C02002B1C0200B0
S3150000427085EE020085EE02006BEC020085EE020080
S3150000428085EE0200F5E1010085EE020085EE0200F2
S3150000429085EE020085EE020085EE020085EE020044
S315000042A085EE020085EE020085EE0200D5320200A0
S315000042B0F5320200C594020085EE020085EE02008A
S315000042C085EE020085EE020085EE020085EE020014
S315000042D085EE020085EE020085EE020085EE020004
S315000042E07149724A01E021B1491E1369DB07FAD40C
S315000042F001B9BAE0506001201060106910F0060F95
S3150000430005D0410700D5B3E0800700D5B3E0002013
S315000043107047F0B513460022002936D0624C634D33
S315000043208BB98B4231D250F8046BEE605B1C0826C9
S315000043302E60264601E036B3761E2F69FF07FAD4B3
S31500004340002EEED11FE0EFF3108672B600230EE0CA
S315000043502F6907F01907102F08BF2F602F693F0735
S31500004360F6D550F8047BEF605B1C10272F608B425C
S31500004370F4D306B962B6264601E026B1761E286950
S31500004380C007FAD40EB96FF002021046F0BD2DE94F
S31500004390F84F474F0D4639680446002041F00101A9
S315000043A09B4639604FEA92088146AA4602E0B1442C
S315000043B00AEB860AC14517D204EB89063046FFF799
S315000043C08FFF010022D1C6F30A00C0F500608608FF
S315000043D0A8EB0900B04238BF06465A463146504659
S315000043E0FFF797FF0100E2D021682A68914209D0C1
S315000043F02046FFF775FF010004D15A4601212846E1
S31500004400FFF787FF3968490849003960BDE8F28F30
S315000044102749254A0B6843F001030B608860012099
S3150000442048604869400704D50868400840000860AD
S315000044301EE04869800704D5086840084000086007
S3150000444019E00220486001E022B1521E4869C00707
S31500004450FAD422B9086840084000086005E00868F8
S31500004460400840000860002070476FF00200704767
S315000044704FF0FF3070476FF001007047002386E76A
S315000044800B48016841F00101016046F21A31C1642E
S315000044904FF4807141604169C907FCD40021C164B1
S315000044A00020704700000000809698000C000E4027
S315000044B008000E4010B5044600F0C8FD204601F085
S315000044C0A2FD204602F0F2FA2046BDE8104002F0B6
S315000044D0A7BC01F0E0BD10B5044600F004FE20467E
S315000044E001F00BFE204602F009FB204602F0FDFC1F
S315000044F02046BDE8104002F095BC10B500E010B5AE
S31500004500044600F060FE204601F01EFF204602F041
S3150000451011FB204602F053FD2046BDE8104002F094
S3150000452090BF10B5044600F07BFE204601F03AFF2E
S31500004530204602F02EFB09E010B5044600F095FE79
S31500004540204601F071FF204602F040FB204602F0B3
S315000045504EFD204602F08DFF2046BDE8104002F0D9
S31500004560F8BC80B503F0E8F9BDE8014002F016BAE0
S3150000457010B5044602F024FE2046BDE8104002F0C5
S31500004580FCBC0198704703F046BA70472DE9F04726
S3150000459001241028A4B00FF62025DFF89479A2A3F1
S315000045A0A3A60FF28829A3A10FF28C280FF28C2A5A
S315000045B000F04C8118281CBF1D2820286FD0212808
S315000045C000F0128122286AD0282800F0B580292818
S315000045D000F0D8802A2862D02B2800F064812D288C
S315000045E000F082812E285AD0302826D0332800F0B9
S315000045F08081342800F08081352800F0FC8236283E
S3150000460000F09F81372800F02A82382800F0C48104
S31500004610392800F058823A2800F0EA81422800F052
S3150000462066824A2800F0C2804C2800F0EE825A28A2
S3150000463000F06F825B2832D05D2800F0E1836328AA
S3150000464000F0B282642800F0BC826A2803D06F288A
S3150000465000F02383712800F0F082732818BF7728B2
S3150000466000F0DC837A281AD0822800F06B82832837
S3150000467000F0A183842818BF852810D086281CBF87
S31500004680872888280BD0892800F09C838A281CBF9D
S315000046908B288D2803D0902800F01984952800F0E7
S315000046A09D83962800F09F829A281CBFA128A428E3
S315000046B0F5D0A62800F06E83A82800F00A83A92862
S315000046C000F02383AF2800F03D83B128E7D0B2285D
S315000046D000F0B283B92800F0CB83BA2800F0CD836E
S315000046E0BC2800F0CD83BD2800F0D583C12800F09A
S315000046F08780C22800F0A780C32800F0A180CE28BA
S3150000470000F02D83D42800F0CD83D52800F0CF8388
S31500004710D62800F0D183D72800F0D383D82800F01C
S31500004720D383E828BBD0ED2800F04183EE28B6D02D
S31500004730FE2800F05182E9E301A9684601F016FC63
S3150000474000F023FC3146002003F04EFB00F00DFC88
S31500004750BDF80C0003F085F99DF80E0003F075F91D
S315000047609DF80F0003F071F99DF8100003F06DF944
S31500004770BDF8120003F075F99DF8140003F065F911
S31500004780069804E308208DF809000DF10A0103A834
S3150000479001F012FC8DF8080003AB0DF10A00019040
S315000047A002AA0DF109000090E2A142E200F0FAFB34
S315000047B09DF8010001A901F010FC00F0ECFB00F0EF
S315000047C0D4FB9DF80C0003F040F9BDF80E0003F091
S315000047D048F99DF8100003F038F99DF8110003F030
S315000047E034F99DF812008EE301AB0DF10102D2A15E
S315000047F000F0C8FB01999DF8010001F0F0FB2CE3E5
S315000048000DF1060200F09AFB9DF8060001AA02A926
S3150000481001F05BFB8DF8050002AB01A800900DF1DD
S315000048200502C6A105E200BF76000000757570009E
S3150000483075750000620000007570000075000000CC
S3150000484001F045FB5FE301F044FB5CE30DF115006D
S3150000485004900DF11E030DF11600039006AA0DF14A
S31500004860170002900DF11A00019007A80090012090
S315000048700FF23C7103F0B8FA9DF81500BDF81A3036
S31500004880BDF81C20BDF81E1002909DF81600019080
S315000048909DF8170000909DF8180003F083FB8DF833
S315000048A0140005AADCE203F0B7F8054603F0B4F8F5
S315000048B08DF8000003F0B0F88DF8010003F0D8F889
S315000048C0ADF8020003F0A8F88DF804000DF105011B
S315000048D0082003F0A8F803F09FF88DF80D0069464C
S315000048E0284602F0ABFD0EE303F096F802F0A7FDB2
S315000048F009E303F080FFB0E20DF1120304AA90A1D0
S3150000490000F040FB06A803F0FFF803A8019003ABF4
S3150000491005A800900DF10F02494600F015FB0DF1B8
S315000049200D00029006AA05989DF80F30BDF81210EA
S3150000493001909DF80C0000909DF8100001F00DFA12
S3150000494023E00DF112021946012003F04DFA06A8E4
S3150000495003F0DAF803A802900DF10F0305A8019001
S3150000496004AA03A800F0EEFA0DF10D00029006A9C4
S3150000497005989DF80F309DF8102001909DF80C00C9
S315000049800090BDF8120001F0F1F98DF80E000DF15E
S315000049900D030DF10E0233E107A803F0B5F804A8E4
S315000049A0039005AB06A802900DF1150204A801902C
S315000049B00DF11300009001200FF2046103F014FAC8
S315000049C00DF11100029006989DF813309DF8142001
S315000049D09DF8151001909DF81000009007A801F0B1
S315000049E0D1F98DF812000DF111030DF1120207E154
S315000049F00AA803F089F806A805900DF11D0309A879
S31500004A0004900DF11E0206A803900DF11B00029002
S31500004A1007A8019008A8009001200FF2AC5103F0FE
S31500004A20E3F90DF1190004900998BDF820309DF8BE
S31500004A301D209DF81E1003909DF8180002909DF809
S31500004A401B0001909DF81C0000900AA801F0B5F922
S31500004A508DF81A000DF119030DF11A02D0E00DF1CF
S31500004A60190000900DF11A0307AAB5A100F06CFA1F
S31500004A7009A803F049F805A802900DF1170308A844
S31500004A80019006AA05A800F05DFA0DF11500049044
S31500004A9009AB08989DF81920BDF81A1003909DF8E7
S31500004AA0140002909DF8170001909DF818000090E0
S31500004AB0BDF81C0001F0A6F98DF816000DF11503DE
S31500004AC00DF116029CE00DF106021946012003F0D5
S31500004AD08BF903A803F018F800F039FA029B9DF849
S31500004AE00420BDF8060003A901F0C1F971E10DF13A
S31500004AF0050000900DF1060302AADBA100F024FADE
S31500004B009DF805209DF80610BDF8080003F0ABFFE0
S31500004B1011E100F02EFAD5A100F016FA039A9DF8DD
S31500004B200810BDF80A0004F019F98DF809000DF116
S31500004B30090295E175627600757700007576750055
S31500004B407576000008208DF811008DF810000DF123
S31500004B500E00029005A801900DF11100009008AB1F
S31500004B600FF26C450DF10F0200F0EDF903A802906B
S31500004B700DF11200019006A800909DF80E30BDF8C8
S31500004B8014209DF80F0008A901F0A5F98DF80D0075
S31500004B9006AB03A802900DF10D020DF11200019073
S31500004BA0294604A8009044E000F0FCF99DF80100B5
S31500004BB001A901F0B5F900F0EEF901A802F0BBFF7A
S31500004BC0A7E100F0EFF901A802F0BAFF9DF8010095
S31500004BD001A901F0B8F940E100F0E4F99DF80100FF
S31500004BE005F062F839E100F0B2F902999DF8040087
S31500004BF001F0D8F8EDE0684605F03CFD00F0C5F997
S31500004C003146002003F0F0F883E186208DF8060097
S31500004C100DF1050200F092F99DF8050002A901F0D8
S31500004C20E1F98DF8040002AB0DF10600009001AA2F
S31500004C30BAA1002003F0D8F86BE16A4600F07EF9CD
S31500004C4038786A289DF8000001A902D105F09EFE79
S31500004C5001E006F0FEF98DF801000DF1010200F009
S31500004C609DF9BDF8040002F0FCFE9DF8060002F076
S31500004C70ECFE0DF10701102002F012FF069802F07B
S31500004C8000FF079802F0FDFE9DF8200002F0DDFE11
S31500004C900DF1210100F06AF93BE109A802F080FF5D
S31500004CA000F067F9494600F04FF904A80090039B0D
S31500004CB09DF808209DF80A1009A801F0CDFE8DF890
S31500004CC009000DF1090200F069F904A802F05FFF7E
S31500004CD01FE108208DF80E008DF80D0007AB0DF1D1
S31500004CE00D00029004AA05A801908DA10DF10E00F9
S31500004CF0009000F029F9BDF8100005AA07A906F0F2
S31500004D008EFB8DF80C0003AAAAE008208DF805009A
S31500004D1002AB0DF1050000900DF1060281A100F035
S31500004D2013F904A9102002F07EFEBDF8060004AABD
S31500004D3002A906F0B4FB8DF8040001AA90E000BFBA
S31500004D407676750000F00BF900F01BF903A9102028
S31500004D5002F069FE03A901A801F098FE7DE000F0CB
S31500004D60FEF802208DF8000000F00BF903A901A857
S31500004D7001F094FE00F00FF903A900F0F7F805A979
S31500004D80102002F08DFE099802F07BFE0A9802F0D0
S31500004D9078FEBEE000F0DBF802999DF8040002F010
S31500004DA043F88DF805000DF1050200F0F7F802F062
S31500004DB056F802F04AFE02F02FFE00B1012001F083
S31500004DC0FAFFA0E000F0C3F802999DF8040001F094
S31500004DD0FBFF8DF805000DF1050241E03A780FF270
S31500004DE0F810002500E06D1CEDB2415D9142FAD14C
S31500004DF002F012FE0FF2F81151F82510884782E0F2
S31500004E0002F00AFE054602F033FE014638783028E5
S31500004E100CBF484A484A284690477AE0694610201F
S31500004E2002F001FE38787728684602D106F030FE97
S31500004E3069E006F02BFB66E001A802F0C1FE0DF169
S31500004E4001030DF1020238A100F09CF89DF9012042
S31500004E509DF8021001A802F0A7F88DF800006A4636
S31500004E6000F09CF855E000BF767575007675700009
S31500004E7002F0D2FD07F06AFB45E007F073FB42E063
S31500004E8004A9684607F039FB684602F0C8FE04A884
S31500004E9002F0F3FE3DE0684602F0D7FE684607F0F2
S31500004EA034FB36E002F0B8FD07F02EF831E002F0F0
S31500004EB0B3FD06F0A4FF2CE002F0DAFD07F08CFB50
S31500004EC027E006F003FE1EE007F016F81BE00820B8
S31500004ED08DF8120006AB04A803900DF1110205A887
S31500004EE0029012A104A801900DF11200009000F0AA
S31500004EF02BF89DF8110000B10120059B9DF81020AC
S31500004F0006A901F017FB02F0A0FD02E007F078FB0E
S31500004F100446204624B0BDE8F08700007562000014
S31500004F20766262007662000075730000756270003A
S31500004F30AF7F00205B760000771B01005146012001
S31500004F4002F052BF00902946012002F04DBF01A891
S31500004F50009002AB01AA4146012002F045BF08209D
S31500004F608DF801000DF10103704701A9082002F038
S31500004F7097BD02A8019002AB03A800900DF10A02AA
S31500004F80704701AA012002F02FBF8DF801006B4681
S31500004F900DF1010270478DF800006A465146002067
S31500004FA002F022BF0DF101025146012002F01CBFA2
S31500004FB075767676757575007575757000000000E6
S31500004FC07575757570000000757576757575700068
S31500004FD07562767500000000181D207A2A84858681
S31500004FE087888B8A8D959A2E5BB1A4A122E8EE0064
S31500004FF021050100B7A80100A9380100C754010026
S31500005000817900007F9201000F9301003B9301001C
S315000050106D9301009F93010079940100659401004E
S31500005020A394010061D200002BB00100F79D01009E
S31500005030FB9D01009BB20000B9D80100C7D8010052
S3150000504035910000219501002F95010038B50446E1
S315000050502078002846D16070012020722070A07848
S31500005060032832D0072834D0112808D0152833D089
S31500005070302818D0312819D032281AD030E007202D
S31500005080DFF8645B207204F10900298807F083FECB
S31500005090A878E072E8782073287960736879A0733D
S315000050A0A879E07331BD07F09CFE17E007F060FFBA
S315000050B014E00420207207F09BFE04F10901BDE80C
S315000050C038400246012007F06ABEDFF8200B007860
S315000050D004E008F021F801E008F076F8607231BDCE
S315000050E00020207031BD38B504462078002869D1EB
S315000050F001202070A078042814D007281FD00E287D
S3150000510025D0112859D0152841D0172844D0182861
S315000051104CD019284DD0302833D031281FD0322812
S3150000512023D04DE0207A01282FD1607A00B10120EA
S31500005130DFF8BC1A0870002008F0C0F93BE0607A7E
S3150000514010B107F0B7FF39E007F0C6FF36E0607A26
S3150000515000B1012007F00FFF00282FD015E0607A7C
S3150000516000B1012007F0DDFE0EE0207A04280CD104
S3150000517004F10901012007F020FE07F03CFEE8B12A
S3150000518003E0607A07F02FFEC0B1362016E094F9EE
S31500005190090008F02CF80EE0657A04F10A0007F021
S315000051A0F3FD0146284608F05EFA04E008F056FAD8
S315000051B001E008F046FA002000E03720607031BDBB
S315000051C00020207031BD10B50446DFF8280A0079AA
S315000051D0217856280CBF0120002001BBA170617800
S315000051E0072910D130B108F05DFA012814BF6320F9
S315000051F062200EE0E07862280CBF0120002008F053
S3150000520054FAA07009E0042909D1DFF8EC1910B1AD
S315000052100878E07001E0E07808700120207010BD89
S31500005220017809BB817001210170417801290ED0F6
S315000052300C2909D017290DD02D2902D034290CD0DC
S3150000524010E0DFF8B8190AE0DFF8B41907E0DFF874
S31500005250B41904E0DFF8B01901E0DFF8B0190978F5
S315000052608180704700210170704738B50446207868
S3150000527000285AD1012020700020A07060780128F3
S3150000528015D00C280FD017283DD02D2802D0342851
S3150000529044D048E0A18803293DDAC9B2DFF85C09A9
S315000052A008F072FB38E0A088DFF8541939E0DFF81F
S315000052B06009008828BBA08818B3DFF858592878F9
S315000052C008F09EFD08F002F880B1A188DFF83409E5
S315000052D0C9B208F059FBA07008F002F8DFF83809E7
S315000052E0DFF838190068401D086001E03820A0701A
S315000052F0012008F01AFD28700020DFF82419088024
S3150000530031BD382008E0A08807F08FFF18B9A088C3
S31500005310DFF8F41805E03620A07031BDA088DFF86C
S31500005320EC18087031BD0020207031BD80B5012019
S315000053308DF800006846FFF71BF99DF8000002BDD6
S315000053402DE9F04FA7B008F008F808F023F8DFF8C9
S31500005350C8880446D8F80000817800270225FF296E
S315000053604FF003092DD1C1780679042511F03F00CD
S315000053704FF0050918BF492723D108060AD509F0B9
S315000053807BF828B109F07CF8123C0746E4B218E035
S31500005390482716E009F077F8002818BFCB2E0AD068
S315000053A0CA2E18BFCC2E06D0CD2E18BF002E02D086
S315000053B0AA2E18BF482709F05FF800281CBFCC2E7C
S315000053C04A27D8F80000465D90F801A0DFF8245877
S315000053D00AF003018DF808102E71017869704844AF
S315000053E0DFF840180860DFF8341808604FEA5A10F2
S315000053F000F00300687109F01EF9380018BF58263E
S3150000540004D15FEA0A6002D5582632208AE2A878DB
S3150000541020B9287910B15826302083E209F0E6F940
S3150000542010B9582642207DE2FFF780FF002800F0E1
S315000054307B822879A978DFF8F0B7020095A70FF2EA
S31500005440582A4FF6FF7975D0012800F0FA81022814
S3150000545000F0AD80032800F0FF80052834D0062830
S3150000546000F04D81092818BF0A2800F050810B284A
S3150000547018BF0C2800F052810E2800F06681122811
S3150000548000F0AB81132800F0E181172800F0F181CC
S31500005490262800F0E181272800F0E681472800F061
S315000054A0D881492800F041814E2800F075815228A4
S315000054B055D053286AD0552800F09180562800F020
S315000054C0A58065282AD0812800F00E818F2800F05B
S315000054D0FD81912800F01582942800F004829D2811
S315000054E000F0AA81AA2800F0AD80AB2800F0D68093
S315000054F0AC2800F0E880AD2800F0E880AE2800F087
S31500005500E880CA2800F0BF81CB2800F0C581CC28EE
S3150000551000F0D081CD2800F0D081F12800F079810B
S31500005520F52800F0D980F62800F0DB80FC2800F092
S31500005530A781F2E102F070FA0446062002F085FA2D
S31500005540022002F082FA46F2302002F08AFAA878A7
S31500005550002808BF062C01D10120A870E4E100F064
S3150000556013FA02F059FA8DF801006846FEF7D9FFE2
S315000055709DF8000028B937208DF802000020ADF80C
S31500005580040001AB0DF10202B6A157E0012918BFD4
S31500005590382023D100F0F8F901AB0DF10102B1A1D9
S315000055A0012002F021FC6846FEF7C6FF25E03827F9
S315000055B0012912D1611FC9B2052007F0D7FE0446A2
S315000055C0FF2C08BF352708D009F022F9002814BFA0
S315000055D000273627204608F013FC3846A2E10422AD
S315000055E000F0D3F90DF103030DF101023946012054
S315000055F002F0FAFB6846FEF782FF9DF8000010B93C
S3150000560037208DF802009DF802008BE1042200F09D
S31500005610BCF902F001FA8DF801006846FEF76DFF4D
S315000056209DF8000028B937208DF8020000208DF87B
S3150000563003000DF103030DF102023946002002F0CA
S31500005640D3FB71E100F09BF902F0E6F98DF80E004C
S3150000565003A8FEF72FFF0BE000F091F904AB0DF164
S315000056600E02C0A1012002F0BFFB03A8FEF731FF26
S315000056709DF80C0028B937208DF80D0000208DF814
S31500005680140000F075F90DF10D025146002002F0EC
S31500005690ABFB49E1757500007575620000F06FF9A6
S315000056A000F066F90DF10E025146012002F09CFB56
S315000056B003A8FEF710FF9DF80C0000280CBF37204A
S315000056C09DF80D002EE109F0B7F92DE109F0B5F9C5
S315000056D02AE109F0B6F927E102F0CAF909F0B5F9AD
S315000056E022E109F0D3F9C1E0062CF9DBDFF82C053D
S315000056F0DFF8281500680019401F086014E1012032
S3150000570000F047F9002840F02A8107260CE1092815
S315000057100CBF0120002002F057F905E10C280CBF50
S315000057200120002000F0E4F9FEE00121684609F0BE
S31500005730F8F928B1002002F088F9BDF8000095E0DC
S31500005740362002F082F9002090E002F065F98246E8
S3150000575002F08EF9814602F05FF9074602F05CF925
S315000057600446B9F5004FB4BF042F702011DABAF120
S31500005770020F0FDA0BEBCA0A3A46DAF8000049467E
S315000057800AF030FAAAF8049004B900278AF80670DD
S315000057900020C7E07020C5E002F03EF981460024F3
S315000057A00020B9F1020FADF802008DF800000BDA07
S315000057B05BF839006A460DF102010AF023FA0BEB99
S315000057C0C900807900B10124BDF8020002F049F950
S315000057D09DF8000002F039F983E002F01DF904009B
S315000057E018BF012400200AF03FFA07463A46FF2A6E
S315000057F008BF182029D0002C14BF48460220BBA1A0
S315000058000AF080FA002002F020F9384608F0F8FA8B
S315000058108AE04FF00009DFF8144434F8190002F06A
S3150000582020F909F10109B9F1280FF6DB2879652875
S315000058307AD107F006FF77E002F01AF907F021FEA9
S3150000584072E002F0E9F80AF0AFFB6BE008F0DDFF6A
S315000058506AE008F0D1FF67E0DFF8D413082002F011
S315000058601FF961E0757600000AF038FD02F0F9F8DC
S315000058705AE0684602F09DF9684603F078FD51E06B
S315000058800AF0F4FE4EE000F06FF802F001F901466E
S3150000589003A80AF039FF45E002F0BEF8044607A95E
S315000058A000F063F803AA07A920460AF02FFF02F0CA
S315000058B0CCF821E00AF02CFF34E068460AF02AFF13
S315000058C002F0C3F8009802F0DCF82DE00AF048FF79
S315000058D00124484505D002F09FF8DFF8581300244C
S315000058E0087020461EE000F03FF807A900F03DF8DA
S315000058F007A903A80AF0A1FF03A9102002F0D0F817
S3150000590012E00AF02DFF02F0ACF8042002F09DF838
S31500005910182002F09AF80C2004E0FEF737FE18B9BA
S315000059205826312002F091F8D8F8001068780870EF
S31500005930D8F800008178002902BF297800298670EE
S3150000594004D0FF218170D8F800000671072E0CBF25
S31500005950012200229DF80800012100F02AF827B054
S31500005960BDE8F08F7577000003A9102002F05BB840
S3150000597005A8019005AB0DF11500009070478C222B
S31500005980002103A80AF0CDBF0622002168460AF0CE
S31500005990C8BF10B504469E48008848B107F005FD0B
S315000059A030B1A54800780122214600F002F8012016
S315000059B010BD2DE9F84F984F04463868884681781F
S315000059C0934602254FF00309FF299449096804BF4D
S315000059D004254FF005090E1A08F04EFD0028B6B250
S315000059E01EBF3868405DCC281CBF1236B6B25FEACF
S315000059F00B0004D038684078C0F3411A02E008F082
S31500005A0018FE82467D4909788A4505D340F2294128
S31500005A100FF230200AF0AEFF4FEA4A1040F0800045
S31500005A20DD2E5FFA80FA05DBDC2007F0B9FC4AF0D0
S31500005A30020A02E0F0B207F0B3FC6E48C17819B171
S31500005A4000214AF0020AC1707C490A781AB1002284
S31500005A504AF0010A0A706E4E318809B14AF0040A0A
S31500005A60BBF1000F06D05FEA080114BF4AF0080A2E
S31500005A704AF0100A396881F801A03968897811B9A5
S31500005A80012101700FE008F0F7FC00281EBF3868FE
S31500005A90415DCC2904D08021C17008F0EFFC02E002
S31500005AA039680020C87008F0EEFC48B13868415DDE
S31500005AB0CB2901BF10F809000028022008F0E2FCFB
S31500005AC0012C30885C4A18BF022C05D108B9147025
S31500005AD004E00020107004E0147010B9002007F0F4
S31500005AE0EDFC4046BDE8F24F07F028BC620000001E
S31500005AF02DE9F04198B0044601F08EFF0546062DCB
S31500005B0012D1DCB9282001F0A0FF4D4801880223FC
S31500005B10224668460BF03FF8BDF8000001F0A1FFF1
S31500005B20641C142CF1DB5BE0082D01D00B2D01D198
S31500005B3024B952E0200003D0092D01D170204DE098
S31500005B4000260FF2141000EBC6073878854230D1D4
S31500005B5097F80180200004BF404601F076FF786880
S31500005B6001884346002201A80BF015F8200027D033
S31500005B7001F052FF97F80180404501D002202DE048
S31500005B80002000E0401CC1B2414501A905D2C0B2C7
S31500005B90095CFF29F6D0462020E0404601F043FF8D
S31500005BA078680088424601A90BF0D1F8002001F080
S31500005BB04CFF761CF6B20B2EC3D374B1B1200DE0A8
S31500005BC0092D05D1152200210DF14A000AF0A9FE82
S31500005BD0787801A901F064FF02E0002001F035FFAA
S31500005BE018B0BDE8F081000000040300B35F002098
S31500005BF0B27F0020AB7F0020CD5F0020BA5F00207F
S31500005C00A87F0020B25F0020B17F0020BC5F00208B
S31500005C10026A0020E35F00205C610020B469002076
S31500005C20006A0020B0690020C45E0020E4730020F2
S31500005C30E8720020E55F0020C27F0020FE69002098
S31500005C40DA030300636F6D6D616E642D68616E64C7
S31500005C506C6572732E63000001100000D20303000E
S31500005C6002100000D403030003020000D603030061
S31500005C7005100000E603030007080000E003030028
S31500005C8000020000CE03030004020000D803030054
S31500005C90095C0000E80303000A140000EA0303009D
S31500005CA00D020000E20303000C080000D00303000D
S31500005CB02DE9F84F80460D46DFF8140C0A99067850
S31500005CC001247E2991469A46A8BF742043DA08002B
S31500005CD003D00B9808F017F901E000F0C5F88346E9
S31500005CE00C9FBBF1FF0F03D100201824387031E060
S31500005CF0342E06D0362E0ED0382E13D0962E18D02F
S31500005D001AE05B464A462946404602F0AFFA044688
S31500005D1002F0D9FF10E05B4642464946284602F0AB
S31500005D2005FB08E05B46EAB24146484602F079FBCD
S31500005D3001E00BF05DFD0446962E1CBF99F80A00A3
S31500005D40387024B9DFF88C0B006800F80BA05846B1
S31500005D5008F056F82046BDE8F28F10B584B0089CCE
S31500005D600294079C0194069C009407E010B584B049
S31500005D700446104600F00FF80A462146FFF798FF42
S31500005D8004B010BD10B5044684B00846114600F0B4
S31500005D9002F82246F2E7089A0292079A0192069AB8
S31500005DA000927047E0B50022019100900292002314
S31500005DB000210020FFF77CFF0EBD2DE9F04683B0E1
S31500005DC00D460C990746080091469A4603D00D9851
S31500005DD008F099F801E000F047F804460E9EFF2C03
S31500005DE003D10020182530700BE00A980190CDF8F9
S31500005DF000A023464A462946384602F0F7FA00F044
S31500005E0027F822E02DE9F04683B089460C9905462D
S31500005E10080092461F4603D00D9808F074F801E07A
S31500005E2000F022F804460E9EFF2C03D10020182510
S31500005E3030700AE00A98009001943B465246494663
S31500005E40284602F095FA00F003F82846BDE8FE86DB
S31500005E500500B87A307004D1DFF8781A09680B9813
S31500005E600855204607F0CCBF002008F02BB838B5FF
S31500005E70DFF8644A2080C888440606D5DFF85C4A05
S31500005E802478202C03D1000401D4702032BDDFF821
S31500005E90504A1000216004D01146184608F033F825
S31500005EA001E0FFF7E1FF0546FF2D08BF18240AD0E1
S31500005EB020684088294602F0A5FC044602F003FF4C
S31500005EC0284607F09DFF204632BD02F07CBE0BF04F
S31500005ED0FBBD0BF0F5BD2DE9F041069F0D460446CE
S31500005EE01646984639460BF072FE20460BF087FEA2
S31500005EF00799088038460BF091FF089908702946E3
S31500005F0020460BF0FAFD074638B9314620460BF01D
S31500005F1032FE414628460BF09FFF3846BDE8F08129
S31500005F20DFF8C0391B78984201D370207047DFF83C
S31500005F30B829126832F820300B8002EB8000807896
S31500005F40887000207047DFF89C391B78984201D38F
S31500005F5070207047DFF8902912680B8822F82030ED
S31500005F6002EB8000897881700020704730B585B0DB
S31500005F700C4604F0A1FA05460020207310230722E0
S31500005F806946012007F01DF8082202A920460AF0FA
S31500005F9085FCBDF80000208104F114019DF8020083
S31500005FA0A0729DF80300E07204F110000BF0ADFF43
S31500005FB0E08105B0284630BD38B504460D460AF0E6
S31500005FC06FFA0146082220460AF068FC0AF064FAD5
S31500005FD02880DFF81809007832BD0CF07DBBFF225F
S31500005FE003F043BA70B5A2B00D460446694604F004
S31500005FF086FB060004D12A466946204601F0D9FEF2
S31500006000304622B070BD10B504462078002841D134
S31500006010012020722070A078401E0BD0401E07D0B1
S31500006020801F07D0401F05D0401F022802D903E079
S315000060300220207200206070A07801280CD002286F
S3150000604014D008280CD00D280DD0122817D01328EC
S3150000605017D0142818D01BE0DFF89408007815E054
S3150000606002F050FF12E00DF0C2F80FE0DFF88408EE
S31500006070018804F10900BDE8104006F08CBEFF203F
S3150000608004E003F0ECF901E00DF03AFA607210BD9D
S315000060900020207010BD10B5044682B0207858BB91
S315000060A00120207000206070A07818B1022819D055
S315000060B00BD31FE061686A46C9B208F00FFC607036
S315000060C00220207204F1090007E0032020726846CE
S315000060D00DF0E1FB607204F10A00BDF8001006F055
S315000060E05AFE13BD01202072606880B202F07BFD6B
S315000060F0607213BD0020207013BDF0B5044687B052
S315000061002078002840F01A8101202070A078010034
S3150000611027D0012849D002284ED0052818BF0628C6
S3150000612052D0082800F0FB8009285BD00A2800F02E
S315000061307E800B2800F080800C2800F0C4800F2899
S3150000614000F0C580232818BF242800F0CD8025281C
S3150000615000F0DB80292800F0E480342800F0E3809A
S31500006160EAE0207A102860D100F0EAF8ADF80400E1
S31500006170082294F90B008DF8060004F11001207B2B
S315000061808DF80700607B8DF80800A07B8DF809006C
S31500006190E07BADF80A0003A80AF080FB1023072273
S315000061A001A9002006F00DFFC3E0207A01283CD1AA
S315000061B0607ADFF83C17BBE0207A022835D100F080
S315000061C0BFF8DFF830170BE0207A02282DD100F057
S315000061D0B7F8A17805290CBFDFF81C17DFF81C17E4
S315000061E00880A6E0DFF818070568207A46080DB98A
S315000061F0DEB99EE0DFF80C070078B04215DB002719
S3150000620007E004EB4700093006F0BEFD25F817004D
S315000062107F1CB742F5DB4FF4004725F81670284679
S315000062200DF091FD002801D02F80362082E000F08D
S3150000623087F80DF07EFF7CE000F082F8DFF8C826D4
S315000062401268527B05464FF6F87122B9884202DA87
S315000062500AF048F86DE02A002FD088422DDA0AF0BD
S315000062603DF8854229D028460EF032FE28BB05A906
S3150000627028460BF06DFD00BB28460FF0B2FBE0B9D7
S3150000628028460FF0D3FCC0B928460FF0E2FEA0B9AD
S3150000629028460CF064FA80B928460FF023FF60B94F
S315000062A028460AF01FF899231322A1A103200FF014
S315000062B02CFF992010F042F83BE00AF00FF88542D7
S315000062C037D0382036E0607ADFF8401630E0657A5D
S315000062D004F10A0006F058FDADF800006A462946AA
S315000062E0012008F0FBFA25E0217A042912D123289F
S315000062F00CBF0325012504F10901012006F05DFD0F
S315000063000146284610F0A8F814E0607A032818BF62
S31500006310042801D002200DE003F0E3FF09E0372056
S3150000632008E0702006E0607A00B10120DFF8E01591
S3150000633008700020607001E00020207007B0F0BDFA
S3150000634004F1090006F020BD10B50446DFF880050B
S315000063500078217856280CBF0120002009BBA170C7
S31500006360DFF878256178032905D108B150780FE068
S31500006370E078507013E0022905D108B1107807E0E3
S31500006380E07810700BE009290BD118B104F03CF944
S31500006390E07004E0E07800B1012004F027F9012064
S315000063A0207010BD017801B1704730B581700121B0
S315000063B001704178052908D0122915D018290CD06A
S315000063C01F2914D0382915D018E0DFF84815DFF852
S315000063D0482509781278891A24E0DFF840150A78EA
S315000063E0511E8941C90F1DE0DFF8341504E0DFF8BE
S315000063F0341501E0DFF83015098813E000220FF2AA
S31500006400DC5300E0521CD2B214461D5DFF2D02D1B2
S315000064100021017030BD8D42F4D10FF2DC5151F8EC
S3150000642024100978818030BD70B504462078002894
S315000064307BD10120207000206278A070052A0AD046
S31500006440122A2CD0182A1FD0192A04D01F2A22D08B
S31500006450382A2FD033E0DFF8C0040578DFF8B4041B
S3150000646001784E1BA188052A0CBF0E460D46A919B8
S31500006470C9B207F089FA0028A07056D1E9B2F0B285
S31500006480BDE8704010F050BAA188481E8041C00F88
S31500006490DFF888143FE0A088DFF888140DE0A188B3
S315000064A047F231508142A8BF36203BDADFF870044C
S315000064B0018070BDA088DFF87014088070BD0FF2EF
S315000064C01C5100E0401CC0B20346CD5CFF2D02D13A
S315000064D00020207070BD9542F4D1A188022B08DA05
S315000064E0DFF8480450F823000078884238BF362089
S315000064F018D30FF2045050F82300092B0DDAC9B255
S3150000650007F042FAA070002804BF607811280CD169
S31500006510A088DFF81C14087070BD342A04D1C9B2F3
S3150000652007F032FAA07070BD017070BD0000000067
S3150000653042420000F8B504460D461146184607F0DB
S31500006540E2FC18260746FF2F08D03A462946204681
S3150000655010F059FD0646384607F052FC3046F2BDAB
S3150000656038B504460D462188284606F014FC618895
S31500006570A81C06F010FC2079287160796871A81DA6
S31500006580E18806F008FC218905F1080006F003FC05
S31500006590A07AA87231BD10B586B004461B208DF8CE
S315000065A00000A0788DF801000DF10200218806F0A8
S315000065B0F2FB0822211D01A80AF070F9E1788DF896
S315000065C00C10217B8DF80D10607B8DF80E000DF1FF
S315000065D00F0000F0EAF9112100F01FF906B010BD16
S315000065E080B51C228DF801008DF802108DF8002070
S315000065F0D9E02DE9F04788B007460D46144610F05D
S3150000660079FD824622462946384608F0F3F80028E6
S3150000661063D10DF1090010F075FD30B962208DF8D7
S315000066200800092102A80FF0A4FDFF2C0FBF0026C9
S31500006630C04909680E5D45208DF808008DF809707F
S315000066400DF10A012846FFF78BFF0DF1150000F04A
S31500006650ACF951460DF1170006F09DFB02F0F7F874
S315000066608DF819000027B448DFF8AC820568DFF81A
S31500006670A49201E07F1C0C3599F8000098F80010F0
S31500006680FFB2401A87420ADA28885045F2D107F04D
S31500006690D4FFA97AC1F342018142EBD100E0FF2782
S315000066A08DF81A708DF81B60504602F09CFA8DF832
S315000066B0040000B10120009001AB2246142102A87B
S315000066C00FF05FFD00281EBF84480078212804D102
S315000066D09A48017841F00401017008B0BDE8F087DE
S315000066E02DE9F0430746934800681D4687B0465D8E
S315000066F00E9C884691462146384601F032FC3F20E2
S315000067008DF804008DF8057041460DF1060006F07F
S3150000671042FB02A94846FFF723FF6E480068405D2A
S315000067208DF813008DF8144085480078402804BF82
S315000067300026FF25002000908DF8156000232A46CC
S31500006740122101A80FF01DFD07B0BDE8F08330B59A
S3150000675089B00D46044604A90BF0BEFF23208DF830
S3150000676000008DF801408DF802500DF10300BDF8D0
S315000067701A1006F010FB082204A90DF105000AF014
S315000067808DF89DF818008DF80D000E2100F045F8E3
S3150000679009B030BD80B57C218DF8001001460DF1A1
S315000067A0010006F0F8FA032168460FF0E2FC01BD8D
S315000067B070B586B004467D208DF800000D4616465D
S315000067C021460DF1010006F0E6FA082229460DF1F0
S315000067D003000AF063F88DF80B600C2100F01DF839
S315000067E003A810F08FFC18B903A9204610F0A2F8F0
S315000067F006B070BD38B504460D4601F091FB802009
S315000068008DF800008DF8014029460DF1020006F0D2
S31500006810C2FA042100F001F831BD68460FF0A9BCA8
S3150000682010B584B0044646208DF8040001A82178EE
S315000068304170617881700DF1070000F0B6F83D48AF
S31500006840A1780068405C8DF80900002300200090C4
S315000068500621A27801A80FF094FC1FBD80B59820F0
S315000068608DF800008DF80110684602219DE71FB5DE
S315000068700C4692218DF80410082201460DF1050000
S315000068800AF00CF80DF10D0000F08FF829480068A9
S31500006890005D8DF80F0000230020009022460C2199
S315000068A0D8E7244A00B5126883B0125C8DF805104B
S315000068B093238DF8062000218DF8043000910246BE
S315000068C00023032101A80FF05CFC07BD00000000B7
S315000068D0AF7F0020707500209A770020D35F0020DC
S315000068E09C770020B85F0020045E0020C67F002051
S315000068F0CF7F0020A65F00209A5F00209C5F0020CB
S31500006900CC7700206C75002064750020807F002005
S315000069106D5F0020BF5F002091790020B45F0020EA
S31500006920885F0020845F0020945F0020445E002082
S31500006930C45F0020D45D0020385E002098770020D8
S31500006940CD5F00207FB504460D46164669460120F8
S3150000695003F0D5FE28B140F213510FF260000AF0A1
S3150000696009F84D208DF8040001A8447085700120B7
S315000069708DF808008DF809008DF807600DF10A0002
S31500006980BDF8001006F007FABDF8021003A806F0DD
S3150000699002FA0A2101A80FF0ECFB7FBD80B50BF0CF
S315000069A09FF8BDE8014010F0C7BB10B5044610F0D3
S315000069B09AFB601CBDE8104010F097BB636F6D6DCD
S315000069C0616E642D68616E646C6572732D7A696799
S315000069D06265652D70726F2E63000000110203065A
S315000069E007081A2B2C1910131B1C1D2021222A2ED6
S315000069F033343537FF000000B55F0020BB5F002051
S31500006A00C05F0020B85F0020B65F0020B75F00209F
S31500006A10A17F0020B95F00206C75002091790020CD
S31500006A20C55F0020C65F0020C75F0020C15F002051
S31500006A30A37F0020A55E0020C85F0020C95F00205C
S31500006A40A77F0020AA7F0020EF5F0020BC5F002008
S31500006A507B750020E95F002038B504460029104602
S31500006A6001461A46204602D011F084FF01E011F0DB
S31500006A7052FF0546002C1EBF04980028A04203D0F2
S31500006A802146142211F0E2FF284632BD02460220BA
S31500006A9000291CBF104612F005B8704702460220B6
S31500006AA000291CBF104612F090B870471CB504466A
S31500006AB00020ADF800002078F8B902202072A078F6
S31500006AC00A280AD0102810D101A812F066FA6070C0
S31500006AD0BDF80400ADF8000004E0002060706846D0
S31500006AE00DF040FB0120207001E0207828B1BDF8B0
S31500006AF0001004F1090006F04EF913BD38B504463E
S31500006B002078002804BFA078102812D104F10901CA
S31500006B10012006F052F9054604F10D0006F034F99D
S31500006B20ADF800006946284612F00CFA60700120A4
S31500006B30207031BD76490978027856290CBF0121AB
S31500006B4000212ABB8270012202704278130006D10E
S31500006B50704A09B1117811E0C07810707047052AA3
S31500006B6005D16D4A61B1117841F0500106E0062A5F
S31500006B700CD16A4A21B1117841F06001C1707047A9
S31500006B80C17801F00F01C1701170704700210170CA
S31500006B90704710B504462078B8B900F045F806D01D
S31500006BA01E2807D0242807D0362808D00BE009F085
S31500006BB07BFC06E05A4800E05A48007801E05A4853
S31500006BC00088A08010BD0020207010BD10B50446BE
S31500006BD0207840BB00F028F806D01E280AD02428CA
S31500006BE012D0362819D01CE0A088BDE81040C0B2EB
S31500006BF009F05EBC4D48A188007888420AD3C9B224
S31500006C00474806F0C1FE06E0A1880B2902DA45488E
S31500006C10017010BD3620A07010BDA08842490880C2
S31500006C2010BD0020207010BD012020700020A07033
S31500006C3060780D28704700002DE9F04F1646012EAA
S31500006C4089B0804689469A4612D10124002506A8B5
S31500006C500DF092FA022755EA0401DFF8B8B005D024
S31500006C6058B9BDF81800800707D535B1032715E0D8
S31500006C700024032EEAD10125E9E79BF80000052848
S31500006C800AD8DFE800F0030605090841012705E0F8
S31500006C9085B1002702E02746022F0BD009F01EFB24
S31500006CA0824507D0514640460AF0E1FE4946404635
S31500006CB00FF040FE019753469BF8000000903246C5
S31500006CC049464046FDF75DFC044624208DF8080041
S31500006CD041460DF1090006F05EF8082249460DF11D
S31500006CE00B0009F0DBFD8DF813608DF8144051465A
S31500006CF00DF1150006F04FF80F2102A80FF039FA32
S31500006D00204609B0BDE8F08F002DC2D0AEE70000E6
S31500006D10AF7F0020D05F0020A57F0020C25F00204B
S31500006D20A47F0020A97F0020865F0020BE0E0300FE
S31500006D3080B56E218DF800108DF80100022168469D
S31500006D400FF017FA01BD10B584B00C469B218DF8E3
S31500006D500010082201460DF1010009F09FFD8DF893
S31500006D6009400A2168460FF004FA1FBDF0B583B04A
S31500006D7010F8014B0E461746214607F0C4F80546A3
S31500006D80FF2D03D10E4901200870F7BD8E208DF826
S31500006D9004008DF80560002000908DF806708DF8CF
S31500006DA0074000232A46042101A80FF0EAF92846E5
S31500006DB007F026F8F7BD00B1024812F00FBA00003E
S31500006DC0FE6900206D6D000000B58028A1B0A8BF47
S31500006DD002200ADA8DF8000002460DF1010009F0E2
S31500006DE05DFD0021684612F0F2FA21B000BD10B533
S31500006DF004462078002804BFA07833280FD101204C
S31500006E00207009B1002004E0607A12F04BFB00B15B
S31500006E10362060700120207212F058FB607210BD9F
S31500006E200121E4E70021E2E730B58BB004460D46C8
S31500006E302A22FF21684609F074FD2146284607F0FC
S31500006E4062F80446FF2C08BF182505D012F060FB37
S31500006E500546204606F0D4FF28460BB030BD10B5D7
S31500006E604E4C2178FF29A8B008BF702020D0002002
S31500006E7000904A2300220AA807F061F8002000903B
S31500006E80252321784A221DA807F059F800200090F2
S31500006E90242321786F2201A807F051F8207806F004
S31500006EA0AFFFFF20207001AA0AA91DA812F03DFB22
S31500006EB028B010BDF8B5394F04463878FF280D467E
S31500006EC0164608D19321002007F01DF8FF283870D8
S31500006ED001D13520F2BD01200090334639782A468B
S31500006EE0204607F02CF80020F2BD10B50446A6B0E7
S31500006EF0207860BB01202070A0781A2804D024D303
S31500006F001C2815D00AD320E04A2204F1090113A84F
S31500006F1009F0C4FC4A22002113A812E0252204F13C
S31500006F20090109A809F0BAFC25224A2109A808E0A6
S31500006F30242204F10901684609F0B0FC24226F21DD
S31500006F406846FFF7B7FF607001E00020207026B0AA
S31500006F5010BD0178002904BF417829290CD11049B8
S31500006F600978522904D10F4909788180002100E06F
S31500006F703821817001210170704710B5074C2078C7
S31500006F80FF281FBF06490978AB29ED2903D006F073
S31500006F9037FFFF20207010BD00000000D25F0020E8
S31500006FA0AF7F0020A67F002011B1012903D004E0A5
S31500006FB0114604F0F1BD04F041BE0220704710B541
S31500006FC004462078002804BF607808280ED11448AB
S31500006FD00078562803D105F0D5FAE07002E0E07893
S31500006FE005F0D3FA0020A0700120207010BD0178B2
S31500006FF0A1B941782F2908BF0A4902D030290DD1FD
S31500007000094959B1064A1278522A07BF0978818080
S3150000701082880A700021817001210170704700008A
S31500007020AF7F0020CB5F0020CC5F002030B58FB053
S3150000703005460C463B220021684609F072FCB62044
S315000070408DF800000DF10101284600F076F8DCB15C
S3150000705000218DF82910082221460DF12A0009F099
S315000070601DFC0DF12905207A68720DF13300618946
S3150000707005F091FEA1890DF1350005F08CFEA07B8F
S31500007080A873E07BE87302E001218DF829100DF169
S315000070903900FFF78AFC3B2100F00CF80FB030BD39
S315000070A080B5B7218DF800108DF80100022100F09F
S315000070B001F801BD68460FF05CB810B586B004460D
S315000070C0B8208DF800000DF10100218805F063FE5F
S315000070D061880DF1030005F05EFEA1880DF1050043
S315000070E005F059FEE1880DF1070005F054FE2189EF
S315000070F00DF1090005F04FFE61890DF10B0005F059
S315000071004AFEA1890DF10D0005F045FE0DF10F00B7
S31500007110FFF74BFC1121FFF7CDFF06B010BD00B500
S315000071208BB0BB218DF800100DF1010100F005F8C0
S315000071302921FFF7BFFF0BB000BD38B504460D4649
S31500007140A0782870681C218805F025FE0822211DDC
S31500007150E81C09F0A3FBE078E87205F10E01207B3C
S315000071602873607B68730120226905F018FE626946
S3150000717005F11201012005F012FE218B05F1160022
S3150000718005F009FE082204F11C0105F1180009F0BA
S3150000719085FBA18C05F1200005F0FDFDE18C05F1D4
S315000071A0220005F0F8FD04F1280105F124000A7813
S315000071B002704A7842708A788270C978C17031BD8F
S315000071C0F8B5BB4D0446286800792B38022801D94A
S315000071D00D382ED100F020FC06462868B549401D22
S315000071E00860002131200FF08CF805464FF6FF7736
S315000071F00BE005F10D0080B20EF0B0FFB04213D0E7
S31500007200294631200FF07DF80546BD42F1D1002117
S3150000721000E0294632200FF074F80546BD4208D03A
S315000072200EF09CFFB042F4D1A42000F00EFC00202A
S315000072302070F1BD38B50446002100E029463F2004
S315000072400FF05FF805464FF6FF7085420CD02846D2
S315000072500EF084FF0228F1D1681C80B20EF07EFF8A
S31500007260A042EBD1012032BD002032BD2DE9F8430A
S315000072708046002145200FF044F84FF000090446EF
S315000072808D4D4FF6FF7609E0FF21B8B20EF06BFF89
S31500007290A1B245200FF035F8A1460446B44224D0E9
S315000072A004F11007B8B20EF059FF4045F0D1204660
S315000072B00EF054FF022818BF0328E5D1A41FA0B280
S315000072C00EF04CFF01462888401A32187B482A8067
S315000072D00919121B92B2007800924B1C9BB202460F
S315000072E0A1B207F024F84C46D2E7BDE8F183F0B529
S315000072F0734F3D788BB0064607F09FF907F09BF970
S3150000730000F07BF806D012282FD17188707807F02C
S3150000731028FB50B3707804A907F0C2FA88B1BDF80B
S31500007320100040F20911884204BF7088B0F5006F62
S3150000733007D1701D12F004F9B52802D0A8B90024AF
S3150000734013E00124002500E06D1C3978E8B288427C
S315000073500BD206A900F099F99DF818000028F3D180
S315000073603146E8B200F09CF9044631208DF8000061
S3150000737030788DF8010070788DF802000DF1030069
S31500007380718805F008FD30798DF805000822711D19
S315000073900DF1060009F082FA8DF80E508DF80F40B7
S315000073A0102168460EF0E5FE20460BB0F0BD38B55C
S315000073B0054607F042F907F03EF900F01EF818BF3F
S315000073C012280DD12846FFF735FF08B1752407E0CE
S315000073D0284600F0B0F9040004BF2846FFF746FF30
S315000073E032208DF800008DF801508DF802400321FF
S315000073F068460EF0BEFE204632BD324800786C2448
S315000074001128704738B504460D46FFF713FF08B13B
S31500007410752511E03DB107F00CF968732946204641
S3150000742000F03EF902E0204600F085F90546280006
S3150000743004BF2046FFF71AFF284632BDE2E70021C7
S31500007440E0E721490978027856290CBF012100217D
S31500007450002A04BF4278012A0AD11A4A002919BF14
S315000074601178C170C17811700021817001210170FD
S31500007470704710B504462078002804BF60780428B9
S3150000748014D111490E480978522903D10078A080F9
S31500007490002008E00D4AA18812788A4232BF3620C1
S315000074A0C9B206F071FAA0700120207010BD00006C
S315000074B05C610020B0690020026A0020E35F0020C2
S315000074C0A27F0020D15F0020AF7F0020BC0E03000A
S315000074D01FB50C4602460D231521684609F05BFBD5
S315000074E00D226946204609F0D9F9207840096073D3
S315000074F0207800F01F0020701FBD30B585B004460F
S315000075000D460D22684609F0C9F99DF80000697B11
S3150000751040EA41108DF800000D236A4621461520E9
S3150000752009F07CFB05B030BD2DE9FF41044600F0B3
S315000075305FF814E03068EDB2A84630F81800A042B3
S315000075400CD16946284600F0A0F89DF800000228F4
S3150000755004D031684FF6FD7021F818006D1CE8B2B2
S3150000756039788842E6D3BDE8FF812DE9F0458846A3
S315000075704FF6FF7AD04585B0044605D100F0D8F91C
S3150000758010B908F0ABFE30E000F032F80CE0D04560
S3150000759008D0306830F81510414504BF4FF6FD712C
S315000075A020F815106D1CEDB2387885421CDA30686B
S315000075B030F8150000F018F9F4DA69462846FFF7A6
S315000075C087FF082221460DF1050009F0B1F90028D0
S315000075D0DDD13068D04502D130F8150005E020F83D
S315000075E0158011F0E8FFDDE7504605B0BDE8F085EF
S315000075F00025DFF8C463DFF8C47370472DE9FF4741
S31500007600804689460026DFF8B873DFF8AC43DFF81A
S31500007610AC5316E02068F6B2B24630F81A0000F015
S31500007620E3F80DDA69463046FFF752FF0822414675
S315000076300DF1050009F07CF910B9386800F80A90D8
S31500007640761CF0B229788842E4D3BDE8FF87DFF8DC
S315000076506813096831F8100070471FB5DFF85C231E
S31500007660127890420C460FD2D349096831F81010AF
S315000076704FF6FE72914207DA694600F006F8214697
S315000076800DF10500FFF771FF1FBD80B5CB4B1B78D1
S31500007690984201D3692002BDFFF71AFF002002BD00
S315000076A070B504460D4623460022B4A103200EF011
S315000076B02CFD28780028204602D1BDE870403AE02B
S315000076C0BE490978884201D3692070BD12F093FB48
S315000076D008B1752070BD06F0BBFF6873681D0AF01F
S315000076E09DFB06464FF6FF71681DFFF73EFF0246FB
S315000076F029783346204600F006F829462046FFF74B
S31500007700FCFE002070BD30B54FF6FF740D0008BFBB
S31500007710224608D0032908BF4FF6FE7203D0A242C4
S3150000772008BF4FF6FD72A449096821F81020A44944
S3150000773009680B5430BD30B505462C4685B0234646
S3150000774001228EA103200EF0E0FC9C490978284610
S31500007750884228BF692019D212F04DFB08B1752066
S3150000776014E069462846FFF7B3FE9DF8000030B1E5
S3150000777000208DF8000069462846FFF7BEFE8E49B8
S3150000778009684FF6FF7021F81400002005B030BDDF
S31500007790F0B585B007460C46874D884E00E07F1C45
S315000077A03178F8B288421CD22868FFB230F8170048
S315000077B000F01AF8F3D169463846FFF789FE9DF8BE
S315000077C00500E1B2884204BF9DF80610B1EB142F04
S315000077D0E5D106F03DFF9DF80D108142DFD1384618
S315000077E000E0FF2005B0F0BD4FF6FE7188427047FD
S315000077F02DE9F14F84B00D460E9C6F4FDFF8BCA10A
S3150000780090469946002607E03868BDF8101030F813
S315000078101B0088422CD0761C9AF80010F0B28842E1
S3150000782028D23868F6B2B34630F81B00FFF7DCFF03
S31500007830F1DA69463046FFF74BFE5FEA080007D1EA
S315000078409DF80100484504BF9DF80400A042E2D11E
S3150000785006F0FEFE9DF80D108142DCD1002DD3D03E
S3150000786008220DF10501284609F062F80028D2D158
S31500007870304600E0FF2005B0BDE8F08F10B5144695
S31500007880FFF726FE2046BDE8104008224D4909F0C4
S3150000789005B82DE9FF470446084615461E4600F082
S315000078A047F808B1002040E00027DFF80C81DFF838
S315000078B00C9100E07F1C99F80010F8B2884223D2A0
S315000078C0D8F80000FFB2BA4630F81A004FF6FF713A
S315000078D08842EFD069463846FFF7FAFD0C220DF1D3
S315000078E00101601C09F024F80028E3D1BAF1FF0F6A
S315000078F00CD10020307006F0AAFE307855B138B9A8
S315000079002046FFF7F4FC09E0FF27F2E70120F1E744
S31500007910012006E028B13846FFF749FD401E8041A8
S31500007920C00F307006F099FE012004B0BDE8F08764
S315000079300822244908F0FCBF30B585B000241F4D4D
S3150000794016E06946FFF7C4FD9DF80000042806DB33
S3150000795000208DF800006946E0B2FFF7CEFD9DF8E5
S31500007960001000234FF6FF72E0B2FFF7CCFE641C56
S315000079702978E0B28842E4D305B030BD4242000027
S3150000798030B585B002220BA103200EF0BEFB00200D
S315000079908DF800000024094D03E06946FFF7ADFDB0
S315000079A0641C2978E0B28842F7D3FFF7C5FF0020B0
S315000079B005B030BD420000002C5E0020A27F0020F2
S315000079C0305E0020E872002030B583B0044600F037
S315000079D023F80546202D1ADA5CB16946082000F026
S315000079E022F808236A462946202009F017F90020C4
S315000079F00EE008232A462021684609F0CCF800202C
S31500007A0000F023F86946082000F04AF837BD7020D8
S31500007A1000F01BF837BD70472A480168491C016011
S31500007A2011F8010D704738B50446264D08462968F9
S31500007A30224608F033FF28682044286031BD214AD9
S31500007A40116808441060084670471F491F4B0A68B2
S31500007A501B68D31ADC2BB8BF10700868401C08607E
S31500007A60704710B50446C0B2FFF7EFFF200A48E0A2
S31500007A7010B5FFF7D1FF00F042F904EB002080B209
S31500007A8010BD10B5044680B2FFF7EBFF200CB7E03F
S31500007A9010B5FFF7EDFF00F05EF804EB004010BDF7
S31500007AA038B5094C094A2368126805469A1AAA1875
S31500007AB0DD2A03DA0246184608F0F0FE206828445C
S31500007AC0206031BDB0690020B46900205C610020EF
S31500007AD010B500F042F8FFF7CBFF2081FFF79CFFBF
S31500007AE0A072FFF799FFE072FFF796FF2073FFF78A
S31500007AF0BFFFE081FFF790FF2074FFF7C9FF6061C9
S31500007B0010BDBDE81040A0E710B500F024F82080B5
S31500007B10FFF7AEFF6080FFF77FFF2071FFF77CFF66
S31500007B206071FFF7A5FFE080FFF7A2FF2081FFF756
S31500007B3073FFA07210BD10B500F00AF8A078E0E758
S31500007B4010B500F008F82080FFF766FFA07010BDA2
S31500007B500446208885E704468AE70446214608202D
S31500007B6061E710B500F0CBF8A070FFF781FF208029
S31500007B70211D00F0C2F8FFF74FFF00B10120E070B1
S31500007B80FFF74AFF2073FFF747FF607310BD10B57C
S31500007B900446214600F07FF82069BDE8104070E7F2
S31500007BA010B50446214600F078F8FFF771FF206112
S31500007BB010BD10B5FFF7CFFF208010BD207944E738
S31500007BC010B50446FFF7CDFF04F1100000F01BF8D6
S31500007BD004F11C0100F091F8FFF74AFF24F8240F86
S31500007BE0FFF746FF6080FFF717FF2071FFF714FFCE
S31500007BF06071FFF711FFA071FFF70EFFE07110BD76
S31500007C00BDE810402DE710B50446FFF741FF2060A0
S31500007C10FFF73EFF6060FFF72BFF208110BD10B518
S31500007C2000F010F800F08CF8E088FFF71AFF2089C2
S31500007C30FFF717FF6089FFF714FFA089FFF711FF11
S31500007C40A07B5EE7044620681BE710B50446FFF7F5
S31500007C501FFF2060FFF70CFFA080FFF709FFE08001
S31500007C60FFF706FF2081FFF703FF6081FFF700FFA4
S31500007C70A081FFF7D1FEA07310BD10B5FFF7E2FF9C
S31500007C80FFF79CFF611D00F006F804F11501BDE841
S31500007C901040102004E7102002E71020C3E610B5BC
S31500007CA00446207AFFF7D1FE207A010006D120682B
S31500007CB0FFF7E7FE2068FFF7E4FE04E0022802D1A2
S31500007CC0214600F002F8607A1BE70820E8E610B5C6
S31500007CD000F015F80100207206D1FFF7D9FE2060EA
S31500007CE0FFF7D6FE206004E0022802D1214600F00C
S31500007CF004F8FFF791FE607210BD082093E6044673
S31500007D008AE638B5044602252078FFF79EFE2078DD
S31500007D10401E012806D96089FFF7A3FEA11CFFF7C4
S31500007D20D4FF09E000F00CF800F00CF800F008F8B9
S31500007D3000F008F800F004F80C346D1EE4D131BDF3
S31500007D40A0888EE660888CE610B504462078FFF79A
S31500007D507CFE6068FFF795FE04F10800FFF79FFFC1
S31500007D60A08AFFF77EFEA07DFFF76FFEA069FFF7F2
S31500007D7088FE04F11C01FFF78EFF04F12C00FFF7CB
S31500007D80C0FF14F8440FFFF760FE6078B9E610B53F
S31500007D90FFF7DEFEFFF7D6FFA08831E710B5FFF745
S31500007DA0DAFE2080FFF764FE6080FFF761FEA080A8
S31500007DB010BD30B502F8010B002312E031F8234064
S31500007DC002F8014B31F82340240A02F8014B01EB7B
S31500007DD083045B1C658802F8015B6488240A02F848
S31500007DE0014B8342EADB30BD0CB4F8B505460C46C0
S31500007DF006AE08E056F8040B290003D00078FFF71A
S31500007E001EFE3860641C2078010037D056F8047BCB
S31500007E10622827D07028EDD0732818BF752804D0A3
S31500007E2076280CD0772814D0ECE7280003D0FFF78B
S31500007E30F3FD3870E6E73878FFF707FEE2E728003B
S31500007E4003D0FFF715FE3880DCE73888FFF709FE18
S31500007E50D8E7280002D0FFF71BFED2E73868FFF705
S31500007E6010FECFE756F8040B00782900394602D0F9
S31500007E70FFF7D9FDC6E7FFF713FEC3E7F1BC5DF8D0
S31500007E800CFB000070B55D4D6E8A044605F10800D6
S31500007E9012F021F8012C08BFAE8A02D0022C08BFCE
S31500007EA0022618B1FA217143884206D3310205F140
S31500007EB00800BDE8704012F001B870BD7CB54F4CAB
S31500007EC00020E07020714FF6F972208A90421CBFA4
S31500007ED04FF6F872904202D00020207273BD61798D
S31500007EE0474E4FF6FD7589B14FF6FC7001900023A1
S31500007EF0002000900022308800210AF060FF002058
S31500007F00607135800120BDE87640BBE7A1780FF0AF
S31500007F100BFB3088A842F5D0012060710220F2E701
S31500007F2010B500F039F81CBF4FF6F874A34217D10C
S31500007F30A92818BFAA2813D1D0781378401CD0706E
S31500007F40C0B298420CD32E4803884FF6FD74A34264
S31500007F5002D10180002050710020BDE8104091E759
S31500007F6010BD10B500F018F81CBF4FF6F874A34208
S31500007F7011D103001CBF012802280CD166290AD1A1
S31500007F8010795178401C1071C0B2884203D3BDE805
S31500007F901040002076E710BD184A138A4FF6F97490
S31500007FA0A342704710B5154C2182920002992170A8
S31500007FB09B0003996282A38261709BB20499A170AF
S31500007FC092B293420AD301001EBF218A4FF6F8727D
S31500007FD091421CBF4FF6F972914201D0702010BD3C
S31500007FE0002161714FF6FD71054A118018B101201B
S31500007FF0FFF748FF00E02072002010BDE86900206E
S315000080008C5F00202DE9F54F8BB08B460C98169CA3
S315000080101799ADF804B00026C0889A460746B046C0
S31500008020B14649B9F90607D50C9A9DF82C0000947B
S31500008030594611F06FFA16E1790548BF4FF480589A
S31500008040390548BF48F40068B90548BF48F08008BC
S3150000805003D4F90548BF48F040089DF82C1002915A
S315000080605D469DF82C1003910A2966D8DFE801F0D9
S31500008070082F1B3C65653C06083C18004FF00209BA
S31500008080BDF80420CDF800A0334648F4027120461E
S315000080900BF08CF98246BAF1FF0F50D11820E2E0BE
S315000080A04FF00309ECE706A95FFA8BF0FFF7EDFA4C
S315000080B008220DF11D0104A808F0F0FBDFF888087E
S315000080C0006830F8150004AEADF80400D8E704A93E
S315000080D05FFA8BF009F07BFDDFF8700800680C2171
S315000080E0694304AE405AEFE74FF6F8718D4224DB40
S315000080F04FF40261084220D100F012F918BF912016
S315000081001CD1FF2C0FD000F076FB029903290CBF7F
S3150000811001210021401ADFF838180968095D8842F4
S31500008120B8BF74200ADB029803280CBF4FF00C0975
S315000081304FF0080928F4C078A2E7012093E0DFF8A1
S31500008140145828884FF6FF71884218D0504611F00F
S31500008150E6FF0090001D298804F01DFEDFF8F807F1
S3150000816000990078C8714FF6FF7028805FEAC84012
S3150000817005D500980822291D083008F08FFB0C9AB7
S31500008180494650460BF0E6FA08B9182667E0DFF8CC
S31500008190CC070068C07E70B1B8060CD5F8074CBF96
S315000081A02020002040F001033246002150460EF008
S315000081B0EDFA060053D1FF2C15D0504611F0A5FF5D
S315000081C0DFF898170968C97E01B11221DFF8802708
S315000081D01268135D12F80A20D21874308918884282
S315000081E0B8BF74263BDBB80407D5504611F0A7FF8D
S315000081F040F48061504611F0A4FF0298082812BF8F
S315000082000928504611F0AAFF179848B1BDF8041086
S31500008210504611F0BCFF179880F800A0002022E01D
S315000082200398C01E05D0C01E012884BFC01E0128A9
S3150000823007D850460EF0CFFF00280CBFA126002617
S315000082400DE0B80444BF4FF6BF7007409DF82C10F0
S315000082503B465FFA8BF2504611F0AEF906465046A1
S3150000826005F0CEFD30460DB0BDE8F08F2DE9F043A8
S31500008270164685B00446F08804900D4670790FF2D4
S31500008280187103901F4630790290A84670880190B5
S31500008290434630880090082200F099F800F040F834
S315000082A018BF91201AD1FF2F09D000F0A4FADFF8E9
S315000082B0A0160968C95D884238BF74200ED3200015
S315000082C00FD14FF6F870804528DA0020019000970C
S315000082D0FF23324629462046FFF794FE05B0BDE847
S315000082E0F083022C4FF6FE790CD1DFF8741609786C
S315000082F08D4213D2DFF85006006830F81800484562
S31500008300E3DB0BE0012C09D1DFF8581609788D4222
S3150000831004D2E8B209F073FC4845D6DB0120DDE75C
S31500008320DFF838060068407B02287047F0B587B052
S315000083300D461646044605961F46E8880FF260610C
S315000083400490234668790390092228790290688868
S3150000835001902888009000F03AF8002001900097DC
S3150000836033462A4621460620FFF74CFE07B0F0BDED
S315000083702DE9F04188B01E460E9C07948046F08891
S3150000838006901746707905900D4630790FF21C61FC
S3150000839004904346708803900A2230880290019721
S315000083A0009500F014F8DFF8AC05A0F8008023462D
S315000083B0DFF8A40507700020019032460F98009060
S315000083C029460620FFF71EFE08B0BDE8F08103200F
S315000083D00DF09BBE80B538B101460822DFF888054E
S315000083E008F05CFA002002BD022002BD70B588B01C
S315000083F000F02EF80C98DFF85C15009608802B46E6
S315000084000D98DFF8541508702246DFF860050078ED
S31500008410002814BF4FF6FF714FF6FD710020019042
S3150000842011E070B588B000F013F8DFF84005007869
S315000084300096002814BF4FF6FF714FF6FD7100201D
S3150000844001902B4622460320FFF7DCFD08B070BDE5
S3150000845004460D46069205951E46E0880FF25851D1
S31500008460049006226079039020790290608801903A
S3150000847020880090032023890DF047BE10B5DFF851
S31500008480F00405F09DFF0446FF2C0DD02146042084
S3150000849005F01DFA18B10121204600F006F8204625
S315000084A0BDE8104005F0ACBC10BD2DE9F04F89B019
S315000084B082468B4611F033FE0646B01C04F064FC7F
S315000084C0DFF8B044DFF8B054074650460BF01FF80B
S315000084D00146504605F03BFE8046504611F039FEF7
S315000084E006F0BAF8301D04F04FFC2080009707F024
S315000084F0F5FE009989B2814208F0030912D04FF6C1
S31500008500F87087420EDA7078C0070BD438460AF046
S3150000851016F9002805D0208801235246394600F076
S315000085209EF97AE005A950460BF080F805A8286068
S3150000853030460BF009F8DFF8441408600321504672
S3150000854011F0DDFDDFF8381408700421504611F0F3
S31500008550D6FDDFF8301408705FEA0B002BD09DF8CB
S315000085601A00800627D507F0B9FEDFF8F06340B1A0
S315000085703068007D800704D4B9F1010F08BF1823C5
S3150000858000D008230022002150460EF0FFF890B1DB
S3150000859008F00300012802BF3068407B112805D18E
S315000085A002F0DDFB10B9AF2000F035FC06F055F8FF
S315000085B00020286048E018F0030003D0022806D007
S315000085C00AD32AE05946504600F041F825E05146C4
S315000085D0404611F020F820E007F080FE2188814215
S315000085E01BD05146052005F072F9B0B1296888798B
S315000085F040060DD50C2202A808F050F90020019083
S31500008600FF23FF20009002AA21880A20FFF7FAFC28
S3150000861021885A4650460BF0EFFD07F05FFE218891
S3150000862081420DD150460AF072FF0146504605F0D0
S315000086308EFD0C21084203D10021504611F022FA8A
S315000086400020286006F009F809B0BDE8F08F2DE992
S31500008650FE4F814611F063FD064648460AF057FF75
S315000086600146484605F073FD05467078DFF8084375
S31500008670DFF8007300F001000290B01C04F084FBE8
S315000086804FF6F8718842ACBF4FF0010A4FF0000A6E
S3150000869007F024FE3988814220684088ADF8020040
S315000086A00CBF4FF001084FF00008B01C04F06CFB43
S315000086B00146029840EA0A008DF804009DF804007D
S315000086C0002814BF06200820002206F03FF8206884
S315000086D00188BDF80260002904BF407900281ED138
S315000086E0694648460AF0ACFA23689DF80010421E17
S315000086F0D2B2042011F017FE2068408848F2020129
S31500008700884203D13888494602F0F9FB3888B6F525
S31500008710004F10DBBDF8022049460AF0A5FA206892
S31500008720029919B905F00C010C2935D1008909F017
S31500008730A4FB30BB51E0DFF850B202218BF80010E9
S315000087405346002249460AF0F7F820688079400629
S3150000875004D5BDF80200FF2100F054F8132EDED038
S315000087602068C0884004DAD4884909789BF800005C
S31500008770CA0701D50228D2D089072ED50128CED026
S315000087802BE020680189B8F1000F14BF03250225EC
S315000087900020FEF7FDFF12E00179009100224379E7
S315000087A038880021FFF724F805F00C01082905D1C7
S315000087B0B8F1000F0CBF0425052500E0002574491B
S315000087C008709DF8040008B9382E01D1012200E096
S315000087D00022294648460EF02DFCBDE8F78F10B55D
S315000087E0044600F008F8610548BF0838210548BF6F
S315000087F00838C0B210BD59490968C97E642001B164
S315000088005220704770B55C4E0C4686B005463168FE
S315000088100C2202A808F042F8306801798DF80D1094
S31500008820FF2341798DF80C10ADF80A504FF6BF7151
S31500008830C08800940840ADF80E0002AA00200190FE
S315000088404C4801880720FFF7DDFB06B070BD514894
S31500008850007808B9FF2070474D48007870472DE929
S31500008860FB47914685B01C4648460AF050FE014635
S31500008870484605F06CFC032108428DF800005ED1E5
S315000088803D4805683B48068801A948460AF0CEFEE1
S31500008890394901A808604FF0000ABDF814003549AF
S315000088A008809DF80900002804BFBDF804000028D0
S315000088B03FD1484611F033FC801C04F065FA4FF6B0
S315000088C0F8718842ACBF4FF00108D046002C14BFA7
S315000088D002240124012729E0BDF8140043463A4644
S315000088E049460AF029F85FEA000A1ED0022C08BFA2
S315000088F0012F1AD1BDF818001649088017480068DC
S31500008900417E491C4176A1F18000134908700C2173
S315000089109DF80000084208D19DF80A00400604D5DB
S31500008920BDF80600FF21FFF76DFF7F1CFFB2BC42BA
S31500008930D2DA114805600F480680504600E0002054
S3150000894008B0BDE8F08700002C5E0020385E0020ED
S31500008950D45D00207C5E0020B87F00206475002076
S31500008960A27F0020BF5F0020805E0020AA7F00203B
S31500008970C05E00209A7700209C770020A077002018
S315000089800569002006690020B77F0020A77F002028
S31500008990CA7F002098770020425757574242570017
S315000089A0425757574242574200000000425757422B
S315000089B05757424257420000425757424242574297
S315000089C04200000010B5044605F035FE0FF036FBF8
S315000089D0010018BF00F014F80C21304811FB04F117
S315000089E00844827981880068BDE8104007F0FAB82B
S315000089F00020E7E70120E5E70220E3E70320E1E7BF
S31500008A0010B582B0044605F018FE0C2148432349F0
S31500008A100844210017BF312C0021017A491C01723C
S31500008A20C279017A91420AD30021017243208DF85E
S31500008A3000008DF80140022168460DF09AFB13BD37
S31500008A4017490978312900D0704780B544218DF83F
S31500008A50001001460DF1010004F09DF9032168465E
S31500008A600DF087FB01BD38B50E4C0C4B24780C2558
S31500008A706C43B0F5004FB8BF0429234401DB7020D6
S31500008A8032BDDA71988099719A799988186807F0D9
S31500008A90A9F8BDE831400FF0D1BA00004C5E0020C5
S31500008AA0D45F0020B07F002070B5160004460D4646
S31500008AB002D108F0DCFF02E0FF2108F087FF324612
S31500008AC029462046BDE87040A0E02DE9F04782B077
S31500008AD005468A46174698460DF02CFFC0480A9C64
S31500008AE00078B0B10C2F14DAFF21284608F06EFF8B
S31500008AF0814600260AE004EB4601C9B2404605F06D
S31500008B00E1FB494608F062FF8146761CF0B2B842A6
S31500008B10F1D3009443463A465146284600F08EF873
S31500008B20BDE8F3872DE9F04704468A4600F0D5F8FC
S31500008B30012846D1204608F033FFAA4A126812F8E7
S31500008B400A700025FF281CD081464C46DFF8988223
S31500008B5000E06D1CD8F8000000EB84008478FF2C40
S31500008B60F7D1E8B268B1EDB20C2D0ADA6800861CBE
S31500008B70BAF1FF0F24D0F119C9B2504605F0A0FA98
S31500008B8008B100201DE02A463946504605F0E4FAB1
S31500008B907C1C6A1ED2B2E1B2504605F0DDFA671CB3
S31500008BA04C4606E030F82420F9B2504605F096FB14
S31500008BB0BF1CD8F8000000EB84018C78FF2CF1D1A3
S31500008BC0F0B2BDE8F08710B5FF280AD0864B1B68C7
S31500008BD033F820400C8003EB800080781070002072
S31500008BE010BD032010BD10B508F0DAFE0024FF28E2
S31500008BF00AD0022401E0A41CE4B27B49096801EB17
S31500008C0080008078FF28F6D1204610BD30B583B0AD
S31500008C100C46C4218DF80010154601460DF10100E1
S31500008C2004F0B9F821460DF1030004F0B4F88DF80C
S31500008C300550062168460DF09CFA37BD2DE9F04136
S31500008C4086B0074688461D460DF1050014460EF00F
S31500008C504AFA01A80EF049FA59208DF8080039465B
S31500008C600DF1090004F097F8082241460DF10B00BA
S31500008C7007F014FE9DF805000C9B8DF813006600A6
S31500008C809DF804008DF81400F6B28DF81540009694
S31500008C902A460021284605F04AFB3146284605F0BB
S31500008CA00FFA0020009000232A460E2102A80DF09C
S31500008CB068FA06B0BDE8F08110B5044600F003F886
S31500008CC04A48047010BD10B5484C2078FF2803D0E0
S31500008CD005F096F8FF20207010BD2DE9F041DFF871
S31500008CE00C81074698F80000FF2882B00C4619D080
S31500008CF03C4D2A68115C8E1EF6B2314605F0E2FA4A
S31500008D00B8420FD12868075DF5052D0EFF2C02D15C
S31500008D10A81CC0B220E0F019811CC9B2204605F09B
S31500008D20CFF908B1012017E02A463946204605F05A
S31500008D3013FA6A1E791CD2B2C9B2204605F00CFAA3
S31500008D4098F800200096B91C002389B2204605F049
S31500008D50EEFAFFF7B8FF0020BDE8F6812DE9F041F5
S31500008D6080461F480078002688420F46154638BFC1
S31500008D70742032D3012004F0D8FF0446380010D006
S31500008D807900C9B2204605F09BF950B907E035F8DD
S31500008D9016207100C9B2204605F0A0FA761CBE4224
S31500008DA0F5DB2046FF2811D00E4909680D5CA91C89
S31500008DB0C9B205F085F928B942462946204605F08C
S31500008DC08DFA03E0204605F01BF8FF242046FFF746
S31500008DD073FFFF2C0CBF18200020BDE8F0810000B7
S31500008DE0A17F0020D45D0020285E0020D55F0020F2
S31500008DF0DFF8C42A1268127882420AD019B1012A11
S31500008E0003D1022805D000207047022A08BF012896
S31500008E10F9D101207047DFF8A41A8875704710B59C
S31500008E20DFF8944A2068407B112805D040F20711EC
S31500008E300FF20C0007F09EFD21684120487310BD1B
S31500008E406173736F63696174696F6E2E63000000EE
S31500008E5080B5022005F0F7FB05F0FEFB00F017FFDA
S31500008E60007B042805D1DFF8540A417D491D417570
S31500008E7005E04FF47A71DFF8F00C11F01FF8BDE849
S31500008E80014005F0EABB10B5DFF8304A0020E07477
S31500008E902078FF2803D004F0B3FFFF20207010BD18
S31500008EA070B582B004460D4604F034FF0646B01D88
S31500008EB003F06AFF00F44040B0F5404F0CBF0620B7
S31500008EC000203118097C4A00490802F00E0201F020
S31500008ED038018918401800F11106DFF8940C006873
S31500008EE0005DF6B286420BDA831BDBB20F2BA8BFFE
S31500008EF00F230020009032462146284605F01FF831
S31500008F00304676BDDFF8B0090068407B33281CBFC9
S31500008F104328532801D101207047002070471FB510
S31500008F20012011F009FA11F00CFA0EF047F9F0B130
S31500008F30DFF88849A07910B104F10A0005E020782D
S31500008F406946FFF7ADFF0DF10300DFF81C2C002189
S31500008F501170617901F02FFAFFF795FF00F008F81C
S31500008F6009F0B2FF11F040FA012001F005FB1FBD28
S31500008F7010B500F08CFE017B032918BF042905D12A
S31500008F80408801F0D0FA08BF032008D007F084FA21
S31500008F90044607F085FA2146FEF7E7FA022007F0B5
S31500008FA08BFA08F0A9FF00F066FEBDE8104009F054
S31500008FB0B7BF38B5DFF80449DFF8D85CA075FFF70E
S31500008FC062FF00214FF6FF7001F09FFA2868417B8F
S31500008FD0032918BF00291ED0332918BF432914D1ED
S31500008FE000F063FC2868017B032918BF042906D119
S31500008FF003214173A07DBDE8324005F09BBBA07DF7
S3150000900005F098FBBDE83140B2E721214173BDE888
S3150000901031400AF0A3BC31BD10B5DFF89C18DFF86B
S315000090209C480968002048734FF6FE7007F05AF90D
S315000090304FF6FF7007F05EF900F037FCA07DBDE843
S31500009040104005F077BB70B5044684B0E07A0FF2A5
S31500009050DC01DFF864580290234694F90A00019077
S315000090601522208901F0FAF82868407B70B920891A
S3150000907001F059FA0AD0DFF8200C00780B2805D148
S3150000908005F0ECFA10B905F0EBFA10B1702004B057
S3150000909070BD2868007D80070AD507F01FF94FF6D6
S315000090A0FE718842024604D10CF09DFE024600E0A5
S315000090B000222146104601F03FF906000DD128682E
S315000090C0007D80074CBF0220012001F00AF9002133
S315000090D001200BF070F8060001D03046D7E7DFF824
S315000090E0DC07007F08B109F0ECFB002208212046CE
S315000090F007F083FA30B10421204605F012FD08B9C5
S31500009100A520C4E7DFF8940B00782074DFF8900BF5
S3150000911060610020E081204600F004F90646002048
S3150000912005F04DFA012005F04AFAD6E742387057A5
S315000091304242000010B504462346182200F0B7FB51
S31500009140DFF8600B0021017114B1FF2C02D101215F
S31500009150017007E0012100F8041BA100491C090267
S3150000916010F0ACFE00F087FD002010BDDFF8341BC8
S3150000917000200871DEE730B50D4689B004466869FF
S315000091800FF2941107902346287C06901622E88950
S315000091900590287B0490E87A039095F90A000290DE
S315000091A028890190009501F05AF8287B00280CBF09
S315000091B04FF6FE7007F092F82B46224609B0BDE83E
S315000091C03040014601202DE9F041DFF8EC468046AB
S315000091D02068407B00280F4616461D464BD13000BE
S315000091E049D0052E47DADFF8B00A00780B2842D1BD
S315000091F005F034FA00283ED105F032FA08B1042E03
S3150000920039DB287B032816D14FF6FE70874214D12E
S31500009210012E08BF002710D0022E2CD107F05EF8D1
S315000092204FF6FC71884202DA07F058F801E00CF0BC
S31500009230DAFD074601E0012E1DD0B8F1000F0CD073
S31500009240287B03280CBF01210021012E0CBF012021
S3150000925000200AF0B0FF01005CD12946384601F033
S315000092606BF8010056D105F0F3F905F0D6F920B1F7
S3150000927005F0F6F908B170204CE02068DFF83C767E
S31500009280407B33281EBF53280020F875304601F076
S3150000929028F8387F20B105F0E3F908B909F011FB89
S315000092A0287B032803D12846BDE8F0413AE008228E
S315000092B0294607F10A0007F0F1FA287B0328A8BF20
S315000092C00020B874FFF7DFFD9420B875B87C2168DC
S315000092D000280CBF01203120487301230020387577
S315000092E02068817B4809020003D1BA7F03FA01F1A5
S315000092F008E001F01F0140F0180003FA01F1052211
S3150000930041EAC061052011F016FA010002D0226878
S3150000931000215173BDE8F081424238705742424203
S315000093205742440010B504460022082107F065F9AB
S3150000933008B1012010BD06F0D1FF00224FF6FF71E3
S3150000934001F01EF8217C204601F035F86269E189BA
S31500009350207C08F004FEDFF860050068007B012829
S3150000936008BF0BF0B2FCFFF703FE002010BD38B5B6
S31500009370DFF8444501462068407B002802BFDFF83D
S31500009380180900780B2801D0702032BDDFF8D857B5
S3150000939021B1022205F1080007F080FA684601F0C3
S315000093A08BF808B1932032BD9DF80030142200F0EE
S315000093B07EFA01F04BF8010050D19DF8000000F054
S315000093C090FF2068007B012818BF022807D00328D9
S315000093D018BF042825D1002001F0A9F808B301F030
S315000093E04CF82068007B032814BF042811F0B2FD56
S315000093F0FFF7BEFD012011F003FF01002ED120680A
S31500009400007B032818BF042827D1287A800724D593
S315000094100522DFF88C18012000F027F801001CD087
S3150000942032BD2168132048730020DFF890140875B8
S3150000943001222068817B4809030008BF02FA01F176
S3150000944007D001F01F0140F0180002FA01F141EACD
S31500009450C0610522072011F06EF9002032BDDFF849
S315000094605C04C07D7047FF22FFE72DE9FC41804682
S3150000947000F00DFC0D46017B0129164627D0407BE6
S31500009480022818BF032822D1332007F015F8280632
S31500009490DFF82874400F14BF0522BA7F294605203D
S315000094A011F049F9044698B9FFF7EDFC06F01EFFE6
S315000094B038815FEA080014BF02200120B87407F162
S315000094C00A0001F011F800203875FE7500E07024DE
S315000094D00194009543462C220FF20C0100F0BFFECA
S315000094E02046BDE8F68100004242444200000000EA
S315000094F038B5044604F00EFC0546204610F005FE7D
S315000095002C18204603F040FC4FF6FF510140204640
S31500009510BDE8344003F03FBC70B588B00C46164633
S315000095201D4630B9204611F0B7FE03A909F0D4F85C
S3150000953003A807218DF808100190310A8DF80A104A
S3150000954001200C998DF80B1000908DF8096004230A
S3150000955002AA0121204609F0B4FF0646FF2E18D0C4
S31500009560214610F014FE15B93046FFF7C1FF0D98DD
S3150000957008B930460DE0204609F0E1F818B130464A
S3150000958011F0B8FE01E000F064FE304604F038FC4D
S31500009590FF2008B070BD2DE9F74F84B01F460024A8
S315000095A04FF6FF7857B1384609F0CEFF81467878F6
S315000095B040084FF0010A00F0010605E0104610F0E1
S315000095C04EFEA24600268146BB4D2868007B032836
S315000095D018BF042800F0B2801098411C9DF81800AE
S315000095E0C9B204F0B4FD8346400800F001000290C1
S315000095F05FEA0B602868407B58BF4BF0800B02285F
S3150000960013D1DFF8A0169DF81400097808430CD092
S31500009610029800281CBF9DF81000002807D0DFF82C
S31500009620140D0068007DC00701D4022429E04846D5
S3150000963006F003FEADF8000003219DF8180010F0B7
S315000096405EFD5FEA000808BF4FF00108BAF1000F9F
S3150000965004D0381D03F098FB824601E0BDF800A057
