S00F00006E6F6465746573742E7333377F
S3150800200070220020111601087115010875150108BE
S31508002010A70A0A0100210008041E03AC3062CC009E
S3150800202000000000000000000000000000000000A2
S315080020300000000000000000000000000000000092
S315080020400000000000000000FFFFFFFFFFFFFFFF8A
S31508002050FFFFFFFF00E0020800000000000000008C
S31508002060FFFFFFFFFFFFFFFFFF000000000000006B
S315080020700000000000000000000000000000000052
S31508002080F02F002000000000EE2F0020EE2F002089
S3150800209070220020D03C01082818010810190020D9
S311080020A02C11002000000308003000206E
S3150800210070220020111601087115010875150108BD
S315080021107D1501087915010881150108F8150108CA
S31508002120F8150108F8150108F8150108F815010849
S3150800213085150108F8150108F8150108B77C000887
S3150800214077F80008F815010873860008F8150108DD
S315080021502380000869850008F8150108F8150108A4
S3150800216035E20008819B000883B8000891C1000881
S31508002170F8150108E7C200082FC300081FBE0008AB
S31508002180EF3A0008F8150108F8150108F8150108CE
S3150800219070472DE9F047DFF844580FF29C010FF21B
S315080021A0945A0FF28058DFF838980446287800F0D9
S315080021B0DDFD0027E4A603E000F083F97F1CBFB22B
S315080021C0206800EB07114A68287813001AD04A4598
S315080021D009D14A69130018BF4A45EFD00A68414633
S315080021E000F0C4FDEAE78B680A68514600F0BEFDB8
S315080021F0206800EB0710C2682878002ADCD00FF2A6
S315080022003C51EDE70FF2AC0100F0B0FD28780FF273
S31508002210CC0100F0ABFD28780FF2F00100F0A6FD26
S3150800222028780FF2141100F0A1FD28783146BDE890
S31508002230F04700F09BBD0000434F4D4D414E4420F2
S315080022405B504152414D45544552535D205B2D200C
S315080022504445534352495054494F4E5D0D0A202078
S3150800226077686572653A20623D6275666665722CA6
S315080022702073313D696E74385F742C2073323D6962
S315080022806E7431365F742C2075313D75696E7438FD
S315080022905F742C2075323D75696E7431365F742C07
S315080022A02075343D75696E7433325F740D0A0D0AF4
S315080022B00000000020202120202D20526563616C3B
S315080022C06C73207468652070726576696F75732003
S315080022D0636F6D6D616E640D0A00000020205B74EB
S315080022E061625D202D20417474656D70747320746D
S315080022F06F2074616220636F6D706C65746520630E
S315080023006F6D6D616E640D0A0000000020202020AC
S315080023102A2A204E4F54453A20616C6C20696E700B
S3150800232075742076616C7565732061726520696EB7
S3150800233020686578210D0A00202020202A2A2043BB
S315080023406F6D6D616E647320617265204E4F542007
S31508002350636173652073656E7369746976650D0AC2
S3150800236000000000A0F141011A293CBF2030C0B28C
S3150800237070472DE9F84F0546DFF86816A868006823
S315080023800968DFF85876C0B200240E5C212EA046F4
S3150800239007DB38780FF2CC01BDE8F84F202200F0B1
S315080023A0E5BC00F013FD8246A14607E01AF80900CD
S315080023B0FFF7D8FF0AF8090009F10109B145F5DB6D
S315080023C032460FF2E401504600F0B0FF40B94FF034
S315080023D0010805E038780FF2D8015A4600F0C6FC25
S315080023E0296820010A185268130039D0DFF8F095D9
S315080023F0641C4A45A4B2F3D151F800B0B8F1000FF5
S31508002400E8D1584600F0A6FFB042E9D13246514617
S31508002410584600F07FFF0028E2D1BFA60FF21C380D
S315080024200FF2940A03E000F04CF8641CA4B2286882
S3150800243000EB041041680A0018BF494510D08368AC
S3150800244002683878514600F091FC286800EB0410C1
S31508002450C2683878002AE6D0414600F087FCE4E7EF
S31508002460BDE8F18F4572726F723A206C69737420F9
S31508002470617267756D656E7420746F6F206C6F6E10
S31508002480672C207765206F6E6C7920737570706F76
S31508002490727420757020746F2025752062797465B2
S315080024A0732E0D0A000000006D6F64756C6573006D
S315080024B025700D0A00000000257020257000000018
S315080024C02078314600F052BC70B5044688B0A06842
S315080024D0016801B10121DFF810552970406800B183
S315080024E00120DFF8086530700FF2600001F04DF941
S315080024F0A068C16801B10121DFF8F42411700069F0
S3150800250000B10120DFF8EC14087008782B780790E2
S3150800251004F111010FF25C00069010780FF25C02CC
S3150800252005900FF260000490012003907BA00290B2
S31508002530307801900FF2540000900FF2580001F025
S3150800254024F908B070BD00000D0A00005475726EBB
S31508002550696E67206F66662074616773206E6F7494
S315080025602079657420737570706F727465640D0ACE
S3150800257000000000746578740000000068656164F6
S315080025806572000064656C696D000000636F6D6DAF
S31508002590616E64007B264E20566572626F7369749D
S315080025A079206F7074696F6E732073657420746F09
S315080025B03A0D0A2674750D0A2674750D0A26747561
S315080025C00D0A2674750D0A2674757D0D0A0000001D
S315080025D0DFF82414007C51F82020DFF800040FF2FD
S315080025E00801007800F0C2BB4349204572726F7239
S315080025F03A2025700D0A000038B5DFF8E043207848
S3150800260045A500F03FFA20780FF2340100F0AEFB42
S3150800261000F037FA20780FF24C0100F0A7FB20787B
S315080026203FA100F0A3FB20780FF2440100F09EFBC7
S3150800263020780FF24801BDE8344000F097BB00004F
S31508002640456D626572204E6F64652054657374200B
S315080026504170706C69636174696F6E2076312E30D3
S31508002660000000004D6172203239203230313800C6
S3150800267031343A34323A3033000000000D0A0D0A7C
S31508002680000000002DE9F24F044682B0256BDFF802
S315080026904CB39046002705E01FA100F067FB7F1C9E
S315080026A0BFB210356868A8B3D5F80090DDF808A061
S315080026B000260DE01AF8010BFFF754FE009019F8F2
S315080026C0010BFFF74FFE0099C9B28142E7D1761C8C
S315080026D0B0B24045EED32068C14E00EB07114B68F7
S315080026E00A689BF80000B34204D10FF2380100F0E3
S315080026F03DFBD4E78B680FF23C0100F037FB2068FE
S3150800270000EB0710C2689BF80000002AC4D00FF23D
S315080027102C01ECE7BDE8F78F0D0A0000746167002D
S315080027202C2000002D2D2D2D202570202D2D2D2D12
S315080027300D0A00002020257020257000202D202558
S31508002740700D0A002DE9F0439BB00EA80FF2AC21DC
S31508002750342201F04BF84FF000098DF80190A520BE
S3150800276001F07FF801F0DEF8012300220F21002096
S3150800277001F04CFA050006D0012300220A210020A8
S3150800278001F044FA0546012300220F21012001F039
S315080027903DFA060006D0012300220A21012001F095
S315080027A035FA0646012300220F21022001F02EFAEF
S315080027B05FEA000806D0012300220A21022001F060
S315080027C025FA804601F034FC844C5DB1002E68D0B1
S315080027D0B8F1000F6BD04FF4FD710FF2542001F0E1
S315080027E02DFC04E0002E18BFB8F1000F62D084F863
S315080027F00090201D01F054FD201DFFF7FDFE0FF28D
S31508002800402520780FF2402800F03CF920780FF296
S315080028108C2100F0ABFA6EA6FFF752FE201D01F0E0
S31508002820B7FF00F02EF920780FF27C2100F09EFA0F
S31508002830FFF746FE201D01F0C8FF00F022F92078B8
S315080028400FF2702100F092FAFFF73AFE201D02F00F
S3150800285038F800F016F920780FF2642100F086FAAD
S31508002860FFF72EFE201D03F065FC00F00AF920781C
S315080028700FF2582100F07AFAFFF722FE201D03F026
S3150800288076FC00F0FEF820780FF2C41100F06EFA1C
S31508002890FFF716FE201D04F0C9FA4EA54EA601AF95
S315080028A03FE0B8F1000F05D001202070A1E7022013
S315080028B0FBE725702078FF289BD100256946284626
S315080028C001F0E4F938B99DF800000D2818BF0A2868
S315080028D018BF2A28EDD06D1CEDB2032DEEDBE9E713
S315080028E08DF800009DF800107A5C481C0A2A18BF6B
S315080028F00D2A18BF002AF3D10D227A548DF800004C
S3150800290001A99DF80020201D01F0D6FC9DF80020A5
S3150800291001A90EA800F0B4FC9DF8009000208DF8DF
S31508002920010000F0AAF820780DF10103322201A96E
S3150800293001F0FDF90028D3D000F08FFF01F064F90B
S3150800294004F002FD03F0D8FE9DF8010020B39DF8BF
S31508002950011001A8084410F8010C09281CD1FFF73A
S31508002960AFFD9DF80100401E8DF8010001A99DF8F4
S315080029700120201DFFF786FE9DF8011000207854DF
S3150800298000F07BF8002004E000F072F89DF80000E3
S31508002990401C00F065F8F7D39DF804002128C2D141
S315080029A0FFF78EFD4A460EA901A800F069FCA9F1B9
S315080029B001008DF8010000F060F8002000F050F8E2
S315080029C0B1D200F055F89DF80000401CF6E700006B
S315080029D05D0D0A00256300000D0A00007022002024
S315080029E09121000840230020DA230020DB23002061
S315080029F0DC230020DD230020842300200D000000B6
S31508002A0000000000000000000000000000000000B8
S31508002A1000000000000000000000000000000000A8
S31508002A200000000000000000000000000000000098
S31508002A30706C6174666F726D746573742E630000D2
S31508002A405B494E49542000000D0A3E200000000054
S31508002A507365745065725465737454780000000089
S31508002A608DF800009DF801109DF800008842704717
S31508002A703A5C2078294600F079B94146207800F07A
S31508002A8075B92078294600F071B980B504F000FDC3
S31508002A90BDE80240002055E6002070476372617366
S31508002AA068696E666F000000726573657473747288
S31508002AB0696E6700696E6974546F6B656E730000A2
S31508002AC0696E6974526164696F00000073656564B4
S31508002AD0506E72670000000070B51346104402E09D
S31508002AE0A4192C705B1EDCB24CB101F00F06090963
S31508002AF0451E0A2E2846B4BF30243724F0E7104472
S31508002B0070BDF0B5002341B1002806D501232D215B
S31508002B10B0F1004F117018BF4042002100240FF297
S31508002B20882555F82470002601E0C01B761CB8429B
S31508002B30FBD2F7B20FB90F0005D0DBB206F13001B0
S31508002B40D1545B1C0121641C092CEADBDBB2303052
S31508002B50D054581CC0B2F0BD2DE9F24F80468AB059
S31508002B6007A80190154603A89B4603AE0027002434
S31508002B708DF800000BE0012405460198864205D32E
S31508002B8000F0DCF800284FD100F0CEF86D1C9DF857
S31508002B9000002978301A0A000BD0252903D014B969
S31508002BA006F8011BE9E7002C14BF00246D1C2978E0
S31508002BB00A0000F0AF80B1F1250216D00B3A092AB7
S31508002BC040F28980283A7DD00A3A12D0521E41D066
S31508002BD0521E5FD0083A5DD0121F3ED0D21E3CD09E
S31508002BE0921E57D0D21E6DD0C7E7252006F8010BD6
S31508002BF0C3E7DBF8000002904FF0000A0BF104006F
S31508002C0000F1040BD0F80090CA45B6D2029810F825
S31508002C100A1002223046FFF75FFF064601988642F1
S31508002C2005D300F08BF800287AD100F07DF8A9F1D9
S31508002C30010082453CBF202006F8010B0198864218
S31508002C4005D300F07BF800286AD100F06DF80AF188
S31508002C50010AD9E75BF8040BC8E75BF8049B00F0A8
S31508002C6067F800285CD100F05FF84FF0000A01E031
S31508002C700AF1010A5FFA8AFA19F80A000028F7D158
S31508002C809DF8280052464946C047002848D157446F
S31508002C90FFB272E76C290AD16A785BF8040B752AC9
S31508002CA00EBF00210121642A07D16D1C05E0752994
S31508002CB05BF8040B0CBF002101213246FFF721FF08
S31508002CC036185AE75BF8041B0222C9B23046FFF7EA
S31508002CD003FF064651E76A780124782A18BF582A5E
S31508002CE0F8D16D1C0024681E322904D15BF8040B48
S31508002CF0042281B2EAE734297FF43DAF5BF8049BEE
S31508002D0004224FEA19413046FFF7E6FE04221FFA6D
S31508002D1089F1DCE700F00CF810B9F019C0B200E050
S31508002D2000200BB0BDE8F08FF719FFB203AE70476D
S31508002D3006469DF82800F2B203A940479DF8000010
S31508002D40361A9DF82800F2B203A9404713A10DE0F0
S31508002D500CB438B5044604AA00F010F80546204617
S31508002D60FFF7F4FF284632BC5DF80CFB0CB480B5BF
S31508002D7002AA00F003F802BC5DF80CFB10B5084B7C
S31508002D801B5C0024012B07D113460A460146054859
S31508002D90FFF7E2FE00B90124204610BD0D0A000027
S31508002DA018400008EF3E000800CA9A3B00E1F50506
S31508002DB08096980040420F00A08601001027000068
S31508002DC0E8030000640000000A000000DFF8801431
S31508002DD0096801EB40107047DFF87824126811542F
S31508002DE070472DE9F041040035D004F0ADFCDFF85A
S31508002DF06814DFF868340E78FF228046FE2EDFF866
S31508002E0060041BD100260E70DFF858C4DFF858643A
S31508002E1037781F70002708E007F1010E05F807E06C
S31508002E20DCF80050EA555FFA8EF796F800E0056878
S31508002E307745F1DB05EB0E0606F8012C1E78A6424F
S31508002E400BD2404604F086FC052004F0BDFC0021A8
S31508002E501B2004F03FFDFF201EE0361B1E70DFF826
S31508002E600C340E780F78D3F800E001250EF80750D9
S31508002E70641E056815F807E081F800E05FFA84FE2D
S31508002E80BEF1000FEED1EA5500213046FFF7A4FF48
S31508002E90404604F05FFC3046BDE8F08110B50446B4
S31508002EA004F052FCDFF8C41309680A5D521C0A557F
S31508002EB0BDE8104004F04EBC2DE9F041054600F08F
S31508002EC031F8044604F040FCDFF88C23DFF88C3335
S31508002ED0DFF88C63DFF89483FF2D1FD0D8F8001035
S31508002EE04F5D7F1E4F557F27D8F800E01EF8051066
S31508002EF0394213D13168495D00270EF805701F78ED
S31508002F007F1C1F70FF29376892F800E007F805E074
S31508002F10157006BF2546FF240D46DDE7BDE8F041DE
S31508002F2004F018BC80B5DFF844130968095C090683
S31508002F3003D5FFF74BFF007802BDFF2002BD70B531
S31508002F4004460D4605F11F000004400D82B0C0B2CC
S31508002F50FFF747FF0646FF2E0CD02946FFF73CFF32
S31508002F603CB1012000902B4600223146204600F055
S31508002F7002F8304676BD73B500F0CFF8405C1546CA
S31508002F801E467119884203DA40F2651100F0EAF824
S31508002F9030000CD0294601A800F0E8F80246069849
S31508002FA09DF8041000903346204600F001F873BDE2
S31508002FB02DE9F843089CDFF8A88205468946164697
S31508002FC01F460BE06A5C4254491CB142FADBD8F84A
S31508002FD00000BF1BAD1910F809900026F8B2C8B159
S31508002FE04846FFF7F3FEFFB28019F1192029B2BF50
S31508002FF03E46C6F12006F6B22100324604D1014605
S31508003000284600F03DF9E2E7012C08BF2946F8D02A
S315080030100021DAE7BDE8F1832DE9F04100F07DF8FB
S3150800302082B0055D884616467119C9B2A9421F467F
S3150800303005DB30000CD0204600F05DF808B11820FA
S3150800304007E0009733462A4621464046FFF793FF96
S315080030500020BDE8F6810123DEE70A4600E0521C9F
S315080030601378002BFBD1521A0223D2B2D4E72DE9EA
S31508003070F041054601F11F00C70402F11F00C00414
S315080030803F0E000E07B9012700B9012087422CD050
S31508003090DFF8CC411BDAC01BC0B2FFF7A2FE8046A0
S315080030A0B8F1FF0F08BF002020D07F1E00F020F8DF
S315080030B02668305CFF2804D000F01AF8305CFFF769
S315080030C0FBFE00F015F8216801F800800DE08A4241
S315080030D00BD2411EC9B200F00CF805462068405DC7
S315080030E0FFF7EAFE2168FF2048550120BDE8F08178
S315080030F0F9B2284616E038B500F00FF80D46015D1E
S315080031002A462046FFF7B3FF28B129462046FFF78F
S3150800311063FE002032BD182032BD0446DFF83401B4
S315080031200068704704E0DFF838211268105C491E11
S31508003130CAB2002AF7D1704711B50C46DFF8141148
S31508003140096881B0095C8C4203D340F2012100F082
S3150800315009F8214601A800F009F8044600F060F8CD
S31508003160204416BD0FF2081000F068BF38B50446B3
S315080031700D46E9042078090EFFF7D4FF207005F004
S315080031801F0032BD80B5FFF7D7FF007802BD10B526
S315080031901446FFF7D1FF047010BD70B500F00AF8A9
S315080031A0064600F004F800EB062080B270BD2946FA
S315080031B02046E7E70D46691C0446C9B2E2E72DE951
S315080031C0FC4405B40A9C20001F4627D089B26846ED
S315080031D0FFF7CCFF0646B9B201A8FFF7C7FF0746B7
S315080031E0BE42A8BF3046A4B2C0F120002546C0B2F0
S315080031F0A842B8BF054600F013F882469DF80000BD
S31508003200FFF7E4FD2A460AEB0701304400F038F8D8
S31508003210641BA919EF19A0B20028D7D1BDE8FF840D
S315080032209DF80400D2E570B504460D4604F08CFA04
S315080032300C4B21781B68FF2908BF5D5503D019443C
S315080032400E785E550D702570BDE8704004F082BAA0
S315080032503C23002040230020EA230020E623002008
S31508003260482300204C230020E52300204423002087
S315080032707061636B65742D6275666665722E630090
S31508003280814233D210441144401E491E10E011F801
S31508003290013900F80139121F11F8013900F801390E
S315080032A011F8013900F8013911F8013900F8013926
S315080032B092B2042AEBDA93B2002B1EBF11F8013939
S315080032C000F80139521EF6D1704711F8013B00F893
S315080032D0013B121F11F8013B00F8013B11F8013BB5
S315080032E000F8013B11F8013B00F8013B92B2042AB1
S315080032F0EBDA93B2002B1EBF11F8013B00F8013B35
S31508003300521EF6D17047130003D00A46194604F038
S31508003310EBBA704710B500E0521E93B223B100F025
S3150800332012F8F9D0181B10BD002010BD10B500E02A
S31508003330521E93B22BB100F006F8F9D0181B40B212
S3150800334010BD002010BD10F8013B11F8014BA34237
S315080033507047000000F10103810704D010F8011B33
S3150800336089B18107FAD10268B2F10131914311F0AE
S31508003370803F04BF50F8042FF6E710F8011B11B17F
S3150800338010F8011BFBE7C01A7047000038B5044661
S31508003390611D206A2368451A2079EAB2984708B160
S315080033A0002032BD00F018F8601D2062012032BDF1
S315080033B038B50446002500E06D1CEDB2485D0028CE
S315080033C0FAD1207923682A46984718B900F004F8F4
S315080033D0012032BD002032BD94F82900281884F84F
S315080033E0290070472DE9F04F804608F1200785B07F
S315080033F008F1050038600E4608F115007860914618
S3150800340000207872DFF8B44313E018B108F105001C
S315080034103860164625B17D2000F0A0F901F8010DA7
S3150800342038687968884203D300F096F9002862D094
S31508003430761C3078010000F075812528617818BF60
S31508003440262809D07B281CBF7D28232802D10029DD
S31508003450E6D0E1E7A178FAE716F8012F252A18BF82
S31508003460262A04D100F07AF901F8012DD8E7262892
S315080034700BD151B101256E2A18BF4E2A06D000F08D
S315080034806DF97B2001F8010D00E000253178002058
S315080034904E2906D0542923D06E2902D074291FD06C
S315080034A032E0207859F804BB0028B9D035B138681D
S315080034B07B210170811C39602821417000F04CF98C
S315080034C0002818D000F03BF9002814D0002DA7D00A
S315080034D0386829210170811C39607D2141709FE778
S315080034E000F038F9002806D000F029F9002802D0A3
S315080034F000F032F9002800F07C8000F02FF93A201D
S3150800350001F8010D761C0120317896F801E0A1F149
S315080035103002D2B2911E05293CD2BEF1640F18BF03
S31508003520BEF1750F36D159F804CB002301211FFAD5
S315080035308CFCBEF1640FE24609D15FEA0C4E06D553
S315080035406FEA0C0C0CF1010C01231FFA8CFCBCF180
S31508003550000F0AD04FF00A0E9CFBFEFC5B1C1FFAFC
S315080035608CFCBCF1000FF5D10BE05B1C09E0D7F829
S3150800357000E00EF1010EC7F800E04FF0200C0EF83F
S3150800358001CD9C460CF101035FFA8CFC9445EEDBF9
S31508003590761C00E000213378721E002B00F0BE80F6
S315080035A0322B18BF342B00F09580482B06D0582BA9
S315080035B00FD0632B0FD0642B1FD0682B00F07F80B1
S315080035C06C2B52D0702B18BF732B0BD0752B14D0C5
S315080035D0782B76D019E73868411C396059F8041BEE
S315080035E0017017E700F0B6F818B100F0A8F800283F
S315080035F0F7D1002005B0BDE8F08F002919BF1FFAE2
S315080036008AFA514659F8041B89B229B900F0A6F876
S31508003610302001F8010DFDE60020642B0DD10A04C7
S315080036200BD53B685B1C3B602D22B1F5004F03F8B8
S31508003630012D02D0494289B259B10A2291FBF2F210
S315080036400A23C0B203FB12110DF80010401C91B2F8
S31508003650F2E70146481EC9B20029DCD0C0B23A6872
S315080036601DF8001000F065F8F3E759F8041B002967
S31508003670CCD0002000290AD53B685B1C3B602D2274
S31508003680B1F1004F03F8012D01D0494259B10A2280
S31508003690B1FBF2F20A2303FB121102ABC0B21954B2
S315080036A0401C1146F2E70146481EC9B2002910D04F
S315080036B002A9C0B23A68095C00F03BF8F3E700F0EB
S315080036C041F8022259F8041B3868C9B2FFF704FA10
S315080036D038609FE616F8010F682818BF48280BD1EE
S315080036E000F030F816F8011C386832290AD159F862
S315080036F0041B042289B2E9E7782818BF5828F1D0B4
S31508003700761E87E659F804BB04224FEA1B41FFF7E9
S31508003710E3F9386004221FFA8BF1D7E701007FF43A
S3150800372074AE76E600F018F800283FF462AF787AAF
S3150800373060E7521C3A60303102F8011D704759465D
S31508003740404635E6386830210170811C3960782199
S315080037504170704759F804BB404617E63968491C5A
S31508003760396070470EB410B5154909788BB0002436
S3150800377009B9002008E000F019F801466846FFF785
S3150800378031FE00B9012420460CE00EB410B58BB00A
S3150800379000F00CF8002401466846FFF723FE00B93E
S315080037A0012420460BB010BC5DF810FB05490091BA
S315080037B00DAA054909788DF804107047DB23002007
S315080037C0DA230020EF3E00087022002062B38B0740
S315080037D008D0521E11F8013B00F8013B00F0248086
S315080037E08B07F6D1830740F0208000BF103A07D335
S315080037F030B4B1E83810103AA0E83810F9D230BC25
S31508003800530724BFB1E80810A0E8081044BF51F8D0
S31508003810043B40F8043BD20724BF31F8022B20F8BA
S31508003820022B44BF0B7803707047083A07D3B1E8F8
S315080038300810083A40F8043B40F804CBF7D253077F
S31508003840E4E7000004F03DB92C48012181604EF6FA
S31508003850BE214160012101607047294901200860A5
S315080038607047A52805D125484DF6AD61416002216E
S31508003870016070472148006810F0010018BF012058
S31508003880704700F007011F4AC00802EB802001229A
S31508003890806807E000F007011A4AC00802EB80209A
S315080038A00122C0688A401040C840704780B5164952
S315080038B0164A1020086016491648007803000BD0EF
S315080038C003280CBF00200120106040F65100086054
S315080038D0002004F049FB06E0022010604FF4006067
S315080038E0086004F0B2F80C48072101600021016461
S315080038F010200A490860002002BD00000060004050
S315080039000860004000B0004080E100E00800004088
S315080039100C600040CD2F002014A0004000E100E01C
S315080039207047704780B5A648002141604170817094
S31508003930A5210170012003F011FF03F040FF00F0FC
S315080039401EF8002002BD9F480168C90700D47047C9
S3150800395080B59D490A6822F440620A6001684908F0
S315080039604900016001680902FCD49848006810B152
S31508003970642004F0EAFA96490020086001BD80B583
S315080039809448016841F080710160012092490860FD
S315080039900020924904F0F6FA9149924A02200860FA
S315080039A00020914908609148914901600121116000
S315080039B0844A9049116040F2014101654FF4803014
S315080039C08D49086001BD8248006800281EBF7F48EF
S315080039D00068002805D07F480068000E00F0010046
S315080039E0704700207047D12202704170090A817021
S315080039F082490A78C270501C0870042070472DE965
S31508003A00F14F82B0DFF8F88100900026D8F8000060
S31508003A100099405C451D04F0E7FAEDB201904FF6B7
S31508003A20FF7A19E0B11E9DF80800C9B2FFF7AAFB94
S31508003A300746514604F00CFB82465E46FFB24FEA43
S31508003A40C90007FA00F0044309F10109B9F1040FA6
S31508003A5017D34FF060400460FFF7B5FFF6B298B38E
S31508003A60AE4231DA04F0C0FA0199401A80B2B0F5D4
S31508003A70FA7F29D84FF0604000680128ECD100246D
S31508003A80A146F0B210B95B270126D7E706F1010B6C
S31508003A900128F6B204D1D8F800000099475CCCE7B3
S31508003AA0E91E884208BF5746C7D0A91E884208BFE4
S31508003AB04FEA1A27C1D0691E884208BF5D27BCD0C5
S31508003AC0AE42AFD10027B9E74FF4C87004F03DFA0B
S31508003AD0AE420CBF00200120BDE8FE8F48490968A8
S31508003AE0095C042928BFFFF78ABF012070472DE922
S31508003AF0F04D334D6E78300060D004F075FA834689
S31508003B0031460020FFF71BFA0446FF2CA04602D1D7
S31508003B100020687052E0202EB4BF37462027FFF7F2
S31508003B2055F96860AF70DFF8DCA004E04046FFF79F
S31508003B304DF96860AF706878C8B104F055FAA0EB23
S31508003B400B0080B2B0F5FA7F11D8A8780028F2D118
S31508003B50F61BF0B200286E70EDD0DAF8000010F807
S31508003B600880F6B2202EB4BF37462027DEE7F6B225
S31508003B70002E04BF6878002818D1A878B0B9204864
S31508003B800068005D851EE9B22046FFF706FB12288D
S31508003B9008D1E9B22046FFF7AEFA2146122004F012
S31508003BA035FB06E0204604F07BFA02E00020687048
S31508003BB0A8702046BDE8F04DFFF77EB9BDE8F08D48
S31508003BC0F02F0020800E00E0001000E034000040D6
S31508003BD0100004E0FCED00E0040004E020A107006A
S31508003BE0F00004E0000E00E0040304E0B00F00E07B
S31508003BF055CEACC50D00010000E100E0D12F002034
S31508003C004023002048230020704700002DE9F04794
S31508003C100446884691469A4600F0EFF9002801BF07
S31508003C2025460FF2F430405D012821D1DFF8BC6348
S31508003C3056F8257003F088FD0021B980398079800F
S31508003C4003F088FD06EB8500066903F07DFD00217B
S31508003C50B18031807180DFF89823515503F07AFDE1
S31508003C6053464A4641462046BDE8F04704F040BB65
S31508003C702120BDE8F08710B5044604F03FFCDFF8C4
S31508003C806C0300EB84000069808810BD2DE9F843B9
S31508003C9081464C46DFF8540300EB840088460569E4
S31508003CA0484600F0AAF908B101203EE0DFF8406373
S31508003CB0305D06EB440760B1B8886988884208D148
S31508003CC003F042FD355D0021315503F043FD2846DA
S31508003CD02BE0484604F012FCA88800281EBF0FF205
S31508003CE0443030F81490B9F1000F1DD003F02CFDC4
S31508003CF069882944897988F800104FF6FF78698819
S31508003D00491C91FBF9F209FB12116980A988414403
S31508003D10A98003F01FFD305D20B1B888404504BF77
S31508003D202888B880002000E02620BDE8F283F8B590
S31508003D301F46044638780D460100164601D0B042A3
S31508003D4008D30020287005E03878411C39709DF8A2
S31508003D500010295469462046FFF798FF010056D1FE
S31508003D609DF800008028F5DA39780A0003D10A2878
S31508003D7018BF0028EED0B14207D3002038709DF84E
S31508003D8000000D2818BF0028E4D09DF80000082878
S31508003D9018BF7F280CD138780100DBD0401E387058
S31508003DA00021C0B2295490A1204600F057F8D1E767
S31508003DB03878801C8642BCBF0D208DF800009DF81F
S31508003DC00010204600F038F89DF8000061381A28DF
S31508003DD004D29DF8000020388DF800009DF80000F8
S31508003DE00D2818BF0A28AFD13978002068549DF8E5
S31508003DF000000D2805D10A21204600F01DF80026EE
S31508003E0003E00D21204600F017F83E700020F2BDB1
S31508003E1070B582B0044600200D4616468DF800009F
S31508003E2001E0FFF71AFD6B46324629462046FFF7A2
S31508003E307EFF0028F5D176BD02B50122694600F05D
S31508003E4056F802BD80880FF2C81333F81110891A84
S31508003E50884201DA01207047002070472DE9F047B3
S31508003E60824656460FF2B010805D01280D463BD1BA
S31508003E705E480FF2B81850F826700FF2A019002401
S31508003E8019E003F061FCB98801B9012439F8161064
S31508003E900A000DD03B882A783B449A713A88521C0E
S31508003EA092FBF1F301FB13213980B988491CB980CB
S31508003EB003F050FC6D1C287888B10022514638461C
S31508003EC0FFF7C0FF0028DCD11CB1504604F055FAB4
S31508003ED0002418F806000028EFD1222005E05046F5
S31508003EE004F04BFA002000E00120BDE8F0872DE938
S31508003EF0F84F8046C1460FF2201010F80900012835
S31508003F000D4616463ED139480FF2201B50F8294077
S31508003F100FF2081030F819A0002718E003F014FC77
S31508003F20A18801B90127BAF1000F0DD02288297896
S31508003F30A21891712188491C91FBFAF20AFB121109
S31508003F402180A188491CA18003F004FC6D1C304621
S31508003F50461EC0B288B1002241462046FFF772FFCE
S31508003F600028DBD11FB1404604F007FA00271BF8EA
S31508003F7009000028EFD1222005E0404604F0FDF9AB
S31508003F80002000E00120BDE8F28F80B501460FF25F
S31508003F908802525C012A05D1144A52F821108A88EF
S31508003FA0002AFCD104F03FFA002002BD0CB438B553
S31508003FB004460D4604F00EFA04AB2A4621460D487F
S31508003FC0FEF7CAFD20460FF25001095C012907D108
S31508003FD0064951F82000808810B1204604F0CDF932
S31508003FE032BC00205DF80CFB082008006423002082
S31508003FF0EC2C0020E58300087047042806DA0FF247
S315080040001801095C481E8041C00F7047012070479F
S31508004010800080008000800001010101800080008E
S31508004020800080004000400040008000010101013E
S31508004030002181F31188704742DE704738B504467F
S315080040400D46FFF70AFC03F07FFB2946204604F0DD
S3150800405013F82B4622460FF2D4110120FFF7A6FFCC
S3150800406029462046BDE83440E6E767482DE9F0478B
S31508004070664D01682E1D4FF420687165016AB165A9
S3150800408063490968F165416A3166816A7166C16A80
S31508004090B166016BF166806B306796F834004007AD
S315080040A04CBFF46BB46B04F064FB0022F2648442E8
S315080040B0584A014624BFA2F1200AA245274631657F
S315080040C005F18C03DFF850C1DFF850E118D3A06979
S315080040D03064E4697464746DC4F30804062C13D15F
S315080040E0704511D360450FD200884DF64264A04250
S315080040F00AD13068586040F201787068986003E029
S3150800410000273764776407464548814202D201464C
S3150800411000E0091D0846904203D20C68B4F1CD3F71
S31508004120F7D04049081AB0640021002005EB800446
S31508004130401C0628A167F9D3002003E0C0B205EBAE
S315080041408004A167974222D252F8041D7145F9D31B
S315080041506145F7D2CC07F5D5002405EB8409D9F8D3
S315080041607890894502D0641C062CF6D3062CE9D132
S31508004170002814BF401E0520E0E7716F002405EBF8
S315080041808402641CD76F9767052CF8D3196001461B
S31508004190481EC9B20029F0D1706DC0F30800022884
S315080041A00AD0032815D0042816D0052817D00628C3
S315080041B018D00C281CD01EE01B480168890748BF88
S315080041C040F602181CD40068C00719D540F20258F8
S315080041D016E040F6012813E040F6022810E040F603
S315080041E003280DE0B8F5206F0AD140F6042807E049
S315080041F040F6052804E018B1242838BF40F60728F9
S315080042004046BDE8F087000004ED00E0000000200D
S3150800421000E300E070220020281801089021000819
S3150800422098000020702200201CA000400D0A5B4167
S3150800423053534552543A25703A25645D0D0A0000D9
S315080042402DE9F8430446DFF8B8030068055D002643
S31508004250E807B14648BF002020D400270FF2C84817
S3150800426002E04FEA00197F1CFFB2AF4211DA394665
S315080042702046FEF787FFF90718F8000000F00F0040
S31508004280EFD549EA0002F1B22046FEF780FF761C18
S31508004290E9E7F1B22046FEF79FFD0120BDE8F2836B
S315080042A000F12401FF228A700022C273C2830A70B9
S315080042B082730068C86070472DE9F74F82B0002006
S315080042C08DF801000298041D00F1240508E0607AC3
S315080042D068720120E07202999DF8000000F0A2F9C8
S315080042E003980027002660BB9DF810006946FFF773
S315080042F0CDFC002839D0262826D00298012100F0C6
S3150800430083F978208DF80000B046102700208DF834
S315080043100100E07A0828E3D8DFE810F00A004B002D
S315080043208E00E900E9003B014701AC009D00D7E794
S31508004330102FCCD09DF80000232836D10820E07233
S31508004340CEE79DF8100020B99DF8010005B0BDE83C
S31508004350F08F0398401C0390401E00788DF80000EB
S315080043609DF81000401E8DF81000B0469DF800001C
S3150800437067280FD29DF800100FF2AC30405C00F0B1
S31508004380300700F00F08400607D5687A804504DA3A
S31508004390012602E07B2838BF10279DF800000A286E
S315080043A018BF0D28B2D10120B1E7202F98D00320DD
S315080043B021E1102F1CBF9DF800005F2800D01EB118
S315080043C028780C28F3DA86E7202F18BF302F3ED13D
S315080043D002992A781144002048744FF00009E868C9
S315080043E00BE01AF8010B00F016F91BF8011B8142C5
S315080043F00DD00198103009F1010901900198406823
S3150800440028B30198D0F800A0029800F1110B9BF888
S3150800441000000028E5D19AF800000028E9D1A4F8A0
S315080044201A90E868618B00EB01108068E061002053
S31508004430A07228700220E072607A68726EB32B2030
S315080044402872C5F80480607A6872042077E7032129
S31508004450029800F0D9F89DF80100002809D0207BC1
S3150800446020B1029821688847002020730298FFF738
S3150800447017FF35E79DF8010018B1029800F0DEF83D
S31508004480F4E79DF80000232803D1029800F0D6F837
S3150800449054E7202FEDD00420ADE09DF800002D282C
S315080044A018BF2B2806D1287200206860607A6872C7
S315080044B0032044E722280AD10120FEF792FCFF28B0
S315080044C0A8700BD00021FEF787FC052037E77B286C
S315080044D0D0D10120FEF785FCFF28A87000F08A805D
S315080044E00021FEF779FC10206872062027E73EB106
S315080044F06868697A01FB00800421E1726860EFE66A
S315080045009DF80010782918BF582904D16A6812B98D
S3150800451010206872E4E6742918BF542903D1696823
S3150800452009B90A20F5E7032854D0202F18BF302FE1
S3150800453050D1E0692B7A6968027840782D2B08BF3C
S315080045404942752A08D134281AD00022312814BFC6
S315080045504FF6FF70FF200FE0732A08D1312807BFF6
S315080045606FF07F027F20274A47F6FF7004E0042198
S31508004570029800F049F86EE79142A8BF884206DB28
S315080045800298022200F079F80028F4D052E70621B2
S31508004590EEE79DF8000022281ED10298002100F0BF
S315080045A084F80028B6D00220C9E69DF800007D28C8
S315080045B00DD1A878FFF744FE06460298012100F0BF
S315080045C074F808B10220E072002EA3D102E0202F71
S315080045D0A0D00EB907200EE00949A8780968095C39
S315080045E0FF2908BF082006D001226946FEF733FDD9
S315080045F000288FD002208DF800009DF8001027E7CC
S31508004600402300200080FFFF027C1AB90822C273EB
S3150800461001745FE07047A0F141011A293CBF2030C0
S31508004620C0B2704738B50C4694F82450FFF7F3FF2C
S3150800463061194874681C84F8240031BD10B5044615
S31508004640206A017831B162290CBF01210221405C40
S315080046502A2807D1216BE28B01EB02112046496813
S31508004660884706E0042020742046616888470020B1
S3150800467020742046BDE810402CE038B5837B057BC6
S31508004680AB4204D10521FFF7BFFF002032BD846885
S3150800469044F82310817B491C8173016A8B5C2A2BA1
S315080046A01CBF89180162012032BD10B500F1200235
S315080046B013681B78622B04D00421FFF7A5FF00209E
S315080046C010BD9379FF2494710122BDE8104003EBD5
S315080046D00121D2E770B500F10804A06AE18A00EB6F
S315080046E001100026856805E00220295C2A2918BFE2
S315080046F02D18761CA179F0B288420BD22878622848
S31508004700F2D12068F6B250F82600C0B2FEF7D4FB04
S315080047100120EAE70020A071A07FFF2803D0FEF75A
S31508004720CBFBFF20A07770BD000000000000000052
S3150800473000202020202000000000000000000000CB
S3150800474000000000000000002000303000000000DB
S3150800475000000030003000004041424344454647CF
S315080047604849000000000000005A5B5C5D5E5F106F
S31508004770101010101010101010101010101010102B
S315080047801010103000000000005A5B5C5D5E5F0090
S3150800479010B504F05BF840F2A174C440E0070BD5ED
S315080047A0064C207804F06AF8207804F0F1F82078AE
S315080047B0BDE8104004F0EDB910BD00BF702200201E
S315080047C01F210FF22C00FFF739BC10B502F071FF5C
S315080047D0044602F063FF0246234604480FF220010E
S315080047E00078BDE81040FEF7C1BA0000702200202C
S315080047F072657365742D746573742E63000000000A
S3150800480052455345543A25702D25700D0A0000006F
S3150800481010B5DFF834440FF218012078FEF7A6FA2F
S3150800482020780FF21C01BDE81040FEF79FBA000081
S31508004830286C6974746C6520656E6469616E000025
S315080048402C20616C6C2064617461207265707265DD
S3150800485073656E746564206173206279746520617E
S3150800486072726179290D0A000178A1F130030A2BC9
S315080048700AD3A1F14103062B38BF373904D3A1F176
S315080048806102062A03D257390907090E00E00021FA
S315080048904078A0F130030A2B02D2401830380CE0D9
S315080048A0A0F14103062B02D24018373805E0A0F1E3
S315080048B06102062A03D240185738C0B27047080961
S315080048C0704710B504F070FC02001AD0DE4C207850
S315080048D0042A08BF0FF22C0108D0062A08BF0FF2D7
S315080048E0700103D0072A04D10FF2A801FEF73EFA99
S315080048F003E00FF2E801FEF739FA20780FF21011FB
S3150800490091E710BD68616C537461636B496E697495
S31508004910546F6B656E73204641494C454420776950
S31508004920746820454D4245525F454550524F4D5F8C
S315080049304D46475F535441434B5F56455253494F83
S315080049404E5F4D49534D415443480D0A000000003F
S3150800495068616C537461636B496E6974546F6B65F7
S315080049606E73204641494C45442077697468204552
S315080049704D4245525F454550524F4D5F4D46475F44
S3150800498056455253494F4E5F4D49534D415443483E
S315080049900D0A000068616C537461636B496E697433
S315080049A0546F6B656E73204641494C4544207769C0
S315080049B0746820454D4245525F454550524F4D5FFC
S315080049C0535441434B5F56455253494F4E5F4D49E9
S315080049D0534D415443480D0A0000000068616C536A
S315080049E07461636B496E6974546F6B656E732046A8
S315080049F041494C4544207769746820456D62657263
S31508004A005374617475733A2025580D0A0000000026
S31508004A10546F6B656E7320617265207374696C6C74
S31508004A2020616374697665207768656E2075736999
S31508004A306E672074686973206170706C696361744D
S31508004A40696F6E2E0D0A00002DE9F04FC1B080681F
S31508004A507D4F0568FFF7DCFEA8B204F0E9FD0446C1
S31508004A60A8B204F01BFC8046A8B204F0C8FE834630
S31508004A70002C38781ABF4FF6FF7188450FF27C2153
S31508004A802CD02346AAB20FF20C11FEF76FF90025B7
S31508004A900FF2AC190FF2AC1A0AE01DF806203878A6
S31508004AA04946FEF763F9761CF6B2A642F5DB6D1C9D
S31508004AB0EDB25D4510DABBF1010F234603D17F2223
S31508004AC000F06EF806E02A4600F06AF83878514693
S31508004AD0FEF74CF90026E7E738785146FEF746F91F
S31508004AE041B0BDE8F08F2DE9F047C0B08068046892
S31508004AF04768554EFFF78CFEA0B204F099FD814633
S31508004B00A0B204F0CBFB8046A0B204F078FE0546BE
S31508004B10B9F1000F30781ABF4FF6FF7188450FF2CA
S31508004B20DC1131D0A5F1010A15B1FFB2BA450BDA8D
S31508004B300FF2D411FEF71AF930780FF20421534612
S31508004B400022FEF713F921E04B46A2B20FF2440108
S31508004B50FEF70CF9012D08BF7F274B463A4600F0B1
S31508004B601FF838A430782146FEF700F900270FF21F
S31508004B70D00804E01DF8072001F08DF87F1CFFB26D
S31508004B8030784F45F6DB2146FEF7F0F840B0BDE831
S31508004B90F08700005B2532785D28256429203D00D2
S31508004BA04146684604F044BB2DE9F047C2B0806828
S31508004BB0DFF8887E0668FFF72BFEB0B204F038FDF2
S31508004BC08146B0B204F06AFB8246B0B204F017FE22
S31508004BD00646B9F1000F1CBF4FF6FF70824505D196
S31508004BE038780FF21811FEF7C1F828E000240FF202
S31508004BF0741803E0504604F02CFB641CB4421EDA19
S31508004C00002513E006FB09F0431E387809FB045219
S31508004C104146FEF7ABF8387803226946FFF7F8F8FD
S31508004C206846FFF721FE01A948556D1C4D45E9DB8D
S31508004C30012E4B4601AA0CBF7F21E1B2DAE759E003
S31508004C40202558000D0A0000702200202DE9F047A3
S31508004C50C2B0806807684468DFF8E05DFFF7D8FDF2
S31508004C60B8B204F0E5FC8046B8B204F017FB8146FA
S31508004C70B8B204F0C4FD0746B8F1000F28781CBF87
S31508004C804FF6FF71894504D10FF27001FEF76EF8F1
S31508004C9030E07E1E17B1E4B2A6420BDA0FF26801C5
S31508004CA0FEF764F828780FF2980133460022FEF7DB
S31508004CB05DF81FE000260FF2AC0A10E02878A8F18C
S31508004CC00103324600F0E4FF287803226946FFF71D
S31508004CD09FF86846FFF7C8FD01A98855761C464522
S31508004CE0ECDB012F08BF7F24434601AA214648462C
S31508004CF004F0AFFA42B0BDE8F08700006E6F74208A
S31508004D00666F756E640D0A004552524F523A20443A
S31508004D1065736972656420696E64657820697320B5
S31508004D206F7574206F662072616E676520666F7294
S31508004D30207468697320746F6B656E0D0A00000035
S31508004D402020202020202056616C69642072616E24
S31508004D506765206973202558207468727520255860
S31508004D600D0A00006461746120627974655B2564CC
S31508004D70206F662025645D3A000000002DE9F043A7
S31508004D80F9B0DFF8B84CDFF8B88CFFF741FD2078AA
S31508004D904CF2443200F07FFF2078DFF8A81CFFF7BA
S31508004DA05DF8DFF8A40C018818237F2210A804F008
S31508004DB03FFA00270FF2903910A84946C25D00F065
S31508004DC098FF7F1C182FF7D3E0A700F04FFF207835
S31508004DD04FF2640200F05FFF20780FF69841FFF764
S31508004DE03DF8DFF8680C0188062300F02FFF002540
S31508004DF000F07CFF6D1C062DFAD300F037FF2078F3
S31508004E004FF2644200F047FF20780FF67841FFF72B
S31508004E1025F8DFF83C0C0188062300F017FF00256B
S31508004E2000F064FF6D1C062DFAD300F01FFF2078F2
S31508004E304EF2455200F02FFF20780FF65841FFF743
S31508004E400DF8DFF8100C00F0FFFE002500F04EFF0D
S31508004E506D1C082DFAD300F009FF20784FF26E4238
S31508004E6000F019FF20780FF64041FEF7F7FFDFF84C
S31508004E70E80B00F0DDFE002508A800F038FF6D1CE1
S31508004E80142DF9D300F0F2FE20784FF2424200F0DA
S31508004E9002FF20780FF62841FEF7E0FFDFF8BC0B8B
S31508004EA000F0C6FE002508A800F021FF6D1C142D91
S31508004EB0F9D300F0DBFE20784FF2624200F0EBFEF9
S31508004EC020780FF61441FEF7C9FFDFF8940B018826
S31508004ED00A237F220DA804F0ABF900250DA800F0DF
S31508004EE006FF6D1C0A2DF9D300F0C0FE20784FF29C
S31508004EF0742200F0D0FE20780FF6F431FEF7AEFFEC
S31508004F000125DFF8600B00F0A5FE00F0A9FE9DF86C
S31508004F10012000F0A7FE6D1EF3D100F0A7FE207851
S31508004F204FF2762200F0B7FE20780FF6D431FEF75E
S31508004F3095FF0125DFF8300B00F08CFE00F090FE9F
S31508004F409DF8012000F08EFE6D1EF3D100F08EFE56
S31508004F5020784FF2766200F09EFE20780FF6B43184
S31508004F60FEF77CFF0125DFF8040B00F073FE00F066
S31508004F7077FE9DF8012000F075FE6D1EF3D100F056
S31508004F8075FE20784FF2634200F085FE20780FF612
S31508004F909831FEF763FF0125DFF8D40A00F05AFEC0
S31508004FA000F05EFE9DF8012000F05CFE6D1EF3D158
S31508004FB000F05CFE20784FF2744200F06CFE207818
S31508004FC00FF67431FEF74AFF0125DFF8A80C00F04A
S31508004FD041FE00F045FE9DF8012000F043FE6D1EDF
S31508004FE0F3D100F043FE20784FF6097200F053FE25
S31508004FF020780FF65431FEF731FF0125DFF8780CDB
S3150800500000F028FE00F02CFE9DF8012000F02AFE94
S315080050106D1EF3D100F02AFE20784EF2636200F08E
S315080050203AFE20780FF63031FEF718FF0125DFF833
S315080050304C0C00F00FFE00F013FE9DF8012000F066
S3150800504011FE6D1EF3D100F011FE20784EF26F624C
S3150800505000F021FE20780FF61431FEF7FFFEDFF888
S31508005060200C00F0F1FD00F041FE6D1C082DFAD36E
S3150800507000F0FCFD20784EF26F3200F00CFE20782E
S315080050800FF6F421FEF7EAFEDFF8F80B00F0D6FD7E
S31508005090002504A800F02BFE6D1C102DF9D300F096
S315080050A0E5FD20784CF2563200F0F5FD20780FF633
S315080050B0D421FEF7D3FE0125DFF8CC0B00F0CAFD9C
S315080050C000F0CEFD9DF8012000F0CCFD6D1EF3D159
S315080050D000F0CCFD20784EF2453200F0DCFD207859
S315080050E00FF6B421FEF7BAFEDFF8A00B00F0ACFD10
S315080050F000F0FCFD6D1C082DFAD300F0B7FD2078F2
S315080051004EF6735200F0C7FD20780FF6A021FEF781
S31508005110A5FEDFF8880B00F091FD002504A800F035
S31508005120E6FD6D1C102DF9D300F0A0FD20784CF299
S315080051304E2200F0B0FD20780FF67C21FEF78EFE99
S31508005140DFF85C0B04E000BF202558000D0A0000BC
S3150800515000F074FD002504A800F0C9FD6D1C102D93
S31508005160F9D300F083FD20784CF6441200F093FD45
S3150800517020780FF65421FEF771FE0125DFF8240B7F
S3150800518000F068FD00F06CFD9DF8012000F06AFD56
S315080051906D1EF3D100F06AFD20784DF2430200F04F
S315080051A07AFD20780FF63021FEF758FE0125DFF844
S315080051B0F80A00F04FFD00F053FD9DF8012000F0BD
S315080051C051FD6D1EF3D100F051FD20784CF24B22B3
S315080051D000F061FD20780FF61021FEF73FFEDFF89C
S315080051E0CC0A00F02BFD04A800F081FD6D1C102DE3
S315080051F0F9D300F03BFD20784CF6535200F04BFDF6
S3150800520020780FF6FC11FEF729FEDFF8A40A00F055
S315080052101BFD002500F06AFD6D1C082DFAD300F071
S3150800522025FD20784CF2431200F035FD20780FF664
S31508005230E411FEF713FE0025DFF8780A0188022339
S31508005240EAB200F0F2FC00F00BFD9DF8012000F038
S3150800525009FD6D1C142DEFDB00F008FD20784CF2DB
S31508005260423200F018FD20780FF68C21FEF7F6FD85
S31508005270DFF8440A01885C237F2262A803F0D8FF7E
S31508005280002562A800F033FD6D1C5C2DF9D300F0F3
S31508005290EDFC20784CF6431200F0FDFC20780FF662
S315080052A06821FEF7DBFDDFF8140A00F0C1FC0025D3
S315080052B008A800F01CFD6D1C142DF9D300F0D6FCCF
S315080052C020784BF2542200F0E6FC20780FF65021A5
S315080052D0FEF7C4FD0125DFF8E80900F0BBFC00F085
S315080052E0BFFC9DF8012000F0BDFC6D1EF3D100F057
S315080052F0BDFC20784DF2463200F0CDFC20780FF642
S315080053003821FEF7ABFD0125DFF8B80900F0A2FC4D
S3150800531000F0A6FC9DF8012000F0A4FC6D1EF3D158
S3150800532000F0A4FC20784BF2532200F0B4FC20785D
S315080053300FF61C21FEF792FD0125DFF88C0900F017
S3150800534089FC00F08DFC9DF8012000F08BFC6D1E99
S31508005350F3D100F08BFC20784DF2433200F09BFC31
S3150800536020780FF60421FEF779FD0125DFF85C09A0
S3150800537000F070FC00F074FC9DF8012000F072FC4F
S315080053806D1EF3D100F072FC20784CF2433200F027
S3150800539082FC20780FF6E411FEF760FD0125DFF8A0
S315080053A0300900F057FC00F05BFC9DF8012000F086
S315080053B059FC6D1EF3D100F059FC20784DF24232AB
S315080053C000F069FC20780FF6C811FEF747FDDFF8F4
S315080053D0040900F033FC04A800F089FC6D1C102DAC
S315080053E0F9D300F043FC20784CF2545200F053FCF9
S315080053F020780FF6B811FEF731FDDFF8DC080188D2
S31508005400062300F023FC002500F070FC6D1C062D19
S31508005410FAD300F02BFC20784CF2453200F03BFC26
S3150800542020780FF6A011FEF719FDDFF8B0080188FD
S3150800543094237F223DA803F0FBFE00253DA800F03B
S3150800544056FC6D1C942DF9D300F010FC20784DF60F
S31508005450540200F020FC20780FF67C11FEF7FEFCC3
S315080054600125DFF87C0800F0F5FB00F0F9FB9DF854
S31508005470012000F0F7FB6D1EF3D100F0F7FB207852
S315080054804CF64B2200F007FC20780FF65811FEF771
S31508005490E5FCDFF85008018822237F2234A803F0B0
S315080054A0C7FE34A800F023FC6D1C222DF9D300F0AA
S315080054B0DDFB20784BF2346200F0EDFB20780FF626
S315080054C03811FEF7CBFCDFF8200800F0BDFB0025FD
S315080054D000F00CFC6D1C082DFAD300F0C7FB2078F1
S315080054E04FF6017200F0D7FB20780FF61811FEF779
S315080054F0B5FC012502237F22002100F096FB00F06F
S31508005500AFFB9DF8012000F0ADFB6D1EF2D100F057
S31508005510ADFB20784EF2231200F0BDFB20780FF683
S31508005520FC01FEF79BFC04237F22012100F07AFB95
S3150800553001A800F0DCFB6D1C042DF9D300F096FBE6
S3150800554020784EF2754200F0A6FB20780FF6E401AB
S31508005550FEF784FC11237F22022108A803F068FEC7
S31508005560002508A800F0C3FB6D1C112DF9D300F027
S315080055707DFB20784EF2632200F08DFB20780FF633
S31508005580C801FEF76BFC04237F22032100F04AFBC7
S31508005590002501A800F0ABFB6D1C042DF9D300F023
S315080055A065FB20784EF2635200F075FB20780FF603
S315080055B0AC01FEF753FC04237F22042100F032FBE2
S315080055C0002501A800F093FB6D1C042DF9D300F00B
S315080055D04DFB20784EF2621200F05DFB20780FF644
S315080055E09001FEF73BFC012502237F22052100F0EE
S315080055F01CFB00F035FB9DF8012000F033FB6D1E07
S31508005600F2D100F033FB20784EF6793200F043FBF6
S3150800561020780FF67401FEF721FC11237F2206215C
S3150800562008A803F005FE08A800F061FB6D1C112D03
S31508005630F9D300F01BFB20784EF6646200F02BFBD2
S3150800564020780FF65001FEF709FC10237F22072168
S3150800565004A803F0EDFD002504A800F048FB6D1C26
S31508005660102DF9D300F002FB20784EF2241200F038
S3150800567012FB20780FF62C01FEF7F0FB1A237F2287
S3150800568008212DA803F0D4FD00252DA800F02FFB36
S315080056906D1C1A2DF9D300F0E9FA20784EF225127E
S315080056A000F0F9FA20780FF61001FEF7D7FB082369
S315080056B07F22092102A803F0BBFD002500F016FB96
S315080056C06D1C082DFAD300F0D1FA20784EF2261276
S315080056D000F0E1FA20780FF2FC71FEF7BFFB0A230F
S315080056E07F220A210DA803F0A3FD00250DA800F0CE
S315080056F0FEFA6D1C0A2DF9D300F0B8FA20784EF29E
S31508005700271200F0C8FA20780FF2DC71FEF7A6FB24
S31508005710012502237F220B2100F087FA00F0A0FA68
S315080057209DF8012000F09EFA6D1EF2D100F09EFA57
S3150800573020784EF2281200F0AEFA20780FF2C871DF
S31508005740FEF78CFB18237F220C2110A803F070FDAE
S3150800575010A800F0CCFA6D1C182DF9D300F086FAC3
S3150800576020784DF2452200F096FA20780FF2B471AF
S31508005770FEF774FB00250423EAB20D2100F052FA65
S31508005780002601A84946825D00F0B3FA761C042E6D
S31508005790F7D36D1C102DEEDB00F068FA20784EF278
S315080057A0102200F078FA20780FF28871FEF756FB7F
S315080057B000F05CFA20784EF2112200F06CFA20789C
S315080057C00FF28C71FEF74AFB00F050FA20784EF281
S315080057D0122200F060FA20780FF29471FEF73EFB71
S315080057E000F044FA20784EF2132200F054FA20789A
S315080057F00FF2A071FEF732FB00F038FA20784EF26D
S31508005800142200F048FA20780FF2AC71FEF726FB56
S3150800581000F02CFA20784EF2152200F03CFA207897
S315080058200FF2BC71FEF71AFB00F020FA20784EF250
S31508005830202200F030FA20780FF2C471FEF70EFB32
S3150800584004237F22142100F0EDF9002501A800F0B9
S315080058504EFA6D1C042DF9D300F008FA20784EF2A2
S31508005860212200F018FA20780FF2B871FEF7F6FA3E
S3150800587000F0FCF920784EF2742200F00CFA207839
S315080058800FF2CC71FEF7EAFA00F0F0F920784FF63D
S315080058900D7200F000FA20780FF2C871FEF7DEFAF2
S315080058A000250B23EAB217210DA803F0C1FC002638
S315080058B00DA84946825D00F01CFA761C0B2EF7D31C
S315080058C06D1C062DEDDB00F0D1F920784EF256421C
S315080058D000F0E1F920780FF2A071FEF7BFFA00F0A8
S315080058E0C5F920784FF4654200F0D5F920780FF213
S315080058F09871FEF7B3FA00F0B9F920784EF2035220
S3150800590000F0C9F920780FF29871FEF7A7FA00257A
S315080059100123EAB21A210DF1020003F089FC9DF871
S31508005920022000F09FF96D1C062DF1DB00F09EF9B0
S3150800593020784EF2015200F0AEF920780FF27C7111
S31508005940FEF78CFA10237F221B2104A803F070FCB3
S31508005950002504A800F0CBF96D1C102DF9D300F032
S3150800596085F920784EF2025200F095F920780FF268
S315080059705C71FEF773FA28237F221C2123A803F003
S3150800598057FC002523A800F0B2F96D1C282DF9D381
S3150800599000F06CF920784EF2582200F07CF9207855
S315080059A00FF23C71FEF75AFA12237F221D2108A82E
S315080059B003F03EFC002508A800F099F96D1C122D8D
S315080059C0F9D300F053F920784EF2592200F063F922
S315080059D020780FF21C71FEF741FA00253423EAB24B
S315080059E01E2116A803F024FC002616A84946825D47
S315080059F000F07FF9761C342EF7D36D1C052DEDDBF0
S31508005A0000F034F920784EF25A2200F044F9207852
S31508005A100FF2F461FEF722FA00F028F920784EF228
S31508005A205B2200F038F920780FF2F061FEF716FADB
S31508005A3000F01CF979B0BDE8F08300007022002060
S31508005A40643001086C300108043B0108063B010874
S31508005A50083B01080A3B01080C3B01080E3B0108FC
S31508005A60103B0108123B0108143B0108163B0108CC
S31508005A70183B01084D46475F504152545F44415414
S31508005A80410000004D46475F5445535445525F4414
S31508005A90415441004D46475F454D4245525F455585
S31508005AA0495F3634000000004D46475F414E414C81
S31508005AB04F475F5452494D5F4E4F524D414C00007F
S31508005AC04D46475F414E414C4F475F5452494D5FE3
S31508005AD0424F4F53540000004D46475F414E414CDC
S31508005AE04F475F5452494D5F424F544800000000EB
S31508005AF04D46475F5245475F5452494D00000000E6
S31508005B004D46475F3156385F5245475F564F4C54AE
S31508005B10414745004D46475F565245465F564F4CEE
S31508005B2054414745000000004D46475F54454D50D7
S31508005B305F43414C000000004D46475F54455354AF
S31508005B405F54454D500000004D46475F4649425F49
S31508005B5056455253494F4E004D46475F4649425FA8
S31508005B60434845434B53554D000000004D46475F9B
S31508005B704649425F4F4253004D46475F4349425F9D
S31508005B804F4253004D46475F435553544F4D5F565A
S31508005B90455253494F4E00004D46475F43555354AF
S31508005BA04F4D5F4555495F36340000004D46475F07
S31508005BB0535452494E4700004D46475F424F4152A3
S31508005BC0445F4E414D4500004D46475F4D414E5599
S31508005BD0465F4944000000004D46475F5048595FFC
S31508005BE0434F4E46494700004D46475F424F4F5484
S31508005BF04C4F41445F4145535F4B455900000000F7
S31508005C004D46475F455A53505F53544F5241474597
S31508005C10000000004D46475F4153485F434F4E46DC
S31508005C204947000001A803F003BB684603F000BB20
S31508005C30018814237F2208A803F0FABA01881023E2
S31508005C407F2204A803F0F4BA018808237F2202A859
S31508005C5003F0EEBA018802237F22684603F0E8BA09
S31508005C609DF8002020784946FDF780B82078394607
S31508005C70FDF77CB81A3B01081C3B01081E3B0108CE
S31508005C80203B0108223B0108243B0108263B01086A
S31508005C905146FDF76BB84146FDF768B8283B010841
S31508005CA02A3B01082C3B01082E3B0108303B010822
S31508005CB0323B0108343B0108363B0108383B0108F2
S31508005CC03A3B01083C3B01083E3B0108403B0108C2
S31508005CD0423B0108443B0108463B0108483B010892
S31508005CE04A3B01084C3B01084E3B010802A84946BD
S31508005CF0425D2078FDF73AB84D46475F43424B452B
S31508005D005F444154410000004D46475F494E535495
S31508005D10414C4C4154494F4E5F434F4445000000A7
S31508005D204D46475F4F534332344D5F424941535FB7
S31508005D305452494D000000004D46475F53594E5492
S31508005D40485F465245515F4F46465345540000004A
S31508005D504D46475F4F534332344D5F534554544C79
S31508005D60455F44454C4159004D46475F53454355A9
S31508005D70524954595F434F4E464947004D46475F7F
S31508005D804343415F5448524553484F4C4400000032
S31508005D904D46475F5345435552455F424F4F544C16
S31508005DA04F414445525F4B45590000004D46475FF9
S31508005DB045544845524E45545F4144445245535311
S31508005DC0000000004D46475F43424B455F3238337B
S31508005DD04B315F44415441004D46475F584F5F542D
S31508005DE0554E45004D46475F5448524541445F4A23
S31508005DF04F494E5F4B4559004D46475F4555495FEC
S31508005E0036340000535441434B5F4E564441544187
S31508005E105F56455253494F4E0000000053544143C4
S31508005E204B5F4150535F4652414D455F434F554E78
S31508005E3054455200535441434B5F414C5445524ECE
S31508005E404154455F4B455900535441434B5F424FBC
S31508005E504F545F434F554E544552000053544143E7
S31508005E604B5F4E4F4E43455F434F554E5445520088
S31508005E70535441434B5F414E414C595349535F522A
S31508005E8045424F4F54000000535441434B5F4B4526
S31508005E9059530000535441434B5F4E4F44455F44AA
S31508005EA041544100535441434B5F54525553545F38
S31508005EB043454E5445520000535441434B5F4E45AB
S31508005EC054574F524B5F4D414E4147454D454E54F1
S31508005ED000000000535441434B5F504152454E5415
S31508005EE05F494E464F000000535441434B5F5041B3
S31508005EF052454E545F4144444954494F4E414C5FC4
S31508005F00494E464F00000000535441434B5F4D55E0
S31508005F104C54495F5048595F4E574B5F494E464F60
S31508005F2000000000535441434B5F43414C5F4441DA
S31508005F30544100004D554C54495F4E4554574F52F5
S31508005F404B5F535441434B5F4B4559530000000088
S31508005F504D554C54495F4E4554574F524B5F535419
S31508005F6041434B5F4E4F44455F4441544100000056
S31508005F704D554C54495F4E4554574F524B5F5354F9
S31508005F8041434B5F414C5445524E4154455F4B4546
S31508005F90590000004D554C54495F4E4554574F52D1
S31508005FA04B5F535441434B5F54525553545F4345DB
S31508005FB04E544552000000004D554C54495F4E451D
S31508005FC054574F524B5F535441434B5F4E455457BA
S31508005FD04F524B5F4D414E4147454D454E5400008B
S31508005FE04D554C54495F4E4554574F524B5F535489
S31508005FF041434B5F504152454E545F494E464F0010
S315080060004D554C54495F4E4554574F524B5F535468
S3150800601041434B5F4E4F4E43455F434F554E5445A4
S31508006020520000004D554C54495F4E4554574F5247
S315080060304B5F535441434B5F504152454E545F4169
S3150800604044444954494F4E414C5F494E464F00001F
S31508006050535441434B5F42494E44494E475F54416E
S31508006060424C4500535441434B5F4348494C445FB7
S315080060705441424C45000000535441434B5F4B4545
S31508006080595F5441424C4500535441434B5F434585
S315080060905254494649434154455F5441424C450090
S315080060A0535441434B5F4144444954494F4E414C34
S315080060B05F4348494C445F4441544100535441436B
S315080060C04B5F5A4C4C5F4441544100005354414382
S315080060D04B5F5A4C4C5F534543555249545900003F
S315080060E0535441434B5F47505F44415441000000BD
S315080060F0535441434B5F47505F50524F58595F5472
S3150800610041424C4500000000535441434B5F475001
S315080061105F53494E4B5F5441424C450053544143EB
S315080061204B5F47505F494E434F4D494E475F464385
S315080061300000000010B50446002003F05EFF0020B2
S3150800614003F06FFF01F076FB012003F02DFE03F04C
S315080061501CFE10F0060018BF012004F0D6F82046F1
S3150800616004F00FFD2046BDE8104000F069BE80B57A
S31508006170022100F0D8F8009804F054FE01BD8068AA
S31508006180DFF840130068087008780228A8BF0FF2E5
S315080061906C3305DA002814BF0FF26C330FF2703334
S315080061A0DFF824030FF24432D0F85013FFE70FF25A
S315080061B03030FDF7EABA80B503F0F3FEDFF80C13CA
S315080061C00FF2943251F82030DFF8FC02D0F8901321
S315080061D00FF26830FDF7D9FABDE8024072E038B52B
S315080061E00446A0680568DFF8E002D0F8A0130FF2AD
S315080061F07430FDF7CAFAEDB215B1012D07D00CE0DF
S315080062000FF26830FDF7C1FA03F05CFE05E00FF205
S315080062107030FDF7BAFA03F092FE0FF27430FDF70C
S31508006220B4FA2046BDE83240C5E770B504460D46C7
S31508006230284605F002F806462B460FF2D0320FF232
S31508006240B43004F11101FDF7A0FAAE420FF274342E
S3150800625005D032460FF2BC312046FDF796FA28469D
S3150800626004F0F1FF034613F1010F0FF22C300FF281
S31508006270303108BF0FF230320DD013B90FF2303279
S3150800628009E0DFF84C02B3FBF0F200FB123028B944
S315080062900FF238312046FDF778FA11E04FF47A719B
S315080062A0DFF830020078B3FBF1F201FB1231002966
S315080062B00EBF0FF220311A460FF22831FCF756FDB1
S315080062C0BDE870406BA0FDF760BA10B5044604F04F
S315080062D0FCFF01462046BDE81040A6E738B504464F
S315080062E003F05FFE0500DFF8E001D0F870130FF247
S315080062F02C3018BF0125FDF748FA03F020FEA068E8
S315080063000068C0B204F0D9FF02460FF228210FF246
S315080063104030FDF73AFA0DB103F0D4FD2046BDE84A
S315080063203240D2E70121684605F048BC38B5044634
S3150800633003F037FE050018BF012503F000FE5020C4
S3150800634001F003FE03F00EFF03465CA204F11101FF
S315080063500FF20430FDF719FA1DB1BDE8314003F01C
S31508006360B1BD31BD2DE9F84F06468946154603F0FD
S3150800637018FE040018BF012403F01DFE002E4FF07E
S315080063807F0A6FF07F0B4FF000088DF8000008D1E8
S315080063900126002003F012FE642001F0D6FD3746E0
S315080063A011E0F6D57642F4E7802001F0CEFD03F041
S315080063B017FE83455246B8BF834682469245C8BFF4
S315080063C0924680447F1E012FEEDA9DF8000003F006
S315080063D0F5FD0CB103F076FDB9F1000F18BF89F889
S315080063E000A015B198FBF6F028705846BDE8F28F64
S315080063F010B500F01AF804F11101BDE81040034683
S315080064000FF274220FF25C20FDF7BFB910B500F049
S315080064100CF803F0D7FA04F11101BDE81040034661
S3150800642027A20FF25C20FDF7B0B90446002200212E
S31508006430012097E710B5044686B0A068006804AA4C
S315080064400DF11101FFF78EFF039004F111010FF210
S3150800645078209DF911300FF2602202909DF9100004
S3150800646001900FF25C2000900FF23020FDF78DF9B5
S3150800647006B010BD7D0D0A0080B503F0C4FE0346C4
S3150800648011480FF25C22D0F8F0130FF24420BDE851
S315080064900050FDF77AB910B504460B48D0F8001439
S315080064A00FF24C20FDF771F9A068006840B203F0BE
S315080064B082FE2046BDE81040DEE700004343410067
S315080064C045440000DF230020342A0108A8220020C2
S315080064D040420F007022002081680968C9B2A4E60C
S315080064E07B264E202674737D0D0A000050455220E7
S315080064F054657374204D6F6465000000656E6162B3
S315080065006C65642D6E657700656E61626C65640006
S3150800651064697361626C65640000000061736C6590
S31508006520657000006177616B65000000656E6572D5
S315080065306779000073746174757300007B264E20BA
S31508006540526164696F20706F776572207374617425
S315080065506520267473000000706F77657220737467
S31508006560617465007B264E2000000000536C65654B
S3150800657070696E6720726164696F2E2E2E000000A6
S3150800658057616B696E6720726164696F2E2E2E00E3
S31508006590646F6E657D0D0A00202674700000000089
S315080065A06672657100000000696C6C6567616C0055
S315080065B050657252616D526164696F436F6E6669A8
S315080065C06700000020267475000000006672657179
S315080065D04D487A00207B667265714B487A3A256C7D
S315080065E07D000000207B66726571487A3A256C7DCD
S315080065F0000000007B264E20526164696F206368A4
S31508006600616E6E656C202674680000006368616EB2
S315080066106E656C005074694368616E007B264E2077
S3150800662053657474696E67206368616E6E656C2065
S31508006630616E642063616C6962726174696E672059
S31508006640286173206E6565646564292E2E2E000008
S315080066502674687D0D0A00007B264E202674647D0C
S315080066600D0A00007B264E20267464205B64426D6A
S315080066705D7D0D0A000000005253534900000000DA
S315080066807B264E20267464205B3830322E31352E18
S315080066903420756E6974735D7D0D0A007B264E2065
S315080066A02674642026746420267464205B64426D14
S315080066B05D7D0D0A000000006D696E525353490056
S315080066C061766752535349006D61785253534900B6
S315080066D07B264E202674642064426D7D0D0A0000D8
S315080066E0434341205468726573686F6C6400000008
S315080066F07B264E7D0D0A000080B5002003F0DAFDEA
S31508006700BDE8014004F0B2BA38B5DFF83841DFF821
S315080067103811607DC870607B18B105F004FB00284D
S3150800672008D505F000FB40054CBF032001200021D9
S3150800673005F028FBE06901224FF4806105F067FC4B
S31508006740050003D000F05FF901202075284632BD08
S31508006750DFF8F010C861887DDFF8EC100871D3E720
S3150800676070B58EB00C460CA805F048FC054605F039
S315080067706FFC064605F040FCBDF83610DFF8CC2065
S315080067800B9103460FF244010FF248000A91039554
S315080067900196BDF8341009910FF280010891BDF8F1
S315080067A0321007910FF27C010691BDF83010059161
S315080067B00FF2780104910FF27C0102910FF27C012D
S315080067C000912146FCF7E1FF0EB070BD737573703A
S315080067D0000000007B264E20267475202674326839
S315080067E0202674642F31303025250D0A2020267482
S315080067F0642F3130302525202674642F313030251A
S3150800680025202674642F3130302525202674642FE0
S3150800681031303025257D0D0A000000006372697449
S31508006820000000006C696D690000000074616C6B03
S31508006830000000007573656400000000616363650D
S315080068406C000000B82200200826002050680008C6
S315080068506D6F6465000000002DE9F04B0646894619
S31508006860904605F0EBFBDFF8C045070918BF7F1E09
S31508006870A07066708C2E18BF03F096FB3000DFF808
S31508006880E4550FF22C1B0AD0402E1AD0892E2BD095
S315080068908C2E21D08D2E1DD08F2E09D027E0206971
S315080068A0401C206100F0AAF860B340F2265126E0A9
S315080068B0A069401CA06100F0A1F818B340F22B5162
S315080068C01DE0E069401CE06100F098F8D0B140F2A4
S315080068D0375114E005F0B1FB6069401C6061287D02
S315080068E080B140F23E510AE040F2425107E032469A
S315080068F00FF2D4010120FDF759FB40F24F515846DB
S31508006900FDF79CFB402E84F80080C4F8289025D11A
S31508006910E078022822DB401EE0702089401C208196
S3150800692005F001FA00F08020B0F1004F01D000F028
S315080069306AF805F0F8F9000408D505F0F4F94005F9
S315080069404CBF03200120002105F01CFAE86900224B
S315080069504FF4806105F05BFB060026D000F053F883
S31508006960300018BF8F2E1ED0207902281BDB401E50
S3150800697020716089401C6081DFF8080500780228CC
S315080069800ADBE969DFF80005814205D101780929A2
S3150800699002DBC178491CC170688B01F0D6FABDE8E4
S315080069A0F04BFFF7B1BE01202875BDE8F08B00005B
S315080069B07068792D636F6D6D6F6E2D74782D7465A3
S315080069C073742E6300000000656D6265725261641F
S315080069D0696F5472616E736D6974436F6D706C651F
S315080069E0746549737243616C6C6261636B2073747E
S315080069F0617475733A20307825780000206A381853
S31508006A002062287D70470021002005F0BBB980B5BB
S31508006A1004F05EFC0346DFF878040FF2BC42D0F8B7
S31508006A20B0140FF2A840BDE80050FCF7AEBE30B572
S31508006A30044683B0A068056868B204F04DFC01906E
S31508006A406BB20FF280400FF2AC420090DFF84004C0
S31508006A50D0F8C0140FF28C40FCF797FE9AA0FCF70A
S31508006A6094FE2046BDE83E40D1E700B5DFF8241481
S31508006A700FF2A4420B8B0FF2B84183B00091019339
S31508006A8000F111010FF27C4031E18168DFF804243E
S31508006A9009681183E9E72DE9F14F84B08068008819
S31508006AA001900124401E8041C00F029003F079FA3C
S31508006AB000B101208DF801004FF0000BDFF8685394
S31508006AC0DFF8A08368697C4FADF80200D9460198C3
S31508006AD0012813D000F006F93878029921B10FF28F
S31508006AE07041FCF743F903E0019A78A1FCF73EF9F7
S31508006AF0B8F8182000F0F1F800F0EAF8DFF8886333
S31508006B00DFF894A3802251463046FCF75FFEDFF893
S31508006B10740300780228A4BF3078092819DB9AF88C
S31508006B20011001F0200141F0C1017170A146182140
S31508006B30B1703018029919B100F805BC002004E0BC
S31508006B40019900F8051C019800123178711801F8AE
S31508006B50040CDA4611E001F047FA834698F8140067
S31508006B6048B9FFF7C9FD01F03FFAA0EB0B0080B268
S31508006B70B0F5FA6FF2D995F801B0029810B90198F4
S31508006B8082454FDA00208DF8000069463878FDF70F
S31508006B907DF89DF80010652944D03878642906D117
S31508006BA000F08CF8049800F11101002007E0442950
S31508006BB007D100F083F8049800F111010120FFF7CE
S31508006BC0CFFD0AF101001FFA80FADFF8D00200783B
S31508006BD020B105F030F808B105F03CFAB8F818000D
S31508006BE001F0B3F9DFF89C02007880B1B9F1000F23
S31508006BF018BFF4703078042809DB301800F8034C05
S31508006C00201231787118641C01F8020CA4B2002015
S31508006C1088F81400012068703046FFF799FD0028AF
S31508006C20834698D038780FF24C315246FCF79EF8D6
S31508006C3098F80D0040B1A88ABDF80210421A3878B3
S31508006C400FF24C31FCF792F838780FF268315A4651
S31508006C50FCF78CF8DFF848020FF2743102883878AE
S31508006C60FCF784F838780FF28831FCF77FF8297832
S31508006C703878002914BF0FF294310FF29831FCF7D7
S31508006C8075F803F089FA28B16A6A38780FF28C31F8
S31508006C90FCF76CF8AA6A38780FF2AC31FCF766F89C
S31508006CA0642001F052F99DF8010008B103F00AF9D1
S31508006CB005B0BDE8F08F00007022002052460FF2A2
S31508006CC0B421FCF753B800000D0A00002575000032
S31508006CD038780FF2E411FCF749B838780FF27C21BE
S31508006CE0FCF744B838780FF26021FCF73FB8FCF798
S31508006CF04CFD07BD38B500F03DF800F034F818BF74
S31508006D000124FCF733F803F01AF903F0E2F902E07C
S31508006D10287800F00BF800F004F8F9D103F0E1F94F
S31508006D201DE09DF800006528704720786946FCF745
S31508006D30ADBF38B500F01EF800F015F818BF0124ED
S31508006D40FCF714F803F0FBF803F0D5F902E028780D
S31508006D50FFF7ECFFFFF7E5FFF9D103F0EDF90CB10A
S31508006D6003F0B0F831BDDFF83C510FF24C110400C6
S31508006D702878704700208DF8000003F012B92DE935
S31508006D80F041DFF820410FF2F02120780FF2F826C3
S31508006D900FF2EC28DFF80071FBF7E8FF002515E095
S31508006DA07A5D20784146FBF7E1FF681005EB9070A5
S31508006DB08010B5EB800007D13878854204DA207850
S31508006DC02A463146FBF7D2FF6D1CEDB23878401CD7
S31508006DD08542E5DBBDE8F0818068DFF8BC10006815
S31508006DE0087070472DE9F84304460025A068DFF8C7
S31508006DF0B46007680FF29C29DFF89C807F1CFFB2FD
S31508006E00802F06DAA06800EB8500406808F80700BE
S31508006E1005E030786B1C7A1E4946FBF7A7FF6D1C08
S31508006E20042DEBDBBDE8F183082600201A4814215F
S31508006E30017001214A1E4254491C8029FAD3704721
S31508006E401248194A0021016141618161C1610162EB
S31508006E501160164A116001814181002014490860B9
S31508006E6070470000B822002080680A4A00780100AE
S31508006E7018BF0121517302280E490CBF01200020BA
S31508006E8008707047DF230020282E002008260020DF
S31508006E90342A0108B8220020A82D0020E02300206B
S31508006EA02C2D002070220020302D0020382D0020A7
S31508006EB0942D0020272D00202765276E642E2E2E60
S31508006EC00000000073746174757300007B264E2001
S31508006ED026746464426D7D0061637475616C506FDD
S31508006EE0776572007B264E2026746464426D2026E0
S31508006EF074647D00726571756573746564506F7727
S31508006F00657200007B264E202674647573202674ED
S31508006F10327875737D0000007472616E736D6974E2
S31508006F202064656C61792028646563290000000087
S31508006F307472616E736D69742064656C617920285A
S31508006F4068657829000000005478696E672000009B
S31508006F50696E66696E697465000000002070616379
S31508006F606B65747320257520757320617061727462
S31508006F702E2000000D0A2575207061636B657473F9
S31508006F80207472616E736D69747465642E0D0A00DF
S31508006F902575206661696C65642064756520746F63
S31508006FA0206368616E6E656C20627573792E0D0AB2
S31508006FB0000000004C617374207061636B65742077
S31508006FC07374617475733A2030782532780D0A0027
S31508006FD04C617374207061636B6574206261636BC6
S31508006FE06F66663A2030782532780D0A0000000070
S31508006FF04672616D652070656E64696E6720696E9C
S31508007000206C6173742041434B3A20005965732EF6
S315080070100D0A00004E6F2E0D0A000000534644204C
S3150800702074696D6520287669612053464420736526
S315080070306E742063616C6C6261636B293A203078E8
S315080070402532780D0A0000005346442074696D65A0
S31508007050202876696120545820636F6D706C6574BA
S31508007060652063616C6C6261636B293A2030782510
S3150800707032780D0A00000000206C656E3A20000088
S3150800708030782578200000000D0A307825783A20D7
S31508007090000000007061796C6F6164206279746524
S315080070A020696E6465783A202564206973206F75B7
S315080070B074206F662072616E67652E20617267752F
S315080070C06D656E742025642069676E6F7265642E1F
S315080070D00D0A0000130018BF01231A46FFF7BCBBB0
S315080070E0FEB500F031FB0021DFF86C4204EB81228B
S315080070F0926800F049F8F9DBDFF858620FF25C2570
S3150800710000F028FB002700F044F87F1C032FFADB69
S3150800711000F01AFB002104EB8122D26800F034F853
S31508007120F9DB00F017FB00270FF2482500F031F8CD
S315080071307F1C032FFADB00F007FB00218A02A31845
S315080071405B68A25842EA034200F01EF8F6DB00F03C
S3150800715001FB00240FF234275DF82430307804F15F
S3150800716041023946FBF702FE641C032CF4DB307837
S31508007170DFF8DC11096889064CBF0FF22C210FF2E3
S315080071803821FBF7F3FDF7BD4DF82120491C0329EB
S3150800719070475DF82730307807F141022946FBF73A
S315080071A0E5BD806801784368A02905DB01F0070082
S315080071B00122090902FA00F30A29DFF89801007882
S315080071C0A4BF0A39C9B203290BDADFF88C2102EB0E
S315080071D08122DBB2136101F141020FF2EC11FBF7D8
S315080071E0C5BD1FE0806801784368A02905DB01F06A
S315080071F007000122090902FA00F30A29DFF85401F7
S315080072000078A4BF0A39C9B203290BDADFF8482186
S3150800721002EB8122DBB2536101F141020FF2E01168
S31508007220FBF7A4BD43220FF2B811FBF79FBD70B55B
S315080072308068017803790124A0294FF0FF3206DB24
S3150800724001F00702090913B104FA02F3DBB20A29AD
S31508007250DFF800010078A4BF0A39C9B2032915DA94
S31508007260DFF8F450160005EB812506D4EE6804FA1B
S3150800727002F2D24332401343DBB2EB6001F1410222
S31508007280BDE870400FF29011FBF770BDBDE8704085
S31508007290C8E7F8B58068017843682E480078A029C1
S315080072A04FF0FF360CDB01F007060909102B05D352
S315080072B0BDE8F4400FF27811FBF758BDB2009340D1
S315080072C00A29A4BF0A39C9B203291EDA8A02224C3E
S315080072D0A51837000CD4A758D5F804C047EA0C47B8
S315080072E04FF00F0CB6000CFA06F627EA06063343EB
S315080072F09EB2A6501A0C6A6001B0BDE8F04001F1D2
S3150800730041020FF28801FBF731BDBDE8F84089E775
S315080073100146104889680E4A09680078C9B20029EA
S3150800732011680AD041F0200111601168890654BF1E
S315080073300FF224110FF2101104E021F02001116060
S315080073400FF22C11FBF712BD0FF2341004F0F3BE46
S3150800735000BC00407022002000B000404750494F52
S315080073605F502563494E20202020203D2030782577
S31508007370580D0A004750494F5F5025634F55542012
S315080073802020203D20307825580D0A004750494FC7
S315080073905F502563434647482F4C203D20307825CB
S315080073A034580D0A0000000053574A204469736197
S315080073B0626C65640D0A000053574A20456E616287
S315080073C06C65640D0A0000004750494F5F502563FD
S315080073D0534554203D20307825580D0A00000000FA
S315080073E0546865206F6E6C79206C6567616C2070D7
S315080073F06F7274732061726520412D25630D0A0032
S315080074004750494F5F502563434C52203D20307802
S3150800741025580D0A000000004750494F5F50256364
S315080074204F5554203D20307825580D0A000000009D
S31508007430436F6E6669672073686F756C6420626552
S3150800744020302D440D0A000044697361626C696E30
S31508007450672053574A0D0A0043616E6E6F742064A5
S31508007460697361626C652053574A0D0A0000000073
S31508007470456E61626C696E672053574A0D0A0000B3
S3150800748020290020F915010800000000000000006E
S3150800749038B5012000F064FB002000F0EDFC6D4CCF
S315080074A0206840F008002060FCF7CEF900F0D4FC14
S315080074B069496A480A78C2604B78694AD360694B59
S315080074C08D78DD608D880560CD88456008891060F7
S315080074D04889506088891860C889586000F07EF825
S315080074E0206820F01000206004F087FE04F0B6FE45
S315080074F000F0AEFBFCF7A6F9BDE83140FCF7D6B9BB
S3150800750010B5FCF720FA01F01AF8574900F001F80F
S3150800751010BD52480A78C2604B78514AD360514B25
S315080075208C78DC608C880460CC884460088910609C
S315080075304889506088891860C8895860704710B5AE
S3150800754000F0F0FA00F088FC4349FFF7E2FF00F08C
S3150800755045F84048016821F01001016004F04DFE2D
