S00E00006E63702D7370692E7333372C
S3150000000050E5032019B80200BD410000FDB702000B
S31500000010A70A02020002000004180FAC3062CC00EE
S3150000002000000000000000000000000000000000CA
S31500000030000000000CCE02000000000000000000DE
S315000000400000000000000000FFFFFFFFFFFFFFFFB2
S31500000050FFFFFFFFFFFFFFFFFFFFFFFFFFFFFFFFAA
S3150000006000700F000000000000000000FFFFFFFF0F
S31500000070FFFFFFFF1C000000000000000000000062
S31500000080000000000000000081FF032081FF032024
S3150000009050E503209CDD020056BB0200F0DB032086
S311000000A09012002000001000000000007C
S3150000020050E5032019B80200BD410000FDB7020009
S3150000021005B8020001B8020009B8020015B80200CC
S3150000022015B8020015B8020015B8020015B802008C
S315000002300DB8020015B8020015B80200692A0000C0
S31500000240839A0000CD3A0100391C000015B802005F
S31500000250E53601001D3B0100D33A0100D53A010005
S31500000260CF3A0100D11802001B1B0200F1780000F2
S31500000270935A000015B8020015B802003F050000A9
S3150000028015B8020015B80200391B020015B80200A5
S3150000029015B8020015B8020015B8020015B802001C
S315000002A015B8020015B8020015B8020015B802000C
S315000002B01F3B0100D13A0100237E0000533B0100A1
S315000002C015B8020025BB020015B8020015B80200D9
S315000002D015B8020015B8020015B8020015B80200DC
S315000002E015B8020015B8020015B8020015B80200CC
S315000002F015B8020015B8020015B8020015B80200BC
S3150000030015B8020015B8020015B802006F49704A08
S3150000031001E021B1491E1369DB07FAD401B9B0E047
S31500000320506001201060106910F0060F05D04107DB
S3150000033000D5A9E0800700D5A9E000207047F0B5F8
S3150000034013460022002936D0604C614D8BB98B4292
S3150000035031D250F8046BEE605B1C08262E602646F0
S3150000036001E036B3761E2F69FF07FAD4002EEED1D0
S315000003701FE0EFF3108672B600230EE02F6907F038
S315000003801907102F08BF2F602F693F07F6D550F8C1
S31500000390047BEF605B1C10272F608B42F4D306B9F9
S315000003A062B6264601E026B1761E2869C007FAD451
S315000003B00EB96FF002021046F0BD2DE9F0479A46DD
S315000003C0444B454F1C681B683B688046002043F041
S315000003D001033B60950881460C4602E0B14404EBFC
S315000003E08604A94517D208EB89063046FFF78EFF2B
S315000003F0010014D1C6F30A00C0F500608608A5EB1B
S315000004000900B04238BF0646524631462046FFF73D
S3150000041096FF0100E2D03968490849003960BDE815
S31500000420F0872C49294A0B6809682B490B6843F069
S3150000043001030B608860012048604869400704D5C5
S3150000044008684008400008601EE04869800704D537
S31500000450086840084000086019E00220486001E092
S3150000046022B1521E4869C007FAD422B9086840086A
S315000004704000086005E00868400840000860002069
S3150000048070476FF0020070474FF0FF3070476FF013
S3150000049001007047002390E70F48016841F0010111
S315000004A0016046F21A31C1644FF4807141604169BE
S315000004B0C907FCD44FF4007141604169C907FCD4F7
S315000004C00021C1640020704700000000809698005B
S315000004D00C000E4004300E4008000E40072802D2E1
S315000004E03549085C7047FF207047072802D2334918
S315000004F0085C7047FF20704738B50446304800EB6B
S315000005008105A8780009FFF7E9FF2071A87800F0B7
S315000005100F00FFF7EAFF6071FF2814BF01200020DB
S31500000520E8702146E878A071287860706878254DD3
S31500000530A070284600F0A3F80120A86031BD10B5D0
S31500000540214984B01CC968461CC02048204A01784D
S31500000550D36814682340DB072DD503292BD2184C0A
S3150000056012691C4B04EB8104E4781CB114B2002C14
S3150000057048BF002223F811200123174A147803FAF2
S3150000058001F121431170154A117891B100211478B7
S31500000590CC40E40708D501708B40107858401070A5
S315000005A06846FFF7A9FF1FBD491CC9B20329EED350
S315000005B01FBD032101701FBDE8CD0200F0CD020072
S315000005C0E4ED032000200040DCCD02003DFF0320C7
S315000005D03820004008EE03203EFF03203CFF0320A6
S315000005E0890001EB401000F184400260704730B58D
S315000005F0002A446BDFF834511ABF1022DFF830317D
S31500000600DFF8303123400024A84237D1DFF8280133
S3150000061051B101290CD002291ED003290CD006297C
S3150000062015D0812918D023E001680468006816E017
S3150000063001680468006802E0416844684068090C83
S3150000064001F4FE41C4F303442143000C0CE081682D
S31500000650806801F00F0107E041684468406801F4D2
S31500000660FE4104F00F04214300F0F00040EA0104CB
S3150000067004FA02F0DFF8C4101843086030BD38B53C
S3150000068004460D460220A0600022A9782046FFF706
S31500000690AEFF287969786B79020242EA016242EA82
S315000006A00342EB7842EAC302EB790BB142F0005207
S315000006B02B7A0BB142F00402AB790BB142F0020285
S315000006C06B7A0BB142F00102AB78F32806D1180021
S315000006D004D10429BCBF042060F31B6218064CBF7A
S315000006E042F0E00042EA4310206115496069084083
S315000006F0A9780A0644BF21F080010843297840EA18
S315000007004140E97A09B140F4804060610221AA7A49
S315000007102046FFF765FF2879F32804F13000BDE88D
S3150000072038400CBF01220022102159E7002000406A
S31500000730FFFF00800080FFFF1082E00F34200040A2
S31500000740F8BFE1FF42DE704738B504460D4600F0BB
S3150000075005FC01F08CFA01F0ABFA2946204601F0BF
S31500000760D0FA2B4622466949012001F06CFC294645
S315000007702046BDE83440E5E765482DE9F047654D7C
S3150000078001682E1D4FF420687165016AB1656249E2
S315000007900A68F26549683166416A7166816AB166BE
S315000007A0C16AF166016B3167806B706796F8340039
S315000007B040074CBFF46BB46B01F0D1FC0022F2642D
S315000007C08442564A014624BFA2F1200AA245274682
S315000007D0316505F19003DFF848C1DFF848E118D329
S315000007E0A0693064E4697464746DC4F30804062C6B
S315000007F013D1704511D360450FD200884DF642647F
S31500000800A0420AD13068586040F20178706898605A
S3150000081003E000273764776407464348814202D2E3
S31500000820014600E0091D0846904203D20C68B4F167
S31500000830CD3FF7D03D49081AB0640021002005EBF2
S315000008408004401C0628E167F9D3002003E0C0B20B
S3150000085005EB8004E167974223D252F8041D7145E7
S31500000860F9D36145F7D2CC07F5D5002405EB840909
S31500000870D9F87C90894502D0641C062CF6D3062C48
S31500000880E9D1002814BF401E0520E0E7B16F00241F
S3150000089005EB8402641CD2F88070D767052CF7D369
S315000008A019600146481EC9B20029EFD1706DC0F328
S315000008B00800032810D0042811D0052812D00628D5
S315000008C013D00C2817D0122818D1194800688007B1
S315000008D019D540F2025816E040F6012813E040F61A
S315000008E0022810E040F603280DE0B8F5206F0AD183
S315000008F040F6042807E040F6052804E018B143282E
S3150000090038BF40F607284046BDE8F087F8CD02001C
S3150000091004ED00E00000002000E300E050E50320C5
S3150000092056BB0200DC0400009C00002050E50320BA
S315000009301C20054080B5002300931346012201F0D8
S315000009406BFC01BD00F092BE00F090BEDFF8242BD8
S3150000095010705170704710B54C00014600F027FD2D
S31500000960224601F038FCA04201D0002010BD012033
S3150000097010BD80B500F01BFD01F0BBFC00B10120ED
S31500000980C0B202BDDFF8280B407D00B101207047E0
S31500000990DFF81C2B117B01B9704780B50146106A40
S315000009A001F0FDFC20B1BDE8044040F27111C7E240
S315000009B001BD80B500F0FBFC01F006FC00F0030071
S315000009C0032801D1012002BD002002BD80B5B0F58B
S315000009D0004F07D100F013FEDFF8D80A00F0D0FC74
S315000009E0BDF80000DFF8941BC883002002BD2DE986
S315000009F0F04F440900F01F050027DFF8848B00E064
S31500000A007F1C98F80660F8B2B04236D2D8F80800D3
S31500000A10FFB250F827004FF0000C01E00CF1010C7A
S31500000A20C67E5FFA8CFEB645EAD2D0F81CE05FFAC5
S31500000A308CFC142616FB0CF6B6449EF8086006F0ED
S31500000A400706A642EAD19EF80960B542E6DB9EF8A3
S31500000A5001B09EF8009006EB0B0AAAEB090AAA451C
S31500000A60DCDB11B1AC1B4C440C7012B19EF80810C3
S31500000A7011701BB1C3F800E000E00020BDE8F08F64
S31500000A80400918BF40F01800704710B5DFF8104B4A
S31500000A90206A01F02EFC0246206ABDE810400021C3
S31500000AA001F043BC0B38102834BFDFF8D80ADFF852
S31500000AB0F40A006870473EB568460021002200230C
S31500000AC00EC0DFF8B00901788DF80010817A0A00AF
S31500000AD018BF022914D10079DFF8C45A00F0BBF818
S31500000AE0044600F00EF858B1286A0122002101F0F0
S31500000AF06DFB00F006F818B140F25B2100F06EFBCA
S31500000B0037BD286A6A46214601F0A7BB2DE9F041A8
S31500000B10044604F01F001B2886B034D20020009043
S31500000B206B46002200212046FFF761FF07002AD00E
S31500000B302046FFF7B7FF5FEA000824D0DFF87069A8
S31500000B40DFF8385AF06B804515D001A841460622D9
S31500000B5001F09CFC306AC6F83C8001A901F081FCDA
S31500000B6088B9306A03A901F08AFCB5F91C10306A0D
S31500000B7001F052FC38B90098B062776200980028FC
S31500000B8018BFC06801E08A200EE0F06229798C4225
S31500000B901CBF2C71FFF78FFF96F90D00C101306A5B
S31500000BA009B201F063FE002006B0BDE8F081DFF86F
S31500000BB0CC0900797047DFF8C409B0F91C00002899
S31500000BC054BF05216FF0040108180A2190FBF1F0CB
S31500000BD040B270470A2110FB01F0FFE7F8B500F5B7
S31500000BE0D77240F277239A4201D38B20F2BDDFF809
S31500000BF0C048DFF88859A26A0A23002A1EBFAE7FC2
S31500000C0006F0C006802E12D0A67B86B992F9026045
S31500000C1016FB03F7B842B8BF16FB03F007DB92F9E1
S31500000C20032012FB03F68642B8BF12FB03F0217BBA
S31500000C3061B10146206A01F0EFFB18B140F2B9211B
S31500000C4000F0CCFA206A01F0FAFB01E010FB03F099
S31500000C50A8830020F2BD38B50446FFF723FF90B104
S31500000C600023002200212046FFF7C1FE58B104F000
S31500000C701F051B2D07D22046FFF702FF18B90B2DC3
S31500000C8001DB284632BDFF2032BD0FF20C014008C1
S31500000C90085C704700000000504030007047C0B24A
S31500000CA0704710F1630F01DA0020704710F1240F2E
S31500000CB001DBFF20704764300002411100EB9160B8
S31500000CC08004000E704770B5DFF8E447DFF8C05ABD
S31500000CD000202064687828B101F0CCFD012818BFF7
S31500000CE0032801D1002070BDE16ADFF8A83ADFF8D9
S31500000CF08C2800291FBFA66A3669002E022817D144
S31500000D002364906900F5FA709061E07C18B10020C8
S31500000D100021642203E0E87829794FF4A07220705C
S31500000D20A2806170A878A0708020E080002030E06A
S31500000D30DFF8645A9069AE4213D1DFF8603A236453
S31500000D4000F57A709061E07C88B9087920700122FC
S31500000D508B7808799A40101891F903201018401ED4
S31500000D600CE0236400F5FA709061E07C18B1002075
S31500000D702080642005E048782070887860700878C4
S31500000D800001A0804879A07008890001E080C88829
S31500000D900001A06000F039FCE07094F90200010047
S31500000DA048BF4042C0B270BD70B50446DFF8006768
S31500000DB0257896F9140008B18C2070BDFFF783FFE3
S31500000DC0B075DFF8CC29DFF8B40741780174690102
S31500000DD001F5807181619379716C002BB37B1DBF26
S31500000DE0AD1EEDB221F0020141F0020173B9127895
S31500000DF062B16278920609D56FF00102327541F050
S31500000E000101826902F50872826104E049084FF027
S31500000E10FF30490030757164032000F007F96A1C41
S31500000E20306A4FF4807392B2214601F04CFD691C82
S31500000E30884203DA40F21B4100F0D0F9002070BD71
S31500000E4000000000F8B5DFF8685695F91410002484
S31500000E50091D04290FD8DFE801F0080E1010030061
S31500000E60FFF7A2FF040008D0F2BD2C75286A01F036
S31500000E70B1F98D20F2BD8C20F2BD01F040FDE8B144
S31500000E80286CDFF81019884218D1A87DB0B1DFF8B8
S31500000E90A00A0068002811D5DFF8D00AC168C16031
S31500000EA00122006800F00F0002FA00F0401E014225
S31500000EB004D100F0F1FB642001F025FD01F068FD8E
S31500000EC0064695F9140010F1010F1CBF95F91400A0
S31500000ED010F1020F29D195F91400DFF8A0764042EF
S31500000EE0287501F05BFD7862296C387949B9FFF7FE
S31500000EF0B2FE01466A6C286A07F1100301F09CF9FC
S31500000F000BE0FFF7A8FE07F11001009101466A6C9D
S31500000F10286AD5F840C02B46E04760B10020287506
S31500000F208C244FF0FF30786202E0002028758D2473
S31500000F30286A01F04FF9304601F0A1FD2046F2BDC6
S31500000F40DFF8700AFFF700BC2046BDE8104001F04C
S31500000F5096BDDFF82806C08B70470000F8B501F093
S31500000F6017FDDFF810550446A87A012803D120465C
S31500000F7001F085FDF1BDDFF8401ADFF83465DFF8D2
S31500000F80347A402008600122306A012101F01EF9FE
S31500000F90DFF8281A4FF40010086069460FF288003F
S31500000FA000680090306A01F055FC20B140F2C7415C
S31500000FB03846FFF7C9FB02208DF800006946306A03
S31500000FC001F025FC20B140F2C9413846FFF7BCFBD1
S31500000FD0306A01F01DF90021002001F053FD00F0F8
S31500000FE045FB0120A87296F91400001D072810D8A9
S31500000FF0DFE800F0140F0707040B0B0B01F0FFFEF0
S315000010000CE06FF00300307508E0892000F079FBF2
S3150000101004E040F2ED413846FFF796FB204601F02A
S315000010202EFD01F09DFFF1BD040100002DE9F04DFC
S31500001030DFF840540446A87AA04282B063D00FF28B
S31500001040CC01DFF87C690968DFF86889DFF860742D
S31500001050DFF868A9009103284FF4001B4FD8DFE89A
S3150000106000F047023E2B01F084FF386A694601F022
S31500001070F1FB18B140F20A5100F04AF802208DF84F
S3150000108000006946386A01F0C2FB18B140F20C5103
S3150000109000F03EF86879002814BF00220222386A60
S315000010A0022101F09BFF18B140F2115100F030F817
S315000010B00320032CA87218D0CAF800B00220A87228
S315000010C02879FFF7C8FD0146386A002201F0C5F805
S315000010D018B140F2215100F01BF8022C13D0002C5D
S315000010E018BF032C0FD10020A872C6F800B00AE082
S315000010F0022C08D1CAF800B00220A87203E040F220
S31500001100375100F005F8BDE8F38D00000402000039
S315000011104046FFF719BB002088E7DFF8AC0A807A63
S3150000112070470000032805D8DFE800F00302030338
S3150000113014E77BE740F2555102E780B500F00FF85F
S3150000114004D500210175006A01F044F8DFF8780A39
S31500001150407A012802D1BDE80140FFE601BDDFF873
S315000011606C0A90F9141000297047DFF85C0A407A7F
S31500001170704780B5032801DB012002BDDFF8481A5D
S315000011804872897A884218BFFFF7CCFF002002BD5B
S315000011902DE97C4FDFF8346A03EA010BD6E90689AC
S315000011A029EA010528EA000402EA000A45EA0B05D5
S315000011B044EA0A044D4508BF44450DD0CDE9002355
S315000011C00246306A0B4601F047FB18B140F27D51EA
S315000011D000F004F8C6E90645BDE8738F0FF6242033
S315000011E0FFF7B2BA38B5B24D0446287BE8B1200005
S315000011F018BFDFF8DC2904D1A87C08B1402200E042
S3150000120000220023DFF8C8090021FFF7C1FF002CE8
S3150000121014BF00220822286A082101F0DFFE20B14F
S31500001220BDE8344040F2B9518AE631BDF8B504460E
S31500001230022C0FF6D01503DB40F2E25100F0A5F8C0
S315000012409B4E307B002840F097808A4FB87A012861
S3150000125003D04FF4BD6100F098F8002107F1280093
S3150000126000F0A2FF306218B940F2EB5100F08DF8A1
S31500001270306A052101F089F918B140F2EE5100F00B
S3150000128084F8306A0FF6901101F0BAFE18B140F2F8
S31500001290EF5100F07AF8306A01F0E6FE18B14FF42B
S315000012A0BE6100F072F84FF0FF30DFF82829062300
S315000012B00146FFF76DFF306A4FF0011101F047F864
S315000012C018B140F2056100F060F8306A4FF48032E0
S315000012D0002101F02AF8306A09224FF0FF3101F0AF
S315000012E07DFE18B140F20C6100F04FF8012030731A
S315000012F00223DFF8E40800F043F8BDF80000C0055B
S315000013004CBF0020BDF80000707301F0F8FAFFF73B
S3150000131069FFF88BFFF75AFB01F026FF00F085F80E
S315000013203879FFF7F3FB18B140F21F6100F02DF892
S31500001330F87900F040F8387A00F058F8307C00F080
S3150000134086F8787900F0CCF800F05FF900F02CF917
S31500001350B07C00F01BFBB7F91C00FFF73FFC388C94
S3150000136000F08AF8788C00F0A7F8B87900F00DF94B
S31500001370601E8041C00FB8722046FFF7D3FEF1BD54
S3150000138001887F22684601F03DBF2846FFF7DCB999
S3150000139080B500F00CF8012100F062FF10F5007F27
S315000013A002D16FF07F0002BD8005001602BDDFF896
S315000013B01C08006A704710B504463D48017B51B1D0
S315000013C0611E8941006AC90F01F0A0FE18B140F202
S315000013D05A61FFF703FF2000DFF8EC1718BF012062
S315000013E0C87110BDDFF8E007C0797047F8B504464C
S315000013F001F0CEFA05461F482D4E0472377BFFF7E3
S31500001400C1FA00F0010080F00100074204D0306A02
S3150000141084F0010101F0B9FF2846BDE8F24001F071
S315000014202EBBDFF8A407007A70472148017B01B97B
S31500001430704780B5006ADFF8A417002201F053FE5A
S3150000144020B1BDE8044040F2856179E501BDDFF8D1
S315000014507C27117B107401B9704780B50146106A6C
S3150000146001F048FE20B1BDE804404FF4D26167E5C3
S3150000147001BD000048E903204049DFF850370884E1
S31500001480197B01B9704780B50146186A002201F040
S3150000149023FE20B1BDE8044040F2A16150E501BD44
S315000014A0DFF82407008C7047DFF81C07408C704774
S315000014B048ED032074D802003049DFF8103748841D
S315000014C0197B01B9704780B50146186A002201F000
S315000014D0FCFD20B1BDE8044040F2B76130E501BD36
S315000014E0DFF8E4164A79824200D1704710B58C7A4B
S315000014F04871012C05D0FFF731FD2046BDE81040AC
S3150000150094E510BD10B500F032F800F02BF8014656
S31500001510206A012200F099FE20B1BDE8104040F299
S31500001520D9610DE510BD80B5FFF741FF00F090FED3
S3150000153018B140F2DE61FFF751FEBDE80140FFF74A
S31500001540BABA10B500F013F800F00CF80146206A9C
S31500001550002200F07AFE20B1BDE8104040F2E961B9
S31500001560EEE410BDDFF860060079FFF774BBDFF824
S315000015705C46206A0122012100F028BE48E90320CA
S31500001580B0D50200C8E80320CDE710B50446FFF742
S315000015900EFF214601F0FFFEDFF82C06847110BD18
S315000015A048ED0320CCE8032038B504467F2C0CD147
S315000015B000F025F8DFF82806FFF7E2FEBDF8000088
S315000015C07E24C00558BFBDF8004001F0E1F905468C
S315000015D0FFF7D8F960B960B27E2805D1DFF8EC15BF
S315000015E0896A09B191F904007E28B8BFFFF7D0F9DE
S315000015F0DFF8D4050473284601F041FA31BD4FF6F1
S31500001600FF70ADF8000002237047DFF8BC0590F9C3
S315000016100C007E2807D1DFF8B405806A08B97F2060
S31500001620704790F90400704710B501F0B7FE8004CA
S315000016301AD500F02BF801F0B1FEC0044CBF032010
S315000016400120002101F0ACFE01F0A8FE00F0FF0031
S315000016504FF47A7111FB00F104F14800BDE8104027
S31500001660DFF88025FFF766B9BDE8104010B500F039
S315000016700DF804F1480000F0D8FDFFF79AF920B9FB
S31500001680BDE81040002101F08BBE10BDDFF83C45DF
S3150000169004F1600000F0C9BD80B501F07FFE400591
S315000016A0BDE804404CBF03200120002101F0EAB947
S315000016B010B5DFF8184594F9140003280DD100F091
S315000016C02DF9DFF804154FF0FF3048620022216B38
S315000016D0BDE81040402001F005BA10BD38B50446FB
S315000016E0FFF7C4FFDFF8E45401F069F9686314B149
S315000016F001F0D9F801E000206874BDE8314001F03E
S315000017007EBB38B50446DFF8C014DFF8C0544FF08E
S31500001710FF30486201F053F9686395F91400012817
S3150000172002DABDE831407FE7A87D08B1686BA8639F
S3150000173000F062FAA87B10B10120E87331BD2046A3
S31500001740BDE838400022002101F0CCB910B501F007
S31500001750D6F8DFF8784498B1FFF72BF980B104F199
S31500001760480000F062FD01F01DFE002101F018FEA8
S31500001770DFF8742442F2107104F16000FFF7DAF822
S31500001780A07C18B1BDE8104000F055BA10BD0000AD
S31500001790F4EA03203F220000341C0000452200002A
S315000017A02DE9F043DFF824440FF25849206A89B046
S315000017B005AA022101F08AF8050003D140F6E701E7
S315000017C000F0A9F89DF81400DFF8FC63BDF8168058
S315000017D007281CBF7079002819D1B8F1060F16DB4F
S315000017E008F108008B2812D2002000904346DFF84B
S315000017F0FC73206A3A46294601F070F8404503D04A
S315000018004FF4106100F087F83878000602D5FFF72C
S315000018100BFF7DE001208DF80800CDF804806A46B4
S31500001820206A294601F056F818B140F6171100F063
S3150000183072F8787800F0070002281ED1FFF716FF2D
S3150000184094F91400032808BFB8F1060F11D19DF8CA
S315000018500D0070B17878000900F0010500F05EF81F
S315000018604FF0FF3070622A4600218F2001F03AF9CE
S315000018704EE0F07900284BD105E09DF80D0010B13F
S315000018800020FFF715FFF0799DF80D10084203D0F0
S3150000189040F63F1100F03FF8F07958B178788006AD
S315000018A008D5307A30B1206A01F072FD30B1FFF709
S315000018B0BBFE03E0FFF7DAFE002060743878401CB8
S315000018C0404503D040F65F1100F025F807EB080508
S315000018D03079287001F06FFE68709DF80E00A870D0
S315000018E095F90200FFF7DDF9E87008F10801FF201D
S315000018F02871C9B20098000C68710098000AA87196
S315000019000098E8713846627C01F034FA0020607471
S3150000191009B0BDE8F0834846FEF716BF00202075E3
S31500001920206A00F057BC0FF2E420FEF70DBF00005E
S315000019300440084010B5A448446A002C14D401F0B1
S315000019402DF8001B40F2E93180B288420CD39F4843
S3150000195090F91400032803D1BDE810400020A7E643
S31500001960BDE810408920CCE610BD00004C50084070
S3150000197010B540B900F098FF01F00AF80446FFF7E9
S31500001980D9FFFFF7E1BABDE81040D3E738B58F4D70
S315000019900446287B60B1200002D100F0B0FF08B1F8
S315000019A0402200E00022002340200021FFF7F0FB48
S315000019B0AC7431BD041C000008400840186008469D
S315000019C0186008442DE9F04781461446600688B041
S315000019D0984648BF002002D4200602D50120FFF712
S315000019E0B5FEA003794D25D50020687469464846A2
S315000019F001F0A1FBF0B99DF8080002280ED1BDF850
S31500001A00000002F075F8FF280ED07949096831F810
S31500001A1010004FF4E661084206D10BE0032809D115
S31500001A20684602F0D8F828B1286A01F081FB08B9A7
S31500001A3001206874600410D500F061FF68B1FEF7FC
S31500001A40B8FF50B102F060FB064601F0ABFC8642DF
S31500001A5003D00021304601F0A3FC200744BF4846CE
S31500001A60FFF79EFEE00548BFFFF7DEFD4FF4185076
S31500001A70044218BFFFF7FAFDE00244BF0120FFF75A
S31500001A802DFE600244BF0120FFF728FEE00144BF9F
S31500001A900020FFF723FE95F914000FF2681A0128BB
S31500001AA064DB286A484E21034FF0FF3730D595F99D
S31500001AB0141001295ADB95F91410032956DA00216E
S31500001AC08DF8181001218DF8141003A900F0DAFC26
S31500001AD00398286300F073FF6863A87D08B1686BFC
S31500001AE0A86395F91400012804D002280AD103201E
S31500001AF028753BE000F080F87762A87BA8B9296BCF
S31500001B00002218E04FF401615046FEF71DFE2DE05D
S31500001B1014F0845F12D00021297500F05BFB0420CD
S31500001B2000F0C3FE7762A87B10B10120E8731DE0C8
S31500001B30002200218D2000F0D5FF17E0A00248BF4B
S31500001B40892002D4A00103D58820FFF7DAFD0DE035
S31500001B50600048BFFFF7A0FDA00007D52548006834
S31500001B60400403D40021002000F08CFFA00744BFEE
S31500001B704846FFF79DFD002C04D5FFF777FD484644
S31500001B80FFF796FD08F002010023994212D048465D
S31500001B9000F018FB022802D0032802D005E08920B5
S31500001BA000E08D20FFF7ADFD04E040F67B015046D6
S31500001BB0FEF7CAFD08F004010023994218BF02F09F
S31500001BC0FBFA08B0BDE8F08748E9032048ED03209A
S31500001BD0406700600A00FA9378D80200F0F8032004
S31500001BE07AD802004509000049090000F8F50320EB
S31500001BF06CE803200440084000202875286A00F09D
S31500001C00E9BA00007068792E630000006C696272A0
S31500001C1061696C2E61000000000000000100600395
S31500001C20010101016400B6006400C000000000006C
S31500001C300B0000000000704702F0C0BA80B5012119
S31500001C40154802F085FB0421072002F0E9FF13483E
S31500001C501349144A016004211160022141620421E2
S31500001C60114A1160816A41F00201816201BD0B488F
S31500001C7003F018B8A52800D0704780B500F005F825
S31500001C8010B10A490020086001BD0448006810F040
S31500001C90010018BF012070470025080000200540FC
S31500001CA00108030080E200E000E100E00000A44239
S31500001CB0602080F31188704770B503F0E8F8AE4CE9
S31500001CC0204603F0C1FCD8B9204603F073FCFF2878
S31500001CD0044615D0A9490968085C851EE9B2204664
S31500001CE003F0EAFB0646E9B2204603F0E3FA214692
S31500001CF0304600F0EDF82046BDE8704003F07AB9B2
S31500001D0070BD03460A469AA10420FFE70CB480B5CD
S31500001D1002AA00F032F801BC5DF80CFB0A0003D001
S31500001D20034694A11120F1E7704700B587B001F092
S31500001D3025F90021059102463021049100236221F4
S31500001D40039101200021029101918D4900910FF22A
S31500001D504021FFF7DBFF8B488179C37882780391B6
S31500001D6001880291417901910179009142200FF297
S31500001D702C21FFF7CBFF07B000BD2DE9F04F85B052
S31500001D8005460C46904603F0BEFC0026F8B903F063
S31500001D9007F8E0B1012003F0C2F88246BAF1FF0F5E
S31500001DA015D0002103F0B6F8294601A802F0FEFF7F
S31500001DB005469CB900F087F830B9504603F05EF846
S31500001DC010B1042003F090FC504603F013F905B05F
S31500001DD0BDE8F08F8DF804200125641C20780100F1
S31500001DE0E8D0A0F130010A2905D20A2101FB06003C
S31500001DF0A0F13006F1E700F066F80028E4D1227879
S31500001E000025422A01A80ED0442A1AD0462A25D0F7
S31500001E10572A0DD0622A3AD0662A2AD06C2A25D0B3
S31500001E20702A26D0D6E758F8040B8DF80400D3E7BD
S31500001E3058F8041B8DF8041002250904090E417098
S31500001E40CBE758F8041B8DF804100A0A42700425E3
S31500001E500A0C8270080E8DF80700BEE758F8041BBE
S31500001E60504603F0D9F90028B7D0ADE758F8046B0F
S31500001E70B3E7012358F8041B662A08BF0223F2B20F
S31500001E80504603F0A8F9002808BF0026ECE73B48B7
S31500001E9058F8047B006810F80A90FFB2FF2F9CD018
S31500001EA010F807B00BEB0901C9B2504603F002FA6D
S31500001EB0002889D1CDF800B000233A46494650465D
S31500001EC003F02FFB89E72A4601A9504603F0A2B981
S31500001ED02DE9F043122885B080460D4609D03A28F0
S31500001EE01FD04FF6FE71884204BF284602F00FF954
S31500001EF036E02248244F0068465D0BE0284603F092
S31500001F0003F801462246002003F000FE3868455DCE
S31500001F10203EF6B2FF2D23D0212EACBF202434461E
S31500001F20ECE703F0C7FF8146FFF7BEFA0646FEF769
S31500001F3042FE0746FEF73BFE0446FFF7B1FA0246AD
S31500001F400F480FF260010390CDF8109023460F481A
S31500001F50006840880290019600973B20FFF7D6FE66
S31500001F602946404605B0BDE8F04303F0EDBB00004E
S31500001F70574600006C70000094EA032058E80320DE
S31500001F80F0F80320C0D5020060E80320DCF8032047
S31500001F904242387042424242574242004242424224
S31500001FA0574200005742425757387042000000001F
S31500001FB02DE9F04104460125200094B00F469046D5
S31500001FC01E4606D001281DD0102802D0202819D080
S31500001FD028E0002103F0C8FD0546012C18BF202C7F
S31500001FE008D0022C18BF212C04D0032C1CBF222C95
S31500001FF0232C24D1012E0197ADF80C8014D14FF477
S31500002000805015E00AA81649242200F04FFA6846C7
S315000020100AA9242200F04AFA1020ADF82400ADF8EF
S315000020202600DAE701200BE0022E03D14FF44050E0
S31500002030ADF80A006946204603F096FD0546E8B26B
S3150000204014B0BDE8F0810CB480B50A46014602AB77
S31500002050044804F032F802BC00205DF80CFB0000D6
S3150000206020D10200F15C00007047000010B5044664
S31500002070FFF71EFE200A00283E4808BF24024FF242
S315000020800F0104804180BFF35F8FBFF34F8F3A4843
S315000020903A4A016801F4E06111430160BFF34F8FD2
S315000020A000BFFDE780B5002000F009F830B9BDE8B3
S315000020B00440E3210FF2DC00FEF746BB01BD2DE92B
S315000020C0F0422F4C216842428D1815F01F0108D0AE
S315000020D0002802D44842054403E04842284400F15F
S315000020E020052848A5F12006A84224BF2648864296
S315000020F003D3EFF30880854201D300202DE000F0E2
S3150000210047FC81462148006810F0010718BF04F01B
S31500002110FEF8206801468D4206D2A84224BFCD2192
S3150000212000F80119F9D206E02038002201E000F893
S31500002130012B8842FBD32560304604F0EFF8E220FD
S3150000214001E006F8010BAE42FBD30FB104F0BCF878
S31500002150484600F094FC20682038BDE8F082084824
S31500002160006870470648006820387047084870477E
S3150000217000000000000000200CED00E00400FA055D
S3150000218098EA0320F0DB03209012002094ED00E093
S31500002190000000206D6963726F2D696E7465726E42
S315000021A0616C2E630000000038B5044621480460C7
S315000021B00D46204600F0DCF929462046BDE83440AD
S315000021C000F0A2B90120704704F005BB084611468D
S315000021D000F0EFB970470846114605F0C5B9022070
S315000021E0704700207047002070470120704700208C
S315000021F0704710B50C4611461A46034620460D4C4C
S3150000220064682468A04710BD0A48406840680047D3
S31500002210084840688068004710B582B0049C009466
S31500002220044C64686469A04716BD02494968896917
S315000022300847000034EB03200C3000F0A1B80C3046
S3150000224000F0B0B80C3000F0BFB80C3000F0C9B8E0
S3150000225080B504F0B1FD002002BD0C3000F0C1BE17
S315000022600C3005F0E7B90000A76B0000196C000000
S31500002270256C0000496C00005D6C0000DF21000049
S31500002280E3210000E7210000EB210000EF21000020
S315000022900120704738B500F01BF800212561E16088
S315000022A0BDE8324005F0C9B938B500F011F821692A
S315000022B0E26829400D0018BF01251143E16005F0D1
S315000022C0BCF915B10020042134BD0020002134BD25
S315000022D004460D4605F0B4B938B5FFF7F9FF226993
S315000022E0E1682A4021EA0205E56005F0A6F92846DC
S315000022F032BD8069704770B582B005460C0006BFD6
S315000023000FF25C00006820681646009006B9EE6879
S3150000231031462846FFF7E0FF32466946284604F074
S31500002320A0FC0CB10098206073BDF8B500F10C0755
S315000023300C4615463846FFF7ABFF022628B12A465B
S3150000234021463846FFF7D7FF00263046F2BD80B556
S315000023500C3001F00111FFF79DFF002002BD0000C7
S31500002360FFFFFFFF38B504460D4604F069FA08B9C9
S31500002370022032BDA9B22046BDE8344000F03FB984
S3150000238038B50446154689B2FFF7ECFF010005D1C2
S3150000239029462046BDE8344004F075BA32BD0C30FB
S315000023A004F04DBB70B500F00AF8010006D13246C4
S315000023B029462046BDE8704004F0ADBA70BD04461B
S315000023C015461E4689B2CDE770B5FFF7F8FF010046
S315000023D006D1324629462046BDE8704004F05CBA74
S315000023E070BD70B5D4B2250018BF012C01D00120F4
S315000023F070BD89B200F003F906000BD1012101205E
S3150000240000F0D7F814B904F0DEFC03E0012C08BF95
S3150000241004F0E0FC304670BD7CB50D4669460446C6
S3150000242000F02DF89DF800102A46204605F00CF91C
S3150000243004F10C060146304604F086FC76BD30B544
S3150000244083B06946044600F01AF804F10C052846E4
S3150000245004F0B0FC02469DF80010204605F05CF939
S315000024603EBD38B50C4600F10C050021284604F0A7
S315000024706BFC21462846BDE8344004F058BC0C30BD
S3150000248004F092BC0C3004F048B8000062B38B072D
S3150000249008D0521E11F8013B00F8013B00F02480E1
S315000024A08B07F6D1830740F0208000BF103A07D390
S315000024B030B4B1E83810103AA0E83810F9D230BC80
S315000024C0530724BFB1E80810A0E8081044BF51F82C
S315000024D0043B40F8043BD20724BF31F8022B20F816
S315000024E0022B44BF0B7803707047083A07D3B1E854
S315000024F00810083A40F8043B40F804CBF7D25307DB
S31500002500E4E700000120704710B5044604F03CF8EB
S3150000251008B1002010BD204610BD70B50D00044660
S3150000252014BF012600261F21304605F049F9002078
S31500002530606225621F21304605F042F94FF6FF76AC
S31500002540002001E0401CC0B2E968884209D2A968AF
S31500002550182212FB00F21144C989B142F2DA0E00C8
S31500002560F0D13146204600F04AF8304670BD70473B
S3150000257010B5044604F0B3F8A06A0100DFF8301283
S3150000258008BFDFF83002886010BD38B500F10C05D1
S315000025900C462846FFF7B6FF28B104F01CF90128BF
S315000025A001D0022032BD21462846BDE8344004F061
S315000025B0E8B810B50C4604F0F9F81CB104F00BF9B4
S315000025C00128FBD110BDF0B504467B48066883B0F0
S315000025D00D466946204604F0E7FBB5F912200127AF
S315000025E047F6FF702479824207D09DF800103046E6
S315000025F005F02AF8A04238BF00273846FEBD2DE96F
S31500002600F04F85B04FF000098DF801900446684FF1
S315000026108DF800900D463868D7F804A00290CDF8E2
S3150000262004A0204600F0C1F88046266AD4F824B0FB
S3150000263000F0EBF8002818BFD34505D1BBF1000F19
S3150000264002D0A8B240454BD0002E1CBFB06800286F
S3150000265001D0F06808B903209CE0CA4601E00AF1FF
S31500002660010AF068824518D2B068182101FB0AF108
S315000026700144A8B2CA89904222BF088AAAB29042EF
S31500002680EDD301208DF800008B462046FFF79BFF17
S315000026900028E4D001208DF8010003A9204604F0AB
S315000026A083FB204604F086FB82469DF80100C0B1FC
S315000026B0217900F073F8386860B3B04223D17A68A4
S315000026C00AB35A451FD1A9B2884506D00023204631
S315000026D004F087FB5FEA000912D1C4F824B06580D4
S315000026E057E09DF8000048B1BBF912209DF80C1088
S315000026F0A4F10C0004F0A8FF0146DAE7012049E046
S3150000270000F04BF83FE0016821B13268914208BF02
S31500002710416800D0316800F045F881465FEA09005B
S3150000272004D1DBF8001000F03DF881465FEA0900AD
S315000027300FD100F06AF810B13E60C7F804B0C4F8D3
S3150000274024B0658001235A46A9B2204604F049FB0D
S3150000275081465FEA090005D1BA685946A4F10C0022
S31500002760904716E000F051F898B102983860019849
S315000027707860386808B100F014F800F00EF8786850
S3150000278038B100F00EF87A6800234146204604F07E
S3150000279028FB484605B0BDE8F08F5146204604F0B8
S315000027A0F3BA0168204604F0B5BD408870470000C2
S315000027B03CEB03206F25000034EB032001281CBFEF
S315000027C00428022801D1012070470020704738B53F
S315000027D000F03CF840B16878FFF7F0FF20B12878A8
S315000027E069780843400701D5012032BD00F00DF895
S315000027F028B103F0F0FF400701D5022032BD29467B
S315000028002046BDE8344004F059BA20467AE60C303A
S31500002810DDE738B500F01AF838B16878FFF7CEFF73
S3150000282000281CBF6878042801D1012032BDFFF7BB
S31500002830ECFF28B103F0CFFF800701D5022032BD9F
S3150000284029462046BDE8344004F060BA0D460446E9
S315000028502878B3E70C30DCE730B583B00C30DDE91F
S315000028600645CDE9004503F008FF3EBD0C3004F0F7
S315000028701DBD00000020704738B51446FEF7E2FA89
S3150000288005466CB128000BD00A48007818B10A49F1
S315000028900120087004E000220021284600F022F9F9
S315000028A0284632BD70477047704704490870704724
S315000028B00000000056ED032057ED03206DFF0320B6
S315000028C07047012070470C3004F085BC084611465D
S315000028D004F0EEBB0846114604F008BC70B50C4681
S315000028E015461E460C30FFF7ECFF38B1049B324606
S315000028F029462046BDE8704003F0FABE70BD0020B0
S3150000290070470000704704F0C9BF10B504460521A2
S31500002910112001F08BFE00220021022002F03EF879
S315000029201848194A01686FF3D321016002EAC422EC
S3150000293001681143016001220121022002F02EF8F4
S31500002940BDE810400421112001F070BE0D4800685A
S315000029500003C00D704738B50C480C4601884FF689
S31500002960FF75ADF8005002237F22684605F021F876
S31500002970BDF80000A84202D02080012032BD002010
S3150000298032BD000030400E4000F80F007ED8020035
S31500002990EFF31180602181F31188704780B505F04F
S315000029A021FA05F02CFA80B202BD80B505F01AFABC
S315000029B005F025FAFA21B0FBF1F080B202BD80B530
S315000029C005F010FABDE8044005F019BA80B504F028
S315000029D00CFF184800214160001D05F069F820B180
S315000029E039210FF28800FDF7AFFE002002BD114924
S315000029F001200870704770B5044682B02268002531
S31500002A0002B91BE000F00DF801201BE070B50C4682
S31500002A1082B02268002502B910E000F002F8022018
S31500002A2010E0044E044B357000950021706805F0E7
S31500002A30C2B8000084F60320EF29000005F0F8FA7A
S31500002A40002076BD05F088FB307828B970682146ED
S31500002A5005F082F9852501E025603570284676BDAA
S31500002A60014600220020D1E700F008B8737973749C
S31500002A70656D2D74696D65722E630000704780F375
S31500002A801188704701207047DFF8FC03002120F809
S31500002A90801B0022FF21017041704171C2700271DA
S31500002AA082716421FF20FDF751BF38B50446402CE2
S31500002AB0154606D100F072FC00F08020B0F1004F00
S31500002AC003D000210020FFF7DDFFDFF8C003290057
S31500002AD018BF01210470417000F08DF9BDE8314046
S31500002AE001F069BB70B504460D4616468D2C08BF2D
S31500002AF0FFF7D8FE324629462046BDE87040D4E7A7
S31500002B00F8B5DFF88443FFF743FF04F180056E79DB
S31500002B10FF2E68D0FF216971FFF7B1FF30001CBF9F
S31500002B20402E8F2E1BD103F064FA400917D0E01C0B
S31500002B3005F013FB00F44060B0F5406F05D104F1D9
S31500002B400801002005F030FC05E004F1080005F05E
S31500002B5004FB00F0CDFFA1780D3105F08EFE002EAE
S31500002B60207816BF8F2E01270027022802D0DA21EF
S31500002B7000F0A7F8380011D0A01C00F0D5F868B115
S31500002B80A87938B1012020702921BDE8F440C04859
S31500002B9005F08EBEFEF7D1FA312021E0FEF7CDFA20
S31500002BA0402E10D105F08FFF6078411E6170A0B1F4
S31500002BB0287806F041F801460022042000F040FE85
S31500002BC0BDE8F1403BE08D2E07D1287806F034F8B9
S31500002BD001460022202000F033FE07B100263046D1
S31500002BE0BDE8F240B3E0FFF74AFF2078032804BFB0
S31500002BF0002000F0ACF804F1810002F0DBFCFF28B5
S31500002C000AD0E978491EE97006F018FB207818B951
S31500002C10BDE8F14006F0C9B9F1BD71E780B500F035
S31500002C20BDFB40054CBF032001200021FFF72AFF12
S31500002C30BDE8084001224FF47A7196481BE180B541
S31500002C40012006F0C7FD06F065FD9349C0B9487836
S31500002C5030B100F0A3FB00280BD5FFF750FE40B1C2
S31500002C6000F09CFB40054CBF032001200021FFF72C
S31500002C7009FF01224FF47A71864800F0FCF81BE048
S31500002C8001280DD10020487000F088FB40054CBF9C
S31500002C9002200020814940F01100FFF7F3FE0BE00F
S31500002CA0022805D1002200218D20FFF7FEFE03E059
S31500002CB040F2811100F005F8BDE80240002006F060
S31500002CC089BD0FF2F010FDF73FBD38B50446002070
S31500002CD08DF800006C4D287818B14FF4C671FFF7D7
S31500002CE0F0FF0220287085F880406A46A91C20461D
S31500002CF006F032F868494870694800786870FFF74E
S31500002D009EFF31BD06F083BC010080B508BF0120DF
S31500002D1002016449002006F073FD002002BD6149EE
S31500002D20002006F0ACBD704710B5441C204605F0E7
S31500002D3014FA00F00700032807D1204605F03CFFEF
S31500002D40205C042801D1012010BD002010BD38B53B
S31500002D5004464D4D7E220021A81C06F008FE0020E8
S31500002D60287006F022F995F880102046BDE8344018
S31500002D7006F01CB970B504460D461646FEF751FB23
S31500002D8060B13EB12046FFF7CFFF18B1607840F042
S31500002D90200002E0607800F0DF00607029462046DF
S31500002DA002F0ABF90146FF2924D0374D3E4E05F11E
S31500002DB08104204602F0E9FB15F8830F401C2870B9
S31500002DC0C0B2318881420BD26878401C687007E037
S31500002DD0204602F0EFFB02F00DF92878401E28701D
S31500002DE0308829788842F3D300F005F8BDE87040B2
S31500002DF001F0E1B970BD2D48007805F049BE10B567
S31500002E00214C2078012806D1214900200870FEF7C0
S31500002E1094F90320207010BD10B51D4900200870DC
S31500002E200024FFF7B5FD18490A78012A02D10322CA
S31500002E3001240A70FFF723FE2CB1FEF77EF9BDE8E8
S31500002E401040312083E710BD0F480178481E8041AD
S31500002E50C00F7047FEF78DB9FEF787B90A4890F89C
S31500002E608310002904BF813002F0EEBB00207047BA
S31500002E700F4802F0F0BBFFF7FFBC034800780128BB
S31500002E8018BF00207047000004F9032089F90320C9
S31500002E908CF9032006F90320F4EA03201D2C000018
S31500002EA0F0EB0320052D0000B0EB032061FF0320AB
S31500002EB085F903206C6F7765722D6D61632D6566EC
S31500002EC07233322E6300000010B53D483D4986B08E
S31500002ED00068000E09D14AF6E850C862486B40F017
S31500002EE0040048630020C86201E0022803D2086893
S31500002EF040F40050086002AC3348016821F44011E8
S31500002F0041F4881101603148016841F48071016023
S31500002F1001202F49086006F051FD04F0FCFD06F083
S31500002F2032FE2C48D0E90023CDE9002301208DF89C
S31500002F300300684606F0B8FF05F07EF8FFF746FD89
S31500002F4025480FC884E80F0008208DF8140002A851
S31500002F5007F044FA06B010BD07F04EBA07F04DBAB6
S31500002F6080B50021002000F01BFABDE8014007F003
S31500002F7045BA07F044BA032004F082BD10B507F045
S31500002F8080FA044607F081FAC0B208B9012C07D1CD
S31500002F90072C11D8DFE804F004100608080A0C0E06
S31500002FA0002010BD092010BD022010BD032010BD59
S31500002FB00B2010BD062010BD44F0800010BD00009F
S31500002FC0FC81E00F64310E4020400E4000000E40B0
S31500002FD010300E40ECCF0200A4D002000C3003F0FB
S31500002FE08CBD38B50D46044689B2FFF708FB0100D3
S31500002FF005D1A9B22046BDE8344003F02BBD32BD51
S3150000300070B50C4684B000F10C05237E627EA17E6D
S31500003010284607F0CCFA684604F10C010C22FFF7AB
S3150000302035FA6946284604F0A1FA211D284600F023
S3150000303066F9060003D1284607F0F0FA0646300086
S3150000304005D10FF21C11284604F03BFA0646300063
S3150000305003D1284607F032FA06462168284600F0D2
S3150000306006F8304604B070BD0C3007F020BA70B5D3
S315000030708AB004460D4668460FF2C0012422FFF7C7
S3150000308015FA05B96D46002601E0010005D135F8AF
S315000030901610F2B2204607F044FA010006D105EBFD
S315000030A04600F2B2C188204607F044FA010007D173
S315000030B005EBC60000F10C01F2B2204607F053FA08
S315000030C0761C032EE1DB0AB070BD032ABCBF0C30B0
S315000030D007F027BA01207047032ABCBF0C3007F05F
S315000030E029BA01207047032ABCBF0C3007F03BBA4F
S315000030F00120704738B500F015F828B1214628465A
S31500003100BDE8344007F046BA022032BD38B500F0BB
S3150000311009F828B121462846BDE8344007F030BA00
S31500003120022032BD00F10C050C46284607F0BCB95A
S315000031300C3007F04BBA084603F0BAB9FFFFFFFFA1
S31500003140FFFFFFFFFFFFFFFF000000000000000081
S315000031500000000000000000000000000000000069
S315000031600000020800000000034801880348082305
S315000031707F2200F047B800BF88D80200F0F803208D
S3150000318038B50C4611461A467F2908BF002141F280
S31500003190F0139C4218D154490B6849680024D5B2F3
S315000031A07DB30355641C1B0A521EE4B2042CF6D3ED
S315000031B0E4B2082C25D2D3B2002B1FBF0155090A51
S315000031C0521E641CF4D131BD04F47045C4F30B03E4
S315000031D0B5F5805F11FB02F108BF43F07E630BD0AB
S315000031E0B5F5005F1CBF04F47044B4F5405F08D128
S315000031F043F07C6343F40113C918BDE8384006F078
S3150000320073BB31BD70B51E00044615461BD04BF28C
S315000032103460814211D1092E28BF082633467F2209
S3150000322041F202012046FFF7ABFF32462F49204606
S3150000323006F0A4FB38B941F2F01133462A4620467F
S31500003240BDE870409CE770BD2DE9F84307460024B1
S31500003250F807884615466FF00F06DFF8949002D5FA
S31500003260652100F049F8E80702D5662100F044F828
S3150000327007F47041B1F5805FC7F30B000CD140F045
S315000032807E64B4F17E6F264604D32819401E194980
S31500003290884210D36B210CE0B1F5005F18BFB1F581
S315000032A0405F05D140F07C6444F40114264602E0F8
S315000032B0722100F021F8002706E0F05DFF2802D019
S315000032C07C2100F019F87F1CAF42F6D36A0841460C
S315000032D0204607F003FA28B14846BDE8F4438521A5
S315000032E0FDF732BABDE8F183F081E00FE4CF0200CA
S315000032F0D8CF02000008E00F4846FDF725BA70B5A2
S315000033000D4682B00446287858B90021204603F0BD
S31500003310B5FD0021204603F009FE0021204603F0FA
S315000033200DFE2878002814BF0420287900F027F81D
S3150000333014BF287968798DF801002046FFF769FAED
S3150000334006001AD12878002814BF0220A87900F0B8
S3150000335016F814BFA879E8798DF801002046FFF722
S3150000336036FA060009D1287838B16988204603F074
S3150000337091FD0121204603F081FD304676BD8DF892
S31500003380000069462878002870470C3003F0CEBD4F
S315000033900C3003F0DDBD084604F018B90020704774
S315000033A001207047002070472DE9F84FDFF8F446FA
S315000033B0DFF8F4562068DFF8F4B6DFF8F496DFF8A5
S315000033C0F4A6E861286200264FF6FF7828E0206818
S315000033D0F6B2482111FB06F147184822002138466B
S315000033E006F0C5FA99F800003870A7F802800020A8
S315000033F038737873761C0B20B8731420F8734FF665
S31500003400FE703882A7F8128007F0A6F9387607F022
S31500003410A3F9787607F0A0F9B8769BF80000F8765D
S31500003420F0B29AF800108842D1D3281DBDE8F84FB3
S315000034300222FF2106F09BBA2DE9F041DFF878560B
S315000034400FF29468044695F9000010F1010F03DAB3
S315000034505C214046FDF778F9DFF8587639788C42DA
S31500003460264605D3FE2E03D05E214046FDF76CF9B5
S315000034702878DFF83416401C287040B208440474DB
S3150000348038788442DFF81C06006828BF0E78482288
S3150000349012FB06F21044C861BDE8F08110B5DFF8F2
S315000034A0184694F90000002802D56F2100F0A6F80E
S315000034B02078DFF8F415401E207040B2DFF8F4459E
S315000034C00A78247800284EBF10460818007CA042CF
S315000034D038BF0246DFF8CC05006848235A4310443B
S315000034E0C86110BD10B50020DFF8BC1500E0401C17
S315000034F000F07EF808D2DFF8AC35C0B21B68CA69A6
S3150000350000F070F8F3D110BD8A2167E0DFF8A80556
S3150000351090F9000010F1010F01D101207047002041
S315000035207047FE2088E7DFF880050078704738B5D9
S315000035300446FFF7EBFFDFF8705550B9DFF8780562
S3150000354090F900002844007CFE2802D0A62100F055
S3150000355055F8DFF8601509788C4201D3B12032BDE9
S31500003560DFF840052C704821006811FB04F108447F
S31500003570E861002032BD38B5DFF83C05DFF8285594
S3150000358090F900402819007CFE2807D0FFF7BEFFFF
S3150000359020B9C32100F032F8FF2032BD611E00E0E1
S315000035A0491E49B2080004D46818007CFE28F7D0EA
S315000035B032BD287832BD10B50020DFF8EC1400E0EB
S315000035C0401C00F015F808D2DFF8D834C0B21B68EA
S315000035D00A6A00F007F8F3D110BDE22100F00EF8F8
S315000035E0FF2010BD482414FB00F423449A42704780
S315000035F0DFF8C0341B78C2B29A4270470FF2D84047
S31500003600FDF7A2B810B5FDF7D2FADFF89C44216A9F
S31500003610897B884203D00846FDF778FA50B9FDF752
S31500003620CAFA0146206A90F90F00814204D0FDF7DC
S31500003630D1FA08B1012010BD206A008AFDF71CFFEF
S31500003640206A408AFDF738FF206A007B012818BFF0
S315000036500020FDF7FCFE002010BDDFF8581410B561
S3150000366009788842044603D34FF48371FFF7C6FFF7
S31500003670DFF84804007808B9702010BDDFF824048C
S3150000368000F06BF8DFF820140862BDE81040B9E7D7
S31500003690DFF828140870704710B5DFF824440020BE
S315000036A0207005F0F6FF20B92046BDE8104005F071
S315000036B0F5B800F058F8DFF8FC130978884206D30D
S315000036C0FFF710FF044600F010F818B12046BDE8D9
S315000036D01040C2E710BDDFF8D003006A008A7047C9
S315000036E0DFF8C403006A408A7047DFF8B813096838
S315000036F0482250430844407B02281CBF1128432817
S3150000370001D10120704700207047DFF8981309683F
S31500003710482250430844007B01281CBF0228032886
S3150000372001D1012070470020704710B5002400E049
S31500003730641C00F02CF80ED2FFF7D7FF0028F7D054
S31500003740D848E4B200F009F8007B012818BF022827
S31500003750EED1204610BDFF2010BD0068482111FBA8
S3150000376004F10844704710B5002400E0641C00F022
S315000037700EF80AD2FFF7C9FF0028F7D0E0B2FFF72C
S31500003780B4FF0028F2D0E0B210BDFF2010BDC94939
S315000037900978E0B28842704770B500240025C54E0E
S315000037A008E0FFF749FE02F009FC00B10124FFF72B
S315000037B075FE6D1C3178E8B28842F2D3204670BDA2
S315000037C080B5FFF7D0FFFF2801D0012002BD002001
S315000037D002BD38B5BB4C054620680321A940884385
S315000037E02060FFF77FFE2168A8400843206031BDB6
S315000037F0B4490968C14001F00300704738B5044672
S315000038000D46FE20FFF718FE2946204607F02DF943
S31500003810BDE8314042E610B50446FE20FFF70CFE37
S31500003820204607F047FABDE8104037E682B08DF82B
S315000038300010DDE9002311461A4602B007F09CBAD3
S3150000384032B586B004468DF8042002F0D3FA054658
S31500003850204602F0DDFA80F001010D420DD0BDF8E0
S31500003860180002F0CCFB8DF80000FF2804BF0020F2
S315000038708DF80000CDF808D01AE0294308BF06A845
S3150000388015D0054214D0BDF8180002F0B8FB8DF82B
S315000038900000FF2804BF00208DF800009DF80000FE
S315000038A08DF80C00BDF81800ADF80E0003A80290C4
S315000038B0FE20FFF7C1FDDDE901010A46014620466B
S315000038C007F05AFAFFF7EAFD07B030BDF8B5794EB2
S315000038D0754D04463078687000270DE0FFF7ACFDA3
S315000038E0E8694169FFB244F8371004EBC701C07EAE
S315000038F008717F1CFFF7D2FD3178F8B28842EDD30C
S31500003900F1BDF8B504460025674E0DE02846FFF7E1
S3150000391093FDF06954F8371041616D1C04EBC70143
S315000039200979C176FFF7BAFD624970780978814254
S31500003930EDB238BF08462F468742E7DBF1BD38B502
S31500003940FFF7D0FD5B4A584B1278002100E0491C76
S31500003950CCB294420ED29C78C9B20C1994FBF2F503
S3150000396002FB1544E4B21C442579854202D0FF2DA2
S31500003970EDD1207131BD70B54B4C4E4EA0783178EB
S31500003980204405798D4203D340F22921FFF736FE04
S31500003990A0782218FF211171401C317890FBF1F2BA
S315000039A001FB1200A070284670BD3F48817808448C
S315000039B00079FF2801D0012070470020704710B51C
S315000039C0FFF7FEFE70B1384CE069007B042809D190
S315000039D01420FFF7FEFE04F10800BDE81040642144
S315000039E004F066BFBDE8104005F012BC80B52E4954
S315000039F0002008721420FFF7FBFEFFF71DFD05F0FF
S31500003A0007FCBDE8014049E52DE9F8438146FFF78B
S31500003A1069FDB9F1040F0FF2C0082B4C224F2B4D54
S31500003A202B4E35D8DFE809F0030A0A1B1B00F8699C
S31500003A3000F1280100200860886030E0FFF7C0FE32
S31500003A4020B14FF418714046FCF77EFEF8693168E4
S31500003A5040F8281F21688160297801711FE02A78C3
S31500003A603568F9690E2313FB02F6354413FB00F3A0
S31500003A702B4441F8283F236803EB8202154B1B7841
S31500003A8002EB830202EB800088600120087106E0E9
S31500003A904046BDE8F44340F27121FCF755BEBDE84F
S31500003AA0F183000090E80320C0F80320CCEB03204C
S31500003AB04AFF0320C0EB0320EFEB0320EEEB0320CD
S31500003AC0E4F80320ECF8032098E80320C1EB032078
S31500003AD094E80320BBEB0320656D6265722D6D755E
S31500003AE06C74692D6E6574776F726B2E63000000BF
S31500003AF0F8B50F4D2E68040001D1FF20F2BDFEF788
S31500003B0047FF0C4F29683A7821F8124036F8021B15
S31500003B10A142FBD1FEF7B3FF29683A78B01E401ADE
S31500003B204010C1B2914208BFFF20C0B2F2BD00BF33
S31500003B3068E80320BBEB0320DFF8A015002008701F
S31500003B40FF21DFF89C05017001717047F8B5044646
S31500003B50FEF724FF0546DFF88C05DFF88475068836
S31500003B60204605F045F8B0F5006F16D1204605F061
S31500003B7063F8FFF7BDFFFF280DD000F038FA2146A5
S31500003B80381D01F002FDDFF85405017881B1008986
S31500003B90A9190E1A10E09320F2BDFF21384601F054
S31500003BA01FFD052802DA21463846EAE73920F2BD2C
S31500003BB00581314604F07CFEB2B20321204604F0B2
S31500003BC08EFF03220521204604F094FF204601F0D3
S31500003BD003FA0020F2BDF8B50446DFF804050078C4
S31500003BE0FF2813D0DFF8005529680E5C37463846A3
S31500003BF005F013F801460822204605F0BFFE08B975
S31500003C000120F2BD2868C75DB742F0D10020F2BDA1
S31500003C102DE9F843044604F094FF000B00F001067A
S31500003C20204605F01EF80546204605F009F8B0F5D1
S31500003C30404F14D1002E62D02946002000F092F9A0
S31500003C400446FF2C5BD0002105F0EEF9002856D083
S31500003C5000F0AEF940F080020521204646E02846F5
S31500003C6004F07BFA0546FFF743FF0446FF2C08BF26
S31500003C70002045D001200021224607F051F9DFF847
S31500003C806C24D2E9008948EA000349EA0107C2E93F
S31500003C900037A6B3DFF85864336833F814704FF46E
S31500003CA0E6631F422BD0BB0623D5280A8DF80100F8
S31500003CB08DF800506946012000F054F90546FF2DA5
S31500003CC008D1306830F814104FF6DF72114020F832
S31500003CD0141014E0002105F0A7F980B1052128464B
S31500003CE004F00FFF40F080020521284604F002FF91
S31500003CF005E0D2E9024520432943C2E90201012039
S31500003D00BDE8F28338B5044604F072FFB0F5006FE3
S31500003D100CBF01250025204604F07FFF04462146FE
S31500003D20284600F01FF9FF2810D18DB1204604F077
S31500003D3014FAFFF7DDFEFF280AD0DFF8B41309688E
S31500003D4031F810004FF4E261084201D0012032BD83
S31500003D50002032BD2DE9F04107460C4604F048FF2D
S31500003D60DFF87C53B0F5006F0CBF281D284600789D
S31500003D70FF2846D0DFF870130968085C0646B7428C
S31500003D803CD1FEF705FE80460521304604F0B9FE1B
S31500003D9000F07F00471EFAB20521304604F0AAFE65
S31500003DA0200018BF312C01D0FFB207BBFEF7F0FD93
S31500003DB00746304604F01CFFB0F5006F314605D1CA
S31500003DC0281D01F00DFC00F0F7F802E0284601F08E
S31500003DD007FC3846FEF753FE4046FEF750FE2146E6
S31500003DE0304608F057F8304601F004F904E000F0D8
S31500003DF0E3F84046FEF743FE012003E08E5D86426F
S31500003E00BDD10020BDE8F08110B5FEF7C7FDB34C6B
S31500003E1021892081411A88B200F0F2F84FF6FF712D
S31500003E20884202D10020207010BD01462046BDE820
S31500003E30104004F03DBD4FF6FF70E1E02DE9F84F6C
S31500003E4000F08AF808BF904200F08480012793466C
S31500003E5000249046FEF79CFD8246A4480025D0E942
S31500003E6000010BEA010207EA0006AA4208BFAE42B9
S31500003E701DD0FE436FEA0B099C4A304001EA090156
S31500003E80C2E900010125D2E902010BEA010307EAB2
S31500003E900002434508BF424509D09448934AD0E9F9
S31500003EA00201304001EA0901C2E90201A846504672
S31500003EB0FEF7E5FD002D3FD08D48006830F8140070
S31500003EC0810739D58B49096831F81450B8F1000FCC
S31500003ED006D000F49870102808BF4FF0010A01D0F0
S31500003EE04FF0000A84480078C0070AD5834909685C
S31500003EF0002041F8240082480068015D41F0F0018D
S31500003F0001558AF0010018EA000F09D078480068C8
S31500003F1030F8141041F4006120F8141005F0D6F8BA
S31500003F20002000902B461A226BA1032001F0E3FB30
S31500003F305146284608F014FC4FEA4B0040EAD77B6E
S31500003F407F00641C402C05DA00F006F808BF90429A
S31500003F507FF47FAFBDE8F18F64480022D0E900010D
S31500003F60914270472DE9F04188465D4900281ABF05
S31500003F70091D022508250878FF2816D05A4E3168F3
S31500003F800F5C3C4600F014F800060AD4204604F004
S31500003F9044FE01462A46404605F0F0FC08B9204694
S31500003FA004E03068045DBC42ECD1FF20BDE8F0813E
S31500003FB00521204604F0A5BD70B50021202004F09F
S31500003FC08FF947480079FF2810D0474C21680D5CCF
S31500003FD02E46304604F030FEFFF78AFDFF2801D05A
S31500003FE000F005F82068865DAE42F2D170BD40490A
S31500003FF0096831F8102042F0200221F8102070479D
S315000040002DE9F84F80460FF2FC00354E0068364F1A
S3150000401000904FF6FF7A344600E0341DFEF7B8FCF8
S31500004020814606E0204601F0C5FA2946684601F0B9
S31500004030ACFA204601F008FB40B938682178455CA7
S315000040400321284604F042FD8045EBD2301D844210
S3150000405008BFFFF7B1FF4846FEF711FD2078FF289D
S3150000406019D0396811F800904D460321284604F00E
S315000040702DFDA0EB080B1FFA8BF20321284604F056
S315000040802EFD3868455D51461FFA8BFA8A4588BF72
S315000040908A464D45E9D1301D8442BED1684601F0BD
S315000040A0D3FAA8B9684601F085FA044604F053FD30
S315000040B0FFF7C2F9FFF77CFF000603D44221204632
S315000040C007F0E8FE204600F095FFFFF7E7F9E5E781
S315000040D01FFA8AF0BDE8F28F42574200F8F8032033
S315000040E048EB032094EB032064E80320C0ED032093
S315000040F06CE8032068E803209CFA032070E803209C
S31500004100B8E80320FF0000000020704770477047A2
S315000041100198704770477047702008F06EBB70B505
S31500004120044643381E4D08D0401E012809D9801E7A
S3150000413001280ED9C01F32D02AE0BDE8704009F030
S315000041408FBE09F0BEFE20B109F08AFE0028FBD121
S3150000415070BD144E307810BB01203070002009F07D
S31500004160EBFE442C11D00CD3462C05D00DD3472C96
S3150000417007D140F6010001E040F60200FDF776FFA8
S3150000418003E0EE212846FCF7DFFA0020307070BD10
S315000041902846BDE870404FF48071FCF7D5BA70BD73
S315000041A0B4D002004DFF03207047002070477047CF
S315000041B07047002070477047FCF767BC09F00EBFD8
S315000041C0890001EB401000F18440026070478900CD
S315000041D001EB401000F184400068704710B5DFF82D
S315000041E07C4712212046FFF7F2FF0028F9D120680C
S315000041F0000C00F0030010BD0122DFF8201610B5F8
S31500004200884232BF0022DFF81816884201D21446CF
S3150000421000E002241021DFF80C06FFF7D1FFDFF8DB
S315000042204007016821F0807141EA0461016010BD18
S3150000423070B5DFF8F425DFF82C471368002304EB8C
S31500004240C305CEB22D79B54203D154F83350854219
S3150000425002D25B1C052BF2D3052B0EBF032004EB09
S31500004260C3004079116821F0407141EA0060106096
S3150000427070BD38B500F013F841F67130206009F0D2
S31500004280F2FE002105E038B500F009F841F671327A
S315000042902260FFF7CDFF0DB10020206031BDDFF8B1
S315000042A0C846256805B101257047C01C0F2801D2F4
S315000042B0000770474FF070407047000038B504465D
S315000042C0002500F05DF9DFF88026DFF80416944239
S315000042D008D0DFF87826944206D0DFF87426944298
S315000042E004D006E0086802E0486800E0886800F04C
S315000042F00700401E03281BD8DFE800F002050C0863
S3150000430009F0E2FE04E009F0E5FE01E009F0DFFE57
S3150000431005460DE009F09AFEDFF844160968090E15
S3150000432001F001010122491C02FA01F1B0FBF1F58D
S31500004330284632BDDFF834164A68D20702D40A6826
S315000043400242FCD1704780B500F0D4F8401C02BD93
S3150000435070B5020A0C4602F00F020021521E092A0D
S31500004360DFF8FC5714D8DFE802F00514131307161C
S3150000437019131C20DFF8AC54C0F3043611B10846FB
S31500004380FFF7D8FF224631462846BDE8704017E7BA
S3150000439070BD1035F0E730350121EDE738351021D5
S315000043A0EAE740354FF48031E6E7DFF82058E3E7E7
S315000043B070B5DFF8BC15DFF890250E68DFF88C15B0
S315000043C0DFF89C45012510F4781075D0B0F5003F54
S315000043D030D0B0F5802F27D0B0F5002F6CD0B0F5D7
S315000043E0202F2DD0B0F5402F5ED0B0F5602F3FD0F6
S315000043F0B0F5901F53D0B0F5A01F2AD0B0F5B01F6E
S3150000440039D0B0F5D01F22D0B0F5E01F31D0B0F5CD
S31500004410001F44D0B0F5281F22D0B0F5301F31D090
S31500004420B0F5381F4BD061E009F01FFEE168C1F31B
S3150000443008210AE009F019FEA168C1F3082104E089
S3150000444009F013FE6169C1F30421491C24E01046FA
S3150000445027E01046FFF732FF216A01F00F0119E04D
S315000044601046FFF72BFF0646206AC0F30110C64030
S315000044703DE0084615E00846FFF720FFA16AC1F3B4
S31500004480011107E00846FFF719FFA16A090A01F0C2
S315000044900301091D05FA01F1B0FBF1F627E0DFF88B
S315000044A0B004FFF70BFF1FE0DFF8240700F068F801
S315000044B007281CD0092819D109F0D7FD14E0DFF828
S315000044C0140700F05DF804280CD007280FD0082840
S315000044D00CD109F0CAFD2168C1F30421491C01FB76
S315000044E000F604E009F0DCFD064600E00026304652
S315000044F070BD0000030903F00F0301215B1E072BAB
S31500004500DFF85C243AD8DFE803F004060A0E10143C
S315000045102339106800E05069C0F304207047106822
S31500004520C0F300607047D06800E09068C0F30820D0
S315000045307047DFF8A436984204D0DFF8A0369842D8
S3150000454004D01BE0106A00F00F0013E0106A09E0C7
S31500004550DFF88C36984204D0DFF88836984204D0CB
S315000045600CE0906AC0F3011004E0906A000A00F0C3
S315000045700300001D01FA00F0401E7047002070473E
S31500004580014601F00F010120491E0729DFF85C26CC
S3150000459049D8DFE801F0040F1348202E4836506A48
S315000045A000F0070002283AD002D3042804D01CD316
S315000045B00520704711690FE002207047516901F02C
S315000045C00701491E03292FD8DFE801F00F02031166
S315000045D0F2E706207047916901F00701012904D02E
S315000045E00229E9D0042902D07047032070470A2027
S315000045F07047116811F001010FD0012914D109206B
S315000046007047DFF8EC15096801F03001102904D075
S31500004610202904D0302904D0704707207047042091
S315000046207047082070470020704700002DE9F843C6
S31500004630804600260324B8F1110F0F46A14612D179
S31500004640042F02D109F02CFD08E0052F0BD1DFF86D
S31500004650A405DFF8A4150068884204D306001CBF31
S31500004660002105F0D8FB08F00F00401E0728DFF8F0
S315000046707C550ED8DFE800F0043D438B406F8B7904
S31500004680022F664806D0032F29D0042F2AD0052FE3
S315000046902DD07CE004244FF0000901220121484678
S315000046A000F07CF9FFF7E5FD36B11221DFF8AC0228
S315000046B0FFF78DFD0028F8D16C6000F07AF8FFF75F
S315000046C09BFD09F0C3FC0446FFF788FD0146204622
S315000046D0FFF7D9FD002E5AD1BDE8F443F3E04FF0C1
S315000046E00109DAE70224A146FFF786FDD5E7012492
S315000046F0FAE705F1100404E005F1180401E005F1FC
S315000047001404012F08D0022F09D0032F0ED0062F34
S3150000471013D00A2F1DD03AE00020206037E0012296
S315000047200121002000F03AF90220F6E701220121DA
S31500004730012000F033F90120EFE709F087FCFFF7CD
S315000047405BFD01220221DFF81804FFF739FD032083
S31500004750E3E70420E1E7072F02D0092F02D016E095
S31500004760002000E00120286011E0012F06D0042F70
S3150000477016D0072F0DD0082F19D008E00020DFF83B
S3150000478070140A6822F0300242EA00100860BDE8A0
S31500004790F18301220121042000F000F90120EEE757
S315000047A001220121022000F0F9F80220E7E70320A8
S315000047B0E5E7DFF83404FBE56E4ADFF8481490427B
S315000047C01FBF6D4A90426D4A904215D06C4A904286
S315000047D014D06C4A904213D06B4A904212D06B4A66
S315000047E0904211D06A4A904210D06A4A90420FD045
S315000047F0694A90420ED00FE008687047C868704753
S3150000480088697047C8697047086A7047886A704740
S31500004810C86A7047086B7047002070470148E80176
S315000048200190D00300400E4004000E4070B50446CF
S31500004830FFF7C2FF0646DFF8BC030568046000F018
S315000048408AF8052808BFFFF714FD18214748FFF727
S31500004850BEFC0028F9D147498C4208D046498C4213
S3150000486007D046498C4208BF26F0C06604E0022005
S3150000487000E0012060F35A6600F06DF8052804BFD9
S315000048802046FFF7B9FCA54203D20121204605F0D8
S31500004890C2FADFF86803066000F05DF8052808D163
S315000048A009F0D4FB0646FFF799FC01463046FFF7B0
S315000048B0EAFCFFF77EFFFFF79FFCA54202D3BDE8A7
S315000048C0704000E070BD0121002005F0A4BA000090
S315000048D080400E4070B500F03DF801220021022014
S315000048E000F05CF8217CDFF82053002002292968BB
S315000048F008BF0120490840EA4100286008212278C3
S315000049002846FFF75DFCA088617A41EAC020A860CE
S31500004910EE68207AFFF7C9FCE28806F07F6141EA7B
S31500004920C221A27A1143227A41EAC2110843E86001
S31500004930A17B607B090141EA0030E17B0843217BD2
S3150000494040EA0140286170BD02001A0003001C0005
S31500004950050020000446112012E6000004300E4037
S3150000496000410E40B4CE020040000E4040410E40D1
S3150000497050E8032040420F0080841E0000093D00DD
S31500004980C0CF6A00405DC6000024F400C0EA2101E1
S3150000499080BA8C010048E80180D543022DE9F84F22
S315000049A004288246904673D8DFE800F04E493F035C
S315000049B0440001260220012700240029DFF808927E
S315000049C0914D60D0BAF1020F02BF2868C0F3011002
S315000049D000284FF0000B0CD18C4800682868C007EF
S315000049E04FF0010B05D5286820F0300040F010008C
S315000049F02860EE6300F04EF80028FBD0B8F1000FF7
S31500004A0046D0394600F047F80028FAD0BAF1020F2E
S31500004A103ED1BBF1000F3BD02868C0071BD5012251
S31500004A202021022000F0C0F819E004260820032700
S31500004A300224C2E71026202005270424BDE74026CD
S31500004A40802007270624B8E74FF480764FF40070DD
S31500004A5009270824B1E70021022000F083F802208C
S31500004A6000F01CF80446012200210220FFF796FF01
S31500004A702146022000F02CF8EE63394600F00BF8D0
S31500004A800028FAD004E0E86300F004F80028FBD11F
S31500004A90BDE8F18F21464846FFF799BB401E032823
S31500004AA0564912D8DFE800F0020C06080869C0F380
S31500004AB008007047086800E0886800F07F007047CB
S31500004AC053480068C0F30A00704700207047000092
S31500004AD070B5401E0D46032805F07F01474C484E31
S31500004AE03DD8DFE800F0022A101DC5F308051A219B
S31500004AF03046FFF76CFB0028F9D12069400A45EAE9
S31500004B004020206170BD0D4618213046FFF75FFB3F
S31500004B100028F9D12068C00945EAC010206070BDA0
S31500004B200D4619213046FFF752FB0028F9D1A0683F
S31500004B30C00945EAC010A06070BD234800686069DE
S31500004B4020F0300040F010006061C5F3C310FFF79D
S31500004B50ACFB216A2F4A114029430843206270BDED
S31500004B60B0400E4028480268C2F30112002A18BF5E
S31500004B70002907D0202902D0302903D005E04FF4C0
S31500004B80000103E04FF4400100E02349C26E0A40F1
S31500004B908A42FBD1490204D5C06F800A00F00100A9
S31500004BA0704701207047000010B502280AD10B009B
S31500004BB004D01A4B4FF480645C64196012B1BDE8EE
S31500004BC01040CFE7012010BD90400E4050410E40EE
S31500004BD006000C0098002E006006140060162A00DD
S31500004BE07017160070272C000025080070400E4034
S31500004BF05C410E4044E90320012D310110400E4076
S31500004C0040410E403082E00F24400E403C300E40C2
S31500004C109C400E4000F8FF0FFF33E10764400E4052
S31500004C2010B51B4B1C6890FAA0F2B2FA82F224EA85
S31500004C30000091400843186010BD16490120086025
S31500004C40704770B51448154B01680020002203EB2D
S31500004C50C20453F832506468114E366876070DD494
S31500004C60B5F5007F18BFB5F5806F05D0B5F5006FB7
S31500004C7018BFB5F5803F01D144F48074294202D0B3
S31500004C80214208BF2843521C092AE0D370BD000008
S31500004C9000500E4008500E4004500E40DCCE02007C
S31500004CA0E841E00F0168C90707D58168890704D480
S31500004CB08168C907FCD401214160704780B5012194
S31500004CC07E48FFF745FB7E4901200860002009F079
S31500004CD037FA012304220221052009F07EFA012079
S31500004CE000F0CCFC00F00EF800F0F9FC09F068FBCF
S31500004CF0012340227349744809F030FB7349086068
S31500004D00C00F02BD10B5012201210420FFF746FEA7
S31500004D106F48704C016841F0010101600022C168D2
S31500004D2041F08071C16000236B496C4808606C4893
S31500004D3002606C4A13600223236015236A4C2360C9
S31500004D4000230364694B0B65694911604FF4807158
S31500004D50684A1160016841F48071016010BD80B538
S31500004D6060480168C9070ED563490A6822F44062A3
S31500004D700A60016849084900016001680902FCD41B
S31500004D806420FDF7C0FD002200210420FFF706FE87
S31500004D90504900200860574908604D49086001BD28
S31500004DA04B48006800B10120C0B27047D1220270A2
S31500004DB04170090A817051490A78C270501C087006
S31500004DC0042070472DE9F84FDFF834A1DFF834816D
S31500004DD00446DAF80000005D461DFDF7DFFDF6B279
S31500004DE0002500904FF6FF7B18E0A91EC9B22046A9
S31500004DF000F0A7FA0746594609F0EEFA83464D46F3
S31500004E0038480068C00709D535480068C00505D58B
S31500004E10D8F800000028FBD088F80070FFF7C0FF24
S31500004E20EDB228B3B54223DAFDF7B8FD0099401A72
S31500004E3080B2B0F5FA7F1BDC15B95B270125DFE7E9
S31500004E40012D05F1010903D1DAF80000075DD6E767
S31500004E50F01E854208BF5F46D1D0B01E854208BF0E
S31500004E604FEA1B27CBD0701E8542BED15D27C6E711
S31500004E70B5420CBF00200120BDE8F28F2049096829
S31500004E80095C0429A8BFFFF79DBF0120704710B534
S31500004E900E48006890B04022694609F04AFA58B1B7
S31500004EA0C1B2684600F029F9044621461220FDF7F2
S31500004EB00FF8204600F09EF810B010BD003508002F
S31500004EC01088144268F0032070CE02004CE80320DC
S31500004ED0F0ED00E0F00004E0B00F00E055CEACC508
S31500004EE0000E00E0800E00E0100004E0FF0300402A
S31500004EF00D000100040304E0001000E03FFF032062
S31500004F0058E80320200000E0DFF81C17096801EBD1
S31500004F1040107047DFF814271268115470472DE9C6
S31500004F20F041040035D0FDF733FDDFF80417DFF854
S31500004F3004370E78FF228046FE2EDFF8FC061BD1D2
S31500004F4000260E70DFF8F4C6DFF8F46637781F70B7
S31500004F50002708E007F1010E05F807E0DCF800502D
S31500004F60EA555FFA8EF796F800E005687745F1DBBB
S31500004F7005EB0E0606F8012C1E78A6420BD240461B
S31500004F80FDF77DFD052000F0AFFB00211B20FEF79D
S31500004F904DFCFF201EE0361B1E70DFF8A8360E788B
S31500004FA00F78D3F800E001250EF80750641E056857
S31500004FB015F807E081F800E05FFA84FEBEF1000F05
S31500004FC0EED1EA5500213046FFF7A4FF4046FDF733
S31500004FD056FD3046BDE8F08110B50446FDF7D8FC15
S31500004FE0DFF8601609680A5D521C0A55BDE81040D4
S31500004FF0FDF745BD2DE9F041054600F031F80446C0
S31500005000FDF7C6FCDFF82826DFF82836DFF8286625
S31500005010DFF83086FF2D1FD0D8F800104F5D7F1EB9
S315000050204F557F27D8F800E01EF80510394213D1F6
S315000050303168495D00270EF805701F787F1C1F70C8
S31500005040FF29376892F800E007F805E0157006BFFB
S315000050502546FF240D46DDE7BDE8F041FDF70FBD0F
S3150000506080B5DFF8E0150968095C090603D5FFF786
S315000050704BFF007802BDFF2002BDB0B504460D46C9
S31500005080FFF7EEFFFF2818BFFFF7B4FFFF2DDFF88D
S31500005090B47504D13868015D01F07F0106E0284649
S315000050A0FFF79AFF3868015D41F0800101552046FF
S315000050B0FFF72AFF0570B0BD0EB478B5044601208F
S315000050C0FFF72DFF0546FFF71FFF0646FF2D08BF1A
S315000050D0FF200FD0E1B22846FFF71CFF05A80021EC
S315000050E004E050F8042B06F8012B491CC9B2A14272
S315000050F0F7D3284672BC5DF810FB70B504460D4622
S3150000510005F11F000004400D82B0C0B2FFF707FF93
S315000051100646FF2E0CD02946FFF7FCFE3CB10120C7
S3150000512000902B4600223146204600F002F8304619
S3150000513076BD73B500F0D0F8405C15461E46711971
S31500005140884203DA40F2651100F0EBF830000CD02B
S31500005150294601A800F0E9F8024606989DF80410D1
S3150000516000903346204600F001F873BD2DE9F84360
S31500005170089CDFF8C4840546894616461F460BE0A0
S315000051806A5C4254491CB142FADBD8F80000BF1BE6
S31500005190AD1910F809900026F8B2D0B14846FFF7CD
S315000051A0B3FE801956FA87F12029B9BFFFB23E46F1
S315000051B0C6F12006F6B22100324604D10146284641
S315000051C004F092FBE1E7012C08BF2946F8D0002144
S315000051D0D9E7BDE8F1832DE9F04100F07DF882B012
S315000051E0055D884616467119C9B2A9421F4605DBF8
S315000051F030000CD0204600F05DF808B1182007E01A
S31500005200009733462A4621464046FFF792FF002084
S31500005210BDE8F6810123DEE70A4600E0521C13785A
S31500005220002BFBD1521A0223D2B2D4E72DE9F0416A
S31500005230054601F11F00C70402F11F00C0043F0E1E
S31500005240000E07B9012700B9012087422CD0DFF8EC
S31500005250E8431BDAC01BC0B2FFF761FE8046B8F117
S31500005260FF0F08BF002020D07F1E00F020F8266820
S31500005270305CFF2804D000F01AF8305CFFF7BAFE65
S3150000528000F015F8216801F800800DE08A420BD283
S31500005290411EC9B200F00CF805462068405DFFF7D4
S315000052A0A9FE2168FF2048550120BDE8F081F9B22A
S315000052B0284616E038B500F00FF80D46015D2A467F
S315000052C02046FFF7B3FF28B129462046FFF722FE06
S315000052D0002032BD182032BD0446DFF850030068B6
S315000052E0704704E0DFF850231268105C491ECAB20A
S315000052F0002AF7D1704711B50C46DFF8301309685C
S3150000530081B0095C8C4203D340F2012100F009F818
S31500005310214601A800F009F8044600F033F92044BC
S3150000532016BD0FF24830FBF70FBA38B504460D46E6
S31500005330E9042078090EFFF7D4FF207005F01F005E
S3150000534032BD80B5FFF7D7FF007802BD10B5144611
S31500005350FFF7D1FF047010BDB0B5FFF7BDFF82B0F7
S31500005360055DFF2C03D140F22121FFF7DAFF05F19D
S315000053701F000004400DC0B2FFF7D1FD0746FF2F06
S315000053800AD02946FFF7C6FD0095002322460021D4
S31500005390384600F0C6F83846B6BDF8B504460D46A0
S315000053A016460120FFF7BBFD0746FFF7ADFDFF2FB1
S315000053B001D1FF20F2BD33462A462021204400F0C9
S315000053C020F82118C9B23846FFF7A4FD3846F2BDC9
S315000053D010B582B004AC009400F001F816BD10B50B
S315000053E014461A46029B2044091BBDE81040C9B268
S315000053F007E00CB480B502AAFFF7CFFF02BC5DF848
S315000054000CFB2DE9F047814614469A464F46002587
S3150000541088460AE03246384604F066FA7019BF1923
S31500005420451EEDB26D1C641CEDB245453BDA207895
S31500005430010038D0312818BF32280ED15AF8041B83
S3150000544007F8011B3228EDD16D1CEDB2A845A4BFAB
S31500005450081207F8010BE5DA25E034280ED1291DDC
S315000054605AF8040B88451EDB3870010A7970ED1C6A
S31500005470010C000EB970F8703F1DD2E7A0F133029F
S315000054805AF8041B072A38BFA0F1300607D3A0F14B
S315000054904102072A34BFA0F137065AF8046BF6B268
S315000054A070194045B6DBA7EB0900C0B2BDE8F0872E
S315000054B05F49FE200870704770B500F027F800F0CD
S315000054C003F8301880B270BD06022946204638E738
S315000054D000B583B002238DF80420120A8DF805204A
S315000054E00122009217E0F8B500F010F8FFF7ECFF84
S315000054F08619E91CC9B2FFF7E9FF0702A91CC9B260
S31500005500FFF7E4FFC01906EB0040F2BD0D46691C2B
S315000055100446C9B215E70A46014601A8FFF709FE87
S3150000552007BD2DE9FC4405B40A9C20001F4627D080
S3150000553089B26846FFF7F9FE0646B9B201A8FFF739
S31500005540F4FE0746BE42A8BF3046A4B2C0F1200012
S315000055502546C0B2A842B8BF054600F013F88246F9
S315000055609DF80000FFF7D0FC2A460AEB07013044FD
S3150000557004F0BAF9641BA919EF19A0B20028D7D113
S31500005580BDE8FF849DF80400BEE470B504460D46F0
S31500005590FDF7FEF9294B21781B68FF2908BF5D55E9
S315000055A003D019440E785E550D702570BDE8704025
S315000055B0FDF765BA38B50446FDF7EAF92178FF220A
S315000055C0FF2908BFFF2507D01C4B1B685D5C8D4279
S315000055D00EBF22705A5D5A54FDF751FA284632BD65
S315000055E0F8B504460D46FDF7D3F921780026FF29C4
S315000055F015D0124B1B680A46012602E0761C3A4675
S31500005600F6B29F5CAF4208D1DF5D9F54A94206D136
S315000056108A4208BFFF22227001E08F42EED1FDF7D9
S315000056202EFA3046F2BD000054E8032058E8032065
S31500005630D6EB0320B9EB032060E8032064E80320DF
S31500005640B8EB03205CE803200078FF2801D1012095
S3150000565070470020704710B5044602E0FFF7CAFC09
