S02B00005A3353776974636865667233326D67317031333266323536676D343862726434313533612E73333774
S1134000C85B0020D5DA020025E6000039B90200B9
S1134010A70A0A010042000004180FAC3062CC0069
S1134020000000000000000000000000000000008C
S11340300000000040F80200000000000000000042
S11340400000000000000000FFFFFFFFFFFFFFFF74
S1134050FFFFFFFF00E0030000000000000000007D
S1134060FFFFFFFFFFFFFFFF100000000000000044
S1134070000000000000000000000000000000003C
S11340800000000000000000F17E0020F17E00200E
S1134090C85B0020505F0300DADD02006852002094
S10F40A0C010002000000400000000001C
S1134200C85B0020D5DA020025E6000039B90200B7
S113421041B902003DB9020045B90200A9BA020041
S1134220A9BA0200A9BA0200A9BA0200A9BA0200F6
S113423049B90200A9BA0200A9BA020089550000CE
S1134240491A0200CD8A020069660000158702003F
S1134250218B0200D38A0200D58A0200CF8A020091
S113426071750200BB770200396D0000ABF50000E8
S1134270A9BA0200A9BA020017450000A9BA0200AF
S1134280A9BA0200D9770200A9BA0200A9BA0200A9
S1134290A9BA0200A9BA0200A9BA0200A9BA020086
S11342A0A9BA0200A9BA0200A9BA0200238B02002B
S11342B0D18A0200156A0000578B0200A9BA0200D5
S11342C091DC0200A9BA0200A9BA0200A9BA02004C
S11342D0A9BA0200A9BA0200A9BA0200A9BA020046
S11342E07149724A01E021B1491E1369DB07FAD40E
S11342F001B9BAE0506001201060106910F0060F97
S113430005D0410700D5B3E0800700D5B3E0002015
S11343107047F0B513460022002936D0624C634D35
S11343208BB98B4231D250F8046BEE605B1C0826CB
S11343302E60264601E036B3761E2F69FF07FAD4B5
S1134340002EEED11FE0EFF3108672B600230EE0CC
S11343502F6907F01907102F08BF2F602F693F0737
S1134360F6D550F8047BEF605B1C10272F608B425E
S1134370F4D306B962B6264601E026B1761E286952
S1134380C007FAD40EB96FF002021046F0BD2DE951
S1134390F84F474F0D4639680446002041F00101AB
S11343A09B4639604FEA92088146AA4602E0B1442E
S11343B00AEB860AC14517D204EB89063046FFF79B
S11343C08FFF010022D1C6F30A00C0F50060860801
S11343D0A8EB0900B04238BF06465A46314650465B
S11343E0FFF797FF0100E2D021682A68914209D0C3
S11343F02046FFF775FF010004D15A4601212846E3
S1134400FFF787FF3968490849003960BDE8F28F32
S11344102749254A0B6843F001030B60886001209B
S113442048604869400704D50868400840000860AF
S11344301EE04869800704D5086840084000086009
S113444019E00220486001E022B1521E4869C00709
S1134450FAD422B9086840084000086005E00868FA
S1134460400840000860002070476FF00200704769
S11344704FF0FF3070476FF001007047002386E76C
S11344800B48016841F00101016046F21A31C16430
S11344904FF4807141604169C907FCD40021C164B3
S11344A00020704700000000809698000C000E4029
S11344B008000E40072802D23549085C7047FF20E7
S11344C07047072802D23349085C7047FF207047C1
S11344D038B50446304800EB8105A8780009FFF799
S11344E0E9FF2071A87800F00F00FFF7EAFF607180
S11344F0FF2814BF01200020E8702146E878A0714D
S1134500287860706878254DA070284600F0A3F8DC
S11345100120A86031BD10B5214984B01CC968468A
S11345201CC02048204A0178D36814682340DB0764
S11345302DD503292BD2184C12691C4B04EB810492
S1134540E4781CB114B2002C48BF002223F81120D7
S11345500123174A147803FA01F121431170154A13
S1134560117891B100211478CC40E40708D501708A
S11345708B401078584010706846FFF7A9FF1FBDA4
S1134580491CC9B20329EED31FBD032101701FBD0D
S113459028ED020030ED0200E46500200020004018
S11345A01CED0200887E002038200040F0650020C9
S11345B0897E00203F7E0020890001EB401000F13D
S11345C084400260704730B5002A446BDFF83451F0
S11345D01ABF1022DFF83031DFF8303123400024D5
S11345E0A84237D1DFF8280151B101290CD00229A2
S11345F01ED003290CD0062915D0812918D023E018
S113460001680468006816E001680468006802E054
S1134610416844684068090C01F4FE41C4F3034452
S11346202143000C0CE08168806801F00F0107E071
S113463041684468406801F4FE4104F00F042143DA
S113464000F0F00040EA010404FA02F0DFF8C410BC
S11346501843086030BD38B504460D460220A060FA
S11346600022A9782046FFF7AEFF287969786B7994
S1134670020242EA016242EA0342EB7842EAC302DE
S1134680EB790BB142F000522B7A0BB142F00402E9
S1134690AB790BB142F002026B7A0BB142F001022A
S11346A0AB78F32806D1180004D10429BCBF042038
S11346B060F31B6218064CBF42F0E00042EA43106C
S11346C02061154960690840A9780A0644BF21F0B1
S11346D080010843297840EA4140E97A09B140F46D
S11346E0804060610221AA7A2046FFF765FF28799D
S11346F0F32804F13000BDE838400CBF0122002249
S1134700102159E700200040FFFF00800080FFFFD8
S11347101082E00F34200040F8BFE1FF38B50446B2
S11347200D46104600F0CBF800202070A847BDE8E5
S1134730314000F0D2B8002249494A48EEE700224D
S113474049494A48EAE770B5044616460D463046DC
S113475000F0BAF8002020703046A847BDE8704049
S113476000F0BBB8012242494248ECE7022240492A
S11347704148E8E7012241494148E4E702223F4930
S11347804048E0E780B5012000F0D7F93E4800F04A
S11347906CF93E49087001BD80B500F0DFF90128CD
S11347A005D03A480078BDE8024000F046B901BDA2
S11347B030B5002400E0641C354D2D88E3B2AB42D3
S11347C00FD2E4B20C25334B15FB04F52B441D78B2
S11347D0854201BF5D888D421D799542EBD1184613
S11347E030BD002030BD80B519B900F0A5F8002017
S11347F002BDB1F1004F02D200F0A8F8F7E70220A1
S113480002BDB1F5000F3CBF0902FFF7ECBF022067
S1134810704770B504461D46FFF7CAFF06000ED068
S1134820204600F096FC50B1B0682946FFF7DBFF44
S113483028B9049870710598B071002070BD0220E9
S113484070BD1CB500931346049C01940022FFF72D
S1134850E0FF16BD80B500230093FFF7F2FF02BD11
S113486055BC01000866002045D4000010660020F5
S11348705B690200F865002000660020A56A02005A
S11348801866002020660020A4EF02008A7E002023
S1134890906300209C5D002080B5FFF789FF20B164
S11348A0806800210170002002BD022002BD0022A8
S11348B0F2E770470C490D4808600020704700B1CA
S11348C0702070470020704780B500F013F8FF286F
S11348D001D1A32002BD002002BD00207047704713
S11348E000BF034800787047CC7300205A5403007B
S11348F07866002080B500F069FCFF2818BF00200E
S113490002BD002101707047007800B1012070479A
S1134910FFF769BFFFF775BF38B54478456800F005
S1134920D1FD00F09CF85B1BB3F1004F98BF5550CC
S1134930BDE8324000F0CCBD10B500F07BF86060FB
S1134940042020702046BDE81040E5E738B5044651
S11349500D4600F0D2FD281860600120207020462A
S1134960BDE83240D8E710B50446207801000CD0E9
S1134970042806D000F0C1FD6168421AB2F1004F6C
S113498001D8002010BD081A10BD4FF0FF3010BD33
S113499070B500F04FF8054600F094FD06466068D7
S11349A06FF0004100F02CF8401920603046BDE85B
S11349B0704000F08DBDF8B504460D46164600F073
S11349C09CFD002156B1FF22327007E0121AAA4260
S11349D002D2154606B13170491C083422680AB95E
S11349E02846F2BD13781F00F6D0042B04D0526879
S11349F0831AB3F1004FE9D806B131700020F2BD3B
S1134A000022D8E738B500F015F805460EE0017825
S1134A100A000AD0042904D04168691AB1F1004F90
S1134A2003D804210170616888470834206800288D
S1134A30EDD131BD044600F060BD10B5FFF7FAFFBB
S1134A4000F00DF8C01AB0F1004F07D85418606890
S1134A50FFF7D8FF2046BDE8104099E710BD0C21B0
S1134A6011FB04F1364A5358704770B5354E364938
S1134A70097804467078884204D3E5210FF2CC000B
S1134A8000F090FD7578681C70700C212C4811FBA7
S1134A9005F1084401214460017200E04D7054F8AE
S1134AA0081B0029FAD1FFF773FF284670BDF8B53B
S1134AB04FF0FF310C2400916043214D214E2844D6
S1134AC000210172307820B300F062FE28B94FF45F
S1134AD08F710FF2780000F065FD00F00EFD0021EB
S1134AE005E0009B9A4288BF1A460092491C7378DD
S1134AF0CAB29A4211D2C9B214FB01F3EA58871A16
S1134B00B7F1004F05D92B44121A1B7A0BB9002AAE
S1134B10E7D100F04AFE0020F2BD684600F05CFEDA
S1134B2010B9684600F005FD0120F2BD0C23044ACB
S1134B3058431044012101727047024908707047BC
S1134B40B06C00203D7E0020DF5803006576656E62
S1134B50742D636F6E74726F6C2E6300024800785C
S1134B607047014908707047937E0020DFF81409EC
S1134B70DFF8141900880A68DFF8101984B0ADF85A
S1134B80060003A8026002A80A68DFF8041902609C
S1134B900020ADF80400DFF8FC080088ADF802003E
S1134BA00020ADF80000022008700020DFF8E818AB
S1134BB00DF10603DFF8E4281B5C02EB001213700E
S1134BC003AB33F81030538002AB33F810309380CA
S1134BD001AB1B5C93710DF102031B5C01EBC3037E
S1134BE093601DF800301373401C01230228537393
S1134BF0DEDB04B07047DFF8980800787047DFF810
S1134C009C1801EB0010407B00F001007047412824
S1134C1018BF422803D0432818BF442801D10120DB
S1134C20704700207047412818BF422801D1012055
S1134C30704700207047432818BF442801D1012041
S1134C40704700207047F8B51546069A04461E467C
S1134C5000F022FA60B1042100F0B2FB070007D093
S1134C602046FFF731FE324629462046B84790E0F9
S1134C70F1BD2DE9F04383B00446160098461EBFEB
S1134C800A9F002F5FEA08000D461DD0387871880E
S1134C90000730794CBF4022802200F0FDF998B122
S1134CA0082100F08DFB814670B13079FFF70CFECE
S1134CB00B98019000974346324629462046C84740
S1134CC0BDE8F743FFF709BEBDE8F783F8B516461C
S1134CD005461A4600F0E0F9D8B1069C21000BD134
S1134CE0022100F06DFB040013D02846FFF7ECFD11
S1134CF031462846A0470BE0102100F061FB070075
S1134D0007D02846FFF7E0FD224631462846B8473B
S1134D103FE0F1BDF8B5154604461A4600F0BCF96B
S1134D2008B98620F2BD0699002689B9202100F031
S1134D3047FB07000CD02046FFF7C6FD0998089BE7
S1134D40079A009029462046B8470646FFF7C5FD56
S1134D503046F2BDF8B50446A5682078FFF7B4FDE7
S1134D60002612E02868F6B2142111FB06F1471858
S1134D702078398800F03EFD0121384600F020FB00
S1134D8001001CBF20788847761C2979F0B288423C
S1134D90E8D3BDE8F140FFF7A0BD70B50024DFF80B
S1134DA0FC56DFF8EC6608E0FFF729FF20B1E4B217
S1134DB005EB0410FFF7CEFF641C3178E0B28842A3
S1134DC0F2D370BD10B5002301E0001D5B1C9CB242
S1134DD08C4204D204889442F7D1408810BD00204C
S1134DE010BD0288B2F57C4FA8BF00F00BB8DFF805
S1134DF0B006081A0C2190FBF1F082B20021DFF812
S1134E00A406DFE7DFF8A016401A142190FBF1F0A6
S1134E1082B20021DFF89406D4E710B50C4601886D
S1134E20638899420DD1027B23791A4209D0B1F5E6
S1134E307C4F04DBFFF7E6FF2189884201D1012082
S1134E4010BD002010BD10B514460A88E3889A42AC
S1134E500AD10288B2F57C4F04DAFFF7C2FF218938
S1134E60884201D1012010BD002010BD2DE9F74F6B
S1134E7004469B460025002603E0C0884519ADB2D0
S1134E80761CDFF80C160978F0B2884280F0D080E6
S1134E90F6B23101DFF80406DFF800260844515C5D
S1134EA0227880689142E8D100903046FFF7A7FE4F
S1134EB00028E5D04FF0000A05E0B8F80A004519CB
S1134EC0ADB20AF1010A009909795FFA8AF08842C1
S1134ED0D6D200985FFA8AFA0068142111FB0AF10D
S1134EE000EB010821464046FFF797FF0028E4D075
S1134EF04FF0000908E038793021084202D1F878EF
S1134F002D18ADB209F10109B8F808101FFA89F09B
S1134F108842D6D2D8F804001FFA89F90C2101FB83
S1134F2009F14718224639464046FFF78CFF00280E
S1134F30E1D0019800B107603879800611D5DFF817
S1134F406005002106E00279920602D5C27889182C
S1134F5089B20C30B842F6D3DFF8540500EB010AED
S1134F6003E0DFF8500500EB050A0C9D280018D07B
S1134F70029E00F060F802463B8861882078DFF8E2
S1134F80389500F031FCE8B13879C0061CD500F042
S1134F9052F80346029800903A4661882078C84740
S1134FA047E00298002844D05646824600F043F871
S1134FB002463B8861882078DFF8009500F012FCF7
S1134FC00028E1D17E2034E097F80280BBF1000F85
S1134FD00CBFFC785C464046FFF725FE30B1621EEC
S1134FE0D2B23146504600F0FCFF1FE04046FFF7C6
S1134FF022FE30B1A21E92B23146504601F009F8A9
S113500014E03DB9BBF1000F04D0F878834538BFF4
S113501089200ED3002E224604D10021504601F0EF
S11350206EF903E03146504601F026F9002000E015
S11350308620BDE8FE8F39464046D2E660B500259D
S113504003E01E7B360616D46D1C0679EBB2B34220
S113505013D20368EDB2142616FB05F633441E88FA
S11350608E42F1D1160006D0802AEAD0402AEBD134
S11350701E7B7606E8D5184660BD002060BD80B56D
S1135080002201E080B5402200F006F800B10120C2
S113509002BD80B58022F7E738B50C46154600F00E
S11350A095F8FF2801D1002032BD04E038B50C4644
S11350B0154600F08DF8DFF8E43303EB00102A46C0
S11350C080682146BDE83840B8E74022FFE72DE973
S11350D0F047804689469246FFF7DEFF002508B96F
S11350E0FF2019E00026DFF8B473DFF8A44300E0E2
S11350F0761C2178F0B288420DD2F6B23001385CC9
S1135100404508D052464946FFF7D0FF0028EFD06B
S11351106D1CEDB2ECE72846BDE8F08730B50022FF
S1135120DFF8783300E0521CDFF864532D78D4B2F2
S1135130AC420CD2D2B214011D5D8542F3D10D00F4
S113514003D01C44647BE407EDD5104630BDFF203A
S113515030BD80B50021FFF7E1FFFF2801D1002019
S113516002BDBDE802404AE570B50E460446002182
S1135170FFF7D4FFFF2801D1002070BDDFF81C1316
S113518001EB00153200687B00F0010114BF40F010
S113519001000020B142687316D086B12846FFF79B
S11351A0D9FD11E00068F6B2142111FB06F10844A0
S11351B0761C017BCA0901882046FFF76DFBA868AD
S11351C00279F1B29142EDD3012070BD0121A5E72E
S11351D00021A3E7DFF8C4120001085C704738B56A
S11351E00C46FFF7F3FF01460020FF291FBFDFF83D
S11351F0AC2202EB01118968002916D0002203E0D9
S11352001B0648BF2846521C0D79D3B2AB420BD2C1
S11352100B68D2B2142515FB02F52B44451C1B7BED
S1135220002CEDD05B06ECE7C0B232BDF8B50C46FD
S11352301546FFF7CBFF01460022FF291DD00023AE
S113524001E0521C5B1C954800EB0110DEB2806843
S11352500779BE4211D20068DBB2142616FB03F6AE
S113526030442F00067B02D0760602D4EAE73606E5
S1135270E8D5D6B2A642E4D1F2BD0020F2BD0021A9
S113528009E010B50446012100F005F82046BDE808
S1135290104001F070B82DE9F34F87B001F01DF90B
S11352A0069000247A48DFF8F481007805909DF890
S11352B01C00019000E0641C0599E4B28C427BDA86
S11352C00199FF2907D09DF81C00FFF77FFF0446D2
S11352D0FF2C06D170E008EB04100699007B88428D
S11352E0E9D14FF0000A4FEA041901E00AF1010A7A
S11352F008EB09005FFA8AF180680279914257D27B
S113530000685FFA8AFA142111FB0AF1451828890A
S1135310B0F5967FC8BF01F0C2F9002613E0012062
S1135320009000235A46002102A8FFF79FFD9DF834
S1135330200038B1BDF80A2018F809103B46584639
S113534000F03DF8761C2989B0B28842CED2686854
S1135350B6B20C21714347183879C006F2D418F854
S113536009008DF8080039462888ADF80A00387914
S113537040064CBF802040208DF80C003888ADF8E2
S11353800E002846FFF72DFDADF810003979F878A6
S1135390490706D5D7F808B00328C0DBDBF800B00E
S11353A0BDE70328B4BF07F1080BD7F808B0B6E788
S11353B00198FF283FF47FAF09B0BDE8F08F704734
S11353C030B5047B012200230C4205D1002030BDFE
S11353D0144218BF5B1C5200D5B28D42F8D3006949
S11353E0DBB250F8230030BD2DE9F04F0C4601210B
S11353F00028607D4FF0000C08D0050008BF4FF076
S1135400020E09D0012805D18E4605E010B94FF0EF
S1135410080E01E04FF0040E09980A9DDDF82C9067
S1135420DDF830A0E046264F07EB88063788974220
S11354301FD1F77817EA0E0F1BD0B7784F4518D352
S113544096F803B0E77B5FEACB6B01D50FB910E0A8
S11354507FB9E24501D0844501DB00210EE0B77835
S113546003F80C700CF101062F887F1C2F801FFAA3
S113547086FC08F10108B8F1350FD4DB0846BDE815
S1135480F08F00003E540300FCF4020000F502001B
S11354908C7E00204A5403000CF802007866002039
S11354A0E0F5020020F80200F4F602001CF8020005
S11354B0B4660020986600201B58000017580000AE
S11354C00CF50200EFF31180602181F3118870471D
S11354D080F311887047000080B501F07CFA01F078
S11354E087FA80B202BD80B501F075FA01F080FA46
S11354F0FA21B0FBF1F080B202BD80B501F06BFA85
S1135500BDE8044001F074BA80B501F092FB134881
S113551000214160001D01F0EDF820B139210FF2A6
S11355206C0000F03FF8002002BD0C490120087017
S1135530704770B5044682B02268002502B911E0B4
S113554000F002F8012011E0044E054B357000957F
S11355500021706801F041B900000000CC780020FF
S11355602B55000000F021F9002076BD01F0AAFCC3
S1135570307828B97068214601F0E7F9852501E003
S113558025603570284676BD00F008B873797374C9
S1135590656D2D74696D65722E630000704700009F
S11355A042DE704738B504460D4601F0CBFF01F0EA
S11355B076F802F0F5FD2946204602F01AFE2B4645
S11355C022466949012002F0B7FF29462046BDE87A
S11355D03440E5E765482DE9F047654D01682E1D27
S11355E04FF420687165016AB16562490A68F26521
S11355F049683166416A7166816AB166C16AF16659
S1135600016B3167806B706796F8340040074CBFBC
S1135610F46BB46B03F043F80022F2648442564AFC
S1135620014624BFA2F1200AA2452746316505F1AF
S11356309003DFF848C1DFF848E118D3A06930646B
S1135640E4697464746DC4F30804062C13D17045C2
S113565011D360450FD200884DF64264A0420AD1AE
S11356603068586040F201787068986003E0002761
S11356703764776407464348814202D2014600E01A
S1135680091D0846904203D20C68B4F1CD3FF7D00F
S11356903D49081AB0640021002005EB8004401C39
S11356A00628E167F9D3002003E0C0B205EB8004CB
S11356B0E167974223D252F8041D7145F9D361453D
S11356C0F7D2CC07F5D5002405EB8409D9F87C90F2
S11356D0894502D0641C062CF6D3062CE9D1002897
S11356E014BF401E0520E0E7B16F002405EB8402DF
S11356F0641CD2F88070D767052CF7D31960014673
S1135700481EC9B20029EFD1706DC0F30800032808
S113571010D0042811D0052812D0062813D00C2844
S113572017D0122818D119480068800719D540F2FB
S1135730025816E040F6012813E040F6022810E073
S113574040F603280DE0B8F5206F0AD140F604288E
S113575007E040F6052804E018B1322838BF40F6C7
S113576007284046BDE8F087B8F4020004ED00E0E5
S11357700000002000E300E0C85B0020DADD020046
S1135780B44400009C000020C85B00201C2005409D
S1135790EFF31080C00706D4EFF311806028804136
S11357A0C043C00F704701207047002080F3118868
S11357B0704770477047704770477047704770472D
S11357C070470020704770477047704770477047B4
S11357D070477047002070470020704770470000F2
S11357E00120704701207047012070477047B520A1
S11357F070477047704700207047002070470020B2
S11358007047002070470020704700207047002038
S11358107047002070470120704701207047002026
S11358207047002070470020704700207047002018
S11358307047704700207047704700207047B520BC
S113584070477047002070477047704770470120C9
S113585070477047704770470120704700207047B9
S1135860034800680078012808BF02207047000040
S1135870CC730020002070477047704701207047A8
S11358807047704700207047002070470020704721
S113589000207047002070470020704700207047A8
S11358A000207047002070477047B52070470020E3
S11358B0704700207047002070477047704770475A
S11358C0704700207047704780B5FFF77FFCFF28C2
S11358D005D0022803D2DFF83818085C02BD002086
S11358E002BD10B50168DFF82C280B8813804B88A3
S11358F05380497911710168097951714FF48A51C2
S1135900D18001688979890644BF4FF48B51D180D5
S1135910DFF8041883690A783BB9C088DFF8FC37DC
S1135920188002F0FD00087010BD42F002020A70F7
S113593016228169DFF8E847204600F09DFC00202C
S1135940207010BD80B50020FEF7B9FFFF20FFF7DF
S113595096FCFEF7C2FFFFF74EF902460121DFF87D
S1135960B00700F0CCFCDFF8AC37DFF8B827DFF87D
S1135970B807522102F074FFFEF704FF02F0F2FFB1
S113598003F0A4F803F02CF903F04DF903F092F9B5
S1135990BDE80140FFF701BA704780B503F0BDFFD1
S11359A020B905F003FB08B9FFF721FFFFF77CFFDF
S11359B0BDE80140FFF784BF10B500224FF6FF7128
S11359C0DFF8683700E0521C92B233F832408C4260
S11359D003D08442F7D1104610BD084610BD38B537
S11359E00446FFF7E9FFDFF8485701464FF6FF7218
S11359F02888914203D12246DFF8381706E0DFF801
S1135A002C2702EBC1014A68DFF82C1705F0BAFB1A
S1135A102888BDE8324005F0A5BB10B50446DFF880
S1135A201C070078002882B03BD005F083FC0246B6
S1135A30DFF80C17042005F0A5FB206841880091CD
S1135A404379A289DFF8FC16042005F09BFB0420AF
S1135A5005F04CFB18B120684088FFF7C0FFE07BDD
S1135A6028B1228ADFF8E016042005F08BFBE07CE5
S1135A70DFF8D8160090A0680278A37C042005F013
S1135A8081FB207DA1890A1AA1680144012392B2F5
S1135A90042005F071FCBDE81C40C5A1042005F0FC
S1135AA06BBB13BDF8B50446DFF8A45620684079F3
S1135AB0FFF78CFB2268FF280BD100F064F8DFF8B5
S1135AC09416022005F05EFB2068DFF88C164279FC
S1135AD043E0DFF88816237FDFF8846601EB0010CB
S1135AE0017B994209D000F04EF82068DFF8743643
S1135AF000F044F8227FAFA12FE040881188DFF83E
S1135B006876884210D04FF6FF73994202D1B0F5FF
S1135B10004F09DB00F037F82068DFF8503600F05A
S1135B202DF82068028817E02079022818BF03287E
S1135B3018D111895079FFF76CFE98B92068428812
S1135B40E37C2946022005F01DFB2068DFF820369F
S1135B5000F014F8206802893946022005F00CFB95
S1135B600020F2BDA07B0028204603D0BDE8F2400F
S1135B7005F092BCBDE8F24005F0BEBC4279314666
S1135B80022005F0FFBAE37C52882946022005F082
S1135B90F9BA30B5144683B01A4623785B074CBF74
S1135BA0052303239A420AD200931346DFF8C4253F
S1135BB0DFF8C415042005F0DFFA00203EBD089D7F
S1135BC0286029710698E880AC60AA81207800F0EA
S1135BD00100A8732078800800F00100E8732078A1
S1135BE0C00800F00100687501202875E87B30B119
S1135BF00121204605F043FF297D891C297528824F
S1135C00287D411C2975205CA874481C2875C9B2DC
S1135C10605CE8740798A86100F05FFC28770120B5
S1135C203EBD2DE9FE430F46DFF85015DFF8506501
S1135C30DFF8508591EC080B86EC080B0B9C029660
S1135C40019400250A9900913946FFF7A2FF002824
S1135C5075D0C8F80060B07CDFF82C1508703046A9
S1135C60FFF7DBFE3046FFF73CFE304600F084FBD6
S1135C7098BBA4BB042F18BF052F03D0022F18BF55
S1135C80032F01D1012200E00022F1883068019144
S1135C904188009101210388F07C00F055F908B394
S1135CA03068817989061DD44288DFF8E014DFF872
S1135CB0E054022005F060FA0120287001213046EA
S1135CC000F040F938B10346DFF8C824DFF8C814FF
S1135CD0022005F051FA0020287001252FE0207DD4
S1135CE080072CD530684079FF2824D10027DFF8BD
S1135CF02444FEF780FFF9B2814220D2F8B2FFF7C4
S1135D0069FA8146F8B2FEF77AFF90B130684188AB
S1135D104846FFF7B4F960B13046FFF7E2FD30685A
S1135D2080F8059084F804903046FFF7BBFE00B17C
S1135D3001257F1CDDE73046FFF7B4FE054605F07C
S1135D4035FE16220021DFF8D80300F0D8FA00202F
S1135D50C8F800002846BDE8FE83DFF84004017857
S1135D60491C017001F07F007047DFF8AC130A781A
S1135D70002814BF42F0010002F0FE0008707047D2
S1135D80DFF81C140870704778B1DFF81414097830
S1135D90012903D1018841F0400105E0022904D121
S1135DA001884FF6BF721140018070470000000067
S1135DB05D0000002564000078B1DFF8E8130A787C
S1135DC0012A04D1DFF8E02312780A7001E0022AE4
S1135DD003D1017841F01001017070472DE9FE43B1
S1135DE0CD4E80463078C00706D5DFF8C0130220B8
S1135DF005F0C2F900205CE0CB4CC64DDFF82493DB
S1135E002046FFF7D9FFA81DFFF7BEFFDFF8780390
S1135E102178007849074CBFE07060703078B9F899
S1135E20001080070AD52246BD4806F08FF8804648
S1135E30307800F0FD004927307019E0B748008839
S1135E404FF6FC7290420ADA0B460146CDF8048004
S1135E5000942A46002006F032FA552707E00A4645
S1135E60CDF800802346294606F013FA42278046DF
S1135E70A87980064CBFCE4D42A505F05BFA0246D8
S1135E800295CDF8048000970220CA4BCA4905F058
S1135E9073F9CA49022005F075F9B9F80020012305
S1135EA02146022005F068FA98A1022005F064F961
S1135EB04046BDE8FE83002090E70A460146B1480B
S1135EC0006801E00021F8E770B504460E46207929
S1135ED0010018BF012815460BD1A0680078C00640
S1135EE001D5300005D0A07B002804BFE07C0B283E
S1135EF001D1002070BD8B4900200880607DE17BCA
S1135F0000280CBF0820002011B905F066FD06E04A
S1135F1040F0040005F061FD208A05F06DFDA07CD1
S1135F2005F05BFD0B2005F058FDE07C05F055FD08
S1135F30304605F052FD2046FFF7D3FC2846BDE865
S1135F4070404BE70022BFE770B5044618469C4BEF
S1135F508F4D1B78012B01D02E7816B100202870AC
S1135F6070BD82F001020A4301D1002070BD2BB143
S1135F700A4604992346FFF73EFC00B1012070BD98
S1135F80000000000000000038B5D28852249506B5
S1135F9048BF4924550544BF083CE4B2150544BF35
S1135FA0083CE4B2120444BFA41EE4B203284FF632
S1135FB0FD7310D8DFE800F00204080D0B460AE078
S1135FC0C8B206F00AFD02E0C8B206F038FF034684
S1135FD001E0641EE4B21846FFF729FC201AC0B29F
S1135FE032BDB0B504460D000EBF00202878FF284E
S1135FF0174601D12070B0BD284605F065FD8742E3
S113600088BF07463A46691C601C00F035F92770C2
S1136010B0BDB0B50D000446174603D10020607032
S11360202070B0BD2878FF2802BF6878FF28207050
S11360300CD0284605F04DFD874288BF07463A46F6
S1136040A91CA01C00F018F92770380A6070B0BDB4
S1136050F0B5541E002B37D0052A48DA0025002657
S113606000230CE0571EFF1AFF000CFA07FC4CEA51
S1136070050511F80EC00CFA07F73E435B1CDFB2AE
S1136080974209D2DBB2A4EB030E00280CBF4FF0F9
S1136090000C10F80EC0E5E7042A0FDAD000012145
S11360A0D200401E9140494245FA00F2D20748BF4F
S11360B00D4346FA00F2D00748BF0E43AE420FDB51
S11360C0B54214DA10E05B1CDDB295420FD2DBB2AC
S11360D0E51A00280CBF0026465D4D5DB54201DA85
S11360E00120F0BDAE42EEDA4FF0FF30F0BD0020EB
S11360F0F0BD0021334A01E0891CC9B2535C8342DC
S1136100FAD3501840787047000000005D0000008A
S1136110747E00206C730020CB7E00206C7E0020F7
S11361205C7600206E7E0020787300200444030017
S1136130727E00201C42030034420300BA63002034
S11361403C420300444203006442030070420300E3
S113615090420300B0420300CC4203007866002062
S1136160D4420300FC4203000C4303000443030035
S113617014430300384303001C4303004444030056
S11361803876002058760020DD6300204043030069
S1136190C77E00209043030068430300DE630020B1
S11361A0C87E0020C97E0020CA7E002098430300D8
S11361B0E4430300DC430300C0430300F44303004F
S11361C0DC63002064440300283808288041C00FA1
S11361D0704710B500F009F8FF2801D1A32010BDC5
S11361E0002104F83010002010BD04460846FEF7D4
S11361F0EDBF38B500F00BF8FF2801D1A32032BD64
S1136200294604EBC000BDE83440FEF7ECBA04466E
S113621008461546FEF7DABF40B11C280CD01D28ED
S11362200DD01E2818BF1F2806D00AE0A1F10B00CC
S1136230102806D2002070471B29FBDB01E0092946
S1136240F8DB8A20704710F0E00011D0802806D0D7
S1136250A02806D0C02806D0E02806D007E01C20DD
S113626070471D2070471E2070471F207047FF2075
S1136270704700F01F007047814233D2104411442C
S1136280401E491E10E011F8013900F80139121FAF
S113629011F8013900F8013911F8013900F8013910
S11362A011F8013900F8013992B2042AEBDA93B2F9
S11362B0002B1EBF11F8013900F80139521EF6D126
S11362C0704711F8013B00F8013B121F11F8013B24
S11362D000F8013B11F8013B00F8013B11F8013BC8
S11362E000F8013B92B2042AEBDA93B2002B1EBFF2
S11362F011F8013B00F8013B521EF6D17047130020
S113630003D00A46194606F057BF704710B500E09F
S1136310521E93B223B100F012F8F9D0181B10BD2D
S1136320002010BD10B500E0521E93B22BB100F056
S113633006F8F9D0181B40B210BD002010BD10F8AB
S1136340013B11F8014BA342704780B5FFF771FA86
S1136350FFF7F8FABDE8014006F062BF80B5FFF729
S11363606BFAFFF719FB07F041F807F08DF8BDE869
S1136370014002F017BC7047FFF788BAFFF78CBAE8
S11363800020704738B504460D46FFF79CFA2946AD
S11363902046BDE8344007F0E8B8FFF77FBAFFF7BE
S11363A08ABA000010B57448744C006820606060BC
S11363B048220021FFF7A3FF714821680078087084
S11363C04FF6FF712068002241800273002022688A
S11363D050730B202268907314202268D0734FF6F8
S11363E0FE7220680282418207F008F9216808766B
S11363F007F004F92168487607F000F921688876E7
S1136400604821680078C8765F492068096840F8C8
S1136410281F5E49097801715D4821680068086396
S113642010BD10B500F0BBFE544C6168897B8842F6
S113643003D0084600F062FE50B900F0B4FE0146F5
S1136440606890F90F00814204D000F0BBFE08B1EF
S1136450012010BD6068008A01F0FEFA6068408A7D
S113646001F01AFB6068007B012818BF002001F0CE
S1136470DEFA002010BD10B5464C0020207007F055
S113648086FD20B92046BDE81040FEF755BA67E006
S113649080B5002000F015F828B1002000F005F8C0
S11364A008B1002002BDFF2002BD34480068407BD3
S11364B002281CBF1128432801D101207047002065
S11364C070472E480068007B01281CBF022803285F
S11364D001D1012070470020704700207047002040
S11364E070472D490870704770470020704701209D
S11364F0704770470020704700207047704770470E
S11365000020704780B50020FFF7CFFF18B1BDE829
S113651002400020D5E702BD80B50020FFF7C5FF8B
S113652030B116480068007B032801DA002002BD60
S1136530FF2002BD10B5040005D040F249110FF24E
S11365400C10FFF72FF81448007808B9702010BD1C
S113655009480068482111FB04F1084407494860D0
S1136560BDE810405DE705484068008A704703486D
S11365704068408A70470000FC5F00207877002064
S1136580CE630020CF63002000600020C66300209B
S11365900460002070770020E06300207047002032
S11365A070470020704707F0B1BA704708F038B858
S11365B007F0E8BE82B08DF80010DDE90023114633
S11365C01A4602B002F0D4B932B586B004468DF84A
S11365D0042004F08FFC0546204604F099FC80F06A
S11365E001010D420DD0BDF8180004F066FD8DF8D0
S11365F00000FF2804BF00208DF80000CDF808D06B
S11366001AE0294308BF06A815D0054214D0BDF8E6
S1136610180004F052FD8DF80000FF2804BF00208C
S11366208DF800009DF800008DF80C00BDF81800EE
S1136630ADF80E0003A80290DDE901010A46014607
S1136640204602F095F907B030BD0000656D626523
S1136650722D6D756C74692D6E6574776F726B2D08
S1136660737475622E63000007F0DCBF80B50121EE
S1136670154808F085F80421072008F0EFFB1348BB
S11366801349144A0160042111600221416204216A
S1136690114A1160816A41F00201816201BD0B4817
S11366A008F02CBCA52800D0704780B500F005F890
S11366B010B10A490020086001BD0448006810F0C8
S11366C0010018BF012070470005080000200540A4
S11366D00108030080E200E000E100E00000A442C1
S11366E0012100F01F029140DFF8DC24400942F848
S11366F02010704770B50546FEF7E4FE002600241E
S11367002821DFF8C82401FB06F313449B7F13B14F
S1136710761C042EF7DB042E08BFDFF8B44408D03F
S11367202DB17143114401238B772E6001E0DFF812
S1136730A444FEF7CDFE204670BD10B5DFF89804E2
S1136740017809B1002010BD01210170DFF88C042B
S1136750DFF88C4408F014F80321DFF8880408F00B
S113676053F9032020710121DFF87C0408F008F8B4
S1136770204608F0E6FBDFF87414DFF874440120C7
S113678008F0C8FBE069C00AC002E06140F2FF7093
S1136790A061002020601D20FFF7A2FFDFF8541441
S11367A04FF000500860A021E06940F00100E06172
S11367B0DFF8180408F0E6FBDFF83C14002008704A
S11367C0DFF838140870DFF838140860DFF8341480
S11367D00860DFF83414086010BD2DE9FE4F05464B
S11367E0042D8B46144699464FF0000828BFDFF865
S11367F020040ED2FEF766FE02902821DFF8CC03B7
S113680069434618B07F28B90298FEF761FEDFF8A5
S1136810040488E00C9F34B9B9F1000F02D0394662
S11368202846C8477BE0610CE003DFF8C453D5F881
S113683000A0C6F8189000F078F8C6E90201BBF190
S1136840010F0ED14FF47A726243CDE9002802465B
S1136850F420A0FB0249DDE90001001B30617A202D
S11368607061D6E90201401C61F1FF31C6E9000103
S11368700120307786F81FB03762DFF87C03007898
S113688000284CD1DFF87873386810F1010F02D07A
S11368903868401C3860DFF86443DFF87C93207864
S11368A0A8B9C9F800A00420A8616FF06402D6E971
S11368B00001414501D8904200D310465044E86499
S11368C0E86940F00400E8610120207022E03868A3
S11368D001281FD186F81C8000F0D7F8AAEB00002D
S11368E000F0DAF800F02CF9B8F1000F04BF012031
S11368F03077504600F034F9D5F800A0E86C2178E0
S113690008F1010831B1D9F80010401AAAEB0101CD
S11369108842E1D3386810B13868401E3860029864
S1136920FEF7D6FD0020BDE8FE8F10F57A6041F138
S113693000014FF4FA52002308F028BB2822DFF8A4
S11369408C12624311448A7F70472DE9F04104465A
S1136950042C0E4628BFDFF8B8023AD20EB99D487F
S113696037E0FEF7AFFDFFF7E9FF22B9FEF7B0FD10
S1136970DFF8A0022DE00A7F22B9FEF7A9FDDFF8B7
S11369809C0226E0D1E9004899490F68A2490D68A4
S1136990FEF79EFD781B0021884504D8844238BF49
S11369A04FF4804010D3221A68EB0103DB0043EA62
S11369B05273D2004FF47A74A4FB020104FB031156
S11369C010F5804041F10001C00B40EA41403060C5
S11369D00020BDE8F08170B58A4E002334688448F5
S11369E0026830688442F9D1981844EB030170BD01
S11369F030B54FF4FA5200F004F8C00B40EA4140BD
S1136A0030BDA2FB004502FB015514F5804045F161
S1136A10000170472DE9F047FEF754FD744D82469E
S1136A20E869296900EA010626F00500A8617007F3
S1136A301ED5714FDFF8C481DFF8DC910120387076
S1136A402C6800F022F8201A00F026F800F078F8FC
S1136A50204600F085F82C68E86C98F8001029B1FD
S1136A60D9F80010401A611A8842EAD3002038701D
S1136A70F00705D50120A86162480168491C01603E
S1136A805046BDE8F047FEF723BDE86920F0040056
S1136A90E861D9F8000070472DE9F0430026044668
S1136AA000252821494871434718387F7D770028FD
S1136AB041D0D7E900018D4207D828BF844204D2CF
S1136AC0001BA941C7E9000135E0F87F08B9387710
S1136AD02DE0D7E90001D7E90223201AD7E902897A
S1136AE065EB010108F052FAB8EB020069EB03010F
S1136AF0C7E90001386939690128786909DB081890
S1136B00F428786113D3D7E90001401C61F1FF3107
S1136B1008E0401AF428786109D3D7E90001401E3F
S1136B2061F10001C7E900017869F4387861B86956
S1136B3008B101207877761C042EB2DBBDE8F0831F
S1136B4010B500242821214861434218507F18B110
S1136B50116A926920469047641C042CF2DB10BD34
S1136B60F0B54FF0FF3213460021184C28254D4351
S1136B706619367F46B12544D5E900679F4203D89C
S1136B802EBF964232463B46491C0429EEDB0021C7
S1136B904FF0FF34A34208BFA24212D08B426FF0E1
S1136BA0640401D8A24200D322461B49174B086053
S1136BB004211960101858630121586840F004003A
S1136BC058600E480170F0BD80E200E0A864002027
S1136BD0011000F0041000F0BA7E00200005080047
S1136BE01C6100200500200080091200286100209B
S1136BF00820044000E100E0B87E0020B97E0020B7
S1136C001074002014740020187400202020044004
S1136C10021000F0031000F00C740020051000F0C6
S1136C20012100F01F029140514A400942F820100E
S1136C30704730B54F48504D0FC887B003AC84E857
S1136C400F0068460021002200230EC002208DF8A8
S1136C500600012149484A4C07F092FD4FF6FF70A7
S1136C60E0616A460021204608F062FA00208DF8AF
S1136C700E0003A9204608F00FFA424807F0B0FDC1
S1136C809DF80E1001228A40491C8DF80E10B0FBAD
S1136C90F2F0C9B20B29286002D23B498842E8D2FB
S1136CA03A4807F09DFD3A492A68B1FBF0F33948A8
S1136CB00021E3FB0201384A002308F067F9374951
S1136CC00860002036490870A06920F01000A06117
S1136CD00A20FFF7A5FF33494FF48060086007B02E
S1136CE0002030BD38B500F01BF804460D4605E021
S1136CF04FF6E85000F02AF800F00CF800218D421D
S1136D004FF6E950F4D88442F2D2A0B200F01EF853
S1136D10002032BD24484FF0FF3124184D41704704
S1136D2015491C4A09680023E0FB01231046194653
S1136D30194A002308F02AB91C480168C90604D579
S1136D40102181600120164908707047010081B04C
S1136D500BD017490A6892B20B68ADF80030BDF841
S1136D6000309B1A9BB28342F6D301B070470000F7
S1136D7080E200E0B4410300307600200002040009
S1136D80008001404041050081841E005000020043
S1136D9000B0710B20A1070040420F0034760020A0
S1136DA0C67E002000E100E01802FFFF0C800140D5
S1136DB0248001403E480168090C090481603B4875
S1136DC0016070473B4A410952F8212000F01F003E
S1136DD0C240D20706D5384A52F82110C14001F00A
S1136DE001007047002070470000000070B506469F
S1136DF0072808BF032602D0082808BF0226FFF789
S1136E005CFC30B1012E04D1A520FFF74BFC01241A
S1136E1000E0002408F0E2F9002080F3118808F073
S1136E20D2FB214D761E0020042E286016D8DFE800
S1136E3006F0030A0A0E12002048016821F004013A
S1136E40016030BF0EE0012008F091FE0AE001204D
S1136E5008F09EFE06E008F0CAFE03E0AF211848E1
S1136E60FEF7A0FB1248C1680068084086B22E6095
S1136E700920FFF7A7FF18B91120FFF7A3FF10B1EE
S1136E8046F4803028601D20FFF79CFF18B1286865
S1136E9040F4003028600CB1FFF7E8FB08F0ACFBCD
S1136EA0BDE8704009F062B9707500207475002067
S1136EB01CA4004000E200E000E100E010ED00E06E
S1136EC0903D030092E7000080B500230093134631
S1136ED0012209F085F901BD00F07CBE00F07ABE04
S1136EE0DFF8702B10705170704710B54C000146DC
S1136EF000F051FD224609F052F9A04201D00020D1
S1136F0010BD012010BD80B500F045FD09F0CDF99C
S1136F1000B10120C0B202BDDFF8740B407D00B1A6
S1136F2001207047DFF8682B117B01B9704780B5E9
S1136F300146106A09F00FFA20B1BDE8044040F29E
S1136F407111F5E201BD10B5DFF8444B627D01001B
S1136F5018BF012102B101229142607519D068B1B4
S1136F606FF07F00FFF7DEFF09F050FAC00510D57F
S1136F70206ABDE81040012109F042BBDFF8D44A81
S1136F8094F90C0000F0C4FD207ABDE8104000F034
S1136F901DBD10BDDFF8F81A497D01F0FE0108435C
S1136FA0D1E780B500F0F7FC09F0F2F800F0030037
S1136FB0032801D1012002BD002002BD80B5B0F537
S1136FC0004F07D100F0CFFDDFF8C80A00F0CCFC79
S1136FD0BDF80000DFF80C1BC883002002BD2DE9BA
S1136FE0F04F440900F01F050027DFF8FC8A00E099
S1136FF07F1C98F80660F8B2B04236D2D8F8080080
S1137000FFB250F827004FF0000C01E00CF1010C26
S1137010C67E5FFA8CFEB645EAD2D0F81CE05FFA71
S11370208CFC142616FB0CF6B6449EF8086006F099
S11370300706A642EAD19EF80960B542E6DB9EF84F
S113704001B09EF8009006EB0B0AAAEB090AAA45C8
S1137050DCDB11B1AC1B4C440C7012B19EF808106F
S113706011701BB1C3F800E000E00020BDE8F08F10
S1137070400918BF40F01800704710B5DFF8884A7F
S1137080206A09F012F90246206ABDE81040002186
S113709009F027B90B38102834BFDFF8500ADFF89D
S11370A06C0A006870473EB5684600210022002340
S11370B00EC0DFF8A00901788DF80010817A0A006B
S11370C018BF022914D10079DFF83C5A00F0BBF84C
S11370D0044600F00EF858B1286A0122002109F094
S11370E059F800F006F818B140F25B2100F06AFB91
S11370F037BD286A6A46214609F08BB82DE9F0416C
S1137100044604F01F001B2886B034D200200090EF
S11371106B46002200212046FFF761FF07002AD0BA
S11371202046FFF7B7FF5FEA000824D0DFF8606964
S1137130DFF8B059F06B804515D001A8414606220E
S113714009F064FA306AC6F83C8001A909F04AF9EA
S113715088B9306A03A909F053F9B5F91C10306AEB
S113716009F01BF938B90098B062776200980028DA
S113717018BFC06801E08A200EE0F06229798C42D1
S11371801CBF2C71FFF78FFF96F90D00C101306A07
S113719009B209F02BFC002006B0BDE8F081DFF84D
S11371A0440900797047DFF83C09B0F91C00002855
S11371B054BF05216FF0040108180A2190FBF1F077
S11371C040B270470A2110FB01F0FFE7F8B500F563
S11371D0D77240F277239A4201D38B20F2BDDFF8B5
S11371E0B048DFF80059A26A0A23002A1EBFAE7F06
S11371F006F0C006802E12D0A67B86B992F90260F2
S113720016FB03F7B842B8BF16FB03F007DB92F98D
S1137210032012FB03F68642B8BF12FB03F0217B66
S113722061B10146206A09F0B8F818B140F2B921F9
S113723000F0C8FA206A09F0C3F801E010FB03F07B
S1137240A8830020F2BD38B50446FFF723FF90B1B0
S11372500023002200212046FFF7C1FE58B104F0AC
S11372601F051B2D07D22046FFF702FF18B90B2D6F
S113727001DB284632BDFF2032BD0FF20C0140086D
S1137280085C704700000000504030007047C0B2F6
S1137290704710F1630F01DA0020704710F1240FDA
S11372A001DBFF20704764300002411100EB916064
S11372B08004000E704770B5DFF8D447DFF8385A01
S11372C000202064687828B109F094FB012818BFD5
S11372D0032801D1002070BDE16ADFF8203ADFF80D
S11372E0042800291FBFA66A3669002E022817D178
S11372F02364906900F5FA709061E07C18B1002075
S11373000021642203E0E87829794FF4A072207008
S1137310A2806170A878A0708020E080002030E016
S1137320DFF8DC599069AE4213D1DFF8D839236411
S113733000F57A709061E07C88B9087920700122A8
S11373408B7808799A40101891F903201018401E80
S11373500CE0236400F5FA709061E07C18B1002021
S11373602080642005E04878207088786070087870
S11373700001A0804879A07008890001E080C888D5
S11373800001A06000F0F5FBE07094F90200010038
S113739048BF4042C0B270BD70B50446DFF8F06625
S11373A0257896F9140008B18C2070BDFFF783FF8F
S11373B0B075DFF84429DFF82C07417801746901BE
S11373C001F5807181619379716C002BB37B1DBFD2
S11373D0AD1EEDB221F0020141F0020173B9127841
S11373E062B16278920609D56FF00102327541F0FC
S11373F00101826902F50872826104E049084FF0D4
S1137400FF30490030757164032000F003F96A1CF1
S1137410306A4FF4807392B2214609F014FB691C60
S1137420884203DA40F21B4100F0CCF9002070BD21
S113743000000000F8B5DFF8585695F91410002440
S1137440091D04290FD8DFE801F0080E101003000D
S1137450FFF7A2FF040008D0F2BD2C75286A08F0DB
S11374609DFE8D20F2BD8C20F2BD09F066F8E8B1D6
S1137470286CDFF88818884218D1A87DB0B1DFF8ED
S1137480180A0068002811D5DFF8480AC168C160ED
S11374900122006800F00F0002FA00F0401E0142D1
S11374A004D100F0ADFB642009F0EBFAFEF70AF812
S11374B0064695F9140010F1010F1CBF95F914004C
S11374C010F1020F29D195F91400DFF81876404223
S11374D02875FEF701F87862296C387949B9FFF705
S11374E0B2FE01466A6C286A07F1100308F088FEB0
S11374F00BE0FFF7A8FE07F11001009101466A6C4A
S1137500286AD5F840C02B46E04760B100202875B2
S11375108C244FF0FF30786202E0002028758D241F
S1137520286A08F03BFE3046FDF7D2FF2046F2BD44
S1137530DFF8E809FEF736B82046BDE81040FDF74D
S1137540C7BF0000F8B5FDF7BDFFDFF808550446D6
S1137550A87A012803D12046FDF7BAFFF1BDDFF870
S1137560C019DFF82C65DFF8B479402008600122E7
S1137570306A012108F00EFEDFF8A8194FF400105C
S1137580086069460FF2880000680090306A09F0CC
S113759021FA20B140F2C7413846FEF703F8022031
S11375A08DF800006946306A09F0F1F920B140F223
S11375B0C9413846FDF7F6FF306A08F00DFE002198
S11375C0002008F056FF00F005FB0120A87296F990
S11375D01400001D072810D8DFE800F0140F070777
S11375E0040B0B0B09F023FC0CE06FF00300307567
S11375F008E0892000F039FB04E040F2ED41384610
S1137600FDF7D0FF2046FDF763FF09F0D3FCF1BD81
S1137610040100002DE9F04DDFF838540446A87A3F
S1137620A04282B063D00FF2CC01DFF8FC68096895
S1137630DFF8E888DFF85874DFF8E8A80091032839
S11376404FF4001B4FD8DFE800F047023E2B09F04F
S1137650BAFC386A694609F0BDF918B140F20A511A
S113766000F04AF802208DF800006946386A09F0F3
S11376708EF918B140F20C5100F03EF868790028F8
S113768014BF00220222386A022109F0F1FC18B169
S113769040F2115100F030F80320032CA87218D0E6
S11376A0CAF800B00220A8722879FFF7CCFD014681
S11376B0386A002208F0ADFD18B140F2215100F003
S11376C01BF8022C13D0002C18BF032C0FD1002060
S11376D0A872C6F800B00AE0022C08D1CAF800B0BB
S11376E00220A87203E040F2375100F005F8BDE82B
S11376F0F38D0000040200004046FDF753BF002054
S113770088E7DFF82C0A807A70470000032805D840
S1137710DFE800F00302030314E77BE740F255516E
S113772006E780B500F00FF804D500210175006A62
S113773008F034FDDFF8F809407A012802D1BDE8E9
S11377400140FFE601BDDFF8EC0990F914100029AF
S11377507047DFF8DC09407A704780B5032801DB05
S1137760012002BDDFF8C8194872897A884218BF1F
S1137770FFF7CCFF002002BD2DE97C4FDFF8B46990
S113778003EA010BD6E9068929EA010528EA00047F
S113779002EA000A45EA0B0544EA0A044D4508BF1B
S11377A044450DD0CDE900230246306A0B4609F06A
S11377B013F918B140F27D5100F004F8C6E906450A
S11377C0BDE8738F0FF6A410FDF7ECBE38B5B04DCD
S11377D00446287BE8B1200018BFDFF85C2904D1F7
S11377E0A87C08B1402200E000220023DFF8480909
S11377F00021FFF7C1FF002C14BF00220822286AD1
S1137800082109F035FC20B1BDE8344040F2B951FB
S11378108EE631BDF8B50446022C0FF6501503DB95
S113782040F2E25100F0A5F8994E307B002840F078
S11378309780884FB87A012803D04FF4BD6100F0D7
S113784098F8002107F1280008F092FC306218B97A
S113785040F2EB5100F08DF8306A052108F055FF35
S113786018B140F2EE5100F084F8306A0FF61011AE
S113787009F010FC18B140F2EF5100F07AF8306AC8
S113788009F03CFC18B14FF4BE6100F072F84FF0FF
S1137890FF30DFF8A82806230146FFF76DFF306AA2
S11378A04FF0011108F02FFD18B140F2056100F00E
S11378B060F8306A4FF48032002108F012FD306A1B
S11378C009224FF0FF3109F0D3FB18B140F20C61EB
S11378D000F04FF8012030730223DFF8640800F051
S11378E043F8BDF80000C0054CBF0020BDF80000FF
S11378F0707308F022FEFFF769FFF88BFFF75EFB59
S113790009F07CFC00F081F83879FFF7F7FB18B137
S113791040F21F6100F02DF8F87900F040F8387A51
S113792000F054F8307C00F082F8787900F0C8F860
S113793000F01FF900F0ECF8B07C00F0DBFAB7F9C6
S11379401C00FFF743FC388C00F086F8788C00F0BC
S1137950A3F8B87900F0CCF8601E8041C00FB8726B
S11379602046FFF7D3FEF1BD01887F22684609F067
S113797093BC2846FDF716BE80B500F00CF8012133
S113798008F04AFC10F5007F02D16FF07F0002BDC1
S11379908005001602BDDFF89C07006A704710B529
S11379A004463B48017B51B1611E8941006AC90FFD
S11379B009F0F6FB18B140F25A61FFF703FF20000B
S11379C0DFF86C1718BF0120C87110BDF8B5044664
S11379D0FDF778FD05461F482D4E0472377BFFF7EF
S11379E09BFA00F0010080F00100074204D0306AE5
S11379F084F0010108F004FE2846BDE8F240FDF7DA
S1137A0067BDDFF82C07007A70472148017B01B974
S1137A10704780B5006ADFF82C17002209F0ADFB2F
S1137A2020B1BDE8044040F2856181E501BDDFF885
S1137A300427117B107401B9704780B50146106AA0
S1137A4009F0A2FB20B1BDE804404FF4D2616FE518
S1137A5001BD0000B06100202249DFF8D836088457
S1137A60197B01B9704780B50146186A002209F0F4
S1137A707DFB20B1BDE8044040F2A16158E501BDA1
S1137A80DFF8AC06008C7047DFF8A406408C704722
S1137A9048650020B65803001249DFF89836488438
S1137AA0197B01B9704780B50146186A002209F0B4
S1137AB056FB20B1BDE8044040F2B76138E501BD92
S1137AC0DFF86C164A79824200D1704710B58C7A7F
S1137AD04871012C05D0FFF735FD2046BDE8104064
S1137AE098E510BDB061002070540300846000204C
S1137AF010B50446FFF74FFF214609F04AFCDFF8B2
S1137B003006847110BD00004865002088600020A4
S1137B1038B504467F2C0CD100F025F8DFF8280690
S1137B20FFF722FFBDF800007E24C00558BFBDF852
S1137B300040FDF7C7FC0546FFF7EEF960B960B2F7
S1137B407E2805D1DFF8EC15896A09B191F90400A2
S1137B507E28B8BFFFF7E6F9DFF8D405047328469A
S1137B60FDF7B6FC31BD4FF6FF70ADF800000223FF
S1137B707047DFF8BC0590F90C007E2807D1DFF8C8
S1137B80B405806A08B97F20704790F904007047F3
S1137B9010B508F03BFC80041AD500F02BF808F06F
S1137BA035FCC0044CBF03200120002108F084FCF4
S1137BB008F02CFC00F0FF004FF47A7111FB00F187
S1137BC004F14800BDE81040DFF88025FFF77CB9D8
S1137BD0BDE8104010B500F00DF804F1480008F0BD
S1137BE008FBFFF7DEF920B9BDE81040002108F0DA
S1137BF063BC10BDDFF83C4504F1600008F0F9BA3D
S1137C0080B508F003FC4005BDE804404CBF0320E8
S1137C100120002108F02DBC10B5DFF8184594F9B7
S1137C20140003280DD100F02DF9DFF804154FF0EE
S1137C30FF3048620022216BBDE81040402008F06C
S1137C4069BF10BD38B50446FFF7C4FFDFF8E4543C
S1137C50FDF753FC686314B108F0E5FE01E0002071
S1137C606874BDE8314009F0E2B838B50446DFF87D
S1137C70C014DFF8C0544FF0FF304862FDF73DFCFC
S1137C80686395F91400012802DABDE831407FE702
S1137C90A87D08B1686BA86300F062FAA87B10B1F4
S1137CA00120E87331BD2046BDE8384000220021A0
S1137CB008F030BF10B508F040FCDFF8784498B104
S1137CC0FFF76FF980B104F1480008F092FA08F068
S1137CD01BFC002108F0F0FBDFF8742442F2107161
S1137CE004F16000FFF7F0F8A07C18B1BDE8104083
S1137CF000F055BA10BD0000A86100200702010081
S1137D009C8100000D0201002DE9F043DFF82444BA
S1137D100FF25849206A89B005AA022108F096FE9C
S1137D20050003D140F6E70100F0A9F89DF814001E
S1137D30DFF8FC63BDF8168007281CBF70790028A3
S1137D4019D1B8F1060F16DB08F108008B2812D2FE
S1137D50002000904346DFF8FC73206A3A46294627
S1137D6008F07CFE404503D04FF4106100F087F822
S1137D703878000602D5FFF70BFF7DE001208DF86F
S1137D800800CDF804806A46206A294608F062FE9D
S1137D9018B140F6171100F072F8787800F0070077
S1137DA002281ED1FFF716FF94F91400032808BF18
S1137DB0B8F1060F11D19DF80D0070B17878000963
S1137DC000F0010500F05EF84FF0FF3070622A46C3
S1137DD000218F2008F09EFE4EE0F07900284BD160
S1137DE005E09DF80D0010B10020FFF715FFF079B4
S1137DF09DF80D10084203D040F63F1100F03FF803
S1137E00F07958B17878800608D5307A30B1206A94
S1137E1008F0F9FB30B1FFF7BBFE03E0FFF7DAFE31
S1137E20002060743878401C404503D040F65F1150
S1137E3000F025F807EB080530792870FEF75CFBA5
S1137E4068709DF80E00A87095F90200FFF721FAFA
S1137E50E87008F10801FF202871C9B20098000CED
S1137E6068710098000AA8710098E8713846627C2D
S1137E7008F098FF0020607409B0BDE8F08348461C
S1137E80FDF790BB00202075206A08F087B90FF237
S1137E90E420FDF787BB00000440084010B5A44867
S1137EA0446A002C14D4FDF717FB001B40F2E9319F
S1137EB080B288420CD39F4890F91400032803D160
S1137EC0BDE810400020A7E6BDE810408920CCE6BC
S1137ED010BD00004C50084010B540B908F0A4FD96
S1137EE0FDF7F0FA0446FFF7D9FFFFF725BBBDE81D
S1137EF01040D3E738B58F4D0446287B60B120008D
S1137F0002D108F01AFB08B1402200E0002200234D
S1137F1040200021FFF730FCAC7431BD6C810000BF
S1137F200840084018600846186008442DE9F047E6
S1137F3081461446600688B0984648BF002002D4A3
S1137F40200602D50120FFF7B5FEA003794D25D503
S1137F50002068746946484609F037F9F0B99DF87D
S1137F60080002280ED1BDF8000009F015FAFF2818
S1137F700ED07949096831F810004FF4E6610842DF
S1137F8006D10BE0032809D1684609F078FA28B134
S1137F90286A09F017F908B901206874600410D53B
S1137FA008F0CBFA68B1FEF7FCFF50B108F0B9FA5B
S1137FB0064608F0A9FA864203D00021304608F0AC
S1137FC07BFA200744BF4846FFF79EFEE00548BF02
S1137FD0FFF7DEFD4FF41850044218BFFFF7FAFD17
S1137FE0E00244BF0120FFF72DFE600244BF0120E0
S1137FF0FFF728FEE00144BF0020FFF723FE95F9B8
S113800014000FF2681A012864DB286A484E210321
S11380104FF0FF3730D595F9141001295ADB95F943
S11380201410032956DA00218DF8181001218DF857
S1138030141003A908F0E7F903982863FDF75DFA23
S11380406863A87D08B1686BA86395F914000128DA
S113805004D002280AD1032028753BE000F080F800
S11380607762A87BA8B9296B002218E04FF401615C
S11380705046FDF797FA2DE014F0845F12D00021EA
S1138080297508F08BF8042008F0CFFC7762A87BF0
S113809010B10120E8731DE0002200218D2008F0BA
S11380A039FD17E0A00248BF892002D4A00103D5FE
S11380B08820FFF7DAFD0DE0600048BFFFF7A0FD60
S11380C0A00007D525480068400403D400210020FF
S11380D008F0CFF9A00744BF4846FFF79DFD002CE8
S11380E004D5FFF777FD4846FFF796FD08F0020137
S11380F00023994212D0484608F048F8022802D0DA
S1138100032802D005E0892000E08D20FFF7ADFDB3
S113811004E040F67B015046FDF744FA08F0040100
S11381200023994218BF09F08FFB08B0BDE8F0871F
S1138130B061002048650020406700600A00FA939F
S1138140B8580300C4770020BA580300D96E000061
S1138150DD6E000030780020E45F00200440084019
S113816000202875286A08F019B800007068792E74
S1138170630000006C69627261696C2E610000002A
S11381800000000001006003010101016400B60069
S11381906400C000000000000B00000000007047F5
S11381A0602080F31188704770B509F05BFCAA4C1D
S11381B020460AF02FF8D8B9204609F0E1FFFF283D
S11381C0044615D0A5490968085C851EE9B2204615
S11381D009F058FF0646E9B2204609F055FE21464B
S11381E0304600F0E6F82046BDE8704009F0ECBCEB
S11381F070BD03460A4697A10420FFE70CB480B57E
S113820002AA00F02BF801BC5DF80CFB00B587B0A6
S113821008F0F6FE00210591024630210491002366
S11382206221039101200021029101918C49009166
S11382300FF23C21FFF7E2FF8A488179C378827804
S113824003910188029141790191017900914220C1
S11382500FF22821FFF7D2FF07B000BD2DE9F04F40
S113826085B005460C46904609F0EDFF0026F8B9A6
S113827009F081FBE0B1012009F03BFC8246BAF130
S1138280FF0F15D0002109F02FFC294601A809F0A1
S113829078FB05469CB900F087F830B9504609F0E0
S11382A0D8FB10B1042009F0CAFF504609F08CFC39
S11382B005B0BDE8F08F8DF804200125641C2078FA
S11382C00100E8D0A0F130010A2905D20A2101FBFE
S11382D00600A0F13006F1E700F066F80028E4D1CA
S11382E022780025422A01A80ED0442A1AD0462A10
S11382F025D0572A0DD0622A3AD0662A2AD06C2A71
S113830025D0702A26D0D6E758F8040B8DF804003F
S1138310D3E758F8041B8DF8041002250904090E4C
S11383204170CBE758F8041B8DF804100A0A427018
S113833004250A0C8270080E8DF80700BEE758F871
S1138340041B504609F052FD0028B7D0ADE758F899
S1138350046BB3E7012358F8041B662A08BF022301
S1138360F2B2504609F021FD002808BF0026ECE7D0
S11383703A4858F8047B006810F80A90FFB2FF2FBF
S11383809CD010F807B00BEB0901C9B2504609F0B4
S11383907BFD002889D1CDF800B000233A46494638
S11383A0504609F0A4FE89E72A4601A9504609F07F
S11383B01BBD2DE9F043122885B080460D4609D037
S11383C03A281FD04FF6FE71884204BF2846FDF7B5
S11383D0F5F936E02148244F0068465D0BE0284655
S11383E009F07CFB01462246002007F01BF938689F
S11383F0455D203EF6B2FF2D23D0212EACBF2024B4
S11384003446ECE702F0D2FD8146FFF73DFB064619
S1138410FEF7C9FE0746FEF7C2FE0446FFF730FB2F
S113842002460F480FF25C010390CDF810902346EA
S11384300E48006840880290019600973B20FFF7A1
S1138440DDFE2946404605B0BDE8F04309F0FDBE17
S11384500000000057460000FC620020D05F0020AE
S1138460C477002040540300D85F002078770020B0
S113847042423870424242425742420042424242E1
S113848057420000574242575738704200000000DC
S11384902DE9F0410125012818BF202894B0044695
S11384A00F4690461E4623D10AA82949242208F0E3
S11384B0BDF868460AA9242208F0B8F81020012C57
S11384C018BF202CADF82400ADF8260008D0022CEB
S11384D018BF212C04D0032C1CBF222C232C14D114
S11384E0012E0197ADF80C8004D14FF4805005E0C3
S11384F001200BE0022E03D14FF44050ADF80A00E6
S11385006946204607F0B1F80546E8B214B0BDE864
S1138510F08107F04DB980B507F055F9C0B202BD3E
S113852007F0A6B980B507F0C7F9C0B202BD80B59F
S113853007F054FAC0B202BD0CB480B50A46014635
S113854002AB044809F0C3FE02BC00205DF80CFB3A
S1138550F03C030067F90000704707F087BA000099
S1138560890001EB401000F1844002607047000074
S113857010B50446FFF714FE4A484AF6E851016074
S1138580C162016B01F00F01022913D1464A012196
S11385901160806B00F00300012818BF022809D184
S11385A000221C214148FFF7DBFF00220021404844
S11385B0FFF7D6FF200A00283E4808BF24024FF2E6
S11385C00F0104804180BFF35F8FBFF34F8F3A48A0
S11385D03A4A016801F4E06111430160BFF34F8F2F
S11385E000BFFDE780B5002000F009F830B9BDE810
S11385F00440E3210FF2D800FCF7D4BF01BD2DE9FC
S1138600F0422F4C216842428D1815F01F0108D00A
S1138610002802D44842054403E04842284400F1BB
S113862020052848A5F12006A84224BF26488642F2
S113863003D3EFF30880854201D300202DE0FCF73B
S113864041FF81462148006810F0010718BF09F076
S113865088FF206801468D4206D2A84224BFCD215E
S113866000F80119F9D206E02038002201E000F8F0
S1138670012B8842FBD32560304609F079FFE220C4
S113868001E006F8010BAE42FBD30FB109F046FF3F
S11386904846FCF71DFF20682038BDE8F0820848F2
S11386A00068704708300E404040084060300E407B
S11386B074300E40000000200CED00E00400FA05C8
S11386C00063002068520020C010002094ED00E0F8
S11386D06D6963726F2D696E7465726E616C2E6361
S11386E0000000002DE9F74F03291C4603DB20009E
S11386F00AD0052904DA9349022002F03DFDAAE0DC
S113870042F004008DF8080002A8FDF755FB00991B
S11387109DF8080008700125200005D000984470D9
S1138720200A009988700325FDF717FB0099485526
S1138730691C009A0C9889B24D1C50544FF0000AE1
S1138740DDF8389007E0009B41465819FDF794FD89
S113875065190AF1010A0D985FFA8AFA10F80A708D
S113876038007AD00026742F4FF0000BB04637DA69
S11387704C2F59F8048B1CBF532F622F14D159F876
S1138780044B4C2F07D1A4B2A3464FF6FF70834588
S113879034D0022632E0532F30D15FFA84FBBBF190
S11387A0FF0F2BD0012629E06C2F04D1404603F0A3
S11387B090F9841C22E0732F04D1404603F084F91D
S11387C0441C1BE0A7F130000A2838BFA7F130048D
S11387D014D3A7F14100072821D2A7F137040DE0F3
S11387E00024752F08BF012606D0762F08BF022665
S11387F002D0782F0FD1032659F804BBA4B2224625
S1138800BDF8040012FA85F17118884214DA3B4667
S1138810B2184D491CE0772F08BF0426ECD03A4625
S11388204A49022002F0A8FC15E0009901F805B0BD
S11388306D1C4FEA1B2B761EF1B20029ADB2F4D1A8
S1138840002C86D0B8F1000F7FF47DAF3B46404941
S1138850022002F091FC002000E0A8B2BDE8FE8FE7
S113886010B53C4C20603C4801803C4802603C48C8
S1138870036010BD3EB500920C4606A90246029163
S1138880019300233448018832480068FFF72AFF27
S113889005463248006805804FF48A513048006824
S11388A04480C180801DFDF76FFA28463EBD034613
S11388B0284802682948006801882948006803F0AC
S11388C02ABD0020F3E700910293019221490B682D
S11388D0224909680A8822490968704700B583B0AB
S11388E001921C4A126800921C4A126813881C4A9E
S11388F0126803F0E4FC0EBD0022EFE780B500919E
S1138900FFF7E4FF03F0C5FC02BD0021F6E71FB545
S1138910104C24680394114C246824880294069C07
S113892001940F4C24686488009403F028FD04B07B
S113893010BD0B4800687047094A13681871106825
S113894041717047F40F0300381003001C1003003A
S11389506C1003008C6700208E7A00209067002042
S11389609467002080B500F095F8BDE8014096E0DA
S1138970FEB5044602F0BEFA0646204602F0C8FAE6
S113898000229DF80010064203D186F0010318432B
S113899001D10198027820464FF6FF7506B32128CD
S11389A01EDA4223022A424E09DA5A43324432F88A
S11389B01030AB4214D05B1C22F8103010E00FD101
S11389C0002206EB400703FB02FC37F80CE0AE453F
S11389D01CBF0EF1010E27F80CE0521C022AF2DB38
S11389E0344F354B37F8102033F810C09445B64156
S11389F0F643F60FAC451CBF0CF1010C23F810C074
S1138A000928B7F814C018BF0B2807D19F8A01EBB7
S1138A10070EE64510DAC91999820FE01D280DD119
S1138A20B3F83AE07F8F8E44BE4505DA33F8107010
S1138A30C91923F8101001E0A3F814C033F810008A
S1138A40904203D316B92046FCF7FFFE00261B48CC
S1138A50815DA14204D0761CF6B2112EF8DBF7BD7D
S1138A60112E16DAFDF73BFD0446154800788442C2
S1138A7003DBCE211348FCF795FD2221124811FB9C
S1138A8004F1084430F81610A9421CBF491C20F810
S1138A901610F7BD502200210748FDF730BC5022C4
S1138AA0FF210448FDF72BBC024A22F8101070473E
S1138AB04C6A0020D869002088690020A0170300B0
S1138AC0C563002090170300286A002015E02F4892
S1138AD00078704710B52E4C207860B900F00DF87E
S1138AE009F0A2FD0121217028B10188B1F5817F2F
S1138AF024BF007D2070207810BD10B5234C207851
S1138B0040BB09F066FD02462249012002F034FB15
S1138B1001202070204C2078FF281BD109F084FD0F
S1138B20B8B140880006400E00F001002070102209
S1138B30FF211A48FDF7E3FB207801280AD1FFF74B
S1138B40C9FF032806DBBDE81040B6211448FCF732
S1138B5029BD207010BD80B5FFF7CFFFBDE80140EF
S1138B6009F062BD70B504460D461646FFF7C5FF11
S1138B70324629462046BDE8704009F0A5BD80B5BF
S1138B80FFF7BBFFBDE8014009F0C3BD967E00209E
S1138B90977E0020F8240300BD630020986C002019
S1138BA0EC24030038B5FFF7FBFA09F0D6FD78B1E1
S1138BB0FCF752FE60B1094C2078FBF778FF0546BC
S1138BC02078FBF7B3FF3DB1BDE83140FCF743BE6D
S1138BD0BDE83140FCF7E9BD31BD00008A7E0020CC
S1138BE07047000000B5A1B080787D22694605F089
S1138BF0D6FB01001CBF694603F087F821B000BD15
S1138C0038B50A460146104609F061F80446FF2CBF
S1138C1001D1182032BD05F06DF90546204608F053
S1138C20D3FF284632BD80B502F072FFBDE8024092
S1138C30012010B5040014BF0848002009F033FED9
S1138C4050B1002CBDE8104014BF054A054A034644
S1138C500549042002F090BA10BD0000242A030044
S1138C600C2A0300182A0300E029030080B500F051
S1138C7021FDF0B1DFF85019042002F07DFADFF88D
S1138C804C090AF064F90B200AF0AFFCDFF8940AEF
S1138C9000680078012808BF02200AF004F90320C4
S1138CA002F0F6F900F0DAF8BDE8024002200AF01A
S1138CB0E1BC01BD80B500200AF0B5FCBDE801406F
S1138CC0D4E7F0B5044683B00E46E0894CF25E0169
S1138CD0884204BF208AB0F5805F154601D0002089
S1138CE0FEBD2078002854D1207D800751D5072E61
S1138CF04FDB2878AF7840B1112802D1032F04D17B
S1138D0047E0192808BF032F43D1324603212846E0
S1138D1002F0B3FE022F06D0032F0CD0062F1CD076
S1138D20072F2DD035E0082E33DBEA790146601C8D
S1138D3000F0E4FB2DE00A2EA1BF697A0A010A3291
S1138D40964226DB05F10A02019200912B7AEA7918
S1138D500146601C00F03CFC1BE0092E19DB324686
S1138D600721284602F08BFE04460AF059FC02282B
S1138D7002D100F09FFC60B12046FCF77DFD08E0C5
S1138D8000F09AF8012804D000F094FC08B900F02F
S1138D9084F90120FEBD5EB5DFF88C69DFF88C191B
S1138DA03388044600F02FF830888F2108421DD004
S1138DB0902C02D1BDE8574029E005F0E7F90128DD
S1138DC020D000F0AAFDE8B93088DFF86439DFF874
S1138DD06429DFF8641902900194DFF860090090B7
S1138DE000F02BF9BDE85E40022029E1800504D59E
S1138DF0912C07D1BDE8574063E12046BDE85E40B1
S1138E000AF009BD57BD2246012002F0B5B910B5DC
S1138E10DFF81419DFF82849002088B0088001A978
S1138E20684605F063FB9DF80F00A0700822BDF8AA
S1138E300C00208001A9201DFDF71EFA9DF81400E6
S1138E406073DFF80009017808000CBF0022DFF826
S1138E50F82820460AF0D3FD08B010BD70B590B0D4
S1138E6005A8DFF8E818282207F0E0FB05F08EF9E2
S1138E7008B100201EE001A802F0F5F80400DFF8B4
S1138E80D058DFF8B06804D000943246DFF8C43814
S1138E900CE005A8FCF7F1FC05A901A809F0D0FF36
S1138EA0040006D000943246DFF8AC38294600F0BE
S1138EB0C4F8204610B070BD80B5684605F020FBAC
S1138EC093280AD1DFF85C08006800788DF8000068
S1138ED0012804BF02208DF800009DF8000002BDA7
S1138EE070B58CB004460D4616462C22002101A80C
S1138EF0FDF705FA8DF80640ADF8046002A80AF003
S1138F0052FC8220ADF82A00FFF7D6FF8DF82C0022
S1138F10FFF7A4FF294601A809F098FE04469DF82E
S1138F202C00DFF83828DFF8381800902346012099
S1138F3002F022F920460CB070BDF0B5DFF8E85716
S1138F40DFF820182B88DFF8EC67044685B0FFF7BC
S1138F505AFF287870278F21084206D03246DFF85E
S1138F600818042002F008F92EE0FFF777FF68469E
S1138F700AF019FB009840F08000009068460AF05F
S1138F801CFB0AF03DFBDFF8E4170870FFF794FFC1
S1138F90DFF8DC170B68DFF8DC17096801B10B4355
S1138FA002460021184609F082FF070008BF2C8002
S1138FB00AD0DFF8C407DFF87837DFF8C01700906D
S1138FC00197324600F039F8384605B0F0BD01206B
S1138FD0B3E70220B1E70420AFE70820ADE70220A1
S1138FE00AF021BB01200AF01EBB00200AF01BBBC3
S1138FF010B5DFF8344720788F21084282B018D0AA
S1139000DFF87C07DFF82837DFF82827DFF8741744
S1139010009000F012F82088410603D5BDE8164000
S113902000200DE040F020002080BDE813400AF04D
S1139030E6BD13BD00902A464146042002F09CB8C8
S1139040DFF8E41610B504460020088082B0DFF88B
S11390503807017869B100210170DFF8E40690F85F
S1139060290001281CBF002009F071FF002000F036
S113907022FADFF8F806007801F041FE40B10090D2
S1139080DFF80837DFF8AC26DFF80417FFF7D5FF61
S11390902046BDE816400AF0C0BC80B5DFF888065B
S11390A0018841F4007101800BF075F840B102466B
S11390B0DFF8E016042002F05FF8BDE8014000E0AC
S11390C001BD80B5FF20FCF7DCF8FF20FCF78EFB28
S11390D0FF20FCF78EFBFFF7C9FDFCF7D1FBDFF89F
S11390E048160020088001BD70B504468EB094F87F
S11390F0280030B90022DFF8A016012002F03CF865
S11391004CE001A805F0FCF9054604A80BF0C0FAF0
S1139110DFF814663088BDF810309DF80420DFF8BD
S11391207C160090012002F027F8308809210842BB
S11391301FBF02A90022C1E90022932D15D00822E5
S11391400DF11200FDF7E2F850B307A9684605F0E7
S1139150CDF928B90822211D07A8FDF7D7F8F8B1E1
S1139160DFF83C1600F06DF818E0C00718D5932D11
S113917016D1FFF7A1FE02281CBF94F8280002288C
S11391800ED0DFF8201600F05CF8FFF795FE94F897
S11391902830DFF814160246FFF736FE002000E000
S11391A001200EB070BD2DE9F041DFF87C55064674
S11391B082B0288800900C4696F82830B278DFF800
S11391C0F015012001F0D8FF28788F21084236D00D
S11391D03046FFF789FF70B368460CF0E2F8287850
S11391E0DFF85C85DFF8C475C00609D597F900304F
S11391F09DF900104246304600F066FA01281EDB55
S11392002C2231464046FDF737F8DFF83865002058
S1139210307044B110222146DFF82C05FDF72CF8FC
S11392203078401C30709DF800003870288840F079
S11392301000288003E0DFF87C1500F002F8BDE898
S1139240F381012001F098BF2DE9F043DFF8D84401
S113925021888F22114283B071D041F04001020075
S11392602180DFF8D054DFF8C86408D0009033467A
S11392702A46DFF81C15FFF7E0FE04205CE08806B0
S113928005D5DFF83415FFF7DCFF002054E0C806ED
S113929048D5DFF8AC74DFF8E484B8780AF0A5F9AF
S11392A038B101903346DFF81405FFF7C3FE0120FF
S11392B042E02078032108421CBF97F829000128C6
S11392C040F6B83915D0DFF8F814FFF7BAFF48466E
S11392D009F03DFE002000F0D5F850B1019033466E
S11392E0DFF8E004FFF7A6FE2078800748BF0620D9
S11392F022D4DFF8D404008800F0DDF850B10190E6
S11393003346DFF8C804FFF795FE2078400748BFCE
S1139310072011D4494603B0BDE8F043DFF86804E0
S1139320FBF714BBDFF8A804DFF8581400903346A9
S11393302A46FFF782FE0320BDE8FE4380E603B021
S1139340BDE8F043DFF88C14012001F015BF10B51F
S11393500446DFF80824DFF88014012001F00CFF34
S11393602046BDE810406FE710B50446DFF8B803A7
S113937000788F21084209D02288DFF86014012088
S113938001F0FAFE2088DFF8B813888410BD80B598
S113939001462C22DFF8A803FCF76EFFDFF8A413C4
S11393A0002008708020DFF88013088001BD2DE9BB
S11393B0FC41DFF8D413DFF870430020087001206B
S11393C02288DFF81C1401F0D7FE20788F21084290
S11393D056D0002000F06FF82088DFF8A043D54D68
S11393E0DFF84C83D64FDFF88463C10718D500F04B
S11393F061F908B93078B870FFF730FD384609F0E4
S113940076FC07003CD0BA2808D001904346DFF828
S1139410D40300902A462146FFF70FFE052026E0DC
S1139420000727D53869009065A3072200F03EF8AD
S11394304CF25E0000904FF6FF72002307F11C010E
S11394401046FFF764FA070006D000972A46DFF8B3
S11394509833BF49FFF7F1FD67B1DFF8900300903F
S1139460019743462A462146FFF7E7FD0820BDE859
S1139470F641E5E5307801F042FCBDE8F341C6E48D
S1139480BDE8F3811CB5AE4C01904EA32069009059
S1139490022200F00BF800F022F8040004D000943B
S11394A00420D34B00F026F8204616BD4FF480511B
S11394B01120FFF7DFB91CB5A14C019097A32069D7
S11394C000900622FFF7F2FF00F009F8040004D030
S11394D000940420C74B00F00DF8204616BD4CF252
S11394E05E0000904FF6FF72002304F11C01104649
S11394F0FFF70DBA8F4A964901F03EBE2DE9F04FB1
S113950085B080460F461546FBF775FB0646029567
S11395100196009782A303224FF480511920FFF78C
S1139520A9F903A804F0DEFFB349B4480988084444
S113953000904CF25E07002002F04FFA1DE0082173
S113954003A802F06BFA504602F047FA584602F0BC
S113955053FAA08802F050FA484602F03EFA504608
S1139560FCF788F902F039FA284602F036FA009836
S113957000990078401C08706D1CEDB2B542BEBF66
S113958000990978042911DA9D4901EB051428464C
S113959094F80690FBF71EFE8246694890F8260070
S11395A000064CBFB4F802B0BB46C8E74FF6FF72E2
S11395B00097002341461046FFF7A9F977E0000021
S11395C07700000077750000244E0300E093040048
S11395D02DE9FC4F83B000269DF838201201ADF828
S11395E00020694A12786AB1554B1A698A4209D136
S11395F00146082203F11C00FCF788FE441EA44126
S1139600E40F00E0002400253DE00F980F99BDF819
S11396100020B6B23044019006F1080080B2461C26
S11396200F5C0F98B1B202F02AFA8046B61CBDF85E
S113963000200F98B1B202F022FA8146B01C0F99B3
S113964080B211F800A0401C80B2861C11F800B052
S1139650C4B13C480078A8B901993B480822FCF7FA
S11396600BFE38483849007801EB00110F72A1F85D
S11396700A80A1F80C9081F80EA081F80FB0401C6C
S1139680304908706D1CE8B29DF838108842BCD38C
S11396906CB12C48007850B99DF80C0038B19DF895
S11396A0100005B0BDE8F04F0818C0B2EAE605B0F6
S11396B0BDE8F08F00B585B0684609F074FF0098E6
S11396C000F0010005B000BDF0B500F1260583B03F
S11396D0287802F12607800638780C461E4602D503
S11396E0800602D415E080060ED4787901900096A5
S11396F022466B794349022001F03EFD787969796D
S113970030186118814202DA4FF0FF30FEBD884202
S113971001DA0120FEBD0020FEBD000077760000C6
S113972077757500CC7300207A7E0020584E0300B4
S1139730AC4E0300A44E0300844E0300C44E030049
S11397401C770020D77E002048770020D44E0300E9
S1139750FC4E0300104F0300284F0300285403005D
S1139760404F0300784F0300A04F0300D87E002031
S11397707461002078610020C84F0300BC4F0300CF
S1139780E84F0300E04F0300147700200C5003005F
S11397900050030028500300585003009850030061
S11397A0D45003001451030054510300D97E002007
S11397B074510300B0510300E05103001052030040
S11397C02C52030060520300A06300208C5203005B
S11397D0B0520300C8520300F85203000C530300B4
S11397E03C53030060530300C45303007C53030041
S11397F094530300B05303006E7E0020787300205E
S113980078660020E4530300DFF8182C12681278FD
S113981082420AD019B1012A03D1022805D00020BE
S11398207047022A08BF0128F9D101207047DFF8E8
S1139830F81B8875704710B5DFF8E84B2068407B4B
S1139840112805D040F207110FF20C00FBF7AAFE15
S113985021684120487310BD6173736F636961743B
S1139860696F6E2E6300000080B50220FCF73DFE98
S1139870FCF744FE00F0E6FB042805D1DFF8A80B52
S1139880417D491D417505E04FF47A71DFF89C0B69
S1139890FBF75CF8BDE80140FCF731BE10B5DFF81A
S11398A0884B0020E0742078FF2803D008F08CF95E
S11398B0FF20207010BD70B582B004460D4608F03C
S11398C00DF90646B01D0BF093FD00F44040B0F5D1
S11398D0404F0CBF062000203118097C4A0049087B
S11398E002F00E0201F038018918401800F1110647
S11398F0DFF8FC0B0068005DF6B286420BDA831BCE
S1139900DBB20F2BA8BF0F23002000903246214664
S1139910284608F0F8F9304676BDDFF8080B0068F1
S1139920407B33281CBF4328532801D101207047B2
S1139930002070471FB501200BF088FD0BF08BFD54
S11399400BF0A4FFF0B1DFF8E04AA07910B104F104
S11399500A0005E020786946FFF7ADFF0DF103002A
S1139960DFF8C82A00211170617901F01DF9FFF7B1
S113997095FF00F008F80DF0E2FD0BF0BDFD0120AD
S113998001F03FFA1FBD10B500F0C0FD017B0329B3
S113999018BF042905D1408801F00AFA08BF032042
S11399A008D001F0C3FA044601F0C4FA214603F0DA
S11399B0D4F9022001F0C6FA0DF006FF00F09AFD7A
S11399C0BDE810400DF0E7BD38B5DFF85C4ADFF8BC
S11399D0545AA075FFF762FF00214FF6FF7001F0A3
S11399E0D9F92868417B032918BF00291ED03329DF
S11399F018BF432914D101F07CF92868017B03299D
S1139A0018BF042906D103214173A07DBDE832406B
S1139A10FCF7CEBDA07DFCF7CBFDBDE83140B2E73D
S1139A2021214173BDE831400AF00EBC31BD10B5AF
S1139A30DFF8F019DFF8F0490968002048734FF6A1
S1139A40FE700EF0C3F94FF6FF700EF0C7F901F087
S1139A5050F9A07DBDE81040FCF7AABD10B504463E
S1139A602346182201F047F9DFF8AC0A00210171FE
S1139A7014B1FF2C02D10121017007E0012100F88B
S1139A80041BA100491C0902FAF760FF00F032FD33
S1139A90002010BDDFF8801A00200871DEE730B521
S1139AA00D4689B0044668690FF290110790234669
S1139AB0287C06901622E8890590287B0490E87A91
S1139AC0039095F90A00029028890190009501F00D
S1139AD000F8287B00280CBF4FF6FE700EF072F9D8
S1139AE02B46224609B0BDE83040014601202DE94D
S1139AF0F041DFF8304980462068407B00280F465B
S1139B0016461D4649D1300047D0052E45DA00F0EF
S1139B109BF842D1FCF7F4FC00283ED1FCF7F2FCA0
S1139B2008B1042E39DB287B032816D14FF6FE70CA
S1139B30874214D1012E08BF002710D0022E2CD149
S1139B400EF040F94FF6FC71884202DA0EF03AF951
S1139B5001E00EF0FCF9074601E0012E1DD0B8F13A
S1139B60000F0CD0287B03280CBF01210021012EFB
S1139B700CBF012000200AF0AAFD01005CD1294697
S1139B80384600F0D1FF010056D1FCF7B3FCFCF7D6
S1139B9098FC20B1FCF7B6FC08B170204CE02068BA
S1139BA0DFF88478407B33281EBF53280020F875E3
S1139BB0304600F091FF387F20B1FCF7A3FC08B9D0
S1139BC00EF057FB287B032803D12846BDE8F0415B
S1139BD03FE00822294607F10A00FCF74DFB287BE9
S1139BE00328A8BF0020B874FFF758FE9420B87566
S1139BF0B87C216800280CBF012031204873012360
S1139C00002038752068817B4809020003D1BA7F9F
S1139C1003FA01F108E001F01F0140F0180003FA13
S1139C2001F1052241EAC061052009F040FF01006D
S1139C3002D0226800215173BDE8F081424238709D
S1139C405742424257424400DFF85C0C00780B282C
S1139C50704710B504460022082101F0F5F908B157
S1139C60012010BD0EF0AEF800224FF6FF7100F097
S1139C7081FF217C204600F097FF6269E189207C06
S1139C800DF0D5FDDFF89C070068007B012808BFB4
S1139C900BF0A7FAFFF777FE002010BD38B5DFF808
S1139CA0844701462068407B002802BFDFF8F80B98
S1139CB000780B2801D0702032BDDFF8705721B135
S1139CC0022205F10800FCF7D7FA684601F039F8DA
S1139CD008B1932032BD9DF80030142201F00BF836
S1139CE000F0ACFF010050D19DF8000000F0F4FE3C
S1139CF02068007B012818BF022807D0032818BF5A
S1139D00042825D1002001F057F808B300F0ADFF76
S1139D102068007B032814BF04280EF02FFBFFF7F4
S1139D2032FE01200EF050FB01002ED12068007B92
S1139D30032818BF042827D1287A800724D50522B0
S1139D40DFF8D017012000F034F801001CD032BD38
S1139D502168132048730020DFF8CC16087501220F
S1139D602068817B4809030008BF02FA01F107D08B
S1139D7001F01F0140F0180002FA01F141EAC0614C
S1139D800522072009F093FE002032BDFF2210E0D7
S1139D9038B504461046032818BF04280D4601D0E0
S1139DA0022032BD00F098FE29462046BDE834402A
S1139DB0ECE72DE9FC41804600F0A8FB0D46017B51
S1139DC00129164627D0407B022818BF032822D138
S1139DD0332001F0B7F82806DFF84C76400F14BFA3
S1139DE00522BA7F2946052009F061FE044698B988
S1139DF0FFF754FD0DF0EEFF38815FEA080014BF51
S1139E0002200120B87407F10A0000F0B2FF00201C
S1139E103875FE7500E070240194009543462C22A9
S1139E200FF20C0100F055FE2046BDE8F68100005B
